$ tcpdump -nXXr pcap/ajaxapp.pcap
reading from file pcap/ajaxapp.pcap, link-type EN10MB (Ethernet)
13:34:13.037491 IP 49.207.211.143.51726 > 172.105.253.239.8000: Flags [S], seq 3580073295, win 65535, options [mss 1452,nop,wscale 6,nop,nop,TS val 873179678 ecr 0,sackOK,eol], length 0
	0x0000:  f23c 924d a00a 5250 d97c d857 0800 4500  .<.M..RP.|.W..E.
	0x0010:  0040 0000 4000 3606 9500 31cf d38f ac69  .@..@.6...1....i
	0x0020:  fdef ca0e 1f40 d563 954f 0000 0000 b002  .....@.c.O......
	0x0030:  ffff 5520 0000 0204 05ac 0103 0306 0101  ..U.............
	0x0040:  080a 340b aa1e 0000 0000 0402 0000       ..4...........
13:34:13.037524 IP 172.105.253.239.8000 > 49.207.211.143.51726: Flags [S.], seq 1796426766, ack 3580073296, win 65160, options [mss 1460,sackOK,TS val 51556390 ecr 873179678,nop,wscale 7], length 0
	0x0000:  0000 5e00 beef f23c 924d a00a 0800 4500  ..^....<.M....E.
	0x0010:  003c 0000 4000 4006 8b04 ac69 fdef 31cf  .<..@.@....i..1.
	0x0020:  d38f 1f40 ca0e 6b13 4c0e d563 9550 a012  ...@..k.L..c.P..
	0x0030:  fe88 afe6 0000 0204 05b4 0402 080a 0312  ................
	0x0040:  b026 340b aa1e 0103 0307                 .&4.......
13:34:13.065593 IP 49.207.211.143.51726 > 172.105.253.239.8000: Flags [.], ack 1, win 2070, options [nop,nop,TS val 873179706 ecr 51556390], length 0
	0x0000:  f23c 924d a00a 5250 d97c d857 0800 4500  .<.M..RP.|.W..E.
	0x0010:  0034 0000 4000 3606 950c 31cf d38f ac69  .4..@.6...1....i
	0x0020:  fdef ca0e 1f40 d563 9550 6b13 4c0f 8010  .....@.c.Pk.L...
	0x0030:  0816 224b 0000 0101 080a 340b aa3a 0312  .."K......4..:..
	0x0040:  b026                                     .&
13:34:13.068220 IP 49.207.211.143.51726 > 172.105.253.239.8000: Flags [P.], seq 1:346, ack 1, win 2070, options [nop,nop,TS val 873179706 ecr 51556390], length 345
	0x0000:  f23c 924d a00a 5250 d97c d857 0800 4500  .<.M..RP.|.W..E.
	0x0010:  018d 0000 4000 3606 93b3 31cf d38f ac69  ....@.6...1....i
	0x0020:  fdef ca0e 1f40 d563 9550 6b13 4c0f 8018  .....@.c.Pk.L...
	0x0030:  0816 a4eb 0000 0101 080a 340b aa3a 0312  ..........4..:..
	0x0040:  b026 4745 5420 2f20 4854 5450 2f31 2e31  .&GET./.HTTP/1.1
	0x0050:  0d0a 486f 7374 3a20 3137 322e 3130 352e  ..Host:.172.105.
	0x0060:  3235 332e 3233 393a 3830 3030 0d0a 5573  253.239:8000..Us
	0x0070:  6572 2d41 6765 6e74 3a20 4d6f 7a69 6c6c  er-Agent:.Mozill
	0x0080:  612f 352e 3020 284d 6163 696e 746f 7368  a/5.0.(Macintosh
	0x0090:  3b20 496e 7465 6c20 4d61 6320 4f53 2058  ;.Intel.Mac.OS.X
	0x00a0:  2031 302e 3135 3b20 7276 3a38 392e 3029  .10.15;.rv:89.0)
	0x00b0:  2047 6563 6b6f 2f32 3031 3030 3130 3120  .Gecko/20100101.
	0x00c0:  4669 7265 666f 782f 3839 2e30 0d0a 4163  Firefox/89.0..Ac
	0x00d0:  6365 7074 3a20 7465 7874 2f68 746d 6c2c  cept:.text/html,
	0x00e0:  6170 706c 6963 6174 696f 6e2f 7868 746d  application/xhtm
	0x00f0:  6c2b 786d 6c2c 6170 706c 6963 6174 696f  l+xml,applicatio
	0x0100:  6e2f 786d 6c3b 713d 302e 392c 696d 6167  n/xml;q=0.9,imag
	0x0110:  652f 7765 6270 2c2a 2f2a 3b71 3d30 2e38  e/webp,*/*;q=0.8
	0x0120:  0d0a 4163 6365 7074 2d4c 616e 6775 6167  ..Accept-Languag
	0x0130:  653a 2065 6e2d 5553 2c65 6e3b 713d 302e  e:.en-US,en;q=0.
	0x0140:  350d 0a41 6363 6570 742d 456e 636f 6469  5..Accept-Encodi
	0x0150:  6e67 3a20 677a 6970 2c20 6465 666c 6174  ng:.gzip,.deflat
	0x0160:  650d 0a43 6f6e 6e65 6374 696f 6e3a 206b  e..Connection:.k
	0x0170:  6565 702d 616c 6976 650d 0a55 7067 7261  eep-alive..Upgra
	0x0180:  6465 2d49 6e73 6563 7572 652d 5265 7175  de-Insecure-Requ
	0x0190:  6573 7473 3a20 310d 0a0d 0a              ests:.1....
13:34:13.068247 IP 172.105.253.239.8000 > 49.207.211.143.51726: Flags [.], ack 346, win 507, options [nop,nop,TS val 51556421 ecr 873179706], length 0
	0x0000:  0000 5e00 beef f23c 924d a00a 0800 4500  ..^....<.M....E.
	0x0010:  0034 218f 4000 4006 697d ac69 fdef 31cf  .4!.@.@.i}.i..1.
	0x0020:  d38f 1f40 ca0e 6b13 4c0f d563 96a9 8010  ...@..k.L..c....
	0x0030:  01fb afde 0000 0101 080a 0312 b045 340b  .............E4.
	0x0040:  aa3a                                     .:
13:34:13.073023 IP 172.105.253.239.8000 > 49.207.211.143.51726: Flags [P.], seq 1:118, ack 346, win 507, options [nop,nop,TS val 51556426 ecr 873179706], length 117
	0x0000:  0000 5e00 beef f23c 924d a00a 0800 4500  ..^....<.M....E.
	0x0010:  00a9 2190 4000 4006 6907 ac69 fdef 31cf  ..!.@.@.i..i..1.
	0x0020:  d38f 1f40 ca0e 6b13 4c0f d563 96a9 8018  ...@..k.L..c....
	0x0030:  01fb b053 0000 0101 080a 0312 b04a 340b  ...S.........J4.
	0x0040:  aa3a 4854 5450 2f31 2e31 2032 3030 204f  .:HTTP/1.1.200.O
	0x0050:  4b0d 0a43 6f6e 7465 6e74 2d54 7970 653a  K..Content-Type:
	0x0060:  2074 6578 742f 6874 6d6c 3b20 6368 6172  .text/html;.char
	0x0070:  7365 743d 7574 662d 380d 0a43 6f6e 7465  set=utf-8..Conte
	0x0080:  6e74 2d4c 656e 6774 683a 2038 3037 0d0a  nt-Length:.807..
	0x0090:  4461 7465 3a20 5468 752c 2031 3020 4a75  Date:.Thu,.10.Ju
	0x00a0:  6e20 3230 3231 2030 383a 3034 3a31 3320  n.2021.08:04:13.
	0x00b0:  474d 540d 0a0d 0a                        GMT....
13:34:13.100928 IP 49.207.211.143.51726 > 172.105.253.239.8000: Flags [.], ack 118, win 2068, options [nop,nop,TS val 873179740 ecr 51556426], length 0
	0x0000:  f23c 924d a00a 5250 d97c d857 0800 4500  .<.M..RP.|.W..E.
	0x0010:  0034 0000 4000 3606 950c 31cf d38f ac69  .4..@.6...1....i
	0x0020:  fdef ca0e 1f40 d563 96a9 6b13 4c84 8010  .....@.c..k.L...
	0x0030:  0814 2039 0000 0101 080a 340b aa5c 0312  ...9......4..\..
	0x0040:  b04a                                     .J
13:34:13.100944 IP 172.105.253.239.8000 > 49.207.211.143.51726: Flags [P.], seq 118:925, ack 346, win 507, options [nop,nop,TS val 51556454 ecr 873179740], length 807
	0x0000:  0000 5e00 beef f23c 924d a00a 0800 4500  ..^....<.M....E.
	0x0010:  035b 2191 4000 4006 6654 ac69 fdef 31cf  .[!.@.@.fT.i..1.
	0x0020:  d38f 1f40 ca0e 6b13 4c84 d563 96a9 8018  ...@..k.L..c....
	0x0030:  01fb b305 0000 0101 080a 0312 b066 340b  .............f4.
	0x0040:  aa5c 3c21 444f 4354 5950 4520 6874 6d6c  .\<!DOCTYPE.html
	0x0050:  3e0a 3c68 746d 6c20 6c61 6e67 3d22 656e  >.<html.lang="en
	0x0060:  223e 0a3c 6865 6164 3e0a 3c74 6974 6c65  ">.<head>.<title
	0x0070:  3e53 6572 7665 7220 5469 6d65 2028 416a  >Server.Time.(Aj
	0x0080:  6178 293c 2f74 6974 6c65 3e0a 3c73 7479  ax)</title>.<sty
	0x0090:  6c65 3e0a 626f 6479 207b 6261 636b 6772  le>.body.{backgr
	0x00a0:  6f75 6e64 3a20 6265 6967 653b 2066 6f6e  ound:.beige;.fon
	0x00b0:  742d 7369 7a65 3a20 3265 6d3b 2074 6578  t-size:.2em;.tex
	0x00c0:  742d 616c 6967 6e3a 2063 656e 7465 727d  t-align:.center}
	0x00d0:  0a62 7574 746f 6e20 7b66 6f6e 742d 7369  .button.{font-si
	0x00e0:  7a65 3a20 302e 3735 656d 7d0a 7469 6d65  ze:.0.75em}.time
	0x00f0:  207b 636f 6c6f 723a 2067 7265 656e 7d0a  .{color:.green}.
	0x0100:  3c2f 7374 796c 653e 0a3c 2f68 6561 643e  </style>.</head>
	0x0110:  0a3c 626f 6479 3e0a 3c70 3e53 6572 7665  .<body>.<p>Serve
	0x0120:  7220 7469 6d65 3a20 3c74 696d 6520 6964  r.time:.<time.id
	0x0130:  3d22 7469 6d65 223e 3038 3a30 343a 3133  ="time">08:04:13
	0x0140:  3c2f 7469 6d65 3e3c 2f70 3e0a 3c62 7574  </time></p>.<but
	0x0150:  746f 6e20 6964 3d22 6275 7474 6f6e 223e  ton.id="button">
	0x0160:  5265 6672 6573 6820 7669 6120 416a 6178  Refresh.via.Ajax
	0x0170:  3c2f 6275 7474 6f6e 3e0a 3c73 6372 6970  </button>.<scrip
	0x0180:  743e 0a63 6f6e 7374 2062 7574 746f 6e20  t>.const.button.
	0x0190:  3d20 646f 6375 6d65 6e74 2e67 6574 456c  =.document.getEl
	0x01a0:  656d 656e 7442 7949 6428 2762 7574 746f  ementById('butto
	0x01b0:  6e27 290a 636f 6e73 7420 7469 6d65 203d  n').const.time.=
	0x01c0:  2064 6f63 756d 656e 742e 6765 7445 6c65  .document.getEle
	0x01d0:  6d65 6e74 4279 4964 2827 7469 6d65 2729  mentById('time')
	0x01e0:  0a62 7574 746f 6e2e 6f6e 636c 6963 6b20  .button.onclick.
	0x01f0:  3d20 6675 6e63 7469 6f6e 2028 2920 7b0a  =.function.().{.
	0x0200:  2020 636f 6e73 7420 7868 7220 3d20 6e65  ..const.xhr.=.ne
	0x0210:  7720 584d 4c48 7474 7052 6571 7565 7374  w.XMLHttpRequest
	0x0220:  2829 0a20 2078 6872 2e6f 7065 6e28 2747  ()...xhr.open('G
	0x0230:  4554 272c 2027 2f74 696d 6527 290a 2020  ET',.'/time')...
	0x0240:  7868 722e 7265 7370 6f6e 7365 5479 7065  xhr.responseType
	0x0250:  203d 2027 6a73 6f6e 270a 2020 7868 722e  .=.'json'...xhr.
	0x0260:  6f6e 6c6f 6164 203d 2066 756e 6374 696f  onload.=.functio
	0x0270:  6e20 2829 207b 0a20 2020 2069 6620 2878  n.().{.....if.(x
	0x0280:  6872 2e73 7461 7475 7320 3d3d 3d20 3230  hr.status.===.20
	0x0290:  3029 207b 0a20 2020 2020 2074 696d 652e  0).{.......time.
	0x02a0:  696e 6e65 7248 544d 4c20 3d20 7868 722e  innerHTML.=.xhr.
	0x02b0:  7265 7370 6f6e 7365 2e74 696d 650a 2020  response.time...
	0x02c0:  2020 7d20 656c 7365 207b 0a20 2020 2020  ..}.else.{......
	0x02d0:  2074 696d 652e 696e 6e65 7248 544d 4c20  .time.innerHTML.
	0x02e0:  3d20 275b 6c6f 6164 2065 7272 6f72 5d27  =.'[load.error]'
	0x02f0:  0a20 2020 207d 0a20 207d 0a20 2078 6872  .....}...}...xhr
	0x0300:  2e6f 6e65 7272 6f72 203d 2066 756e 6374  .onerror.=.funct
	0x0310:  696f 6e20 2829 207b 0a20 2020 2074 696d  ion.().{.....tim
	0x0320:  652e 696e 6e65 7248 544d 4c20 3d20 275b  e.innerHTML.=.'[
	0x0330:  7868 7220 6572 726f 725d 270a 2020 7d0a  xhr.error]'...}.
	0x0340:  2020 7868 722e 7365 6e64 2829 0a7d 0a3c  ..xhr.send().}.<
	0x0350:  2f73 6372 6970 743e 0a3c 2f62 6f64 793e  /script>.</body>
	0x0360:  0a3c 2f68 746d 6c3e 0a                   .</html>.
13:34:13.131629 IP 49.207.211.143.51726 > 172.105.253.239.8000: Flags [.], ack 925, win 2055, options [nop,nop,TS val 873179770 ecr 51556454], length 0
	0x0000:  f23c 924d a00a 5250 d97c d857 0800 4500  .<.M..RP.|.W..E.
	0x0010:  0034 0000 4000 3606 950c 31cf d38f ac69  .4..@.6...1....i
	0x0020:  fdef ca0e 1f40 d563 96a9 6b13 4fab 8010  .....@.c..k.O...
	0x0030:  0807 1ce5 0000 0101 080a 340b aa7a 0312  ..........4..z..
	0x0040:  b066                                     .f
13:34:23.288960 IP 49.207.211.143.51726 > 172.105.253.239.8000: Flags [P.], seq 346:633, ack 925, win 2055, options [nop,nop,TS val 873189923 ecr 51556454], length 287
	0x0000:  f23c 924d a00a 5250 d97c d857 0800 4500  .<.M..RP.|.W..E.
	0x0010:  0153 0000 4000 3606 93ed 31cf d38f ac69  .S..@.6...1....i
	0x0020:  fdef ca0e 1f40 d563 96a9 6b13 4fab 8018  .....@.c..k.O...
	0x0030:  0807 d383 0000 0101 080a 340b d223 0312  ..........4..#..
	0x0040:  b066 4745 5420 2f74 696d 6520 4854 5450  .fGET./time.HTTP
	0x0050:  2f31 2e31 0d0a 486f 7374 3a20 3137 322e  /1.1..Host:.172.
	0x0060:  3130 352e 3235 332e 3233 393a 3830 3030  105.253.239:8000
	0x0070:  0d0a 5573 6572 2d41 6765 6e74 3a20 4d6f  ..User-Agent:.Mo
	0x0080:  7a69 6c6c 612f 352e 3020 284d 6163 696e  zilla/5.0.(Macin
	0x0090:  746f 7368 3b20 496e 7465 6c20 4d61 6320  tosh;.Intel.Mac.
	0x00a0:  4f53 2058 2031 302e 3135 3b20 7276 3a38  OS.X.10.15;.rv:8
	0x00b0:  392e 3029 2047 6563 6b6f 2f32 3031 3030  9.0).Gecko/20100
	0x00c0:  3130 3120 4669 7265 666f 782f 3839 2e30  101.Firefox/89.0
	0x00d0:  0d0a 4163 6365 7074 3a20 2a2f 2a0d 0a41  ..Accept:.*/*..A
	0x00e0:  6363 6570 742d 4c61 6e67 7561 6765 3a20  ccept-Language:.
	0x00f0:  656e 2d55 532c 656e 3b71 3d30 2e35 0d0a  en-US,en;q=0.5..
	0x0100:  4163 6365 7074 2d45 6e63 6f64 696e 673a  Accept-Encoding:
	0x0110:  2067 7a69 702c 2064 6566 6c61 7465 0d0a  .gzip,.deflate..
	0x0120:  436f 6e6e 6563 7469 6f6e 3a20 6b65 6570  Connection:.keep
	0x0130:  2d61 6c69 7665 0d0a 5265 6665 7265 723a  -alive..Referer:
	0x0140:  2068 7474 703a 2f2f 3137 322e 3130 352e  .http://172.105.
	0x0150:  3235 332e 3233 393a 3830 3030 2f0d 0a0d  253.239:8000/...
	0x0160:  0a                                       .
13:34:23.290197 IP 172.105.253.239.8000 > 49.207.211.143.51726: Flags [P.], seq 925:1033, ack 633, win 505, options [nop,nop,TS val 51566643 ecr 873189923], length 108
	0x0000:  0000 5e00 beef f23c 924d a00a 0800 4500  ..^....<.M....E.
	0x0010:  00a0 2192 4000 4006 690e ac69 fdef 31cf  ..!.@.@.i..i..1.
	0x0020:  d38f 1f40 ca0e 6b13 4fab d563 97c8 8018  ...@..k.O..c....
	0x0030:  01f9 b04a 0000 0101 080a 0312 d833 340b  ...J.........34.
	0x0040:  d223 4854 5450 2f31 2e31 2032 3030 204f  .#HTTP/1.1.200.O
	0x0050:  4b0d 0a43 6f6e 7465 6e74 2d54 7970 653a  K..Content-Type:
	0x0060:  2061 7070 6c69 6361 7469 6f6e 2f6a 736f  .application/jso
	0x0070:  6e0d 0a43 6f6e 7465 6e74 2d4c 656e 6774  n..Content-Lengt
	0x0080:  683a 2032 300d 0a44 6174 653a 2054 6875  h:.20..Date:.Thu
	0x0090:  2c20 3130 204a 756e 2032 3032 3120 3038  ,.10.Jun.2021.08
	0x00a0:  3a30 343a 3233 2047 4d54 0d0a 0d0a       :04:23.GMT....
13:34:23.317934 IP 49.207.211.143.51726 > 172.105.253.239.8000: Flags [.], ack 1033, win 2053, options [nop,nop,TS val 873189951 ecr 51566643], length 0
	0x0000:  f23c 924d a00a 5250 d97c d857 0800 4500  .<.M..RP.|.W..E.
	0x0010:  0034 0000 4000 3606 950c 31cf d38f ac69  .4..@.6...1....i
	0x0020:  fdef ca0e 1f40 d563 97c8 6b13 5017 8010  .....@.c..k.P...
	0x0030:  0805 cbc9 0000 0101 080a 340b d23f 0312  ..........4..?..
	0x0040:  d833                                     .3
13:34:23.317963 IP 172.105.253.239.8000 > 49.207.211.143.51726: Flags [P.], seq 1033:1053, ack 633, win 505, options [nop,nop,TS val 51566671 ecr 873189951], length 20
	0x0000:  0000 5e00 beef f23c 924d a00a 0800 4500  ..^....<.M....E.
	0x0010:  0048 2193 4000 4006 6965 ac69 fdef 31cf  .H!.@.@.ie.i..1.
	0x0020:  d38f 1f40 ca0e 6b13 5017 d563 97c8 8018  ...@..k.P..c....
	0x0030:  01f9 aff2 0000 0101 080a 0312 d84f 340b  .............O4.
	0x0040:  d23f 7b22 7469 6d65 223a 2230 383a 3034  .?{"time":"08:04
	0x0050:  3a32 3322 7d0a                           :23"}.
13:34:23.346436 IP 49.207.211.143.51726 > 172.105.253.239.8000: Flags [.], ack 1053, win 2053, options [nop,nop,TS val 873189978 ecr 51566671], length 0
	0x0000:  f23c 924d a00a 5250 d97c d857 0800 4500  .<.M..RP.|.W..E.
	0x0010:  0034 0000 4000 3606 950c 31cf d38f ac69  .4..@.6...1....i
	0x0020:  fdef ca0e 1f40 d563 97c8 6b13 502b 8010  .....@.c..k.P+..
	0x0030:  0805 cb7e 0000 0101 080a 340b d25a 0312  ...~......4..Z..
	0x0040:  d84f                                     .O
13:34:33.213676 IP 49.207.211.143.51726 > 172.105.253.239.8000: Flags [P.], seq 633:920, ack 1053, win 2053, options [nop,nop,TS val 873199834 ecr 51566671], length 287
	0x0000:  f23c 924d a00a 5250 d97c d857 0800 4500  .<.M..RP.|.W..E.
	0x0010:  0153 0000 4000 3606 93ed 31cf d38f ac69  .S..@.6...1....i
	0x0020:  fdef ca0e 1f40 d563 97c8 6b13 502b 8018  .....@.c..k.P+..
	0x0030:  0805 8346 0000 0101 080a 340b f8da 0312  ...F......4.....
	0x0040:  d84f 4745 5420 2f74 696d 6520 4854 5450  .OGET./time.HTTP
	0x0050:  2f31 2e31 0d0a 486f 7374 3a20 3137 322e  /1.1..Host:.172.
	0x0060:  3130 352e 3235 332e 3233 393a 3830 3030  105.253.239:8000
	0x0070:  0d0a 5573 6572 2d41 6765 6e74 3a20 4d6f  ..User-Agent:.Mo
	0x0080:  7a69 6c6c 612f 352e 3020 284d 6163 696e  zilla/5.0.(Macin
	0x0090:  746f 7368 3b20 496e 7465 6c20 4d61 6320  tosh;.Intel.Mac.
	0x00a0:  4f53 2058 2031 302e 3135 3b20 7276 3a38  OS.X.10.15;.rv:8
	0x00b0:  392e 3029 2047 6563 6b6f 2f32 3031 3030  9.0).Gecko/20100
	0x00c0:  3130 3120 4669 7265 666f 782f 3839 2e30  101.Firefox/89.0
	0x00d0:  0d0a 4163 6365 7074 3a20 2a2f 2a0d 0a41  ..Accept:.*/*..A
	0x00e0:  6363 6570 742d 4c61 6e67 7561 6765 3a20  ccept-Language:.
	0x00f0:  656e 2d55 532c 656e 3b71 3d30 2e35 0d0a  en-US,en;q=0.5..
	0x0100:  4163 6365 7074 2d45 6e63 6f64 696e 673a  Accept-Encoding:
	0x0110:  2067 7a69 702c 2064 6566 6c61 7465 0d0a  .gzip,.deflate..
	0x0120:  436f 6e6e 6563 7469 6f6e 3a20 6b65 6570  Connection:.keep
	0x0130:  2d61 6c69 7665 0d0a 5265 6665 7265 723a  -alive..Referer:
	0x0140:  2068 7474 703a 2f2f 3137 322e 3130 352e  .http://172.105.
	0x0150:  3235 332e 3233 393a 3830 3030 2f0d 0a0d  253.239:8000/...
	0x0160:  0a                                       .
13:34:33.214870 IP 172.105.253.239.8000 > 49.207.211.143.51726: Flags [P.], seq 1053:1161, ack 920, win 503, options [nop,nop,TS val 51576568 ecr 873199834], length 108
	0x0000:  0000 5e00 beef f23c 924d a00a 0800 4500  ..^....<.M....E.
	0x0010:  00a0 2194 4000 4006 690c ac69 fdef 31cf  ..!.@.@.i..i..1.
	0x0020:  d38f 1f40 ca0e 6b13 502b d563 98e7 8018  ...@..k.P+.c....
	0x0030:  01f7 b04a 0000 0101 080a 0312 fef8 340b  ...J..........4.
	0x0040:  f8da 4854 5450 2f31 2e31 2032 3030 204f  ..HTTP/1.1.200.O
	0x0050:  4b0d 0a43 6f6e 7465 6e74 2d54 7970 653a  K..Content-Type:
	0x0060:  2061 7070 6c69 6361 7469 6f6e 2f6a 736f  .application/jso
	0x0070:  6e0d 0a43 6f6e 7465 6e74 2d4c 656e 6774  n..Content-Lengt
	0x0080:  683a 2032 300d 0a44 6174 653a 2054 6875  h:.20..Date:.Thu
	0x0090:  2c20 3130 204a 756e 2032 3032 3120 3038  ,.10.Jun.2021.08
	0x00a0:  3a30 343a 3333 2047 4d54 0d0a 0d0a       :04:33.GMT....
13:34:33.243586 IP 49.207.211.143.51726 > 172.105.253.239.8000: Flags [.], ack 1161, win 2051, options [nop,nop,TS val 873199863 ecr 51576568], length 0
	0x0000:  f23c 924d a00a 5250 d97c d857 0800 4500  .<.M..RP.|.W..E.
	0x0010:  0034 0000 4000 3606 950c 31cf d38f ac69  .4..@.6...1....i
	0x0020:  fdef ca0e 1f40 d563 98e7 6b13 5097 8010  .....@.c..k.P...
	0x0030:  0803 7caf 0000 0101 080a 340b f8f7 0312  ..|.......4.....
	0x0040:  fef8                                     ..
13:34:33.243609 IP 172.105.253.239.8000 > 49.207.211.143.51726: Flags [P.], seq 1161:1181, ack 920, win 503, options [nop,nop,TS val 51576597 ecr 873199863], length 20
	0x0000:  0000 5e00 beef f23c 924d a00a 0800 4500  ..^....<.M....E.
	0x0010:  0048 2195 4000 4006 6963 ac69 fdef 31cf  .H!.@.@.ic.i..1.
	0x0020:  d38f 1f40 ca0e 6b13 5097 d563 98e7 8018  ...@..k.P..c....
	0x0030:  01f7 aff2 0000 0101 080a 0312 ff15 340b  ..............4.
	0x0040:  f8f7 7b22 7469 6d65 223a 2230 383a 3034  ..{"time":"08:04
	0x0050:  3a33 3322 7d0a                           :33"}.
13:34:33.271189 IP 49.207.211.143.51726 > 172.105.253.239.8000: Flags [.], ack 1181, win 2051, options [nop,nop,TS val 873199891 ecr 51576597], length 0
	0x0000:  f23c 924d a00a 5250 d97c d857 0800 4500  .<.M..RP.|.W..E.
	0x0010:  0034 0000 4000 3606 950c 31cf d38f ac69  .4..@.6...1....i
	0x0020:  fdef ca0e 1f40 d563 98e7 6b13 50ab 8010  .....@.c..k.P...
	0x0030:  0803 7c62 0000 0101 080a 340b f913 0312  ..|b......4.....
	0x0040:  ff15                                     ..
13:34:43.075057 IP 49.207.211.143.51726 > 172.105.253.239.8000: Flags [P.], seq 920:1207, ack 1181, win 2051, options [nop,nop,TS val 873209689 ecr 51576597], length 287
	0x0000:  f23c 924d a00a 5250 d97c d857 0800 4500  .<.M..RP.|.W..E.
	0x0010:  0153 0000 4000 3606 93ed 31cf d38f ac69  .S..@.6...1....i
	0x0020:  fdef ca0e 1f40 d563 98e7 6b13 50ab 8018  .....@.c..k.P...
	0x0030:  0803 3464 0000 0101 080a 340c 1f59 0312  ..4d......4..Y..
	0x0040:  ff15 4745 5420 2f74 696d 6520 4854 5450  ..GET./time.HTTP
	0x0050:  2f31 2e31 0d0a 486f 7374 3a20 3137 322e  /1.1..Host:.172.
	0x0060:  3130 352e 3235 332e 3233 393a 3830 3030  105.253.239:8000
	0x0070:  0d0a 5573 6572 2d41 6765 6e74 3a20 4d6f  ..User-Agent:.Mo
	0x0080:  7a69 6c6c 612f 352e 3020 284d 6163 696e  zilla/5.0.(Macin
	0x0090:  746f 7368 3b20 496e 7465 6c20 4d61 6320  tosh;.Intel.Mac.
	0x00a0:  4f53 2058 2031 302e 3135 3b20 7276 3a38  OS.X.10.15;.rv:8
	0x00b0:  392e 3029 2047 6563 6b6f 2f32 3031 3030  9.0).Gecko/20100
	0x00c0:  3130 3120 4669 7265 666f 782f 3839 2e30  101.Firefox/89.0
	0x00d0:  0d0a 4163 6365 7074 3a20 2a2f 2a0d 0a41  ..Accept:.*/*..A
	0x00e0:  6363 6570 742d 4c61 6e67 7561 6765 3a20  ccept-Language:.
	0x00f0:  656e 2d55 532c 656e 3b71 3d30 2e35 0d0a  en-US,en;q=0.5..
	0x0100:  4163 6365 7074 2d45 6e63 6f64 696e 673a  Accept-Encoding:
	0x0110:  2067 7a69 702c 2064 6566 6c61 7465 0d0a  .gzip,.deflate..
	0x0120:  436f 6e6e 6563 7469 6f6e 3a20 6b65 6570  Connection:.keep
	0x0130:  2d61 6c69 7665 0d0a 5265 6665 7265 723a  -alive..Referer:
	0x0140:  2068 7474 703a 2f2f 3137 322e 3130 352e  .http://172.105.
	0x0150:  3235 332e 3233 393a 3830 3030 2f0d 0a0d  253.239:8000/...
	0x0160:  0a                                       .
13:34:43.076210 IP 172.105.253.239.8000 > 49.207.211.143.51726: Flags [P.], seq 1181:1289, ack 1207, win 501, options [nop,nop,TS val 51586430 ecr 873209689], length 108
	0x0000:  0000 5e00 beef f23c 924d a00a 0800 4500  ..^....<.M....E.
	0x0010:  00a0 2196 4000 4006 690a ac69 fdef 31cf  ..!.@.@.i..i..1.
	0x0020:  d38f 1f40 ca0e 6b13 50ab d563 9a06 8018  ...@..k.P..c....
	0x0030:  01f5 b04a 0000 0101 080a 0313 257e 340c  ...J........%~4.
	0x0040:  1f59 4854 5450 2f31 2e31 2032 3030 204f  .YHTTP/1.1.200.O
	0x0050:  4b0d 0a43 6f6e 7465 6e74 2d54 7970 653a  K..Content-Type:
	0x0060:  2061 7070 6c69 6361 7469 6f6e 2f6a 736f  .application/jso
	0x0070:  6e0d 0a43 6f6e 7465 6e74 2d4c 656e 6774  n..Content-Lengt
	0x0080:  683a 2032 300d 0a44 6174 653a 2054 6875  h:.20..Date:.Thu
	0x0090:  2c20 3130 204a 756e 2032 3032 3120 3038  ,.10.Jun.2021.08
	0x00a0:  3a30 343a 3433 2047 4d54 0d0a 0d0a       :04:43.GMT....
13:34:43.103579 IP 49.207.211.143.51726 > 172.105.253.239.8000: Flags [.], ack 1289, win 2049, options [nop,nop,TS val 873209718 ecr 51586430], length 0
	0x0000:  f23c 924d a00a 5250 d97c d857 0800 4500  .<.M..RP.|.W..E.
	0x0010:  0034 0000 4000 3606 950c 31cf d38f ac69  .4..@.6...1....i
	0x0020:  fdef ca0e 1f40 d563 9a06 6b13 5117 8010  .....@.c..k.Q...
	0x0030:  0801 2e0d 0000 0101 080a 340c 1f76 0313  ..........4..v..
	0x0040:  257e                                     %~
13:34:43.103601 IP 172.105.253.239.8000 > 49.207.211.143.51726: Flags [P.], seq 1289:1309, ack 1207, win 501, options [nop,nop,TS val 51586457 ecr 873209718], length 20
	0x0000:  0000 5e00 beef f23c 924d a00a 0800 4500  ..^....<.M....E.
	0x0010:  0048 2197 4000 4006 6961 ac69 fdef 31cf  .H!.@.@.ia.i..1.
	0x0020:  d38f 1f40 ca0e 6b13 5117 d563 9a06 8018  ...@..k.Q..c....
	0x0030:  01f5 aff2 0000 0101 080a 0313 2599 340c  ............%.4.
	0x0040:  1f76 7b22 7469 6d65 223a 2230 383a 3034  .v{"time":"08:04
	0x0050:  3a34 3322 7d0a                           :43"}.
13:34:43.131040 IP 49.207.211.143.51726 > 172.105.253.239.8000: Flags [.], ack 1309, win 2049, options [nop,nop,TS val 873209745 ecr 51586457], length 0
	0x0000:  f23c 924d a00a 5250 d97c d857 0800 4500  .<.M..RP.|.W..E.
	0x0010:  0034 0000 4000 3606 950c 31cf d38f ac69  .4..@.6...1....i
	0x0020:  fdef ca0e 1f40 d563 9a06 6b13 512b 8010  .....@.c..k.Q+..
	0x0030:  0801 2dc3 0000 0101 080a 340c 1f91 0313  ..-.......4.....
	0x0040:  2599                                     %.
13:34:53.279547 IP 49.207.211.143.51726 > 172.105.253.239.8000: Flags [F.], seq 1207, ack 1309, win 2049, options [nop,nop,TS val 873219882 ecr 51586457], length 0
	0x0000:  f23c 924d a00a 5250 d97c d857 0800 4500  .<.M..RP.|.W..E.
	0x0010:  0034 0000 4000 3606 950c 31cf d38f ac69  .4..@.6...1....i
	0x0020:  fdef ca0e 1f40 d563 9a06 6b13 512b 8011  .....@.c..k.Q+..
	0x0030:  0801 0629 0000 0101 080a 340c 472a 0313  ...)......4.G*..
	0x0040:  2599                                     %.
13:34:53.279769 IP 172.105.253.239.8000 > 49.207.211.143.51726: Flags [F.], seq 1309, ack 1208, win 501, options [nop,nop,TS val 51596634 ecr 873219882], length 0
	0x0000:  0000 5e00 beef f23c 924d a00a 0800 4500  ..^....<.M....E.
	0x0010:  0034 2198 4000 4006 6974 ac69 fdef 31cf  .4!.@.@.it.i..1.
	0x0020:  d38f 1f40 ca0e 6b13 512b d563 9a07 8011  ...@..k.Q+.c....
	0x0030:  01f5 afde 0000 0101 080a 0313 4d5a 340c  ............MZ4.
	0x0040:  472a                                     G*
13:34:53.309101 IP 49.207.211.143.51726 > 172.105.253.239.8000: Flags [.], ack 1310, win 2049, options [nop,nop,TS val 873219908 ecr 51596634], length 0
	0x0000:  f23c 924d a00a 5250 d97c d857 0800 4500  .<.M..RP.|.W..E.
	0x0010:  0034 0000 4000 3606 950c 31cf d38f ac69  .4..@.6...1....i
	0x0020:  fdef ca0e 1f40 d563 9a07 6b13 512c 8010  .....@.c..k.Q,..
	0x0030:  0801 de4c 0000 0101 080a 340c 4744 0313  ...L......4.GD..
	0x0040:  4d5a                                     MZ

$ tcpdump -nAr pcap/ajaxapp.pcap
reading from file pcap/ajaxapp.pcap, link-type EN10MB (Ethernet)
13:34:13.037491 IP 49.207.211.143.51726 > 172.105.253.239.8000: Flags [S], seq 3580073295, win 65535, options [mss 1452,nop,wscale 6,nop,nop,TS val 873179678 ecr 0,sackOK,eol], length 0
E..@..@.6...1....i.....@.c.O........U .............
4...........
13:34:13.037524 IP 172.105.253.239.8000 > 49.207.211.143.51726: Flags [S.], seq 1796426766, ack 3580073296, win 65160, options [mss 1460,sackOK,TS val 51556390 ecr 873179678,nop,wscale 7], length 0
E..<..@.@....i..1....@..k.L..c.P...............
...&4.......
13:34:13.065593 IP 49.207.211.143.51726 > 172.105.253.239.8000: Flags [.], ack 1, win 2070, options [nop,nop,TS val 873179706 ecr 51556390], length 0
E..4..@.6...1....i.....@.c.Pk.L....."K.....
4..:...&
13:34:13.068220 IP 49.207.211.143.51726 > 172.105.253.239.8000: Flags [P.], seq 1:346, ack 1, win 2070, options [nop,nop,TS val 873179706 ecr 51556390], length 345
E.....@.6...1....i.....@.c.Pk.L............
4..:...&GET / HTTP/1.1
Host: 172.105.253.239:8000
User-Agent: Mozilla/5.0 (Macintosh; Intel Mac OS X 10.15; rv:89.0) Gecko/20100101 Firefox/89.0
Accept: text/html,application/xhtml+xml,application/xml;q=0.9,image/webp,*/*;q=0.8
Accept-Language: en-US,en;q=0.5
Accept-Encoding: gzip, deflate
Connection: keep-alive
Upgrade-Insecure-Requests: 1


13:34:13.068247 IP 172.105.253.239.8000 > 49.207.211.143.51726: Flags [.], ack 346, win 507, options [nop,nop,TS val 51556421 ecr 873179706], length 0
E..4!.@.@.i}.i..1....@..k.L..c.............
...E4..:
13:34:13.073023 IP 172.105.253.239.8000 > 49.207.211.143.51726: Flags [P.], seq 1:118, ack 346, win 507, options [nop,nop,TS val 51556426 ecr 873179706], length 117
E...!.@.@.i..i..1....@..k.L..c.......S.....
...J4..:HTTP/1.1 200 OK
Content-Type: text/html; charset=utf-8
Content-Length: 807
Date: Thu, 10 Jun 2021 08:04:13 GMT


13:34:13.100928 IP 49.207.211.143.51726 > 172.105.253.239.8000: Flags [.], ack 118, win 2068, options [nop,nop,TS val 873179740 ecr 51556426], length 0
E..4..@.6...1....i.....@.c..k.L..... 9.....
4..\...J
13:34:13.100944 IP 172.105.253.239.8000 > 49.207.211.143.51726: Flags [P.], seq 118:925, ack 346, win 507, options [nop,nop,TS val 51556454 ecr 873179740], length 807
E..[!.@.@.fT.i..1....@..k.L..c.............
...f4..\<!DOCTYPE html>
<html lang="en">
<head>
<title>Server Time (Ajax)</title>
<style>
body {background: beige; font-size: 2em; text-align: center}
button {font-size: 0.75em}
time {color: green}
</style>
</head>
<body>
<p>Server time: <time id="time">08:04:13</time></p>
<button id="button">Refresh via Ajax</button>
<script>
const button = document.getElementById('button')
const time = document.getElementById('time')
button.onclick = function () {
  const xhr = new XMLHttpRequest()
  xhr.open('GET', '/time')
  xhr.responseType = 'json'
  xhr.onload = function () {
    if (xhr.status === 200) {
      time.innerHTML = xhr.response.time
    } else {
      time.innerHTML = '[load error]'
    }
  }
  xhr.onerror = function () {
    time.innerHTML = '[xhr error]'
  }
  xhr.send()
}
</script>
</body>
</html>

13:34:13.131629 IP 49.207.211.143.51726 > 172.105.253.239.8000: Flags [.], ack 925, win 2055, options [nop,nop,TS val 873179770 ecr 51556454], length 0
E..4..@.6...1....i.....@.c..k.O............
4..z...f
13:34:23.288960 IP 49.207.211.143.51726 > 172.105.253.239.8000: Flags [P.], seq 346:633, ack 925, win 2055, options [nop,nop,TS val 873189923 ecr 51556454], length 287
E..S..@.6...1....i.....@.c..k.O............
4..#...fGET /time HTTP/1.1
Host: 172.105.253.239:8000
User-Agent: Mozilla/5.0 (Macintosh; Intel Mac OS X 10.15; rv:89.0) Gecko/20100101 Firefox/89.0
Accept: */*
Accept-Language: en-US,en;q=0.5
Accept-Encoding: gzip, deflate
Connection: keep-alive
Referer: http://172.105.253.239:8000/


13:34:23.290197 IP 172.105.253.239.8000 > 49.207.211.143.51726: Flags [P.], seq 925:1033, ack 633, win 505, options [nop,nop,TS val 51566643 ecr 873189923], length 108
E...!.@.@.i..i..1....@..k.O..c.......J.....
...34..#HTTP/1.1 200 OK
Content-Type: application/json
Content-Length: 20
Date: Thu, 10 Jun 2021 08:04:23 GMT


13:34:23.317934 IP 49.207.211.143.51726 > 172.105.253.239.8000: Flags [.], ack 1033, win 2053, options [nop,nop,TS val 873189951 ecr 51566643], length 0
E..4..@.6...1....i.....@.c..k.P............
4..?...3
13:34:23.317963 IP 172.105.253.239.8000 > 49.207.211.143.51726: Flags [P.], seq 1033:1053, ack 633, win 505, options [nop,nop,TS val 51566671 ecr 873189951], length 20
E..H!.@.@.ie.i..1....@..k.P..c.............
...O4..?{"time":"08:04:23"}

13:34:23.346436 IP 49.207.211.143.51726 > 172.105.253.239.8000: Flags [.], ack 1053, win 2053, options [nop,nop,TS val 873189978 ecr 51566671], length 0
E..4..@.6...1....i.....@.c..k.P+.....~.....
4..Z...O
13:34:33.213676 IP 49.207.211.143.51726 > 172.105.253.239.8000: Flags [P.], seq 633:920, ack 1053, win 2053, options [nop,nop,TS val 873199834 ecr 51566671], length 287
E..S..@.6...1....i.....@.c..k.P+.....F.....
4......OGET /time HTTP/1.1
Host: 172.105.253.239:8000
User-Agent: Mozilla/5.0 (Macintosh; Intel Mac OS X 10.15; rv:89.0) Gecko/20100101 Firefox/89.0
Accept: */*
Accept-Language: en-US,en;q=0.5
Accept-Encoding: gzip, deflate
Connection: keep-alive
Referer: http://172.105.253.239:8000/


13:34:33.214870 IP 172.105.253.239.8000 > 49.207.211.143.51726: Flags [P.], seq 1053:1161, ack 920, win 503, options [nop,nop,TS val 51576568 ecr 873199834], length 108
E...!.@.@.i..i..1....@..k.P+.c.......J.....
....4...HTTP/1.1 200 OK
Content-Type: application/json
Content-Length: 20
Date: Thu, 10 Jun 2021 08:04:33 GMT


13:34:33.243586 IP 49.207.211.143.51726 > 172.105.253.239.8000: Flags [.], ack 1161, win 2051, options [nop,nop,TS val 873199863 ecr 51576568], length 0
E..4..@.6...1....i.....@.c..k.P.....|......
4.......
13:34:33.243609 IP 172.105.253.239.8000 > 49.207.211.143.51726: Flags [P.], seq 1161:1181, ack 920, win 503, options [nop,nop,TS val 51576597 ecr 873199863], length 20
E..H!.@.@.ic.i..1....@..k.P..c.............
....4...{"time":"08:04:33"}

13:34:33.271189 IP 49.207.211.143.51726 > 172.105.253.239.8000: Flags [.], ack 1181, win 2051, options [nop,nop,TS val 873199891 ecr 51576597], length 0
E..4..@.6...1....i.....@.c..k.P.....|b.....
4.......
13:34:43.075057 IP 49.207.211.143.51726 > 172.105.253.239.8000: Flags [P.], seq 920:1207, ack 1181, win 2051, options [nop,nop,TS val 873209689 ecr 51576597], length 287
E..S..@.6...1....i.....@.c..k.P.....4d.....
4..Y....GET /time HTTP/1.1
Host: 172.105.253.239:8000
User-Agent: Mozilla/5.0 (Macintosh; Intel Mac OS X 10.15; rv:89.0) Gecko/20100101 Firefox/89.0
Accept: */*
Accept-Language: en-US,en;q=0.5
Accept-Encoding: gzip, deflate
Connection: keep-alive
Referer: http://172.105.253.239:8000/


13:34:43.076210 IP 172.105.253.239.8000 > 49.207.211.143.51726: Flags [P.], seq 1181:1289, ack 1207, win 501, options [nop,nop,TS val 51586430 ecr 873209689], length 108
E...!.@.@.i
.i..1....@..k.P..c.......J.....
..%~4..YHTTP/1.1 200 OK
Content-Type: application/json
Content-Length: 20
Date: Thu, 10 Jun 2021 08:04:43 GMT


13:34:43.103579 IP 49.207.211.143.51726 > 172.105.253.239.8000: Flags [.], ack 1289, win 2049, options [nop,nop,TS val 873209718 ecr 51586430], length 0
E..4..@.6...1....i.....@.c..k.Q............
4..v..%~
13:34:43.103601 IP 172.105.253.239.8000 > 49.207.211.143.51726: Flags [P.], seq 1289:1309, ack 1207, win 501, options [nop,nop,TS val 51586457 ecr 873209718], length 20
E..H!.@.@.ia.i..1....@..k.Q..c.............
..%.4..v{"time":"08:04:43"}

13:34:43.131040 IP 49.207.211.143.51726 > 172.105.253.239.8000: Flags [.], ack 1309, win 2049, options [nop,nop,TS val 873209745 ecr 51586457], length 0
E..4..@.6...1....i.....@.c..k.Q+....-......
4.....%.
13:34:53.279547 IP 49.207.211.143.51726 > 172.105.253.239.8000: Flags [F.], seq 1207, ack 1309, win 2049, options [nop,nop,TS val 873219882 ecr 51586457], length 0
E..4..@.6...1....i.....@.c..k.Q+.....).....
4.G*..%.
13:34:53.279769 IP 172.105.253.239.8000 > 49.207.211.143.51726: Flags [F.], seq 1309, ack 1208, win 501, options [nop,nop,TS val 51596634 ecr 873219882], length 0
E..4!.@.@.it.i..1....@..k.Q+.c.............
..MZ4.G*
13:34:53.309101 IP 49.207.211.143.51726 > 172.105.253.239.8000: Flags [.], ack 1310, win 2049, options [nop,nop,TS val 873219908 ecr 51596634], length 0
E..4..@.6...1....i.....@.c..k.Q,.....L.....
4.GD..MZ

$ tcpdump -nr pcap/ajaxapp.pcap
reading from file pcap/ajaxapp.pcap, link-type EN10MB (Ethernet)
13:34:13.037491 IP 49.207.211.143.51726 > 172.105.253.239.8000: Flags [S], seq 3580073295, win 65535, options [mss 1452,nop,wscale 6,nop,nop,TS val 873179678 ecr 0,sackOK,eol], length 0
13:34:13.037524 IP 172.105.253.239.8000 > 49.207.211.143.51726: Flags [S.], seq 1796426766, ack 3580073296, win 65160, options [mss 1460,sackOK,TS val 51556390 ecr 873179678,nop,wscale 7], length 0
13:34:13.065593 IP 49.207.211.143.51726 > 172.105.253.239.8000: Flags [.], ack 1, win 2070, options [nop,nop,TS val 873179706 ecr 51556390], length 0
13:34:13.068220 IP 49.207.211.143.51726 > 172.105.253.239.8000: Flags [P.], seq 1:346, ack 1, win 2070, options [nop,nop,TS val 873179706 ecr 51556390], length 345
13:34:13.068247 IP 172.105.253.239.8000 > 49.207.211.143.51726: Flags [.], ack 346, win 507, options [nop,nop,TS val 51556421 ecr 873179706], length 0
13:34:13.073023 IP 172.105.253.239.8000 > 49.207.211.143.51726: Flags [P.], seq 1:118, ack 346, win 507, options [nop,nop,TS val 51556426 ecr 873179706], length 117
13:34:13.100928 IP 49.207.211.143.51726 > 172.105.253.239.8000: Flags [.], ack 118, win 2068, options [nop,nop,TS val 873179740 ecr 51556426], length 0
13:34:13.100944 IP 172.105.253.239.8000 > 49.207.211.143.51726: Flags [P.], seq 118:925, ack 346, win 507, options [nop,nop,TS val 51556454 ecr 873179740], length 807
13:34:13.131629 IP 49.207.211.143.51726 > 172.105.253.239.8000: Flags [.], ack 925, win 2055, options [nop,nop,TS val 873179770 ecr 51556454], length 0
13:34:23.288960 IP 49.207.211.143.51726 > 172.105.253.239.8000: Flags [P.], seq 346:633, ack 925, win 2055, options [nop,nop,TS val 873189923 ecr 51556454], length 287
13:34:23.290197 IP 172.105.253.239.8000 > 49.207.211.143.51726: Flags [P.], seq 925:1033, ack 633, win 505, options [nop,nop,TS val 51566643 ecr 873189923], length 108
13:34:23.317934 IP 49.207.211.143.51726 > 172.105.253.239.8000: Flags [.], ack 1033, win 2053, options [nop,nop,TS val 873189951 ecr 51566643], length 0
13:34:23.317963 IP 172.105.253.239.8000 > 49.207.211.143.51726: Flags [P.], seq 1033:1053, ack 633, win 505, options [nop,nop,TS val 51566671 ecr 873189951], length 20
13:34:23.346436 IP 49.207.211.143.51726 > 172.105.253.239.8000: Flags [.], ack 1053, win 2053, options [nop,nop,TS val 873189978 ecr 51566671], length 0
13:34:33.213676 IP 49.207.211.143.51726 > 172.105.253.239.8000: Flags [P.], seq 633:920, ack 1053, win 2053, options [nop,nop,TS val 873199834 ecr 51566671], length 287
13:34:33.214870 IP 172.105.253.239.8000 > 49.207.211.143.51726: Flags [P.], seq 1053:1161, ack 920, win 503, options [nop,nop,TS val 51576568 ecr 873199834], length 108
13:34:33.243586 IP 49.207.211.143.51726 > 172.105.253.239.8000: Flags [.], ack 1161, win 2051, options [nop,nop,TS val 873199863 ecr 51576568], length 0
13:34:33.243609 IP 172.105.253.239.8000 > 49.207.211.143.51726: Flags [P.], seq 1161:1181, ack 920, win 503, options [nop,nop,TS val 51576597 ecr 873199863], length 20
13:34:33.271189 IP 49.207.211.143.51726 > 172.105.253.239.8000: Flags [.], ack 1181, win 2051, options [nop,nop,TS val 873199891 ecr 51576597], length 0
13:34:43.075057 IP 49.207.211.143.51726 > 172.105.253.239.8000: Flags [P.], seq 920:1207, ack 1181, win 2051, options [nop,nop,TS val 873209689 ecr 51576597], length 287
13:34:43.076210 IP 172.105.253.239.8000 > 49.207.211.143.51726: Flags [P.], seq 1181:1289, ack 1207, win 501, options [nop,nop,TS val 51586430 ecr 873209689], length 108
13:34:43.103579 IP 49.207.211.143.51726 > 172.105.253.239.8000: Flags [.], ack 1289, win 2049, options [nop,nop,TS val 873209718 ecr 51586430], length 0
13:34:43.103601 IP 172.105.253.239.8000 > 49.207.211.143.51726: Flags [P.], seq 1289:1309, ack 1207, win 501, options [nop,nop,TS val 51586457 ecr 873209718], length 20
13:34:43.131040 IP 49.207.211.143.51726 > 172.105.253.239.8000: Flags [.], ack 1309, win 2049, options [nop,nop,TS val 873209745 ecr 51586457], length 0
13:34:53.279547 IP 49.207.211.143.51726 > 172.105.253.239.8000: Flags [F.], seq 1207, ack 1309, win 2049, options [nop,nop,TS val 873219882 ecr 51586457], length 0
13:34:53.279769 IP 172.105.253.239.8000 > 49.207.211.143.51726: Flags [F.], seq 1309, ack 1208, win 501, options [nop,nop,TS val 51596634 ecr 873219882], length 0
13:34:53.309101 IP 49.207.211.143.51726 > 172.105.253.239.8000: Flags [.], ack 1310, win 2049, options [nop,nop,TS val 873219908 ecr 51596634], length 0

$ tshark -nxr pcap/ajaxapp.pcap
0000  f2 3c 92 4d a0 0a 52 50 d9 7c d8 57 08 00 45 00   .<.M..RP.|.W..E.
0010  00 40 00 00 40 00 36 06 95 00 31 cf d3 8f ac 69   .@..@.6...1....i
0020  fd ef ca 0e 1f 40 d5 63 95 4f 00 00 00 00 b0 02   .....@.c.O......
0030  ff ff 55 20 00 00 02 04 05 ac 01 03 03 06 01 01   ..U ............
0040  08 0a 34 0b aa 1e 00 00 00 00 04 02 00 00         ..4...........

0000  00 00 5e 00 be ef f2 3c 92 4d a0 0a 08 00 45 00   ..^....<.M....E.
0010  00 3c 00 00 40 00 40 06 8b 04 ac 69 fd ef 31 cf   .<..@.@....i..1.
0020  d3 8f 1f 40 ca 0e 6b 13 4c 0e d5 63 95 50 a0 12   ...@..k.L..c.P..
0030  fe 88 af e6 00 00 02 04 05 b4 04 02 08 0a 03 12   ................
0040  b0 26 34 0b aa 1e 01 03 03 07                     .&4.......

0000  f2 3c 92 4d a0 0a 52 50 d9 7c d8 57 08 00 45 00   .<.M..RP.|.W..E.
0010  00 34 00 00 40 00 36 06 95 0c 31 cf d3 8f ac 69   .4..@.6...1....i
0020  fd ef ca 0e 1f 40 d5 63 95 50 6b 13 4c 0f 80 10   .....@.c.Pk.L...
0030  08 16 22 4b 00 00 01 01 08 0a 34 0b aa 3a 03 12   .."K......4..:..
0040  b0 26                                             .&

0000  f2 3c 92 4d a0 0a 52 50 d9 7c d8 57 08 00 45 00   .<.M..RP.|.W..E.
0010  01 8d 00 00 40 00 36 06 93 b3 31 cf d3 8f ac 69   ....@.6...1....i
0020  fd ef ca 0e 1f 40 d5 63 95 50 6b 13 4c 0f 80 18   .....@.c.Pk.L...
0030  08 16 a4 eb 00 00 01 01 08 0a 34 0b aa 3a 03 12   ..........4..:..
0040  b0 26 47 45 54 20 2f 20 48 54 54 50 2f 31 2e 31   .&GET / HTTP/1.1
0050  0d 0a 48 6f 73 74 3a 20 31 37 32 2e 31 30 35 2e   ..Host: 172.105.
0060  32 35 33 2e 32 33 39 3a 38 30 30 30 0d 0a 55 73   253.239:8000..Us
0070  65 72 2d 41 67 65 6e 74 3a 20 4d 6f 7a 69 6c 6c   er-Agent: Mozill
0080  61 2f 35 2e 30 20 28 4d 61 63 69 6e 74 6f 73 68   a/5.0 (Macintosh
0090  3b 20 49 6e 74 65 6c 20 4d 61 63 20 4f 53 20 58   ; Intel Mac OS X
00a0  20 31 30 2e 31 35 3b 20 72 76 3a 38 39 2e 30 29    10.15; rv:89.0)
00b0  20 47 65 63 6b 6f 2f 32 30 31 30 30 31 30 31 20    Gecko/20100101 
00c0  46 69 72 65 66 6f 78 2f 38 39 2e 30 0d 0a 41 63   Firefox/89.0..Ac
00d0  63 65 70 74 3a 20 74 65 78 74 2f 68 74 6d 6c 2c   cept: text/html,
00e0  61 70 70 6c 69 63 61 74 69 6f 6e 2f 78 68 74 6d   application/xhtm
00f0  6c 2b 78 6d 6c 2c 61 70 70 6c 69 63 61 74 69 6f   l+xml,applicatio
0100  6e 2f 78 6d 6c 3b 71 3d 30 2e 39 2c 69 6d 61 67   n/xml;q=0.9,imag
0110  65 2f 77 65 62 70 2c 2a 2f 2a 3b 71 3d 30 2e 38   e/webp,*/*;q=0.8
0120  0d 0a 41 63 63 65 70 74 2d 4c 61 6e 67 75 61 67   ..Accept-Languag
0130  65 3a 20 65 6e 2d 55 53 2c 65 6e 3b 71 3d 30 2e   e: en-US,en;q=0.
0140  35 0d 0a 41 63 63 65 70 74 2d 45 6e 63 6f 64 69   5..Accept-Encodi
0150  6e 67 3a 20 67 7a 69 70 2c 20 64 65 66 6c 61 74   ng: gzip, deflat
0160  65 0d 0a 43 6f 6e 6e 65 63 74 69 6f 6e 3a 20 6b   e..Connection: k
0170  65 65 70 2d 61 6c 69 76 65 0d 0a 55 70 67 72 61   eep-alive..Upgra
0180  64 65 2d 49 6e 73 65 63 75 72 65 2d 52 65 71 75   de-Insecure-Requ
0190  65 73 74 73 3a 20 31 0d 0a 0d 0a                  ests: 1....

0000  00 00 5e 00 be ef f2 3c 92 4d a0 0a 08 00 45 00   ..^....<.M....E.
0010  00 34 21 8f 40 00 40 06 69 7d ac 69 fd ef 31 cf   .4!.@.@.i}.i..1.
0020  d3 8f 1f 40 ca 0e 6b 13 4c 0f d5 63 96 a9 80 10   ...@..k.L..c....
0030  01 fb af de 00 00 01 01 08 0a 03 12 b0 45 34 0b   .............E4.
0040  aa 3a                                             .:

0000  00 00 5e 00 be ef f2 3c 92 4d a0 0a 08 00 45 00   ..^....<.M....E.
0010  00 a9 21 90 40 00 40 06 69 07 ac 69 fd ef 31 cf   ..!.@.@.i..i..1.
0020  d3 8f 1f 40 ca 0e 6b 13 4c 0f d5 63 96 a9 80 18   ...@..k.L..c....
0030  01 fb b0 53 00 00 01 01 08 0a 03 12 b0 4a 34 0b   ...S.........J4.
0040  aa 3a 48 54 54 50 2f 31 2e 31 20 32 30 30 20 4f   .:HTTP/1.1 200 O
0050  4b 0d 0a 43 6f 6e 74 65 6e 74 2d 54 79 70 65 3a   K..Content-Type:
0060  20 74 65 78 74 2f 68 74 6d 6c 3b 20 63 68 61 72    text/html; char
0070  73 65 74 3d 75 74 66 2d 38 0d 0a 43 6f 6e 74 65   set=utf-8..Conte
0080  6e 74 2d 4c 65 6e 67 74 68 3a 20 38 30 37 0d 0a   nt-Length: 807..
0090  44 61 74 65 3a 20 54 68 75 2c 20 31 30 20 4a 75   Date: Thu, 10 Ju
00a0  6e 20 32 30 32 31 20 30 38 3a 30 34 3a 31 33 20   n 2021 08:04:13 
00b0  47 4d 54 0d 0a 0d 0a                              GMT....

0000  f2 3c 92 4d a0 0a 52 50 d9 7c d8 57 08 00 45 00   .<.M..RP.|.W..E.
0010  00 34 00 00 40 00 36 06 95 0c 31 cf d3 8f ac 69   .4..@.6...1....i
0020  fd ef ca 0e 1f 40 d5 63 96 a9 6b 13 4c 84 80 10   .....@.c..k.L...
0030  08 14 20 39 00 00 01 01 08 0a 34 0b aa 5c 03 12   .. 9......4..\..
0040  b0 4a                                             .J

Frame (873 bytes):
0000  00 00 5e 00 be ef f2 3c 92 4d a0 0a 08 00 45 00   ..^....<.M....E.
0010  03 5b 21 91 40 00 40 06 66 54 ac 69 fd ef 31 cf   .[!.@.@.fT.i..1.
0020  d3 8f 1f 40 ca 0e 6b 13 4c 84 d5 63 96 a9 80 18   ...@..k.L..c....
0030  01 fb b3 05 00 00 01 01 08 0a 03 12 b0 66 34 0b   .............f4.
0040  aa 5c 3c 21 44 4f 43 54 59 50 45 20 68 74 6d 6c   .\<!DOCTYPE html
0050  3e 0a 3c 68 74 6d 6c 20 6c 61 6e 67 3d 22 65 6e   >.<html lang="en
0060  22 3e 0a 3c 68 65 61 64 3e 0a 3c 74 69 74 6c 65   ">.<head>.<title
0070  3e 53 65 72 76 65 72 20 54 69 6d 65 20 28 41 6a   >Server Time (Aj
0080  61 78 29 3c 2f 74 69 74 6c 65 3e 0a 3c 73 74 79   ax)</title>.<sty
0090  6c 65 3e 0a 62 6f 64 79 20 7b 62 61 63 6b 67 72   le>.body {backgr
00a0  6f 75 6e 64 3a 20 62 65 69 67 65 3b 20 66 6f 6e   ound: beige; fon
00b0  74 2d 73 69 7a 65 3a 20 32 65 6d 3b 20 74 65 78   t-size: 2em; tex
00c0  74 2d 61 6c 69 67 6e 3a 20 63 65 6e 74 65 72 7d   t-align: center}
00d0  0a 62 75 74 74 6f 6e 20 7b 66 6f 6e 74 2d 73 69   .button {font-si
00e0  7a 65 3a 20 30 2e 37 35 65 6d 7d 0a 74 69 6d 65   ze: 0.75em}.time
00f0  20 7b 63 6f 6c 6f 72 3a 20 67 72 65 65 6e 7d 0a    {color: green}.
0100  3c 2f 73 74 79 6c 65 3e 0a 3c 2f 68 65 61 64 3e   </style>.</head>
0110  0a 3c 62 6f 64 79 3e 0a 3c 70 3e 53 65 72 76 65   .<body>.<p>Serve
0120  72 20 74 69 6d 65 3a 20 3c 74 69 6d 65 20 69 64   r time: <time id
0130  3d 22 74 69 6d 65 22 3e 30 38 3a 30 34 3a 31 33   ="time">08:04:13
0140  3c 2f 74 69 6d 65 3e 3c 2f 70 3e 0a 3c 62 75 74   </time></p>.<but
0150  74 6f 6e 20 69 64 3d 22 62 75 74 74 6f 6e 22 3e   ton id="button">
0160  52 65 66 72 65 73 68 20 76 69 61 20 41 6a 61 78   Refresh via Ajax
0170  3c 2f 62 75 74 74 6f 6e 3e 0a 3c 73 63 72 69 70   </button>.<scrip
0180  74 3e 0a 63 6f 6e 73 74 20 62 75 74 74 6f 6e 20   t>.const button 
0190  3d 20 64 6f 63 75 6d 65 6e 74 2e 67 65 74 45 6c   = document.getEl
01a0  65 6d 65 6e 74 42 79 49 64 28 27 62 75 74 74 6f   ementById('butto
01b0  6e 27 29 0a 63 6f 6e 73 74 20 74 69 6d 65 20 3d   n').const time =
01c0  20 64 6f 63 75 6d 65 6e 74 2e 67 65 74 45 6c 65    document.getEle
01d0  6d 65 6e 74 42 79 49 64 28 27 74 69 6d 65 27 29   mentById('time')
01e0  0a 62 75 74 74 6f 6e 2e 6f 6e 63 6c 69 63 6b 20   .button.onclick 
01f0  3d 20 66 75 6e 63 74 69 6f 6e 20 28 29 20 7b 0a   = function () {.
0200  20 20 63 6f 6e 73 74 20 78 68 72 20 3d 20 6e 65     const xhr = ne
0210  77 20 58 4d 4c 48 74 74 70 52 65 71 75 65 73 74   w XMLHttpRequest
0220  28 29 0a 20 20 78 68 72 2e 6f 70 65 6e 28 27 47   ().  xhr.open('G
0230  45 54 27 2c 20 27 2f 74 69 6d 65 27 29 0a 20 20   ET', '/time').  
0240  78 68 72 2e 72 65 73 70 6f 6e 73 65 54 79 70 65   xhr.responseType
0250  20 3d 20 27 6a 73 6f 6e 27 0a 20 20 78 68 72 2e    = 'json'.  xhr.
0260  6f 6e 6c 6f 61 64 20 3d 20 66 75 6e 63 74 69 6f   onload = functio
0270  6e 20 28 29 20 7b 0a 20 20 20 20 69 66 20 28 78   n () {.    if (x
0280  68 72 2e 73 74 61 74 75 73 20 3d 3d 3d 20 32 30   hr.status === 20
0290  30 29 20 7b 0a 20 20 20 20 20 20 74 69 6d 65 2e   0) {.      time.
02a0  69 6e 6e 65 72 48 54 4d 4c 20 3d 20 78 68 72 2e   innerHTML = xhr.
02b0  72 65 73 70 6f 6e 73 65 2e 74 69 6d 65 0a 20 20   response.time.  
02c0  20 20 7d 20 65 6c 73 65 20 7b 0a 20 20 20 20 20     } else {.     
02d0  20 74 69 6d 65 2e 69 6e 6e 65 72 48 54 4d 4c 20    time.innerHTML 
02e0  3d 20 27 5b 6c 6f 61 64 20 65 72 72 6f 72 5d 27   = '[load error]'
02f0  0a 20 20 20 20 7d 0a 20 20 7d 0a 20 20 78 68 72   .    }.  }.  xhr
0300  2e 6f 6e 65 72 72 6f 72 20 3d 20 66 75 6e 63 74   .onerror = funct
0310  69 6f 6e 20 28 29 20 7b 0a 20 20 20 20 74 69 6d   ion () {.    tim
0320  65 2e 69 6e 6e 65 72 48 54 4d 4c 20 3d 20 27 5b   e.innerHTML = '[
0330  78 68 72 20 65 72 72 6f 72 5d 27 0a 20 20 7d 0a   xhr error]'.  }.
0340  20 20 78 68 72 2e 73 65 6e 64 28 29 0a 7d 0a 3c     xhr.send().}.<
0350  2f 73 63 72 69 70 74 3e 0a 3c 2f 62 6f 64 79 3e   /script>.</body>
0360  0a 3c 2f 68 74 6d 6c 3e 0a                        .</html>.
Reassembled TCP (924 bytes):
0000  48 54 54 50 2f 31 2e 31 20 32 30 30 20 4f 4b 0d   HTTP/1.1 200 OK.
0010  0a 43 6f 6e 74 65 6e 74 2d 54 79 70 65 3a 20 74   .Content-Type: t
0020  65 78 74 2f 68 74 6d 6c 3b 20 63 68 61 72 73 65   ext/html; charse
0030  74 3d 75 74 66 2d 38 0d 0a 43 6f 6e 74 65 6e 74   t=utf-8..Content
0040  2d 4c 65 6e 67 74 68 3a 20 38 30 37 0d 0a 44 61   -Length: 807..Da
0050  74 65 3a 20 54 68 75 2c 20 31 30 20 4a 75 6e 20   te: Thu, 10 Jun 
0060  32 30 32 31 20 30 38 3a 30 34 3a 31 33 20 47 4d   2021 08:04:13 GM
0070  54 0d 0a 0d 0a 3c 21 44 4f 43 54 59 50 45 20 68   T....<!DOCTYPE h
0080  74 6d 6c 3e 0a 3c 68 74 6d 6c 20 6c 61 6e 67 3d   tml>.<html lang=
0090  22 65 6e 22 3e 0a 3c 68 65 61 64 3e 0a 3c 74 69   "en">.<head>.<ti
00a0  74 6c 65 3e 53 65 72 76 65 72 20 54 69 6d 65 20   tle>Server Time 
00b0  28 41 6a 61 78 29 3c 2f 74 69 74 6c 65 3e 0a 3c   (Ajax)</title>.<
00c0  73 74 79 6c 65 3e 0a 62 6f 64 79 20 7b 62 61 63   style>.body {bac
00d0  6b 67 72 6f 75 6e 64 3a 20 62 65 69 67 65 3b 20   kground: beige; 
00e0  66 6f 6e 74 2d 73 69 7a 65 3a 20 32 65 6d 3b 20   font-size: 2em; 
00f0  74 65 78 74 2d 61 6c 69 67 6e 3a 20 63 65 6e 74   text-align: cent
0100  65 72 7d 0a 62 75 74 74 6f 6e 20 7b 66 6f 6e 74   er}.button {font
0110  2d 73 69 7a 65 3a 20 30 2e 37 35 65 6d 7d 0a 74   -size: 0.75em}.t
0120  69 6d 65 20 7b 63 6f 6c 6f 72 3a 20 67 72 65 65   ime {color: gree
0130  6e 7d 0a 3c 2f 73 74 79 6c 65 3e 0a 3c 2f 68 65   n}.</style>.</he
0140  61 64 3e 0a 3c 62 6f 64 79 3e 0a 3c 70 3e 53 65   ad>.<body>.<p>Se
0150  72 76 65 72 20 74 69 6d 65 3a 20 3c 74 69 6d 65   rver time: <time
0160  20 69 64 3d 22 74 69 6d 65 22 3e 30 38 3a 30 34    id="time">08:04
0170  3a 31 33 3c 2f 74 69 6d 65 3e 3c 2f 70 3e 0a 3c   :13</time></p>.<
0180  62 75 74 74 6f 6e 20 69 64 3d 22 62 75 74 74 6f   button id="butto
0190  6e 22 3e 52 65 66 72 65 73 68 20 76 69 61 20 41   n">Refresh via A
01a0  6a 61 78 3c 2f 62 75 74 74 6f 6e 3e 0a 3c 73 63   jax</button>.<sc
01b0  72 69 70 74 3e 0a 63 6f 6e 73 74 20 62 75 74 74   ript>.const butt
01c0  6f 6e 20 3d 20 64 6f 63 75 6d 65 6e 74 2e 67 65   on = document.ge
01d0  74 45 6c 65 6d 65 6e 74 42 79 49 64 28 27 62 75   tElementById('bu
01e0  74 74 6f 6e 27 29 0a 63 6f 6e 73 74 20 74 69 6d   tton').const tim
01f0  65 20 3d 20 64 6f 63 75 6d 65 6e 74 2e 67 65 74   e = document.get
0200  45 6c 65 6d 65 6e 74 42 79 49 64 28 27 74 69 6d   ElementById('tim
0210  65 27 29 0a 62 75 74 74 6f 6e 2e 6f 6e 63 6c 69   e').button.oncli
0220  63 6b 20 3d 20 66 75 6e 63 74 69 6f 6e 20 28 29   ck = function ()
0230  20 7b 0a 20 20 63 6f 6e 73 74 20 78 68 72 20 3d    {.  const xhr =
0240  20 6e 65 77 20 58 4d 4c 48 74 74 70 52 65 71 75    new XMLHttpRequ
0250  65 73 74 28 29 0a 20 20 78 68 72 2e 6f 70 65 6e   est().  xhr.open
0260  28 27 47 45 54 27 2c 20 27 2f 74 69 6d 65 27 29   ('GET', '/time')
0270  0a 20 20 78 68 72 2e 72 65 73 70 6f 6e 73 65 54   .  xhr.responseT
0280  79 70 65 20 3d 20 27 6a 73 6f 6e 27 0a 20 20 78   ype = 'json'.  x
0290  68 72 2e 6f 6e 6c 6f 61 64 20 3d 20 66 75 6e 63   hr.onload = func
02a0  74 69 6f 6e 20 28 29 20 7b 0a 20 20 20 20 69 66   tion () {.    if
02b0  20 28 78 68 72 2e 73 74 61 74 75 73 20 3d 3d 3d    (xhr.status ===
02c0  20 32 30 30 29 20 7b 0a 20 20 20 20 20 20 74 69    200) {.      ti
02d0  6d 65 2e 69 6e 6e 65 72 48 54 4d 4c 20 3d 20 78   me.innerHTML = x
02e0  68 72 2e 72 65 73 70 6f 6e 73 65 2e 74 69 6d 65   hr.response.time
02f0  0a 20 20 20 20 7d 20 65 6c 73 65 20 7b 0a 20 20   .    } else {.  
0300  20 20 20 20 74 69 6d 65 2e 69 6e 6e 65 72 48 54       time.innerHT
0310  4d 4c 20 3d 20 27 5b 6c 6f 61 64 20 65 72 72 6f   ML = '[load erro
0320  72 5d 27 0a 20 20 20 20 7d 0a 20 20 7d 0a 20 20   r]'.    }.  }.  
0330  78 68 72 2e 6f 6e 65 72 72 6f 72 20 3d 20 66 75   xhr.onerror = fu
0340  6e 63 74 69 6f 6e 20 28 29 20 7b 0a 20 20 20 20   nction () {.    
0350  74 69 6d 65 2e 69 6e 6e 65 72 48 54 4d 4c 20 3d   time.innerHTML =
0360  20 27 5b 78 68 72 20 65 72 72 6f 72 5d 27 0a 20    '[xhr error]'. 
0370  20 7d 0a 20 20 78 68 72 2e 73 65 6e 64 28 29 0a    }.  xhr.send().
0380  7d 0a 3c 2f 73 63 72 69 70 74 3e 0a 3c 2f 62 6f   }.</script>.</bo
0390  64 79 3e 0a 3c 2f 68 74 6d 6c 3e 0a               dy>.</html>.

0000  f2 3c 92 4d a0 0a 52 50 d9 7c d8 57 08 00 45 00   .<.M..RP.|.W..E.
0010  00 34 00 00 40 00 36 06 95 0c 31 cf d3 8f ac 69   .4..@.6...1....i
0020  fd ef ca 0e 1f 40 d5 63 96 a9 6b 13 4f ab 80 10   .....@.c..k.O...
0030  08 07 1c e5 00 00 01 01 08 0a 34 0b aa 7a 03 12   ..........4..z..
0040  b0 66                                             .f

0000  f2 3c 92 4d a0 0a 52 50 d9 7c d8 57 08 00 45 00   .<.M..RP.|.W..E.
0010  01 53 00 00 40 00 36 06 93 ed 31 cf d3 8f ac 69   .S..@.6...1....i
0020  fd ef ca 0e 1f 40 d5 63 96 a9 6b 13 4f ab 80 18   .....@.c..k.O...
0030  08 07 d3 83 00 00 01 01 08 0a 34 0b d2 23 03 12   ..........4..#..
0040  b0 66 47 45 54 20 2f 74 69 6d 65 20 48 54 54 50   .fGET /time HTTP
0050  2f 31 2e 31 0d 0a 48 6f 73 74 3a 20 31 37 32 2e   /1.1..Host: 172.
0060  31 30 35 2e 32 35 33 2e 32 33 39 3a 38 30 30 30   105.253.239:8000
0070  0d 0a 55 73 65 72 2d 41 67 65 6e 74 3a 20 4d 6f   ..User-Agent: Mo
0080  7a 69 6c 6c 61 2f 35 2e 30 20 28 4d 61 63 69 6e   zilla/5.0 (Macin
0090  74 6f 73 68 3b 20 49 6e 74 65 6c 20 4d 61 63 20   tosh; Intel Mac 
00a0  4f 53 20 58 20 31 30 2e 31 35 3b 20 72 76 3a 38   OS X 10.15; rv:8
00b0  39 2e 30 29 20 47 65 63 6b 6f 2f 32 30 31 30 30   9.0) Gecko/20100
00c0  31 30 31 20 46 69 72 65 66 6f 78 2f 38 39 2e 30   101 Firefox/89.0
00d0  0d 0a 41 63 63 65 70 74 3a 20 2a 2f 2a 0d 0a 41   ..Accept: */*..A
00e0  63 63 65 70 74 2d 4c 61 6e 67 75 61 67 65 3a 20   ccept-Language: 
00f0  65 6e 2d 55 53 2c 65 6e 3b 71 3d 30 2e 35 0d 0a   en-US,en;q=0.5..
0100  41 63 63 65 70 74 2d 45 6e 63 6f 64 69 6e 67 3a   Accept-Encoding:
0110  20 67 7a 69 70 2c 20 64 65 66 6c 61 74 65 0d 0a    gzip, deflate..
0120  43 6f 6e 6e 65 63 74 69 6f 6e 3a 20 6b 65 65 70   Connection: keep
0130  2d 61 6c 69 76 65 0d 0a 52 65 66 65 72 65 72 3a   -alive..Referer:
0140  20 68 74 74 70 3a 2f 2f 31 37 32 2e 31 30 35 2e    http://172.105.
0150  32 35 33 2e 32 33 39 3a 38 30 30 30 2f 0d 0a 0d   253.239:8000/...
0160  0a                                                .

0000  00 00 5e 00 be ef f2 3c 92 4d a0 0a 08 00 45 00   ..^....<.M....E.
0010  00 a0 21 92 40 00 40 06 69 0e ac 69 fd ef 31 cf   ..!.@.@.i..i..1.
0020  d3 8f 1f 40 ca 0e 6b 13 4f ab d5 63 97 c8 80 18   ...@..k.O..c....
0030  01 f9 b0 4a 00 00 01 01 08 0a 03 12 d8 33 34 0b   ...J.........34.
0040  d2 23 48 54 54 50 2f 31 2e 31 20 32 30 30 20 4f   .#HTTP/1.1 200 O
0050  4b 0d 0a 43 6f 6e 74 65 6e 74 2d 54 79 70 65 3a   K..Content-Type:
0060  20 61 70 70 6c 69 63 61 74 69 6f 6e 2f 6a 73 6f    application/jso
0070  6e 0d 0a 43 6f 6e 74 65 6e 74 2d 4c 65 6e 67 74   n..Content-Lengt
0080  68 3a 20 32 30 0d 0a 44 61 74 65 3a 20 54 68 75   h: 20..Date: Thu
0090  2c 20 31 30 20 4a 75 6e 20 32 30 32 31 20 30 38   , 10 Jun 2021 08
00a0  3a 30 34 3a 32 33 20 47 4d 54 0d 0a 0d 0a         :04:23 GMT....

0000  f2 3c 92 4d a0 0a 52 50 d9 7c d8 57 08 00 45 00   .<.M..RP.|.W..E.
0010  00 34 00 00 40 00 36 06 95 0c 31 cf d3 8f ac 69   .4..@.6...1....i
0020  fd ef ca 0e 1f 40 d5 63 97 c8 6b 13 50 17 80 10   .....@.c..k.P...
0030  08 05 cb c9 00 00 01 01 08 0a 34 0b d2 3f 03 12   ..........4..?..
0040  d8 33                                             .3

Frame (86 bytes):
0000  00 00 5e 00 be ef f2 3c 92 4d a0 0a 08 00 45 00   ..^....<.M....E.
0010  00 48 21 93 40 00 40 06 69 65 ac 69 fd ef 31 cf   .H!.@.@.ie.i..1.
0020  d3 8f 1f 40 ca 0e 6b 13 50 17 d5 63 97 c8 80 18   ...@..k.P..c....
0030  01 f9 af f2 00 00 01 01 08 0a 03 12 d8 4f 34 0b   .............O4.
0040  d2 3f 7b 22 74 69 6d 65 22 3a 22 30 38 3a 30 34   .?{"time":"08:04
0050  3a 32 33 22 7d 0a                                 :23"}.
Reassembled TCP (128 bytes):
0000  48 54 54 50 2f 31 2e 31 20 32 30 30 20 4f 4b 0d   HTTP/1.1 200 OK.
0010  0a 43 6f 6e 74 65 6e 74 2d 54 79 70 65 3a 20 61   .Content-Type: a
0020  70 70 6c 69 63 61 74 69 6f 6e 2f 6a 73 6f 6e 0d   pplication/json.
0030  0a 43 6f 6e 74 65 6e 74 2d 4c 65 6e 67 74 68 3a   .Content-Length:
0040  20 32 30 0d 0a 44 61 74 65 3a 20 54 68 75 2c 20    20..Date: Thu, 
0050  31 30 20 4a 75 6e 20 32 30 32 31 20 30 38 3a 30   10 Jun 2021 08:0
0060  34 3a 32 33 20 47 4d 54 0d 0a 0d 0a 7b 22 74 69   4:23 GMT....{"ti
0070  6d 65 22 3a 22 30 38 3a 30 34 3a 32 33 22 7d 0a   me":"08:04:23"}.

0000  f2 3c 92 4d a0 0a 52 50 d9 7c d8 57 08 00 45 00   .<.M..RP.|.W..E.
0010  00 34 00 00 40 00 36 06 95 0c 31 cf d3 8f ac 69   .4..@.6...1....i
0020  fd ef ca 0e 1f 40 d5 63 97 c8 6b 13 50 2b 80 10   .....@.c..k.P+..
0030  08 05 cb 7e 00 00 01 01 08 0a 34 0b d2 5a 03 12   ...~......4..Z..
0040  d8 4f                                             .O

0000  f2 3c 92 4d a0 0a 52 50 d9 7c d8 57 08 00 45 00   .<.M..RP.|.W..E.
0010  01 53 00 00 40 00 36 06 93 ed 31 cf d3 8f ac 69   .S..@.6...1....i
0020  fd ef ca 0e 1f 40 d5 63 97 c8 6b 13 50 2b 80 18   .....@.c..k.P+..
0030  08 05 83 46 00 00 01 01 08 0a 34 0b f8 da 03 12   ...F......4.....
0040  d8 4f 47 45 54 20 2f 74 69 6d 65 20 48 54 54 50   .OGET /time HTTP
0050  2f 31 2e 31 0d 0a 48 6f 73 74 3a 20 31 37 32 2e   /1.1..Host: 172.
0060  31 30 35 2e 32 35 33 2e 32 33 39 3a 38 30 30 30   105.253.239:8000
0070  0d 0a 55 73 65 72 2d 41 67 65 6e 74 3a 20 4d 6f   ..User-Agent: Mo
0080  7a 69 6c 6c 61 2f 35 2e 30 20 28 4d 61 63 69 6e   zilla/5.0 (Macin
0090  74 6f 73 68 3b 20 49 6e 74 65 6c 20 4d 61 63 20   tosh; Intel Mac 
00a0  4f 53 20 58 20 31 30 2e 31 35 3b 20 72 76 3a 38   OS X 10.15; rv:8
00b0  39 2e 30 29 20 47 65 63 6b 6f 2f 32 30 31 30 30   9.0) Gecko/20100
00c0  31 30 31 20 46 69 72 65 66 6f 78 2f 38 39 2e 30   101 Firefox/89.0
00d0  0d 0a 41 63 63 65 70 74 3a 20 2a 2f 2a 0d 0a 41   ..Accept: */*..A
00e0  63 63 65 70 74 2d 4c 61 6e 67 75 61 67 65 3a 20   ccept-Language: 
00f0  65 6e 2d 55 53 2c 65 6e 3b 71 3d 30 2e 35 0d 0a   en-US,en;q=0.5..
0100  41 63 63 65 70 74 2d 45 6e 63 6f 64 69 6e 67 3a   Accept-Encoding:
0110  20 67 7a 69 70 2c 20 64 65 66 6c 61 74 65 0d 0a    gzip, deflate..
0120  43 6f 6e 6e 65 63 74 69 6f 6e 3a 20 6b 65 65 70   Connection: keep
0130  2d 61 6c 69 76 65 0d 0a 52 65 66 65 72 65 72 3a   -alive..Referer:
0140  20 68 74 74 70 3a 2f 2f 31 37 32 2e 31 30 35 2e    http://172.105.
0150  32 35 33 2e 32 33 39 3a 38 30 30 30 2f 0d 0a 0d   253.239:8000/...
0160  0a                                                .

0000  00 00 5e 00 be ef f2 3c 92 4d a0 0a 08 00 45 00   ..^....<.M....E.
0010  00 a0 21 94 40 00 40 06 69 0c ac 69 fd ef 31 cf   ..!.@.@.i..i..1.
0020  d3 8f 1f 40 ca 0e 6b 13 50 2b d5 63 98 e7 80 18   ...@..k.P+.c....
0030  01 f7 b0 4a 00 00 01 01 08 0a 03 12 fe f8 34 0b   ...J..........4.
0040  f8 da 48 54 54 50 2f 31 2e 31 20 32 30 30 20 4f   ..HTTP/1.1 200 O
0050  4b 0d 0a 43 6f 6e 74 65 6e 74 2d 54 79 70 65 3a   K..Content-Type:
0060  20 61 70 70 6c 69 63 61 74 69 6f 6e 2f 6a 73 6f    application/jso
0070  6e 0d 0a 43 6f 6e 74 65 6e 74 2d 4c 65 6e 67 74   n..Content-Lengt
0080  68 3a 20 32 30 0d 0a 44 61 74 65 3a 20 54 68 75   h: 20..Date: Thu
0090  2c 20 31 30 20 4a 75 6e 20 32 30 32 31 20 30 38   , 10 Jun 2021 08
00a0  3a 30 34 3a 33 33 20 47 4d 54 0d 0a 0d 0a         :04:33 GMT....

0000  f2 3c 92 4d a0 0a 52 50 d9 7c d8 57 08 00 45 00   .<.M..RP.|.W..E.
0010  00 34 00 00 40 00 36 06 95 0c 31 cf d3 8f ac 69   .4..@.6...1....i
0020  fd ef ca 0e 1f 40 d5 63 98 e7 6b 13 50 97 80 10   .....@.c..k.P...
0030  08 03 7c af 00 00 01 01 08 0a 34 0b f8 f7 03 12   ..|.......4.....
0040  fe f8                                             ..

Frame (86 bytes):
0000  00 00 5e 00 be ef f2 3c 92 4d a0 0a 08 00 45 00   ..^....<.M....E.
0010  00 48 21 95 40 00 40 06 69 63 ac 69 fd ef 31 cf   .H!.@.@.ic.i..1.
0020  d3 8f 1f 40 ca 0e 6b 13 50 97 d5 63 98 e7 80 18   ...@..k.P..c....
0030  01 f7 af f2 00 00 01 01 08 0a 03 12 ff 15 34 0b   ..............4.
0040  f8 f7 7b 22 74 69 6d 65 22 3a 22 30 38 3a 30 34   ..{"time":"08:04
0050  3a 33 33 22 7d 0a                                 :33"}.
Reassembled TCP (128 bytes):
0000  48 54 54 50 2f 31 2e 31 20 32 30 30 20 4f 4b 0d   HTTP/1.1 200 OK.
0010  0a 43 6f 6e 74 65 6e 74 2d 54 79 70 65 3a 20 61   .Content-Type: a
0020  70 70 6c 69 63 61 74 69 6f 6e 2f 6a 73 6f 6e 0d   pplication/json.
0030  0a 43 6f 6e 74 65 6e 74 2d 4c 65 6e 67 74 68 3a   .Content-Length:
0040  20 32 30 0d 0a 44 61 74 65 3a 20 54 68 75 2c 20    20..Date: Thu, 
0050  31 30 20 4a 75 6e 20 32 30 32 31 20 30 38 3a 30   10 Jun 2021 08:0
0060  34 3a 33 33 20 47 4d 54 0d 0a 0d 0a 7b 22 74 69   4:33 GMT....{"ti
0070  6d 65 22 3a 22 30 38 3a 30 34 3a 33 33 22 7d 0a   me":"08:04:33"}.

0000  f2 3c 92 4d a0 0a 52 50 d9 7c d8 57 08 00 45 00   .<.M..RP.|.W..E.
0010  00 34 00 00 40 00 36 06 95 0c 31 cf d3 8f ac 69   .4..@.6...1....i
0020  fd ef ca 0e 1f 40 d5 63 98 e7 6b 13 50 ab 80 10   .....@.c..k.P...
0030  08 03 7c 62 00 00 01 01 08 0a 34 0b f9 13 03 12   ..|b......4.....
0040  ff 15                                             ..

0000  f2 3c 92 4d a0 0a 52 50 d9 7c d8 57 08 00 45 00   .<.M..RP.|.W..E.
0010  01 53 00 00 40 00 36 06 93 ed 31 cf d3 8f ac 69   .S..@.6...1....i
0020  fd ef ca 0e 1f 40 d5 63 98 e7 6b 13 50 ab 80 18   .....@.c..k.P...
0030  08 03 34 64 00 00 01 01 08 0a 34 0c 1f 59 03 12   ..4d......4..Y..
0040  ff 15 47 45 54 20 2f 74 69 6d 65 20 48 54 54 50   ..GET /time HTTP
0050  2f 31 2e 31 0d 0a 48 6f 73 74 3a 20 31 37 32 2e   /1.1..Host: 172.
0060  31 30 35 2e 32 35 33 2e 32 33 39 3a 38 30 30 30   105.253.239:8000
0070  0d 0a 55 73 65 72 2d 41 67 65 6e 74 3a 20 4d 6f   ..User-Agent: Mo
0080  7a 69 6c 6c 61 2f 35 2e 30 20 28 4d 61 63 69 6e   zilla/5.0 (Macin
0090  74 6f 73 68 3b 20 49 6e 74 65 6c 20 4d 61 63 20   tosh; Intel Mac 
00a0  4f 53 20 58 20 31 30 2e 31 35 3b 20 72 76 3a 38   OS X 10.15; rv:8
00b0  39 2e 30 29 20 47 65 63 6b 6f 2f 32 30 31 30 30   9.0) Gecko/20100
00c0  31 30 31 20 46 69 72 65 66 6f 78 2f 38 39 2e 30   101 Firefox/89.0
00d0  0d 0a 41 63 63 65 70 74 3a 20 2a 2f 2a 0d 0a 41   ..Accept: */*..A
00e0  63 63 65 70 74 2d 4c 61 6e 67 75 61 67 65 3a 20   ccept-Language: 
00f0  65 6e 2d 55 53 2c 65 6e 3b 71 3d 30 2e 35 0d 0a   en-US,en;q=0.5..
0100  41 63 63 65 70 74 2d 45 6e 63 6f 64 69 6e 67 3a   Accept-Encoding:
0110  20 67 7a 69 70 2c 20 64 65 66 6c 61 74 65 0d 0a    gzip, deflate..
0120  43 6f 6e 6e 65 63 74 69 6f 6e 3a 20 6b 65 65 70   Connection: keep
0130  2d 61 6c 69 76 65 0d 0a 52 65 66 65 72 65 72 3a   -alive..Referer:
0140  20 68 74 74 70 3a 2f 2f 31 37 32 2e 31 30 35 2e    http://172.105.
0150  32 35 33 2e 32 33 39 3a 38 30 30 30 2f 0d 0a 0d   253.239:8000/...
0160  0a                                                .

0000  00 00 5e 00 be ef f2 3c 92 4d a0 0a 08 00 45 00   ..^....<.M....E.
0010  00 a0 21 96 40 00 40 06 69 0a ac 69 fd ef 31 cf   ..!.@.@.i..i..1.
0020  d3 8f 1f 40 ca 0e 6b 13 50 ab d5 63 9a 06 80 18   ...@..k.P..c....
0030  01 f5 b0 4a 00 00 01 01 08 0a 03 13 25 7e 34 0c   ...J........%~4.
0040  1f 59 48 54 54 50 2f 31 2e 31 20 32 30 30 20 4f   .YHTTP/1.1 200 O
0050  4b 0d 0a 43 6f 6e 74 65 6e 74 2d 54 79 70 65 3a   K..Content-Type:
0060  20 61 70 70 6c 69 63 61 74 69 6f 6e 2f 6a 73 6f    application/jso
0070  6e 0d 0a 43 6f 6e 74 65 6e 74 2d 4c 65 6e 67 74   n..Content-Lengt
0080  68 3a 20 32 30 0d 0a 44 61 74 65 3a 20 54 68 75   h: 20..Date: Thu
0090  2c 20 31 30 20 4a 75 6e 20 32 30 32 31 20 30 38   , 10 Jun 2021 08
00a0  3a 30 34 3a 34 33 20 47 4d 54 0d 0a 0d 0a         :04:43 GMT....

0000  f2 3c 92 4d a0 0a 52 50 d9 7c d8 57 08 00 45 00   .<.M..RP.|.W..E.
0010  00 34 00 00 40 00 36 06 95 0c 31 cf d3 8f ac 69   .4..@.6...1....i
0020  fd ef ca 0e 1f 40 d5 63 9a 06 6b 13 51 17 80 10   .....@.c..k.Q...
0030  08 01 2e 0d 00 00 01 01 08 0a 34 0c 1f 76 03 13   ..........4..v..
0040  25 7e                                             %~

Frame (86 bytes):
0000  00 00 5e 00 be ef f2 3c 92 4d a0 0a 08 00 45 00   ..^....<.M....E.
0010  00 48 21 97 40 00 40 06 69 61 ac 69 fd ef 31 cf   .H!.@.@.ia.i..1.
0020  d3 8f 1f 40 ca 0e 6b 13 51 17 d5 63 9a 06 80 18   ...@..k.Q..c....
0030  01 f5 af f2 00 00 01 01 08 0a 03 13 25 99 34 0c   ............%.4.
0040  1f 76 7b 22 74 69 6d 65 22 3a 22 30 38 3a 30 34   .v{"time":"08:04
0050  3a 34 33 22 7d 0a                                 :43"}.
Reassembled TCP (128 bytes):
0000  48 54 54 50 2f 31 2e 31 20 32 30 30 20 4f 4b 0d   HTTP/1.1 200 OK.
0010  0a 43 6f 6e 74 65 6e 74 2d 54 79 70 65 3a 20 61   .Content-Type: a
0020  70 70 6c 69 63 61 74 69 6f 6e 2f 6a 73 6f 6e 0d   pplication/json.
0030  0a 43 6f 6e 74 65 6e 74 2d 4c 65 6e 67 74 68 3a   .Content-Length:
0040  20 32 30 0d 0a 44 61 74 65 3a 20 54 68 75 2c 20    20..Date: Thu, 
0050  31 30 20 4a 75 6e 20 32 30 32 31 20 30 38 3a 30   10 Jun 2021 08:0
0060  34 3a 34 33 20 47 4d 54 0d 0a 0d 0a 7b 22 74 69   4:43 GMT....{"ti
0070  6d 65 22 3a 22 30 38 3a 30 34 3a 34 33 22 7d 0a   me":"08:04:43"}.

0000  f2 3c 92 4d a0 0a 52 50 d9 7c d8 57 08 00 45 00   .<.M..RP.|.W..E.
0010  00 34 00 00 40 00 36 06 95 0c 31 cf d3 8f ac 69   .4..@.6...1....i
0020  fd ef ca 0e 1f 40 d5 63 9a 06 6b 13 51 2b 80 10   .....@.c..k.Q+..
0030  08 01 2d c3 00 00 01 01 08 0a 34 0c 1f 91 03 13   ..-.......4.....
0040  25 99                                             %.

0000  f2 3c 92 4d a0 0a 52 50 d9 7c d8 57 08 00 45 00   .<.M..RP.|.W..E.
0010  00 34 00 00 40 00 36 06 95 0c 31 cf d3 8f ac 69   .4..@.6...1....i
0020  fd ef ca 0e 1f 40 d5 63 9a 06 6b 13 51 2b 80 11   .....@.c..k.Q+..
0030  08 01 06 29 00 00 01 01 08 0a 34 0c 47 2a 03 13   ...)......4.G*..
0040  25 99                                             %.

0000  00 00 5e 00 be ef f2 3c 92 4d a0 0a 08 00 45 00   ..^....<.M....E.
0010  00 34 21 98 40 00 40 06 69 74 ac 69 fd ef 31 cf   .4!.@.@.it.i..1.
0020  d3 8f 1f 40 ca 0e 6b 13 51 2b d5 63 9a 07 80 11   ...@..k.Q+.c....
0030  01 f5 af de 00 00 01 01 08 0a 03 13 4d 5a 34 0c   ............MZ4.
0040  47 2a                                             G*

0000  f2 3c 92 4d a0 0a 52 50 d9 7c d8 57 08 00 45 00   .<.M..RP.|.W..E.
0010  00 34 00 00 40 00 36 06 95 0c 31 cf d3 8f ac 69   .4..@.6...1....i
0020  fd ef ca 0e 1f 40 d5 63 9a 07 6b 13 51 2c 80 10   .....@.c..k.Q,..
0030  08 01 de 4c 00 00 01 01 08 0a 34 0c 47 44 03 13   ...L......4.GD..
0040  4d 5a                                             MZ


$ tshark -nr pcap/ajaxapp.pcap
    1   0.000000 2021-06-10 08:04:13.037491 78 49.207.211.143  172.105.253.239 TCP 78 51726  8000 [SYN] Seq=0 Win=65535 Len=0 MSS=1452 WS=64 TSval=873179678 TSecr=0 SACK_PERM=1
    2   0.000033 2021-06-10 08:04:13.037524 74 172.105.253.239  49.207.211.143 TCP 74 8000  51726 [SYN, ACK] Seq=0 Ack=1 Win=65160 Len=0 MSS=1460 SACK_PERM=1 TSval=51556390 TSecr=873179678 WS=128
    3   0.028102 2021-06-10 08:04:13.065593 66 49.207.211.143  172.105.253.239 TCP 66 51726  8000 [ACK] Seq=1 Ack=1 Win=132480 Len=0 TSval=873179706 TSecr=51556390
    4   0.030729 2021-06-10 08:04:13.068220 411 49.207.211.143  172.105.253.239 HTTP 411 GET / HTTP/1.1 
    5   0.030756 2021-06-10 08:04:13.068247 66 172.105.253.239  49.207.211.143 TCP 66 8000  51726 [ACK] Seq=1 Ack=346 Win=64896 Len=0 TSval=51556421 TSecr=873179706
    6   0.035532 2021-06-10 08:04:13.073023 183 172.105.253.239  49.207.211.143 TCP 183 HTTP/1.1 200 OK  [TCP segment of a reassembled PDU]
    7   0.063437 2021-06-10 08:04:13.100928 66 49.207.211.143  172.105.253.239 TCP 66 51726  8000 [ACK] Seq=346 Ack=118 Win=132352 Len=0 TSval=873179740 TSecr=51556426
    8   0.063453 2021-06-10 08:04:13.100944 873 172.105.253.239  49.207.211.143 HTTP 873 HTTP/1.1 200 OK  (text/html)
    9   0.094138 2021-06-10 08:04:13.131629 66 49.207.211.143  172.105.253.239 TCP 66 51726  8000 [ACK] Seq=346 Ack=925 Win=131520 Len=0 TSval=873179770 TSecr=51556454
   10  10.251469 2021-06-10 08:04:23.288960 353 49.207.211.143  172.105.253.239 HTTP 353 GET /time HTTP/1.1 
   11  10.252706 2021-06-10 08:04:23.290197 174 172.105.253.239  49.207.211.143 TCP 174 HTTP/1.1 200 OK  [TCP segment of a reassembled PDU]
   12  10.280443 2021-06-10 08:04:23.317934 66 49.207.211.143  172.105.253.239 TCP 66 51726  8000 [ACK] Seq=633 Ack=1033 Win=131392 Len=0 TSval=873189951 TSecr=51566643
   13  10.280472 2021-06-10 08:04:23.317963 86 172.105.253.239  49.207.211.143 HTTP/JSON 86 HTTP/1.1 200 OK , JavaScript Object Notation (application/json)
   14  10.308945 2021-06-10 08:04:23.346436 66 49.207.211.143  172.105.253.239 TCP 66 51726  8000 [ACK] Seq=633 Ack=1053 Win=131392 Len=0 TSval=873189978 TSecr=51566671
   15  20.176185 2021-06-10 08:04:33.213676 353 49.207.211.143  172.105.253.239 HTTP 353 GET /time HTTP/1.1 
   16  20.177379 2021-06-10 08:04:33.214870 174 172.105.253.239  49.207.211.143 TCP 174 HTTP/1.1 200 OK  [TCP segment of a reassembled PDU]
   17  20.206095 2021-06-10 08:04:33.243586 66 49.207.211.143  172.105.253.239 TCP 66 51726  8000 [ACK] Seq=920 Ack=1161 Win=131264 Len=0 TSval=873199863 TSecr=51576568
   18  20.206118 2021-06-10 08:04:33.243609 86 172.105.253.239  49.207.211.143 HTTP/JSON 86 HTTP/1.1 200 OK , JavaScript Object Notation (application/json)
   19  20.233698 2021-06-10 08:04:33.271189 66 49.207.211.143  172.105.253.239 TCP 66 51726  8000 [ACK] Seq=920 Ack=1181 Win=131264 Len=0 TSval=873199891 TSecr=51576597
   20  30.037566 2021-06-10 08:04:43.075057 353 49.207.211.143  172.105.253.239 HTTP 353 GET /time HTTP/1.1 
   21  30.038719 2021-06-10 08:04:43.076210 174 172.105.253.239  49.207.211.143 TCP 174 HTTP/1.1 200 OK  [TCP segment of a reassembled PDU]
   22  30.066088 2021-06-10 08:04:43.103579 66 49.207.211.143  172.105.253.239 TCP 66 51726  8000 [ACK] Seq=1207 Ack=1289 Win=131136 Len=0 TSval=873209718 TSecr=51586430
   23  30.066110 2021-06-10 08:04:43.103601 86 172.105.253.239  49.207.211.143 HTTP/JSON 86 HTTP/1.1 200 OK , JavaScript Object Notation (application/json)
   24  30.093549 2021-06-10 08:04:43.131040 66 49.207.211.143  172.105.253.239 TCP 66 51726  8000 [ACK] Seq=1207 Ack=1309 Win=131136 Len=0 TSval=873209745 TSecr=51586457
   25  40.242056 2021-06-10 08:04:53.279547 66 49.207.211.143  172.105.253.239 TCP 66 51726  8000 [FIN, ACK] Seq=1207 Ack=1309 Win=131136 Len=0 TSval=873219882 TSecr=51586457
   26  40.242278 2021-06-10 08:04:53.279769 66 172.105.253.239  49.207.211.143 TCP 66 8000  51726 [FIN, ACK] Seq=1309 Ack=1208 Win=64128 Len=0 TSval=51596634 TSecr=873219882
   27  40.271610 2021-06-10 08:04:53.309101 66 49.207.211.143  172.105.253.239 TCP 66 51726  8000 [ACK] Seq=1208 Ack=1310 Win=131136 Len=0 TSval=873219908 TSecr=51596634
