$ tcpdump -nXXr pcap/sseapp.pcap
reading from file pcap/sseapp.pcap, link-type EN10MB (Ethernet)
17:12:04.174951 IP 49.207.194.56.6112 > 172.105.253.239.8000: Flags [S], seq 2452988349, win 65535, options [mss 1452,nop,wscale 6,nop,nop,TS val 886231106 ecr 0,sackOK,eol], length 0
	0x0000:  f23c 924d a00a 5250 d97c d857 0800 4500  .<.M..RP.|.W..E.
	0x0010:  0040 0000 4000 3606 a657 31cf c238 ac69  .@..@.6..W1..8.i
	0x0020:  fdef 17e0 1f40 9235 a1bd 0000 0000 b002  .....@.5........
	0x0030:  ffff 287b 0000 0204 05ac 0103 0306 0101  ..({............
	0x0040:  080a 34d2 d042 0000 0000 0402 0000       ..4..B........
17:12:04.174993 IP 172.105.253.239.8000 > 49.207.194.56.6112: Flags [S.], seq 1479420933, ack 2452988350, win 65160, options [mss 1460,sackOK,TS val 617182801 ecr 886231106,nop,wscale 7], length 0
	0x0000:  0000 5e00 beef f23c 924d a00a 0800 4500  ..^....<.M....E.
	0x0010:  003c 0000 4000 4006 9c5b ac69 fdef 31cf  .<..@.@..[.i..1.
	0x0020:  c238 1f40 17e0 582e 2c05 9235 a1be a012  .8.@..X.,..5....
	0x0030:  fe88 9e8f 0000 0204 05b4 0402 080a 24c9  ..............$.
	0x0040:  7651 34d2 d042 0103 0307                 vQ4..B....
17:12:04.200286 IP 49.207.194.56.6112 > 172.105.253.239.8000: Flags [.], ack 1, win 2070, options [nop,nop,TS val 886231132 ecr 617182801], length 0
	0x0000:  f23c 924d a00a 5250 d97c d857 0800 4500  .<.M..RP.|.W..E.
	0x0010:  0034 0000 4000 3606 a663 31cf c238 ac69  .4..@.6..c1..8.i
	0x0020:  fdef 17e0 1f40 9235 a1be 582e 2c06 8010  .....@.5..X.,...
	0x0030:  0816 40b4 0000 0101 080a 34d2 d05c 24c9  ..@.......4..\$.
	0x0040:  7651                                     vQ
17:12:04.208704 IP 49.207.194.56.6112 > 172.105.253.239.8000: Flags [P.], seq 1:346, ack 1, win 2070, options [nop,nop,TS val 886231132 ecr 617182801], length 345
	0x0000:  f23c 924d a00a 5250 d97c d857 0800 4500  .<.M..RP.|.W..E.
	0x0010:  018d 0000 4000 3606 a50a 31cf c238 ac69  ....@.6...1..8.i
	0x0020:  fdef 17e0 1f40 9235 a1be 582e 2c06 8018  .....@.5..X.,...
	0x0030:  0816 c354 0000 0101 080a 34d2 d05c 24c9  ...T......4..\$.
	0x0040:  7651 4745 5420 2f20 4854 5450 2f31 2e31  vQGET./.HTTP/1.1
	0x0050:  0d0a 486f 7374 3a20 3137 322e 3130 352e  ..Host:.172.105.
	0x0060:  3235 332e 3233 393a 3830 3030 0d0a 5573  253.239:8000..Us
	0x0070:  6572 2d41 6765 6e74 3a20 4d6f 7a69 6c6c  er-Agent:.Mozill
	0x0080:  612f 352e 3020 284d 6163 696e 746f 7368  a/5.0.(Macintosh
	0x0090:  3b20 496e 7465 6c20 4d61 6320 4f53 2058  ;.Intel.Mac.OS.X
	0x00a0:  2031 302e 3135 3b20 7276 3a38 392e 3029  .10.15;.rv:89.0)
	0x00b0:  2047 6563 6b6f 2f32 3031 3030 3130 3120  .Gecko/20100101.
	0x00c0:  4669 7265 666f 782f 3839 2e30 0d0a 4163  Firefox/89.0..Ac
	0x00d0:  6365 7074 3a20 7465 7874 2f68 746d 6c2c  cept:.text/html,
	0x00e0:  6170 706c 6963 6174 696f 6e2f 7868 746d  application/xhtm
	0x00f0:  6c2b 786d 6c2c 6170 706c 6963 6174 696f  l+xml,applicatio
	0x0100:  6e2f 786d 6c3b 713d 302e 392c 696d 6167  n/xml;q=0.9,imag
	0x0110:  652f 7765 6270 2c2a 2f2a 3b71 3d30 2e38  e/webp,*/*;q=0.8
	0x0120:  0d0a 4163 6365 7074 2d4c 616e 6775 6167  ..Accept-Languag
	0x0130:  653a 2065 6e2d 5553 2c65 6e3b 713d 302e  e:.en-US,en;q=0.
	0x0140:  350d 0a41 6363 6570 742d 456e 636f 6469  5..Accept-Encodi
	0x0150:  6e67 3a20 677a 6970 2c20 6465 666c 6174  ng:.gzip,.deflat
	0x0160:  650d 0a43 6f6e 6e65 6374 696f 6e3a 206b  e..Connection:.k
	0x0170:  6565 702d 616c 6976 650d 0a55 7067 7261  eep-alive..Upgra
	0x0180:  6465 2d49 6e73 6563 7572 652d 5265 7175  de-Insecure-Requ
	0x0190:  6573 7473 3a20 310d 0a0d 0a              ests:.1....
17:12:04.208728 IP 172.105.253.239.8000 > 49.207.194.56.6112: Flags [.], ack 346, win 507, options [nop,nop,TS val 617182835 ecr 886231132], length 0
	0x0000:  0000 5e00 beef f23c 924d a00a 0800 4500  ..^....<.M....E.
	0x0010:  0034 2486 4000 4006 77dd ac69 fdef 31cf  .4$.@.@.w..i..1.
	0x0020:  c238 1f40 17e0 582e 2c06 9235 a317 8010  .8.@..X.,..5....
	0x0030:  01fb 9e87 0000 0101 080a 24c9 7673 34d2  ..........$.vs4.
	0x0040:  d05c                                     .\
17:12:04.218935 IP 172.105.253.239.8000 > 49.207.194.56.6112: Flags [P.], seq 1:118, ack 346, win 507, options [nop,nop,TS val 617182845 ecr 886231132], length 117
	0x0000:  0000 5e00 beef f23c 924d a00a 0800 4500  ..^....<.M....E.
	0x0010:  00a9 2487 4000 4006 7767 ac69 fdef 31cf  ..$.@.@.wg.i..1.
	0x0020:  c238 1f40 17e0 582e 2c06 9235 a317 8018  .8.@..X.,..5....
	0x0030:  01fb 9efc 0000 0101 080a 24c9 767d 34d2  ..........$.v}4.
	0x0040:  d05c 4854 5450 2f31 2e31 2032 3030 204f  .\HTTP/1.1.200.O
	0x0050:  4b0d 0a43 6f6e 7465 6e74 2d54 7970 653a  K..Content-Type:
	0x0060:  2074 6578 742f 6874 6d6c 3b20 6368 6172  .text/html;.char
	0x0070:  7365 743d 7574 662d 380d 0a43 6f6e 7465  set=utf-8..Conte
	0x0080:  6e74 2d4c 656e 6774 683a 2035 3639 0d0a  nt-Length:.569..
	0x0090:  4461 7465 3a20 5468 752c 2031 3020 4a75  Date:.Thu,.10.Ju
	0x00a0:  6e20 3230 3231 2031 313a 3432 3a30 3420  n.2021.11:42:04.
	0x00b0:  474d 540d 0a0d 0a                        GMT....
17:12:04.246672 IP 49.207.194.56.6112 > 172.105.253.239.8000: Flags [.], ack 118, win 2068, options [nop,nop,TS val 886231175 ecr 617182845], length 0
	0x0000:  f23c 924d a00a 5250 d97c d857 0800 4500  .<.M..RP.|.W..E.
	0x0010:  0034 0000 4000 3606 a663 31cf c238 ac69  .4..@.6..c1..8.i
	0x0020:  fdef 17e0 1f40 9235 a317 582e 2c7b 8010  .....@.5..X.,{..
	0x0030:  0814 3e91 0000 0101 080a 34d2 d087 24c9  ..>.......4...$.
	0x0040:  767d                                     v}
17:12:04.246689 IP 172.105.253.239.8000 > 49.207.194.56.6112: Flags [P.], seq 118:687, ack 346, win 507, options [nop,nop,TS val 617182873 ecr 886231175], length 569
	0x0000:  0000 5e00 beef f23c 924d a00a 0800 4500  ..^....<.M....E.
	0x0010:  026d 2488 4000 4006 75a2 ac69 fdef 31cf  .m$.@.@.u..i..1.
	0x0020:  c238 1f40 17e0 582e 2c7b 9235 a317 8018  .8.@..X.,{.5....
	0x0030:  01fb a0c0 0000 0101 080a 24c9 7699 34d2  ..........$.v.4.
	0x0040:  d087 3c21 444f 4354 5950 4520 6874 6d6c  ..<!DOCTYPE.html
	0x0050:  3e0a 3c68 746d 6c20 6c61 6e67 3d22 656e  >.<html.lang="en
	0x0060:  223e 0a3c 6865 6164 3e0a 3c74 6974 6c65  ">.<head>.<title
	0x0070:  3e53 6572 7665 7220 5469 6d65 2028 5365  >Server.Time.(Se
	0x0080:  7276 6572 2053 656e 7420 4576 656e 7429  rver.Sent.Event)
	0x0090:  3c2f 7469 746c 653e 0a3c 7374 796c 653e  </title>.<style>
	0x00a0:  0a62 6f64 7920 7b62 6163 6b67 726f 756e  .body.{backgroun
	0x00b0:  643a 2062 6569 6765 3b20 666f 6e74 2d73  d:.beige;.font-s
	0x00c0:  697a 653a 2032 656d 3b20 7465 7874 2d61  ize:.2em;.text-a
	0x00d0:  6c69 676e 3a20 6365 6e74 6572 7d0a 6275  lign:.center}.bu
	0x00e0:  7474 6f6e 207b 666f 6e74 2d73 697a 653a  tton.{font-size:
	0x00f0:  2030 2e37 3565 6d7d 0a74 696d 6520 7b63  .0.75em}.time.{c
	0x0100:  6f6c 6f72 3a20 6772 6565 6e7d 0a3c 2f73  olor:.green}.</s
	0x0110:  7479 6c65 3e0a 3c2f 6865 6164 3e0a 3c62  tyle>.</head>.<b
	0x0120:  6f64 793e 0a3c 703e 5365 7276 6572 2074  ody>.<p>Server.t
	0x0130:  696d 653a 203c 7469 6d65 2069 643d 2274  ime:.<time.id="t
	0x0140:  696d 6522 3e31 313a 3432 3a30 343c 2f74  ime">11:42:04</t
	0x0150:  696d 653e 3c2f 703e 0a3c 7363 7269 7074  ime></p>.<script
	0x0160:  3e0a 636f 6e73 7420 7469 6d65 203d 2064  >.const.time.=.d
	0x0170:  6f63 756d 656e 742e 6765 7445 6c65 6d65  ocument.getEleme
	0x0180:  6e74 4279 4964 2827 7469 6d65 2729 0a76  ntById('time').v
	0x0190:  6172 2065 7665 6e74 536f 7572 6365 203d  ar.eventSource.=
	0x01a0:  206e 6577 2045 7665 6e74 536f 7572 6365  .new.EventSource
	0x01b0:  2827 2f74 696d 6527 293b 0a65 7665 6e74  ('/time');.event
	0x01c0:  536f 7572 6365 2e6f 6e6d 6573 7361 6765  Source.onmessage
	0x01d0:  203d 2066 756e 6374 696f 6e20 2865 7665  .=.function.(eve
	0x01e0:  6e74 2920 7b0a 2020 7469 6d65 2e69 6e6e  nt).{...time.inn
	0x01f0:  6572 4854 4d4c 203d 204a 534f 4e2e 7061  erHTML.=.JSON.pa
	0x0200:  7273 6528 6576 656e 742e 6461 7461 292e  rse(event.data).
	0x0210:  7469 6d65 0a7d 3b0a 6576 656e 7453 6f75  time.};.eventSou
	0x0220:  7263 652e 6f6e 6572 726f 7220 3d20 6675  rce.onerror.=.fu
	0x0230:  6e63 7469 6f6e 2028 6576 656e 7429 207b  nction.(event).{
	0x0240:  0a20 2074 696d 652e 696e 6e65 7248 544d  ...time.innerHTM
	0x0250:  4c20 3d20 275b 6572 726f 725d 270a 7d3b  L.=.'[error]'.};
	0x0260:  0a3c 2f73 6372 6970 743e 0a3c 2f62 6f64  .</script>.</bod
	0x0270:  793e 0a3c 2f68 746d 6c3e 0a              y>.</html>.
17:12:04.271111 IP 49.207.194.56.6112 > 172.105.253.239.8000: Flags [.], ack 687, win 2059, options [nop,nop,TS val 886231201 ecr 617182873], length 0
	0x0000:  f23c 924d a00a 5250 d97c d857 0800 4500  .<.M..RP.|.W..E.
	0x0010:  0034 0000 4000 3606 a663 31cf c238 ac69  .4..@.6..c1..8.i
	0x0020:  fdef 17e0 1f40 9235 a317 582e 2eb4 8010  .....@.5..X.....
	0x0030:  080b 3c2b 0000 0101 080a 34d2 d0a1 24c9  ..<+......4...$.
	0x0040:  7699                                     v.
17:12:04.329064 IP 49.207.194.56.6112 > 172.105.253.239.8000: Flags [P.], seq 346:690, ack 687, win 2059, options [nop,nop,TS val 886231258 ecr 617182873], length 344
	0x0000:  f23c 924d a00a 5250 d97c d857 0800 4500  .<.M..RP.|.W..E.
	0x0010:  018c 0000 4000 3606 a50b 31cf c238 ac69  ....@.6...1..8.i
	0x0020:  fdef 17e0 1f40 9235 a317 582e 2eb4 8018  .....@.5..X.....
	0x0030:  080b fda4 0000 0101 080a 34d2 d0da 24c9  ..........4...$.
	0x0040:  7699 4745 5420 2f74 696d 6520 4854 5450  v.GET./time.HTTP
	0x0050:  2f31 2e31 0d0a 486f 7374 3a20 3137 322e  /1.1..Host:.172.
	0x0060:  3130 352e 3235 332e 3233 393a 3830 3030  105.253.239:8000
	0x0070:  0d0a 5573 6572 2d41 6765 6e74 3a20 4d6f  ..User-Agent:.Mo
	0x0080:  7a69 6c6c 612f 352e 3020 284d 6163 696e  zilla/5.0.(Macin
	0x0090:  746f 7368 3b20 496e 7465 6c20 4d61 6320  tosh;.Intel.Mac.
	0x00a0:  4f53 2058 2031 302e 3135 3b20 7276 3a38  OS.X.10.15;.rv:8
	0x00b0:  392e 3029 2047 6563 6b6f 2f32 3031 3030  9.0).Gecko/20100
	0x00c0:  3130 3120 4669 7265 666f 782f 3839 2e30  101.Firefox/89.0
	0x00d0:  0d0a 4163 6365 7074 3a20 7465 7874 2f65  ..Accept:.text/e
	0x00e0:  7665 6e74 2d73 7472 6561 6d0d 0a41 6363  vent-stream..Acc
	0x00f0:  6570 742d 4c61 6e67 7561 6765 3a20 656e  ept-Language:.en
	0x0100:  2d55 532c 656e 3b71 3d30 2e35 0d0a 4163  -US,en;q=0.5..Ac
	0x0110:  6365 7074 2d45 6e63 6f64 696e 673a 2067  cept-Encoding:.g
	0x0120:  7a69 702c 2064 6566 6c61 7465 0d0a 436f  zip,.deflate..Co
	0x0130:  6e6e 6563 7469 6f6e 3a20 6b65 6570 2d61  nnection:.keep-a
	0x0140:  6c69 7665 0d0a 5265 6665 7265 723a 2068  live..Referer:.h
	0x0150:  7474 703a 2f2f 3137 322e 3130 352e 3235  ttp://172.105.25
	0x0160:  332e 3233 393a 3830 3030 2f0d 0a50 7261  3.239:8000/..Pra
	0x0170:  676d 613a 206e 6f2d 6361 6368 650d 0a43  gma:.no-cache..C
	0x0180:  6163 6865 2d43 6f6e 7472 6f6c 3a20 6e6f  ache-Control:.no
	0x0190:  2d63 6163 6865 0d0a 0d0a                 -cache....
17:12:04.374522 IP 172.105.253.239.8000 > 49.207.194.56.6112: Flags [.], ack 690, win 505, options [nop,nop,TS val 617183000 ecr 886231258], length 0
	0x0000:  0000 5e00 beef f23c 924d a00a 0800 4500  ..^....<.M....E.
	0x0010:  0034 2489 4000 4006 77da ac69 fdef 31cf  .4$.@.@.w..i..1.
	0x0020:  c238 1f40 17e0 582e 2eb4 9235 a46f 8010  .8.@..X....5.o..
	0x0030:  01f9 9e87 0000 0101 080a 24c9 7718 34d2  ..........$.w.4.
	0x0040:  d0da                                     ..
17:12:14.350208 IP 172.105.253.239.8000 > 49.207.194.56.6112: Flags [P.], seq 687:819, ack 690, win 505, options [nop,nop,TS val 617192977 ecr 886231258], length 132
	0x0000:  0000 5e00 beef f23c 924d a00a 0800 4500  ..^....<.M....E.
	0x0010:  00b8 248a 4000 4006 7755 ac69 fdef 31cf  ..$.@.@.wU.i..1.
	0x0020:  c238 1f40 17e0 582e 2eb4 9235 a46f 8018  .8.@..X....5.o..
	0x0030:  01f9 9f0b 0000 0101 080a 24c9 9e11 34d2  ..........$...4.
	0x0040:  d0da 4854 5450 2f31 2e31 2032 3030 204f  ..HTTP/1.1.200.O
	0x0050:  4b0d 0a43 6f6e 7465 6e74 2d54 7970 653a  K..Content-Type:
	0x0060:  2074 6578 742f 6576 656e 742d 7374 7265  .text/event-stre
	0x0070:  616d 3b20 6368 6172 7365 743d 7574 662d  am;.charset=utf-
	0x0080:  380d 0a44 6174 653a 2054 6875 2c20 3130  8..Date:.Thu,.10
	0x0090:  204a 756e 2032 3032 3120 3131 3a34 323a  .Jun.2021.11:42:
	0x00a0:  3134 2047 4d54 0d0a 5472 616e 7366 6572  14.GMT..Transfer
	0x00b0:  2d45 6e63 6f64 696e 673a 2063 6875 6e6b  -Encoding:.chunk
	0x00c0:  6564 0d0a 0d0a                           ed....
17:12:14.376979 IP 49.207.194.56.6112 > 172.105.253.239.8000: Flags [.], ack 819, win 2057, options [nop,nop,TS val 886241295 ecr 617192977], length 0
	0x0000:  f23c 924d a00a 5250 d97c d857 0800 4500  .<.M..RP.|.W..E.
	0x0010:  0034 0000 4000 3606 a663 31cf c238 ac69  .4..@.6..c1..8.i
	0x0020:  fdef 17e0 1f40 9235 a46f 582e 2f38 8010  .....@.5.oX./8..
	0x0030:  0809 eb6a 0000 0101 080a 34d2 f80f 24c9  ...j......4...$.
	0x0040:  9e11                                     ..
17:12:14.377011 IP 172.105.253.239.8000 > 49.207.194.56.6112: Flags [P.], seq 819:853, ack 690, win 505, options [nop,nop,TS val 617193003 ecr 886241295], length 34
	0x0000:  0000 5e00 beef f23c 924d a00a 0800 4500  ..^....<.M....E.
	0x0010:  0056 248b 4000 4006 77b6 ac69 fdef 31cf  .V$.@.@.w..i..1.
	0x0020:  c238 1f40 17e0 582e 2f38 9235 a46f 8018  .8.@..X./8.5.o..
	0x0030:  01f9 9ea9 0000 0101 080a 24c9 9e2b 34d2  ..........$..+4.
	0x0040:  f80f 3163 0d0a 6461 7461 3a20 7b22 7469  ..1c..data:.{"ti
	0x0050:  6d65 223a 2022 3131 3a34 323a 3134 227d  me":."11:42:14"}
	0x0060:  0a0a 0d0a                                ....
17:12:14.400863 IP 49.207.194.56.6112 > 172.105.253.239.8000: Flags [.], ack 853, win 2056, options [nop,nop,TS val 886241319 ecr 617193003], length 0
	0x0000:  f23c 924d a00a 5250 d97c d857 0800 4500  .<.M..RP.|.W..E.
	0x0010:  0034 0000 4000 3606 a663 31cf c238 ac69  .4..@.6..c1..8.i
	0x0020:  fdef 17e0 1f40 9235 a46f 582e 2f5a 8010  .....@.5.oX./Z..
	0x0030:  0808 eb17 0000 0101 080a 34d2 f827 24c9  ..........4..'$.
	0x0040:  9e2b                                     .+
17:12:24.360591 IP 172.105.253.239.8000 > 49.207.194.56.6112: Flags [P.], seq 853:887, ack 690, win 505, options [nop,nop,TS val 617202987 ecr 886241319], length 34
	0x0000:  0000 5e00 beef f23c 924d a00a 0800 4500  ..^....<.M....E.
	0x0010:  0056 248c 4000 4006 77b5 ac69 fdef 31cf  .V$.@.@.w..i..1.
	0x0020:  c238 1f40 17e0 582e 2f5a 9235 a46f 8018  .8.@..X./Z.5.o..
	0x0030:  01f9 9ea9 0000 0101 080a 24c9 c52b 34d2  ..........$..+4.
	0x0040:  f827 3163 0d0a 6461 7461 3a20 7b22 7469  .'1c..data:.{"ti
	0x0050:  6d65 223a 2022 3131 3a34 323a 3234 227d  me":."11:42:24"}
	0x0060:  0a0a 0d0a                                ....
17:12:24.387237 IP 49.207.194.56.6112 > 172.105.253.239.8000: Flags [.], ack 887, win 2056, options [nop,nop,TS val 886251300 ecr 617202987], length 0
	0x0000:  f23c 924d a00a 5250 d97c d857 0800 4500  .<.M..RP.|.W..E.
	0x0010:  0034 0000 4000 3606 a663 31cf c238 ac69  .4..@.6..c1..8.i
	0x0020:  fdef 17e0 1f40 9235 a46f 582e 2f7c 8010  .....@.5.oX./|..
	0x0030:  0808 9cf8 0000 0101 080a 34d3 1f24 24c9  ..........4..$$.
	0x0040:  c52b                                     .+
17:12:34.370942 IP 172.105.253.239.8000 > 49.207.194.56.6112: Flags [P.], seq 887:921, ack 690, win 505, options [nop,nop,TS val 617212998 ecr 886251300], length 34
	0x0000:  0000 5e00 beef f23c 924d a00a 0800 4500  ..^....<.M....E.
	0x0010:  0056 248d 4000 4006 77b4 ac69 fdef 31cf  .V$.@.@.w..i..1.
	0x0020:  c238 1f40 17e0 582e 2f7c 9235 a46f 8018  .8.@..X./|.5.o..
	0x0030:  01f9 9ea9 0000 0101 080a 24c9 ec46 34d3  ..........$..F4.
	0x0040:  1f24 3163 0d0a 6461 7461 3a20 7b22 7469  .$1c..data:.{"ti
	0x0050:  6d65 223a 2022 3131 3a34 323a 3334 227d  me":."11:42:34"}
	0x0060:  0a0a 0d0a                                ....
17:12:34.395346 IP 49.207.194.56.6112 > 172.105.253.239.8000: Flags [.], ack 921, win 2055, options [nop,nop,TS val 886261307 ecr 617212998], length 0
	0x0000:  f23c 924d a00a 5250 d97c d857 0800 4500  .<.M..RP.|.W..E.
	0x0010:  0034 0000 4000 3606 a663 31cf c238 ac69  .4..@.6..c1..8.i
	0x0020:  fdef 17e0 1f40 9235 a46f 582e 2f9e 8010  .....@.5.oX./...
	0x0030:  0807 4ea5 0000 0101 080a 34d3 463b 24c9  ..N.......4.F;$.
	0x0040:  ec46                                     .F
17:12:39.608163 IP 49.207.194.56.6112 > 172.105.253.239.8000: Flags [F.], seq 690, ack 921, win 2055, options [nop,nop,TS val 886266512 ecr 617212998], length 0
	0x0000:  f23c 924d a00a 5250 d97c d857 0800 4500  .<.M..RP.|.W..E.
	0x0010:  0034 0000 4000 3606 a663 31cf c238 ac69  .4..@.6..c1..8.i
	0x0020:  fdef 17e0 1f40 9235 a46f 582e 2f9e 8011  .....@.5.oX./...
	0x0030:  0807 3a4f 0000 0101 080a 34d3 5a90 24c9  ..:O......4.Z.$.
	0x0040:  ec46                                     .F
17:12:39.650399 IP 172.105.253.239.8000 > 49.207.194.56.6112: Flags [.], ack 691, win 505, options [nop,nop,TS val 617218278 ecr 886266512], length 0
	0x0000:  0000 5e00 beef f23c 924d a00a 0800 4500  ..^....<.M....E.
	0x0010:  0034 248e 4000 4006 77d5 ac69 fdef 31cf  .4$.@.@.w..i..1.
	0x0020:  c238 1f40 17e0 582e 2f9e 9235 a470 8010  .8.@..X./..5.p..
	0x0030:  01f9 9e87 0000 0101 080a 24ca 00e6 34d3  ..........$...4.
	0x0040:  5a90                                     Z.

$ tcpdump -nAr pcap/sseapp.pcap
reading from file pcap/sseapp.pcap, link-type EN10MB (Ethernet)
17:12:04.174951 IP 49.207.194.56.6112 > 172.105.253.239.8000: Flags [S], seq 2452988349, win 65535, options [mss 1452,nop,wscale 6,nop,nop,TS val 886231106 ecr 0,sackOK,eol], length 0
E..@..@.6..W1..8.i.....@.5..........({.............
4..B........
17:12:04.174993 IP 172.105.253.239.8000 > 49.207.194.56.6112: Flags [S.], seq 1479420933, ack 2452988350, win 65160, options [mss 1460,sackOK,TS val 617182801 ecr 886231106,nop,wscale 7], length 0
E..<..@.@..[.i..1..8.@..X.,..5.................
$.vQ4..B....
17:12:04.200286 IP 49.207.194.56.6112 > 172.105.253.239.8000: Flags [.], ack 1, win 2070, options [nop,nop,TS val 886231132 ecr 617182801], length 0
E..4..@.6..c1..8.i.....@.5..X.,.....@......
4..\$.vQ
17:12:04.208704 IP 49.207.194.56.6112 > 172.105.253.239.8000: Flags [P.], seq 1:346, ack 1, win 2070, options [nop,nop,TS val 886231132 ecr 617182801], length 345
E.....@.6..
1..8.i.....@.5..X.,......T.....
4..\$.vQGET / HTTP/1.1
Host: 172.105.253.239:8000
User-Agent: Mozilla/5.0 (Macintosh; Intel Mac OS X 10.15; rv:89.0) Gecko/20100101 Firefox/89.0
Accept: text/html,application/xhtml+xml,application/xml;q=0.9,image/webp,*/*;q=0.8
Accept-Language: en-US,en;q=0.5
Accept-Encoding: gzip, deflate
Connection: keep-alive
Upgrade-Insecure-Requests: 1


17:12:04.208728 IP 172.105.253.239.8000 > 49.207.194.56.6112: Flags [.], ack 346, win 507, options [nop,nop,TS val 617182835 ecr 886231132], length 0
E..4$.@.@.w..i..1..8.@..X.,..5.............
$.vs4..\
17:12:04.218935 IP 172.105.253.239.8000 > 49.207.194.56.6112: Flags [P.], seq 1:118, ack 346, win 507, options [nop,nop,TS val 617182845 ecr 886231132], length 117
E...$.@.@.wg.i..1..8.@..X.,..5.............
$.v}4..\HTTP/1.1 200 OK
Content-Type: text/html; charset=utf-8
Content-Length: 569
Date: Thu, 10 Jun 2021 11:42:04 GMT


17:12:04.246672 IP 49.207.194.56.6112 > 172.105.253.239.8000: Flags [.], ack 118, win 2068, options [nop,nop,TS val 886231175 ecr 617182845], length 0
E..4..@.6..c1..8.i.....@.5..X.,{....>......
4...$.v}
17:12:04.246689 IP 172.105.253.239.8000 > 49.207.194.56.6112: Flags [P.], seq 118:687, ack 346, win 507, options [nop,nop,TS val 617182873 ecr 886231175], length 569
E..m$.@.@.u..i..1..8.@..X.,{.5.............
$.v.4...<!DOCTYPE html>
<html lang="en">
<head>
<title>Server Time (Server Sent Event)</title>
<style>
body {background: beige; font-size: 2em; text-align: center}
button {font-size: 0.75em}
time {color: green}
</style>
</head>
<body>
<p>Server time: <time id="time">11:42:04</time></p>
<script>
const time = document.getElementById('time')
var eventSource = new EventSource('/time');
eventSource.onmessage = function (event) {
  time.innerHTML = JSON.parse(event.data).time
};
eventSource.onerror = function (event) {
  time.innerHTML = '[error]'
};
</script>
</body>
</html>

17:12:04.271111 IP 49.207.194.56.6112 > 172.105.253.239.8000: Flags [.], ack 687, win 2059, options [nop,nop,TS val 886231201 ecr 617182873], length 0
E..4..@.6..c1..8.i.....@.5..X.......<+.....
4...$.v.
17:12:04.329064 IP 49.207.194.56.6112 > 172.105.253.239.8000: Flags [P.], seq 346:690, ack 687, win 2059, options [nop,nop,TS val 886231258 ecr 617182873], length 344
E.....@.6...1..8.i.....@.5..X..............
4...$.v.GET /time HTTP/1.1
Host: 172.105.253.239:8000
User-Agent: Mozilla/5.0 (Macintosh; Intel Mac OS X 10.15; rv:89.0) Gecko/20100101 Firefox/89.0
Accept: text/event-stream
Accept-Language: en-US,en;q=0.5
Accept-Encoding: gzip, deflate
Connection: keep-alive
Referer: http://172.105.253.239:8000/
Pragma: no-cache
Cache-Control: no-cache


17:12:04.374522 IP 172.105.253.239.8000 > 49.207.194.56.6112: Flags [.], ack 690, win 505, options [nop,nop,TS val 617183000 ecr 886231258], length 0
E..4$.@.@.w..i..1..8.@..X....5.o...........
$.w.4...
17:12:14.350208 IP 172.105.253.239.8000 > 49.207.194.56.6112: Flags [P.], seq 687:819, ack 690, win 505, options [nop,nop,TS val 617192977 ecr 886231258], length 132
E...$.@.@.wU.i..1..8.@..X....5.o...........
$...4...HTTP/1.1 200 OK
Content-Type: text/event-stream; charset=utf-8
Date: Thu, 10 Jun 2021 11:42:14 GMT
Transfer-Encoding: chunked


17:12:14.376979 IP 49.207.194.56.6112 > 172.105.253.239.8000: Flags [.], ack 819, win 2057, options [nop,nop,TS val 886241295 ecr 617192977], length 0
E..4..@.6..c1..8.i.....@.5.oX./8...	.j.....
4...$...
17:12:14.377011 IP 172.105.253.239.8000 > 49.207.194.56.6112: Flags [P.], seq 819:853, ack 690, win 505, options [nop,nop,TS val 617193003 ecr 886241295], length 34
E..V$.@.@.w..i..1..8.@..X./8.5.o...........
$..+4...1c
data: {"time": "11:42:14"}



17:12:14.400863 IP 49.207.194.56.6112 > 172.105.253.239.8000: Flags [.], ack 853, win 2056, options [nop,nop,TS val 886241319 ecr 617193003], length 0
E..4..@.6..c1..8.i.....@.5.oX./Z...........
4..'$..+
17:12:24.360591 IP 172.105.253.239.8000 > 49.207.194.56.6112: Flags [P.], seq 853:887, ack 690, win 505, options [nop,nop,TS val 617202987 ecr 886241319], length 34
E..V$.@.@.w..i..1..8.@..X./Z.5.o...........
$..+4..'1c
data: {"time": "11:42:24"}



17:12:24.387237 IP 49.207.194.56.6112 > 172.105.253.239.8000: Flags [.], ack 887, win 2056, options [nop,nop,TS val 886251300 ecr 617202987], length 0
E..4..@.6..c1..8.i.....@.5.oX./|...........
4..$$..+
17:12:34.370942 IP 172.105.253.239.8000 > 49.207.194.56.6112: Flags [P.], seq 887:921, ack 690, win 505, options [nop,nop,TS val 617212998 ecr 886251300], length 34
E..V$.@.@.w..i..1..8.@..X./|.5.o...........
$..F4..$1c
data: {"time": "11:42:34"}



17:12:34.395346 IP 49.207.194.56.6112 > 172.105.253.239.8000: Flags [.], ack 921, win 2055, options [nop,nop,TS val 886261307 ecr 617212998], length 0
E..4..@.6..c1..8.i.....@.5.oX./.....N......
4.F;$..F
17:12:39.608163 IP 49.207.194.56.6112 > 172.105.253.239.8000: Flags [F.], seq 690, ack 921, win 2055, options [nop,nop,TS val 886266512 ecr 617212998], length 0
E..4..@.6..c1..8.i.....@.5.oX./.....:O.....
4.Z.$..F
17:12:39.650399 IP 172.105.253.239.8000 > 49.207.194.56.6112: Flags [.], ack 691, win 505, options [nop,nop,TS val 617218278 ecr 886266512], length 0
E..4$.@.@.w..i..1..8.@..X./..5.p...........
$...4.Z.

$ tcpdump -nr pcap/sseapp.pcap
reading from file pcap/sseapp.pcap, link-type EN10MB (Ethernet)
17:12:04.174951 IP 49.207.194.56.6112 > 172.105.253.239.8000: Flags [S], seq 2452988349, win 65535, options [mss 1452,nop,wscale 6,nop,nop,TS val 886231106 ecr 0,sackOK,eol], length 0
17:12:04.174993 IP 172.105.253.239.8000 > 49.207.194.56.6112: Flags [S.], seq 1479420933, ack 2452988350, win 65160, options [mss 1460,sackOK,TS val 617182801 ecr 886231106,nop,wscale 7], length 0
17:12:04.200286 IP 49.207.194.56.6112 > 172.105.253.239.8000: Flags [.], ack 1, win 2070, options [nop,nop,TS val 886231132 ecr 617182801], length 0
17:12:04.208704 IP 49.207.194.56.6112 > 172.105.253.239.8000: Flags [P.], seq 1:346, ack 1, win 2070, options [nop,nop,TS val 886231132 ecr 617182801], length 345
17:12:04.208728 IP 172.105.253.239.8000 > 49.207.194.56.6112: Flags [.], ack 346, win 507, options [nop,nop,TS val 617182835 ecr 886231132], length 0
17:12:04.218935 IP 172.105.253.239.8000 > 49.207.194.56.6112: Flags [P.], seq 1:118, ack 346, win 507, options [nop,nop,TS val 617182845 ecr 886231132], length 117
17:12:04.246672 IP 49.207.194.56.6112 > 172.105.253.239.8000: Flags [.], ack 118, win 2068, options [nop,nop,TS val 886231175 ecr 617182845], length 0
17:12:04.246689 IP 172.105.253.239.8000 > 49.207.194.56.6112: Flags [P.], seq 118:687, ack 346, win 507, options [nop,nop,TS val 617182873 ecr 886231175], length 569
17:12:04.271111 IP 49.207.194.56.6112 > 172.105.253.239.8000: Flags [.], ack 687, win 2059, options [nop,nop,TS val 886231201 ecr 617182873], length 0
17:12:04.329064 IP 49.207.194.56.6112 > 172.105.253.239.8000: Flags [P.], seq 346:690, ack 687, win 2059, options [nop,nop,TS val 886231258 ecr 617182873], length 344
17:12:04.374522 IP 172.105.253.239.8000 > 49.207.194.56.6112: Flags [.], ack 690, win 505, options [nop,nop,TS val 617183000 ecr 886231258], length 0
17:12:14.350208 IP 172.105.253.239.8000 > 49.207.194.56.6112: Flags [P.], seq 687:819, ack 690, win 505, options [nop,nop,TS val 617192977 ecr 886231258], length 132
17:12:14.376979 IP 49.207.194.56.6112 > 172.105.253.239.8000: Flags [.], ack 819, win 2057, options [nop,nop,TS val 886241295 ecr 617192977], length 0
17:12:14.377011 IP 172.105.253.239.8000 > 49.207.194.56.6112: Flags [P.], seq 819:853, ack 690, win 505, options [nop,nop,TS val 617193003 ecr 886241295], length 34
17:12:14.400863 IP 49.207.194.56.6112 > 172.105.253.239.8000: Flags [.], ack 853, win 2056, options [nop,nop,TS val 886241319 ecr 617193003], length 0
17:12:24.360591 IP 172.105.253.239.8000 > 49.207.194.56.6112: Flags [P.], seq 853:887, ack 690, win 505, options [nop,nop,TS val 617202987 ecr 886241319], length 34
17:12:24.387237 IP 49.207.194.56.6112 > 172.105.253.239.8000: Flags [.], ack 887, win 2056, options [nop,nop,TS val 886251300 ecr 617202987], length 0
17:12:34.370942 IP 172.105.253.239.8000 > 49.207.194.56.6112: Flags [P.], seq 887:921, ack 690, win 505, options [nop,nop,TS val 617212998 ecr 886251300], length 34
17:12:34.395346 IP 49.207.194.56.6112 > 172.105.253.239.8000: Flags [.], ack 921, win 2055, options [nop,nop,TS val 886261307 ecr 617212998], length 0
17:12:39.608163 IP 49.207.194.56.6112 > 172.105.253.239.8000: Flags [F.], seq 690, ack 921, win 2055, options [nop,nop,TS val 886266512 ecr 617212998], length 0
17:12:39.650399 IP 172.105.253.239.8000 > 49.207.194.56.6112: Flags [.], ack 691, win 505, options [nop,nop,TS val 617218278 ecr 886266512], length 0

$ tshark -nxr pcap/sseapp.pcap
0000  f2 3c 92 4d a0 0a 52 50 d9 7c d8 57 08 00 45 00   .<.M..RP.|.W..E.
0010  00 40 00 00 40 00 36 06 a6 57 31 cf c2 38 ac 69   .@..@.6..W1..8.i
0020  fd ef 17 e0 1f 40 92 35 a1 bd 00 00 00 00 b0 02   .....@.5........
0030  ff ff 28 7b 00 00 02 04 05 ac 01 03 03 06 01 01   ..({............
0040  08 0a 34 d2 d0 42 00 00 00 00 04 02 00 00         ..4..B........

0000  00 00 5e 00 be ef f2 3c 92 4d a0 0a 08 00 45 00   ..^....<.M....E.
0010  00 3c 00 00 40 00 40 06 9c 5b ac 69 fd ef 31 cf   .<..@.@..[.i..1.
0020  c2 38 1f 40 17 e0 58 2e 2c 05 92 35 a1 be a0 12   .8.@..X.,..5....
0030  fe 88 9e 8f 00 00 02 04 05 b4 04 02 08 0a 24 c9   ..............$.
0040  76 51 34 d2 d0 42 01 03 03 07                     vQ4..B....

0000  f2 3c 92 4d a0 0a 52 50 d9 7c d8 57 08 00 45 00   .<.M..RP.|.W..E.
0010  00 34 00 00 40 00 36 06 a6 63 31 cf c2 38 ac 69   .4..@.6..c1..8.i
0020  fd ef 17 e0 1f 40 92 35 a1 be 58 2e 2c 06 80 10   .....@.5..X.,...
0030  08 16 40 b4 00 00 01 01 08 0a 34 d2 d0 5c 24 c9   ..@.......4..\$.
0040  76 51                                             vQ

0000  f2 3c 92 4d a0 0a 52 50 d9 7c d8 57 08 00 45 00   .<.M..RP.|.W..E.
0010  01 8d 00 00 40 00 36 06 a5 0a 31 cf c2 38 ac 69   ....@.6...1..8.i
0020  fd ef 17 e0 1f 40 92 35 a1 be 58 2e 2c 06 80 18   .....@.5..X.,...
0030  08 16 c3 54 00 00 01 01 08 0a 34 d2 d0 5c 24 c9   ...T......4..\$.
0040  76 51 47 45 54 20 2f 20 48 54 54 50 2f 31 2e 31   vQGET / HTTP/1.1
0050  0d 0a 48 6f 73 74 3a 20 31 37 32 2e 31 30 35 2e   ..Host: 172.105.
0060  32 35 33 2e 32 33 39 3a 38 30 30 30 0d 0a 55 73   253.239:8000..Us
0070  65 72 2d 41 67 65 6e 74 3a 20 4d 6f 7a 69 6c 6c   er-Agent: Mozill
0080  61 2f 35 2e 30 20 28 4d 61 63 69 6e 74 6f 73 68   a/5.0 (Macintosh
0090  3b 20 49 6e 74 65 6c 20 4d 61 63 20 4f 53 20 58   ; Intel Mac OS X
00a0  20 31 30 2e 31 35 3b 20 72 76 3a 38 39 2e 30 29    10.15; rv:89.0)
00b0  20 47 65 63 6b 6f 2f 32 30 31 30 30 31 30 31 20    Gecko/20100101 
00c0  46 69 72 65 66 6f 78 2f 38 39 2e 30 0d 0a 41 63   Firefox/89.0..Ac
00d0  63 65 70 74 3a 20 74 65 78 74 2f 68 74 6d 6c 2c   cept: text/html,
00e0  61 70 70 6c 69 63 61 74 69 6f 6e 2f 78 68 74 6d   application/xhtm
00f0  6c 2b 78 6d 6c 2c 61 70 70 6c 69 63 61 74 69 6f   l+xml,applicatio
0100  6e 2f 78 6d 6c 3b 71 3d 30 2e 39 2c 69 6d 61 67   n/xml;q=0.9,imag
0110  65 2f 77 65 62 70 2c 2a 2f 2a 3b 71 3d 30 2e 38   e/webp,*/*;q=0.8
0120  0d 0a 41 63 63 65 70 74 2d 4c 61 6e 67 75 61 67   ..Accept-Languag
0130  65 3a 20 65 6e 2d 55 53 2c 65 6e 3b 71 3d 30 2e   e: en-US,en;q=0.
0140  35 0d 0a 41 63 63 65 70 74 2d 45 6e 63 6f 64 69   5..Accept-Encodi
0150  6e 67 3a 20 67 7a 69 70 2c 20 64 65 66 6c 61 74   ng: gzip, deflat
0160  65 0d 0a 43 6f 6e 6e 65 63 74 69 6f 6e 3a 20 6b   e..Connection: k
0170  65 65 70 2d 61 6c 69 76 65 0d 0a 55 70 67 72 61   eep-alive..Upgra
0180  64 65 2d 49 6e 73 65 63 75 72 65 2d 52 65 71 75   de-Insecure-Requ
0190  65 73 74 73 3a 20 31 0d 0a 0d 0a                  ests: 1....

0000  00 00 5e 00 be ef f2 3c 92 4d a0 0a 08 00 45 00   ..^....<.M....E.
0010  00 34 24 86 40 00 40 06 77 dd ac 69 fd ef 31 cf   .4$.@.@.w..i..1.
0020  c2 38 1f 40 17 e0 58 2e 2c 06 92 35 a3 17 80 10   .8.@..X.,..5....
0030  01 fb 9e 87 00 00 01 01 08 0a 24 c9 76 73 34 d2   ..........$.vs4.
0040  d0 5c                                             .\

0000  00 00 5e 00 be ef f2 3c 92 4d a0 0a 08 00 45 00   ..^....<.M....E.
0010  00 a9 24 87 40 00 40 06 77 67 ac 69 fd ef 31 cf   ..$.@.@.wg.i..1.
0020  c2 38 1f 40 17 e0 58 2e 2c 06 92 35 a3 17 80 18   .8.@..X.,..5....
0030  01 fb 9e fc 00 00 01 01 08 0a 24 c9 76 7d 34 d2   ..........$.v}4.
0040  d0 5c 48 54 54 50 2f 31 2e 31 20 32 30 30 20 4f   .\HTTP/1.1 200 O
0050  4b 0d 0a 43 6f 6e 74 65 6e 74 2d 54 79 70 65 3a   K..Content-Type:
0060  20 74 65 78 74 2f 68 74 6d 6c 3b 20 63 68 61 72    text/html; char
0070  73 65 74 3d 75 74 66 2d 38 0d 0a 43 6f 6e 74 65   set=utf-8..Conte
0080  6e 74 2d 4c 65 6e 67 74 68 3a 20 35 36 39 0d 0a   nt-Length: 569..
0090  44 61 74 65 3a 20 54 68 75 2c 20 31 30 20 4a 75   Date: Thu, 10 Ju
00a0  6e 20 32 30 32 31 20 31 31 3a 34 32 3a 30 34 20   n 2021 11:42:04 
00b0  47 4d 54 0d 0a 0d 0a                              GMT....

0000  f2 3c 92 4d a0 0a 52 50 d9 7c d8 57 08 00 45 00   .<.M..RP.|.W..E.
0010  00 34 00 00 40 00 36 06 a6 63 31 cf c2 38 ac 69   .4..@.6..c1..8.i
0020  fd ef 17 e0 1f 40 92 35 a3 17 58 2e 2c 7b 80 10   .....@.5..X.,{..
0030  08 14 3e 91 00 00 01 01 08 0a 34 d2 d0 87 24 c9   ..>.......4...$.
0040  76 7d                                             v}

Frame (635 bytes):
0000  00 00 5e 00 be ef f2 3c 92 4d a0 0a 08 00 45 00   ..^....<.M....E.
0010  02 6d 24 88 40 00 40 06 75 a2 ac 69 fd ef 31 cf   .m$.@.@.u..i..1.
0020  c2 38 1f 40 17 e0 58 2e 2c 7b 92 35 a3 17 80 18   .8.@..X.,{.5....
0030  01 fb a0 c0 00 00 01 01 08 0a 24 c9 76 99 34 d2   ..........$.v.4.
0040  d0 87 3c 21 44 4f 43 54 59 50 45 20 68 74 6d 6c   ..<!DOCTYPE html
0050  3e 0a 3c 68 74 6d 6c 20 6c 61 6e 67 3d 22 65 6e   >.<html lang="en
0060  22 3e 0a 3c 68 65 61 64 3e 0a 3c 74 69 74 6c 65   ">.<head>.<title
0070  3e 53 65 72 76 65 72 20 54 69 6d 65 20 28 53 65   >Server Time (Se
0080  72 76 65 72 20 53 65 6e 74 20 45 76 65 6e 74 29   rver Sent Event)
0090  3c 2f 74 69 74 6c 65 3e 0a 3c 73 74 79 6c 65 3e   </title>.<style>
00a0  0a 62 6f 64 79 20 7b 62 61 63 6b 67 72 6f 75 6e   .body {backgroun
00b0  64 3a 20 62 65 69 67 65 3b 20 66 6f 6e 74 2d 73   d: beige; font-s
00c0  69 7a 65 3a 20 32 65 6d 3b 20 74 65 78 74 2d 61   ize: 2em; text-a
00d0  6c 69 67 6e 3a 20 63 65 6e 74 65 72 7d 0a 62 75   lign: center}.bu
00e0  74 74 6f 6e 20 7b 66 6f 6e 74 2d 73 69 7a 65 3a   tton {font-size:
00f0  20 30 2e 37 35 65 6d 7d 0a 74 69 6d 65 20 7b 63    0.75em}.time {c
0100  6f 6c 6f 72 3a 20 67 72 65 65 6e 7d 0a 3c 2f 73   olor: green}.</s
0110  74 79 6c 65 3e 0a 3c 2f 68 65 61 64 3e 0a 3c 62   tyle>.</head>.<b
0120  6f 64 79 3e 0a 3c 70 3e 53 65 72 76 65 72 20 74   ody>.<p>Server t
0130  69 6d 65 3a 20 3c 74 69 6d 65 20 69 64 3d 22 74   ime: <time id="t
0140  69 6d 65 22 3e 31 31 3a 34 32 3a 30 34 3c 2f 74   ime">11:42:04</t
0150  69 6d 65 3e 3c 2f 70 3e 0a 3c 73 63 72 69 70 74   ime></p>.<script
0160  3e 0a 63 6f 6e 73 74 20 74 69 6d 65 20 3d 20 64   >.const time = d
0170  6f 63 75 6d 65 6e 74 2e 67 65 74 45 6c 65 6d 65   ocument.getEleme
0180  6e 74 42 79 49 64 28 27 74 69 6d 65 27 29 0a 76   ntById('time').v
0190  61 72 20 65 76 65 6e 74 53 6f 75 72 63 65 20 3d   ar eventSource =
01a0  20 6e 65 77 20 45 76 65 6e 74 53 6f 75 72 63 65    new EventSource
01b0  28 27 2f 74 69 6d 65 27 29 3b 0a 65 76 65 6e 74   ('/time');.event
01c0  53 6f 75 72 63 65 2e 6f 6e 6d 65 73 73 61 67 65   Source.onmessage
01d0  20 3d 20 66 75 6e 63 74 69 6f 6e 20 28 65 76 65    = function (eve
01e0  6e 74 29 20 7b 0a 20 20 74 69 6d 65 2e 69 6e 6e   nt) {.  time.inn
01f0  65 72 48 54 4d 4c 20 3d 20 4a 53 4f 4e 2e 70 61   erHTML = JSON.pa
0200  72 73 65 28 65 76 65 6e 74 2e 64 61 74 61 29 2e   rse(event.data).
0210  74 69 6d 65 0a 7d 3b 0a 65 76 65 6e 74 53 6f 75   time.};.eventSou
0220  72 63 65 2e 6f 6e 65 72 72 6f 72 20 3d 20 66 75   rce.onerror = fu
0230  6e 63 74 69 6f 6e 20 28 65 76 65 6e 74 29 20 7b   nction (event) {
0240  0a 20 20 74 69 6d 65 2e 69 6e 6e 65 72 48 54 4d   .  time.innerHTM
0250  4c 20 3d 20 27 5b 65 72 72 6f 72 5d 27 0a 7d 3b   L = '[error]'.};
0260  0a 3c 2f 73 63 72 69 70 74 3e 0a 3c 2f 62 6f 64   .</script>.</bod
0270  79 3e 0a 3c 2f 68 74 6d 6c 3e 0a                  y>.</html>.
Reassembled TCP (686 bytes):
0000  48 54 54 50 2f 31 2e 31 20 32 30 30 20 4f 4b 0d   HTTP/1.1 200 OK.
0010  0a 43 6f 6e 74 65 6e 74 2d 54 79 70 65 3a 20 74   .Content-Type: t
0020  65 78 74 2f 68 74 6d 6c 3b 20 63 68 61 72 73 65   ext/html; charse
0030  74 3d 75 74 66 2d 38 0d 0a 43 6f 6e 74 65 6e 74   t=utf-8..Content
0040  2d 4c 65 6e 67 74 68 3a 20 35 36 39 0d 0a 44 61   -Length: 569..Da
0050  74 65 3a 20 54 68 75 2c 20 31 30 20 4a 75 6e 20   te: Thu, 10 Jun 
0060  32 30 32 31 20 31 31 3a 34 32 3a 30 34 20 47 4d   2021 11:42:04 GM
0070  54 0d 0a 0d 0a 3c 21 44 4f 43 54 59 50 45 20 68   T....<!DOCTYPE h
0080  74 6d 6c 3e 0a 3c 68 74 6d 6c 20 6c 61 6e 67 3d   tml>.<html lang=
0090  22 65 6e 22 3e 0a 3c 68 65 61 64 3e 0a 3c 74 69   "en">.<head>.<ti
00a0  74 6c 65 3e 53 65 72 76 65 72 20 54 69 6d 65 20   tle>Server Time 
00b0  28 53 65 72 76 65 72 20 53 65 6e 74 20 45 76 65   (Server Sent Eve
00c0  6e 74 29 3c 2f 74 69 74 6c 65 3e 0a 3c 73 74 79   nt)</title>.<sty
00d0  6c 65 3e 0a 62 6f 64 79 20 7b 62 61 63 6b 67 72   le>.body {backgr
00e0  6f 75 6e 64 3a 20 62 65 69 67 65 3b 20 66 6f 6e   ound: beige; fon
00f0  74 2d 73 69 7a 65 3a 20 32 65 6d 3b 20 74 65 78   t-size: 2em; tex
0100  74 2d 61 6c 69 67 6e 3a 20 63 65 6e 74 65 72 7d   t-align: center}
0110  0a 62 75 74 74 6f 6e 20 7b 66 6f 6e 74 2d 73 69   .button {font-si
0120  7a 65 3a 20 30 2e 37 35 65 6d 7d 0a 74 69 6d 65   ze: 0.75em}.time
0130  20 7b 63 6f 6c 6f 72 3a 20 67 72 65 65 6e 7d 0a    {color: green}.
0140  3c 2f 73 74 79 6c 65 3e 0a 3c 2f 68 65 61 64 3e   </style>.</head>
0150  0a 3c 62 6f 64 79 3e 0a 3c 70 3e 53 65 72 76 65   .<body>.<p>Serve
0160  72 20 74 69 6d 65 3a 20 3c 74 69 6d 65 20 69 64   r time: <time id
0170  3d 22 74 69 6d 65 22 3e 31 31 3a 34 32 3a 30 34   ="time">11:42:04
0180  3c 2f 74 69 6d 65 3e 3c 2f 70 3e 0a 3c 73 63 72   </time></p>.<scr
0190  69 70 74 3e 0a 63 6f 6e 73 74 20 74 69 6d 65 20   ipt>.const time 
01a0  3d 20 64 6f 63 75 6d 65 6e 74 2e 67 65 74 45 6c   = document.getEl
01b0  65 6d 65 6e 74 42 79 49 64 28 27 74 69 6d 65 27   ementById('time'
01c0  29 0a 76 61 72 20 65 76 65 6e 74 53 6f 75 72 63   ).var eventSourc
01d0  65 20 3d 20 6e 65 77 20 45 76 65 6e 74 53 6f 75   e = new EventSou
01e0  72 63 65 28 27 2f 74 69 6d 65 27 29 3b 0a 65 76   rce('/time');.ev
01f0  65 6e 74 53 6f 75 72 63 65 2e 6f 6e 6d 65 73 73   entSource.onmess
0200  61 67 65 20 3d 20 66 75 6e 63 74 69 6f 6e 20 28   age = function (
0210  65 76 65 6e 74 29 20 7b 0a 20 20 74 69 6d 65 2e   event) {.  time.
0220  69 6e 6e 65 72 48 54 4d 4c 20 3d 20 4a 53 4f 4e   innerHTML = JSON
0230  2e 70 61 72 73 65 28 65 76 65 6e 74 2e 64 61 74   .parse(event.dat
0240  61 29 2e 74 69 6d 65 0a 7d 3b 0a 65 76 65 6e 74   a).time.};.event
0250  53 6f 75 72 63 65 2e 6f 6e 65 72 72 6f 72 20 3d   Source.onerror =
0260  20 66 75 6e 63 74 69 6f 6e 20 28 65 76 65 6e 74    function (event
0270  29 20 7b 0a 20 20 74 69 6d 65 2e 69 6e 6e 65 72   ) {.  time.inner
0280  48 54 4d 4c 20 3d 20 27 5b 65 72 72 6f 72 5d 27   HTML = '[error]'
0290  0a 7d 3b 0a 3c 2f 73 63 72 69 70 74 3e 0a 3c 2f   .};.</script>.</
02a0  62 6f 64 79 3e 0a 3c 2f 68 74 6d 6c 3e 0a         body>.</html>.

0000  f2 3c 92 4d a0 0a 52 50 d9 7c d8 57 08 00 45 00   .<.M..RP.|.W..E.
0010  00 34 00 00 40 00 36 06 a6 63 31 cf c2 38 ac 69   .4..@.6..c1..8.i
0020  fd ef 17 e0 1f 40 92 35 a3 17 58 2e 2e b4 80 10   .....@.5..X.....
0030  08 0b 3c 2b 00 00 01 01 08 0a 34 d2 d0 a1 24 c9   ..<+......4...$.
0040  76 99                                             v.

0000  f2 3c 92 4d a0 0a 52 50 d9 7c d8 57 08 00 45 00   .<.M..RP.|.W..E.
0010  01 8c 00 00 40 00 36 06 a5 0b 31 cf c2 38 ac 69   ....@.6...1..8.i
0020  fd ef 17 e0 1f 40 92 35 a3 17 58 2e 2e b4 80 18   .....@.5..X.....
0030  08 0b fd a4 00 00 01 01 08 0a 34 d2 d0 da 24 c9   ..........4...$.
0040  76 99 47 45 54 20 2f 74 69 6d 65 20 48 54 54 50   v.GET /time HTTP
0050  2f 31 2e 31 0d 0a 48 6f 73 74 3a 20 31 37 32 2e   /1.1..Host: 172.
0060  31 30 35 2e 32 35 33 2e 32 33 39 3a 38 30 30 30   105.253.239:8000
0070  0d 0a 55 73 65 72 2d 41 67 65 6e 74 3a 20 4d 6f   ..User-Agent: Mo
0080  7a 69 6c 6c 61 2f 35 2e 30 20 28 4d 61 63 69 6e   zilla/5.0 (Macin
0090  74 6f 73 68 3b 20 49 6e 74 65 6c 20 4d 61 63 20   tosh; Intel Mac 
00a0  4f 53 20 58 20 31 30 2e 31 35 3b 20 72 76 3a 38   OS X 10.15; rv:8
00b0  39 2e 30 29 20 47 65 63 6b 6f 2f 32 30 31 30 30   9.0) Gecko/20100
00c0  31 30 31 20 46 69 72 65 66 6f 78 2f 38 39 2e 30   101 Firefox/89.0
00d0  0d 0a 41 63 63 65 70 74 3a 20 74 65 78 74 2f 65   ..Accept: text/e
00e0  76 65 6e 74 2d 73 74 72 65 61 6d 0d 0a 41 63 63   vent-stream..Acc
00f0  65 70 74 2d 4c 61 6e 67 75 61 67 65 3a 20 65 6e   ept-Language: en
0100  2d 55 53 2c 65 6e 3b 71 3d 30 2e 35 0d 0a 41 63   -US,en;q=0.5..Ac
0110  63 65 70 74 2d 45 6e 63 6f 64 69 6e 67 3a 20 67   cept-Encoding: g
0120  7a 69 70 2c 20 64 65 66 6c 61 74 65 0d 0a 43 6f   zip, deflate..Co
0130  6e 6e 65 63 74 69 6f 6e 3a 20 6b 65 65 70 2d 61   nnection: keep-a
0140  6c 69 76 65 0d 0a 52 65 66 65 72 65 72 3a 20 68   live..Referer: h
0150  74 74 70 3a 2f 2f 31 37 32 2e 31 30 35 2e 32 35   ttp://172.105.25
0160  33 2e 32 33 39 3a 38 30 30 30 2f 0d 0a 50 72 61   3.239:8000/..Pra
0170  67 6d 61 3a 20 6e 6f 2d 63 61 63 68 65 0d 0a 43   gma: no-cache..C
0180  61 63 68 65 2d 43 6f 6e 74 72 6f 6c 3a 20 6e 6f   ache-Control: no
0190  2d 63 61 63 68 65 0d 0a 0d 0a                     -cache....

0000  00 00 5e 00 be ef f2 3c 92 4d a0 0a 08 00 45 00   ..^....<.M....E.
0010  00 34 24 89 40 00 40 06 77 da ac 69 fd ef 31 cf   .4$.@.@.w..i..1.
0020  c2 38 1f 40 17 e0 58 2e 2e b4 92 35 a4 6f 80 10   .8.@..X....5.o..
0030  01 f9 9e 87 00 00 01 01 08 0a 24 c9 77 18 34 d2   ..........$.w.4.
0040  d0 da                                             ..

0000  00 00 5e 00 be ef f2 3c 92 4d a0 0a 08 00 45 00   ..^....<.M....E.
0010  00 b8 24 8a 40 00 40 06 77 55 ac 69 fd ef 31 cf   ..$.@.@.wU.i..1.
0020  c2 38 1f 40 17 e0 58 2e 2e b4 92 35 a4 6f 80 18   .8.@..X....5.o..
0030  01 f9 9f 0b 00 00 01 01 08 0a 24 c9 9e 11 34 d2   ..........$...4.
0040  d0 da 48 54 54 50 2f 31 2e 31 20 32 30 30 20 4f   ..HTTP/1.1 200 O
0050  4b 0d 0a 43 6f 6e 74 65 6e 74 2d 54 79 70 65 3a   K..Content-Type:
0060  20 74 65 78 74 2f 65 76 65 6e 74 2d 73 74 72 65    text/event-stre
0070  61 6d 3b 20 63 68 61 72 73 65 74 3d 75 74 66 2d   am; charset=utf-
0080  38 0d 0a 44 61 74 65 3a 20 54 68 75 2c 20 31 30   8..Date: Thu, 10
0090  20 4a 75 6e 20 32 30 32 31 20 31 31 3a 34 32 3a    Jun 2021 11:42:
00a0  31 34 20 47 4d 54 0d 0a 54 72 61 6e 73 66 65 72   14 GMT..Transfer
00b0  2d 45 6e 63 6f 64 69 6e 67 3a 20 63 68 75 6e 6b   -Encoding: chunk
00c0  65 64 0d 0a 0d 0a                                 ed....

0000  f2 3c 92 4d a0 0a 52 50 d9 7c d8 57 08 00 45 00   .<.M..RP.|.W..E.
0010  00 34 00 00 40 00 36 06 a6 63 31 cf c2 38 ac 69   .4..@.6..c1..8.i
0020  fd ef 17 e0 1f 40 92 35 a4 6f 58 2e 2f 38 80 10   .....@.5.oX./8..
0030  08 09 eb 6a 00 00 01 01 08 0a 34 d2 f8 0f 24 c9   ...j......4...$.
0040  9e 11                                             ..

0000  00 00 5e 00 be ef f2 3c 92 4d a0 0a 08 00 45 00   ..^....<.M....E.
0010  00 56 24 8b 40 00 40 06 77 b6 ac 69 fd ef 31 cf   .V$.@.@.w..i..1.
0020  c2 38 1f 40 17 e0 58 2e 2f 38 92 35 a4 6f 80 18   .8.@..X./8.5.o..
0030  01 f9 9e a9 00 00 01 01 08 0a 24 c9 9e 2b 34 d2   ..........$..+4.
0040  f8 0f 31 63 0d 0a 64 61 74 61 3a 20 7b 22 74 69   ..1c..data: {"ti
0050  6d 65 22 3a 20 22 31 31 3a 34 32 3a 31 34 22 7d   me": "11:42:14"}
0060  0a 0a 0d 0a                                       ....

0000  f2 3c 92 4d a0 0a 52 50 d9 7c d8 57 08 00 45 00   .<.M..RP.|.W..E.
0010  00 34 00 00 40 00 36 06 a6 63 31 cf c2 38 ac 69   .4..@.6..c1..8.i
0020  fd ef 17 e0 1f 40 92 35 a4 6f 58 2e 2f 5a 80 10   .....@.5.oX./Z..
0030  08 08 eb 17 00 00 01 01 08 0a 34 d2 f8 27 24 c9   ..........4..'$.
0040  9e 2b                                             .+

0000  00 00 5e 00 be ef f2 3c 92 4d a0 0a 08 00 45 00   ..^....<.M....E.
0010  00 56 24 8c 40 00 40 06 77 b5 ac 69 fd ef 31 cf   .V$.@.@.w..i..1.
0020  c2 38 1f 40 17 e0 58 2e 2f 5a 92 35 a4 6f 80 18   .8.@..X./Z.5.o..
0030  01 f9 9e a9 00 00 01 01 08 0a 24 c9 c5 2b 34 d2   ..........$..+4.
0040  f8 27 31 63 0d 0a 64 61 74 61 3a 20 7b 22 74 69   .'1c..data: {"ti
0050  6d 65 22 3a 20 22 31 31 3a 34 32 3a 32 34 22 7d   me": "11:42:24"}
0060  0a 0a 0d 0a                                       ....

0000  f2 3c 92 4d a0 0a 52 50 d9 7c d8 57 08 00 45 00   .<.M..RP.|.W..E.
0010  00 34 00 00 40 00 36 06 a6 63 31 cf c2 38 ac 69   .4..@.6..c1..8.i
0020  fd ef 17 e0 1f 40 92 35 a4 6f 58 2e 2f 7c 80 10   .....@.5.oX./|..
0030  08 08 9c f8 00 00 01 01 08 0a 34 d3 1f 24 24 c9   ..........4..$$.
0040  c5 2b                                             .+

0000  00 00 5e 00 be ef f2 3c 92 4d a0 0a 08 00 45 00   ..^....<.M....E.
0010  00 56 24 8d 40 00 40 06 77 b4 ac 69 fd ef 31 cf   .V$.@.@.w..i..1.
0020  c2 38 1f 40 17 e0 58 2e 2f 7c 92 35 a4 6f 80 18   .8.@..X./|.5.o..
0030  01 f9 9e a9 00 00 01 01 08 0a 24 c9 ec 46 34 d3   ..........$..F4.
0040  1f 24 31 63 0d 0a 64 61 74 61 3a 20 7b 22 74 69   .$1c..data: {"ti
0050  6d 65 22 3a 20 22 31 31 3a 34 32 3a 33 34 22 7d   me": "11:42:34"}
0060  0a 0a 0d 0a                                       ....

0000  f2 3c 92 4d a0 0a 52 50 d9 7c d8 57 08 00 45 00   .<.M..RP.|.W..E.
0010  00 34 00 00 40 00 36 06 a6 63 31 cf c2 38 ac 69   .4..@.6..c1..8.i
0020  fd ef 17 e0 1f 40 92 35 a4 6f 58 2e 2f 9e 80 10   .....@.5.oX./...
0030  08 07 4e a5 00 00 01 01 08 0a 34 d3 46 3b 24 c9   ..N.......4.F;$.
0040  ec 46                                             .F

0000  f2 3c 92 4d a0 0a 52 50 d9 7c d8 57 08 00 45 00   .<.M..RP.|.W..E.
0010  00 34 00 00 40 00 36 06 a6 63 31 cf c2 38 ac 69   .4..@.6..c1..8.i
0020  fd ef 17 e0 1f 40 92 35 a4 6f 58 2e 2f 9e 80 11   .....@.5.oX./...
0030  08 07 3a 4f 00 00 01 01 08 0a 34 d3 5a 90 24 c9   ..:O......4.Z.$.
0040  ec 46                                             .F

0000  00 00 5e 00 be ef f2 3c 92 4d a0 0a 08 00 45 00   ..^....<.M....E.
0010  00 34 24 8e 40 00 40 06 77 d5 ac 69 fd ef 31 cf   .4$.@.@.w..i..1.
0020  c2 38 1f 40 17 e0 58 2e 2f 9e 92 35 a4 70 80 10   .8.@..X./..5.p..
0030  01 f9 9e 87 00 00 01 01 08 0a 24 ca 00 e6 34 d3   ..........$...4.
0040  5a 90                                             Z.


$ tshark -nr pcap/sseapp.pcap
    1   0.000000 2021-06-10 11:42:04.174951 78 49.207.194.56 → 172.105.253.239 TCP 78 6112 → 8000 [SYN] Seq=0 Win=65535 Len=0 MSS=1452 WS=64 TSval=886231106 TSecr=0 SACK_PERM=1
    2   0.000042 2021-06-10 11:42:04.174993 74 172.105.253.239 → 49.207.194.56 TCP 74 8000 → 6112 [SYN, ACK] Seq=0 Ack=1 Win=65160 Len=0 MSS=1460 SACK_PERM=1 TSval=617182801 TSecr=886231106 WS=128
    3   0.025335 2021-06-10 11:42:04.200286 66 49.207.194.56 → 172.105.253.239 TCP 66 6112 → 8000 [ACK] Seq=1 Ack=1 Win=132480 Len=0 TSval=886231132 TSecr=617182801
    4   0.033753 2021-06-10 11:42:04.208704 411 49.207.194.56 → 172.105.253.239 HTTP 411 GET / HTTP/1.1 
    5   0.033777 2021-06-10 11:42:04.208728 66 172.105.253.239 → 49.207.194.56 TCP 66 8000 → 6112 [ACK] Seq=1 Ack=346 Win=64896 Len=0 TSval=617182835 TSecr=886231132
    6   0.043984 2021-06-10 11:42:04.218935 183 172.105.253.239 → 49.207.194.56 TCP 183 HTTP/1.1 200 OK  [TCP segment of a reassembled PDU]
    7   0.071721 2021-06-10 11:42:04.246672 66 49.207.194.56 → 172.105.253.239 TCP 66 6112 → 8000 [ACK] Seq=346 Ack=118 Win=132352 Len=0 TSval=886231175 TSecr=617182845
    8   0.071738 2021-06-10 11:42:04.246689 635 172.105.253.239 → 49.207.194.56 HTTP 635 HTTP/1.1 200 OK  (text/html)
    9   0.096160 2021-06-10 11:42:04.271111 66 49.207.194.56 → 172.105.253.239 TCP 66 6112 → 8000 [ACK] Seq=346 Ack=687 Win=131776 Len=0 TSval=886231201 TSecr=617182873
   10   0.154113 2021-06-10 11:42:04.329064 410 49.207.194.56 → 172.105.253.239 HTTP 410 GET /time HTTP/1.1 
   11   0.199571 2021-06-10 11:42:04.374522 66 172.105.253.239 → 49.207.194.56 TCP 66 8000 → 6112 [ACK] Seq=687 Ack=690 Win=64640 Len=0 TSval=617183000 TSecr=886231258
   12  10.175257 2021-06-10 11:42:14.350208 198 172.105.253.239 → 49.207.194.56 TCP 198 HTTP/1.1 200 OK  [TCP segment of a reassembled PDU]
   13  10.202028 2021-06-10 11:42:14.376979 66 49.207.194.56 → 172.105.253.239 TCP 66 6112 → 8000 [ACK] Seq=690 Ack=819 Win=131648 Len=0 TSval=886241295 TSecr=617192977
   14  10.202060 2021-06-10 11:42:14.377011 100 172.105.253.239 → 49.207.194.56 TCP 100 HTTP/1.1 200 OK  [TCP segment of a reassembled PDU]
   15  10.225912 2021-06-10 11:42:14.400863 66 49.207.194.56 → 172.105.253.239 TCP 66 6112 → 8000 [ACK] Seq=690 Ack=853 Win=131584 Len=0 TSval=886241319 TSecr=617193003
   16  20.185640 2021-06-10 11:42:24.360591 100 172.105.253.239 → 49.207.194.56 TCP 100 HTTP/1.1 200 OK  [TCP segment of a reassembled PDU]
   17  20.212286 2021-06-10 11:42:24.387237 66 49.207.194.56 → 172.105.253.239 TCP 66 6112 → 8000 [ACK] Seq=690 Ack=887 Win=131584 Len=0 TSval=886251300 TSecr=617202987
   18  30.195991 2021-06-10 11:42:34.370942 100 172.105.253.239 → 49.207.194.56 TCP 100 HTTP/1.1 200 OK  [TCP segment of a reassembled PDU]
   19  30.220395 2021-06-10 11:42:34.395346 66 49.207.194.56 → 172.105.253.239 TCP 66 6112 → 8000 [ACK] Seq=690 Ack=921 Win=131520 Len=0 TSval=886261307 TSecr=617212998
   20  35.433212 2021-06-10 11:42:39.608163 66 49.207.194.56 → 172.105.253.239 TCP 66 6112 → 8000 [FIN, ACK] Seq=690 Ack=921 Win=131520 Len=0 TSval=886266512 TSecr=617212998
   21  35.475448 2021-06-10 11:42:39.650399 66 172.105.253.239 → 49.207.194.56 TCP 66 8000 → 6112 [ACK] Seq=921 Ack=691 Win=64640 Len=0 TSval=617218278 TSecr=886266512
