$ tcpdump -nXXr pcap/ajaxapp.pcap
reading from file pcap/ajaxapp.pcap, link-type EN10MB (Ethernet)
15:09:28.545427 IP 49.207.214.44.22565 > 172.105.253.239.8000: Flags [S], seq 4152855954, win 65535, options [mss 1452,nop,wscale 6,nop,nop,TS val 680881823 ecr 0,sackOK,eol], length 0
	0x0000:  f23c 924d a00a 5250 d97c d857 0800 4500  .<.M..RP.|.W..E.
	0x0010:  0040 0000 4000 3606 9263 31cf d62c ac69  .@..@.6..c1..,.i
	0x0020:  fdef 5825 1f40 f787 8d92 0000 0000 b002  ..X%.@..........
	0x0030:  ffff f0fa 0000 0204 05ac 0103 0306 0101  ................
	0x0040:  080a 2895 6e9f 0000 0000 0402 0000       ..(.n.........
15:09:28.545467 IP 172.105.253.239.8000 > 49.207.214.44.22565: Flags [S.], seq 899396216, ack 4152855955, win 65160, options [mss 1460,sackOK,TS val 4031830871 ecr 680881823,nop,wscale 7], length 0
	0x0000:  0000 5e00 beef f23c 924d a00a 0800 4500  ..^....<.M....E.
	0x0010:  003c 0000 4000 4006 8867 ac69 fdef 31cf  .<..@.@..g.i..1.
	0x0020:  d62c 1f40 5825 359b b278 f787 8d93 a012  .,.@X%5..x......
	0x0030:  fe88 b283 0000 0204 05b4 0402 080a f050  ...............P
	0x0040:  db57 2895 6e9f 0103 0307                 .W(.n.....
15:09:28.572571 IP 49.207.214.44.22565 > 172.105.253.239.8000: Flags [.], ack 1, win 2070, options [nop,nop,TS val 680881850 ecr 4031830871], length 0
	0x0000:  f23c 924d a00a 5250 d97c d857 0800 4500  .<.M..RP.|.W..E.
	0x0010:  0034 0000 4000 3606 926f 31cf d62c ac69  .4..@.6..o1..,.i
	0x0020:  fdef 5825 1f40 f787 8d93 359b b279 8010  ..X%.@....5..y..
	0x0030:  0816 74c4 0000 0101 080a 2895 6eba f050  ..t.......(.n..P
	0x0040:  db57                                     .W
15:09:28.574201 IP 49.207.214.44.22565 > 172.105.253.239.8000: Flags [P.], seq 1:346, ack 1, win 2070, options [nop,nop,TS val 680881851 ecr 4031830871], length 345
	0x0000:  f23c 924d a00a 5250 d97c d857 0800 4500  .<.M..RP.|.W..E.
	0x0010:  018d 0000 4000 3606 9116 31cf d62c ac69  ....@.6...1..,.i
	0x0020:  fdef 5825 1f40 f787 8d93 359b b279 8018  ..X%.@....5..y..
	0x0030:  0816 f763 0000 0101 080a 2895 6ebb f050  ...c......(.n..P
	0x0040:  db57 4745 5420 2f20 4854 5450 2f31 2e31  .WGET./.HTTP/1.1
	0x0050:  0d0a 486f 7374 3a20 3137 322e 3130 352e  ..Host:.172.105.
	0x0060:  3235 332e 3233 393a 3830 3030 0d0a 5573  253.239:8000..Us
	0x0070:  6572 2d41 6765 6e74 3a20 4d6f 7a69 6c6c  er-Agent:.Mozill
	0x0080:  612f 352e 3020 284d 6163 696e 746f 7368  a/5.0.(Macintosh
	0x0090:  3b20 496e 7465 6c20 4d61 6320 4f53 2058  ;.Intel.Mac.OS.X
	0x00a0:  2031 302e 3135 3b20 7276 3a38 392e 3029  .10.15;.rv:89.0)
	0x00b0:  2047 6563 6b6f 2f32 3031 3030 3130 3120  .Gecko/20100101.
	0x00c0:  4669 7265 666f 782f 3839 2e30 0d0a 4163  Firefox/89.0..Ac
	0x00d0:  6365 7074 3a20 7465 7874 2f68 746d 6c2c  cept:.text/html,
	0x00e0:  6170 706c 6963 6174 696f 6e2f 7868 746d  application/xhtm
	0x00f0:  6c2b 786d 6c2c 6170 706c 6963 6174 696f  l+xml,applicatio
	0x0100:  6e2f 786d 6c3b 713d 302e 392c 696d 6167  n/xml;q=0.9,imag
	0x0110:  652f 7765 6270 2c2a 2f2a 3b71 3d30 2e38  e/webp,*/*;q=0.8
	0x0120:  0d0a 4163 6365 7074 2d4c 616e 6775 6167  ..Accept-Languag
	0x0130:  653a 2065 6e2d 5553 2c65 6e3b 713d 302e  e:.en-US,en;q=0.
	0x0140:  350d 0a41 6363 6570 742d 456e 636f 6469  5..Accept-Encodi
	0x0150:  6e67 3a20 677a 6970 2c20 6465 666c 6174  ng:.gzip,.deflat
	0x0160:  650d 0a43 6f6e 6e65 6374 696f 6e3a 206b  e..Connection:.k
	0x0170:  6565 702d 616c 6976 650d 0a55 7067 7261  eep-alive..Upgra
	0x0180:  6465 2d49 6e73 6563 7572 652d 5265 7175  de-Insecure-Requ
	0x0190:  6573 7473 3a20 310d 0a0d 0a              ests:.1....
15:09:28.574233 IP 172.105.253.239.8000 > 49.207.214.44.22565: Flags [.], ack 346, win 507, options [nop,nop,TS val 4031830899 ecr 680881851], length 0
	0x0000:  0000 5e00 beef f23c 924d a00a 0800 4500  ..^....<.M....E.
	0x0010:  0034 4e90 4000 4006 39df ac69 fdef 31cf  .4N.@.@.9..i..1.
	0x0020:  d62c 1f40 5825 359b b279 f787 8eec 8010  .,.@X%5..y......
	0x0030:  01fb b27b 0000 0101 080a f050 db73 2895  ...{.......P.s(.
	0x0040:  6ebb                                     n.
15:09:28.576873 IP 172.105.253.239.8000 > 49.207.214.44.22565: Flags [P.], seq 1:118, ack 346, win 507, options [nop,nop,TS val 4031830902 ecr 680881851], length 117
	0x0000:  0000 5e00 beef f23c 924d a00a 0800 4500  ..^....<.M....E.
	0x0010:  00a9 4e91 4000 4006 3969 ac69 fdef 31cf  ..N.@.@.9i.i..1.
	0x0020:  d62c 1f40 5825 359b b279 f787 8eec 8018  .,.@X%5..y......
	0x0030:  01fb b2f0 0000 0101 080a f050 db76 2895  ...........P.v(.
	0x0040:  6ebb 4854 5450 2f31 2e31 2032 3030 204f  n.HTTP/1.1.200.O
	0x0050:  4b0d 0a43 6f6e 7465 6e74 2d54 7970 653a  K..Content-Type:
	0x0060:  2074 6578 742f 6874 6d6c 3b20 6368 6172  .text/html;.char
	0x0070:  7365 743d 7574 662d 380d 0a43 6f6e 7465  set=utf-8..Conte
	0x0080:  6e74 2d4c 656e 6774 683a 2038 3038 0d0a  nt-Length:.808..
	0x0090:  4461 7465 3a20 5375 6e2c 2030 3620 4a75  Date:.Sun,.06.Ju
	0x00a0:  6e20 3230 3231 2030 393a 3339 3a32 3820  n.2021.09:39:28.
	0x00b0:  474d 540d 0a0d 0a                        GMT....
15:09:28.603562 IP 49.207.214.44.22565 > 172.105.253.239.8000: Flags [.], ack 118, win 2068, options [nop,nop,TS val 680881880 ecr 4031830902], length 0
	0x0000:  f23c 924d a00a 5250 d97c d857 0800 4500  .<.M..RP.|.W..E.
	0x0010:  0034 0000 4000 3606 926f 31cf d62c ac69  .4..@.6..o1..,.i
	0x0020:  fdef 5825 1f40 f787 8eec 359b b2ee 8010  ..X%.@....5.....
	0x0030:  0814 72bb 0000 0101 080a 2895 6ed8 f050  ..r.......(.n..P
	0x0040:  db76                                     .v
15:09:28.603577 IP 172.105.253.239.8000 > 49.207.214.44.22565: Flags [P.], seq 118:926, ack 346, win 507, options [nop,nop,TS val 4031830929 ecr 680881880], length 808
	0x0000:  0000 5e00 beef f23c 924d a00a 0800 4500  ..^....<.M....E.
	0x0010:  035c 4e92 4000 4006 36b5 ac69 fdef 31cf  .\N.@.@.6..i..1.
	0x0020:  d62c 1f40 5825 359b b2ee f787 8eec 8018  .,.@X%5.........
	0x0030:  01fb b5a3 0000 0101 080a f050 db91 2895  ...........P..(.
	0x0040:  6ed8 3c21 444f 4354 5950 4520 6874 6d6c  n.<!DOCTYPE.html
	0x0050:  3e0a 3c68 746d 6c20 6c61 6e67 3d22 656e  >.<html.lang="en
	0x0060:  223e 0a3c 6865 6164 3e0a 3c74 6974 6c65  ">.<head>.<title
	0x0070:  3e53 6572 7665 7220 5469 6d65 2028 416a  >Server.Time.(Aj
	0x0080:  6178 293c 2f74 6974 6c65 3e0a 3c73 7479  ax)</title>.<sty
	0x0090:  6c65 3e0a 626f 6479 207b 6261 636b 6772  le>.body.{backgr
	0x00a0:  6f75 6e64 3a20 6265 6967 653b 2066 6f6e  ound:.beige;.fon
	0x00b0:  742d 7369 7a65 3a20 3265 6d3b 2074 6578  t-size:.2em;.tex
	0x00c0:  742d 616c 6967 6e3a 2063 656e 7465 727d  t-align:.center}
	0x00d0:  0a62 7574 746f 6e20 7b66 6f6e 742d 7369  .button.{font-si
	0x00e0:  7a65 3a20 302e 3735 656d 7d0a 7469 6d65  ze:.0.75em}.time
	0x00f0:  207b 636f 6c6f 723a 2067 7265 656e 7d0a  .{color:.green}.
	0x0100:  3c2f 7374 796c 653e 0a3c 2f68 6561 643e  </style>.</head>
	0x0110:  0a3c 626f 6479 3e0a 3c70 3e53 6572 7665  .<body>.<p>Serve
	0x0120:  7220 7469 6d65 3a20 3c74 696d 6520 6964  r.time:.<time.id
	0x0130:  3d22 7469 6d65 223e 3039 3a33 393a 3238  ="time">09:39:28
	0x0140:  3c2f 7469 6d65 3e3c 2f70 3e0a 3c62 7574  </time></p>.<but
	0x0150:  746f 6e20 6964 3d22 6275 7474 6f6e 223e  ton.id="button">
	0x0160:  5265 6672 6573 6820 7669 6120 416a 6178  Refresh.via.Ajax
	0x0170:  3c2f 6275 7474 6f6e 3e0a 3c73 6372 6970  </button>.<scrip
	0x0180:  743e 0a63 6f6e 7374 2062 7574 746f 6e20  t>.const.button.
	0x0190:  3d20 646f 6375 6d65 6e74 2e67 6574 456c  =.document.getEl
	0x01a0:  656d 656e 7442 7949 6428 2762 7574 746f  ementById('butto
	0x01b0:  6e27 290a 636f 6e73 7420 7469 6d65 203d  n').const.time.=
	0x01c0:  2064 6f63 756d 656e 742e 6765 7445 6c65  .document.getEle
	0x01d0:  6d65 6e74 4279 4964 2827 7469 6d65 2729  mentById('time')
	0x01e0:  0a62 7574 746f 6e2e 6f6e 636c 6963 6b20  .button.onclick.
	0x01f0:  3d20 6675 6e63 7469 6f6e 2028 2920 7b0a  =.function.().{.
	0x0200:  2020 636f 6e73 7420 7868 7220 3d20 6e65  ..const.xhr.=.ne
	0x0210:  7720 584d 4c48 7474 7052 6571 7565 7374  w.XMLHttpRequest
	0x0220:  2829 0a20 2078 6872 2e6f 7065 6e28 2747  ()...xhr.open('G
	0x0230:  4554 272c 2027 2f74 696d 6527 290a 2020  ET',.'/time')...
	0x0240:  7868 722e 7265 7370 6f6e 7365 5479 7065  xhr.responseType
	0x0250:  203d 2027 6a73 6f6e 270a 2020 7868 722e  .=.'json'...xhr.
	0x0260:  6f6e 6c6f 6164 203d 2066 756e 6374 696f  onload.=.functio
	0x0270:  6e20 2829 207b 0a20 2020 2069 6620 2878  n.().{.....if.(x
	0x0280:  6872 2e73 7461 7475 7320 3d3d 3d20 3230  hr.status.===.20
	0x0290:  3029 207b 0a20 2020 2020 2074 696d 652e  0).{.......time.
	0x02a0:  696e 6e65 7248 544d 4c20 3d20 7868 722e  innerHTML.=.xhr.
	0x02b0:  7265 7370 6f6e 7365 2e70 7269 6365 0a20  response.price..
	0x02c0:  2020 207d 2065 6c73 6520 7b0a 2020 2020  ...}.else.{.....
	0x02d0:  2020 7469 6d65 2e69 6e6e 6572 4854 4d4c  ..time.innerHTML
	0x02e0:  203d 2027 5b6c 6f61 6420 6572 726f 725d  .=.'[load.error]
	0x02f0:  270a 2020 2020 7d0a 2020 7d0a 2020 7868  '.....}...}...xh
	0x0300:  722e 6f6e 6572 726f 7220 3d20 6675 6e63  r.onerror.=.func
	0x0310:  7469 6f6e 2028 2920 7b0a 2020 2020 7469  tion.().{.....ti
	0x0320:  6d65 2e69 6e6e 6572 4854 4d4c 203d 2027  me.innerHTML.=.'
	0x0330:  5b78 6872 2065 7272 6f72 5d27 0a20 207d  [xhr.error]'...}
	0x0340:  0a20 2078 6872 2e73 656e 6428 290a 7d0a  ...xhr.send().}.
	0x0350:  3c2f 7363 7269 7074 3e0a 3c2f 626f 6479  </script>.</body
	0x0360:  3e0a 3c2f 6874 6d6c 3e0a                 >.</html>.
15:09:28.627334 IP 49.207.214.44.22565 > 172.105.253.239.8000: Flags [.], ack 926, win 2055, options [nop,nop,TS val 680881904 ecr 4031830929], length 0
	0x0000:  f23c 924d a00a 5250 d97c d857 0800 4500  .<.M..RP.|.W..E.
	0x0010:  0034 0000 4000 3606 926f 31cf d62c ac69  .4..@.6..o1..,.i
	0x0020:  fdef 5825 1f40 f787 8eec 359b b616 8010  ..X%.@....5.....
	0x0030:  0807 6f6d 0000 0101 080a 2895 6ef0 f050  ..om......(.n..P
	0x0040:  db91                                     ..
15:09:38.603616 IP 49.207.214.44.22565 > 172.105.253.239.8000: Flags [P.], seq 346:633, ack 926, win 2055, options [nop,nop,TS val 680891869 ecr 4031830929], length 287
	0x0000:  f23c 924d a00a 5250 d97c d857 0800 4500  .<.M..RP.|.W..E.
	0x0010:  0153 0000 4000 3606 9150 31cf d62c ac69  .S..@.6..P1..,.i
	0x0020:  fdef 5825 1f40 f787 8eec 359b b616 8018  ..X%.@....5.....
	0x0030:  0807 26c8 0000 0101 080a 2895 95dd f050  ..&.......(....P
	0x0040:  db91 4745 5420 2f74 696d 6520 4854 5450  ..GET./time.HTTP
	0x0050:  2f31 2e31 0d0a 486f 7374 3a20 3137 322e  /1.1..Host:.172.
	0x0060:  3130 352e 3235 332e 3233 393a 3830 3030  105.253.239:8000
	0x0070:  0d0a 5573 6572 2d41 6765 6e74 3a20 4d6f  ..User-Agent:.Mo
	0x0080:  7a69 6c6c 612f 352e 3020 284d 6163 696e  zilla/5.0.(Macin
	0x0090:  746f 7368 3b20 496e 7465 6c20 4d61 6320  tosh;.Intel.Mac.
	0x00a0:  4f53 2058 2031 302e 3135 3b20 7276 3a38  OS.X.10.15;.rv:8
	0x00b0:  392e 3029 2047 6563 6b6f 2f32 3031 3030  9.0).Gecko/20100
	0x00c0:  3130 3120 4669 7265 666f 782f 3839 2e30  101.Firefox/89.0
	0x00d0:  0d0a 4163 6365 7074 3a20 2a2f 2a0d 0a41  ..Accept:.*/*..A
	0x00e0:  6363 6570 742d 4c61 6e67 7561 6765 3a20  ccept-Language:.
	0x00f0:  656e 2d55 532c 656e 3b71 3d30 2e35 0d0a  en-US,en;q=0.5..
	0x0100:  4163 6365 7074 2d45 6e63 6f64 696e 673a  Accept-Encoding:
	0x0110:  2067 7a69 702c 2064 6566 6c61 7465 0d0a  .gzip,.deflate..
	0x0120:  436f 6e6e 6563 7469 6f6e 3a20 6b65 6570  Connection:.keep
	0x0130:  2d61 6c69 7665 0d0a 5265 6665 7265 723a  -alive..Referer:
	0x0140:  2068 7474 703a 2f2f 3137 322e 3130 352e  .http://172.105.
	0x0150:  3235 332e 3233 393a 3830 3030 2f0d 0a0d  253.239:8000/...
	0x0160:  0a                                       .
15:09:38.604860 IP 172.105.253.239.8000 > 49.207.214.44.22565: Flags [P.], seq 926:1034, ack 633, win 505, options [nop,nop,TS val 4031840930 ecr 680891869], length 108
	0x0000:  0000 5e00 beef f23c 924d a00a 0800 4500  ..^....<.M....E.
	0x0010:  00a0 4e93 4000 4006 3970 ac69 fdef 31cf  ..N.@.@.9p.i..1.
	0x0020:  d62c 1f40 5825 359b b616 f787 900b 8018  .,.@X%5.........
	0x0030:  01f9 b2e7 0000 0101 080a f051 02a2 2895  ...........Q..(.
	0x0040:  95dd 4854 5450 2f31 2e31 2032 3030 204f  ..HTTP/1.1.200.O
	0x0050:  4b0d 0a43 6f6e 7465 6e74 2d54 7970 653a  K..Content-Type:
	0x0060:  2061 7070 6c69 6361 7469 6f6e 2f6a 736f  .application/jso
	0x0070:  6e0d 0a43 6f6e 7465 6e74 2d4c 656e 6774  n..Content-Lengt
	0x0080:  683a 2032 310d 0a44 6174 653a 2053 756e  h:.21..Date:.Sun
	0x0090:  2c20 3036 204a 756e 2032 3032 3120 3039  ,.06.Jun.2021.09
	0x00a0:  3a33 393a 3338 2047 4d54 0d0a 0d0a       :39:38.GMT....
15:09:38.630123 IP 49.207.214.44.22565 > 172.105.253.239.8000: Flags [.], ack 1034, win 2053, options [nop,nop,TS val 680891898 ecr 4031840930], length 0
	0x0000:  f23c 924d a00a 5250 d97c d857 0800 4500  .<.M..RP.|.W..E.
	0x0010:  0034 0000 4000 3606 926f 31cf d62c ac69  .4..@.6..o1..,.i
	0x0020:  fdef 5825 1f40 f787 900b 359b b682 8010  ..X%.@....5.....
	0x0030:  0805 1fc9 0000 0101 080a 2895 95fa f051  ..........(....Q
	0x0040:  02a2                                     ..
15:09:38.630155 IP 172.105.253.239.8000 > 49.207.214.44.22565: Flags [P.], seq 1034:1055, ack 633, win 505, options [nop,nop,TS val 4031840956 ecr 680891898], length 21
	0x0000:  0000 5e00 beef f23c 924d a00a 0800 4500  ..^....<.M....E.
	0x0010:  0049 4e94 4000 4006 39c6 ac69 fdef 31cf  .IN.@.@.9..i..1.
	0x0020:  d62c 1f40 5825 359b b682 f787 900b 8018  .,.@X%5.........
	0x0030:  01f9 b290 0000 0101 080a f051 02bc 2895  ...........Q..(.
	0x0040:  95fa 7b22 7072 6963 6522 3a22 3039 3a33  ..{"price":"09:3
	0x0050:  393a 3338 227d 0a                        9:38"}.
15:09:38.653977 IP 49.207.214.44.22565 > 172.105.253.239.8000: Flags [.], ack 1055, win 2053, options [nop,nop,TS val 680891921 ecr 4031840956], length 0
	0x0000:  f23c 924d a00a 5250 d97c d857 0800 4500  .<.M..RP.|.W..E.
	0x0010:  0034 0000 4000 3606 926f 31cf d62c ac69  .4..@.6..o1..,.i
	0x0020:  fdef 5825 1f40 f787 900b 359b b697 8010  ..X%.@....5.....
	0x0030:  0805 1f83 0000 0101 080a 2895 9611 f051  ..........(....Q
	0x0040:  02bc                                     ..
15:09:48.698712 IP 49.207.214.44.22565 > 172.105.253.239.8000: Flags [P.], seq 633:920, ack 1055, win 2053, options [nop,nop,TS val 680901950 ecr 4031840956], length 287
	0x0000:  f23c 924d a00a 5250 d97c d857 0800 4500  .<.M..RP.|.W..E.
	0x0010:  0153 0000 4000 3606 9150 31cf d62c ac69  .S..@.6..P1..,.i
	0x0020:  fdef 5825 1f40 f787 900b 359b b697 8018  ..X%.@....5.....
	0x0030:  0805 d69d 0000 0101 080a 2895 bd3e f051  ..........(..>.Q
	0x0040:  02bc 4745 5420 2f74 696d 6520 4854 5450  ..GET./time.HTTP
	0x0050:  2f31 2e31 0d0a 486f 7374 3a20 3137 322e  /1.1..Host:.172.
	0x0060:  3130 352e 3235 332e 3233 393a 3830 3030  105.253.239:8000
	0x0070:  0d0a 5573 6572 2d41 6765 6e74 3a20 4d6f  ..User-Agent:.Mo
	0x0080:  7a69 6c6c 612f 352e 3020 284d 6163 696e  zilla/5.0.(Macin
	0x0090:  746f 7368 3b20 496e 7465 6c20 4d61 6320  tosh;.Intel.Mac.
	0x00a0:  4f53 2058 2031 302e 3135 3b20 7276 3a38  OS.X.10.15;.rv:8
	0x00b0:  392e 3029 2047 6563 6b6f 2f32 3031 3030  9.0).Gecko/20100
	0x00c0:  3130 3120 4669 7265 666f 782f 3839 2e30  101.Firefox/89.0
	0x00d0:  0d0a 4163 6365 7074 3a20 2a2f 2a0d 0a41  ..Accept:.*/*..A
	0x00e0:  6363 6570 742d 4c61 6e67 7561 6765 3a20  ccept-Language:.
	0x00f0:  656e 2d55 532c 656e 3b71 3d30 2e35 0d0a  en-US,en;q=0.5..
	0x0100:  4163 6365 7074 2d45 6e63 6f64 696e 673a  Accept-Encoding:
	0x0110:  2067 7a69 702c 2064 6566 6c61 7465 0d0a  .gzip,.deflate..
	0x0120:  436f 6e6e 6563 7469 6f6e 3a20 6b65 6570  Connection:.keep
	0x0130:  2d61 6c69 7665 0d0a 5265 6665 7265 723a  -alive..Referer:
	0x0140:  2068 7474 703a 2f2f 3137 322e 3130 352e  .http://172.105.
	0x0150:  3235 332e 3233 393a 3830 3030 2f0d 0a0d  253.239:8000/...
	0x0160:  0a                                       .
15:09:48.699956 IP 172.105.253.239.8000 > 49.207.214.44.22565: Flags [P.], seq 1055:1163, ack 920, win 503, options [nop,nop,TS val 4031851026 ecr 680901950], length 108
	0x0000:  0000 5e00 beef f23c 924d a00a 0800 4500  ..^....<.M....E.
	0x0010:  00a0 4e95 4000 4006 396e ac69 fdef 31cf  ..N.@.@.9n.i..1.
	0x0020:  d62c 1f40 5825 359b b697 f787 912a 8018  .,.@X%5......*..
	0x0030:  01f7 b2e7 0000 0101 080a f051 2a12 2895  ...........Q*.(.
	0x0040:  bd3e 4854 5450 2f31 2e31 2032 3030 204f  .>HTTP/1.1.200.O
	0x0050:  4b0d 0a43 6f6e 7465 6e74 2d54 7970 653a  K..Content-Type:
	0x0060:  2061 7070 6c69 6361 7469 6f6e 2f6a 736f  .application/jso
	0x0070:  6e0d 0a43 6f6e 7465 6e74 2d4c 656e 6774  n..Content-Lengt
	0x0080:  683a 2032 310d 0a44 6174 653a 2053 756e  h:.21..Date:.Sun
	0x0090:  2c20 3036 204a 756e 2032 3032 3120 3039  ,.06.Jun.2021.09
	0x00a0:  3a33 393a 3438 2047 4d54 0d0a 0d0a       :39:48.GMT....
15:09:48.725745 IP 49.207.214.44.22565 > 172.105.253.239.8000: Flags [.], ack 1163, win 2051, options [nop,nop,TS val 680901978 ecr 4031851026], length 0
	0x0000:  f23c 924d a00a 5250 d97c d857 0800 4500  .<.M..RP.|.W..E.
	0x0010:  0034 0000 4000 3606 926f 31cf d62c ac69  .4..@.6..o1..,.i
	0x0020:  fdef 5825 1f40 f787 912a 359b b703 8010  ..X%.@...*5.....
	0x0030:  0803 cf5a 0000 0101 080a 2895 bd5a f051  ...Z......(..Z.Q
	0x0040:  2a12                                     *.
15:09:48.725779 IP 172.105.253.239.8000 > 49.207.214.44.22565: Flags [P.], seq 1163:1184, ack 920, win 503, options [nop,nop,TS val 4031851052 ecr 680901978], length 21
	0x0000:  0000 5e00 beef f23c 924d a00a 0800 4500  ..^....<.M....E.
	0x0010:  0049 4e96 4000 4006 39c4 ac69 fdef 31cf  .IN.@.@.9..i..1.
	0x0020:  d62c 1f40 5825 359b b703 f787 912a 8018  .,.@X%5......*..
	0x0030:  01f7 b290 0000 0101 080a f051 2a2c 2895  ...........Q*,(.
	0x0040:  bd5a 7b22 7072 6963 6522 3a22 3039 3a33  .Z{"price":"09:3
	0x0050:  393a 3438 227d 0a                        9:48"}.
15:09:48.750780 IP 49.207.214.44.22565 > 172.105.253.239.8000: Flags [.], ack 1184, win 2051, options [nop,nop,TS val 680902003 ecr 4031851052], length 0
	0x0000:  f23c 924d a00a 5250 d97c d857 0800 4500  .<.M..RP.|.W..E.
	0x0010:  0034 0000 4000 3606 926f 31cf d62c ac69  .4..@.6..o1..,.i
	0x0020:  fdef 5825 1f40 f787 912a 359b b718 8010  ..X%.@...*5.....
	0x0030:  0803 cf12 0000 0101 080a 2895 bd73 f051  ..........(..s.Q
	0x0040:  2a2c                                     *,
15:09:58.717485 IP 49.207.214.44.22565 > 172.105.253.239.8000: Flags [P.], seq 920:1207, ack 1184, win 2051, options [nop,nop,TS val 680911955 ecr 4031851052], length 287
	0x0000:  f23c 924d a00a 5250 d97c d857 0800 4500  .<.M..RP.|.W..E.
	0x0010:  0153 0000 4000 3606 9150 31cf d62c ac69  .S..@.6..P1..,.i
	0x0020:  fdef 5825 1f40 f787 912a 359b b718 8018  ..X%.@...*5.....
	0x0030:  0803 867a 0000 0101 080a 2895 e453 f051  ...z......(..S.Q
	0x0040:  2a2c 4745 5420 2f74 696d 6520 4854 5450  *,GET./time.HTTP
	0x0050:  2f31 2e31 0d0a 486f 7374 3a20 3137 322e  /1.1..Host:.172.
	0x0060:  3130 352e 3235 332e 3233 393a 3830 3030  105.253.239:8000
	0x0070:  0d0a 5573 6572 2d41 6765 6e74 3a20 4d6f  ..User-Agent:.Mo
	0x0080:  7a69 6c6c 612f 352e 3020 284d 6163 696e  zilla/5.0.(Macin
	0x0090:  746f 7368 3b20 496e 7465 6c20 4d61 6320  tosh;.Intel.Mac.
	0x00a0:  4f53 2058 2031 302e 3135 3b20 7276 3a38  OS.X.10.15;.rv:8
	0x00b0:  392e 3029 2047 6563 6b6f 2f32 3031 3030  9.0).Gecko/20100
	0x00c0:  3130 3120 4669 7265 666f 782f 3839 2e30  101.Firefox/89.0
	0x00d0:  0d0a 4163 6365 7074 3a20 2a2f 2a0d 0a41  ..Accept:.*/*..A
	0x00e0:  6363 6570 742d 4c61 6e67 7561 6765 3a20  ccept-Language:.
	0x00f0:  656e 2d55 532c 656e 3b71 3d30 2e35 0d0a  en-US,en;q=0.5..
	0x0100:  4163 6365 7074 2d45 6e63 6f64 696e 673a  Accept-Encoding:
	0x0110:  2067 7a69 702c 2064 6566 6c61 7465 0d0a  .gzip,.deflate..
	0x0120:  436f 6e6e 6563 7469 6f6e 3a20 6b65 6570  Connection:.keep
	0x0130:  2d61 6c69 7665 0d0a 5265 6665 7265 723a  -alive..Referer:
	0x0140:  2068 7474 703a 2f2f 3137 322e 3130 352e  .http://172.105.
	0x0150:  3235 332e 3233 393a 3830 3030 2f0d 0a0d  253.239:8000/...
	0x0160:  0a                                       .
15:09:58.718731 IP 172.105.253.239.8000 > 49.207.214.44.22565: Flags [P.], seq 1184:1292, ack 1207, win 501, options [nop,nop,TS val 4031861045 ecr 680911955], length 108
	0x0000:  0000 5e00 beef f23c 924d a00a 0800 4500  ..^....<.M....E.
	0x0010:  00a0 4e97 4000 4006 396c ac69 fdef 31cf  ..N.@.@.9l.i..1.
	0x0020:  d62c 1f40 5825 359b b718 f787 9249 8018  .,.@X%5......I..
	0x0030:  01f5 b2e7 0000 0101 080a f051 5135 2895  ...........QQ5(.
	0x0040:  e453 4854 5450 2f31 2e31 2032 3030 204f  .SHTTP/1.1.200.O
	0x0050:  4b0d 0a43 6f6e 7465 6e74 2d54 7970 653a  K..Content-Type:
	0x0060:  2061 7070 6c69 6361 7469 6f6e 2f6a 736f  .application/jso
	0x0070:  6e0d 0a43 6f6e 7465 6e74 2d4c 656e 6774  n..Content-Lengt
	0x0080:  683a 2032 310d 0a44 6174 653a 2053 756e  h:.21..Date:.Sun
	0x0090:  2c20 3036 204a 756e 2032 3032 3120 3039  ,.06.Jun.2021.09
	0x00a0:  3a33 393a 3538 2047 4d54 0d0a 0d0a       :39:58.GMT....
15:09:58.742149 IP 49.207.214.44.22565 > 172.105.253.239.8000: Flags [.], ack 1292, win 2049, options [nop,nop,TS val 680911980 ecr 4031861045], length 0
	0x0000:  f23c 924d a00a 5250 d97c d857 0800 4500  .<.M..RP.|.W..E.
	0x0010:  0034 0000 4000 3606 926f 31cf d62c ac69  .4..@.6..o1..,.i
	0x0020:  fdef 5825 1f40 f787 9249 359b b784 8010  ..X%.@...I5.....
	0x0030:  0801 7f87 0000 0101 080a 2895 e46c f051  ..........(..l.Q
	0x0040:  5135                                     Q5
15:09:58.742183 IP 172.105.253.239.8000 > 49.207.214.44.22565: Flags [P.], seq 1292:1313, ack 1207, win 501, options [nop,nop,TS val 4031861069 ecr 680911980], length 21
	0x0000:  0000 5e00 beef f23c 924d a00a 0800 4500  ..^....<.M....E.
	0x0010:  0049 4e98 4000 4006 39c2 ac69 fdef 31cf  .IN.@.@.9..i..1.
	0x0020:  d62c 1f40 5825 359b b784 f787 9249 8018  .,.@X%5......I..
	0x0030:  01f5 b290 0000 0101 080a f051 514d 2895  ...........QQM(.
	0x0040:  e46c 7b22 7072 6963 6522 3a22 3039 3a33  .l{"price":"09:3
	0x0050:  393a 3538 227d 0a                        9:58"}.
15:09:58.766687 IP 49.207.214.44.22565 > 172.105.253.239.8000: Flags [.], ack 1313, win 2049, options [nop,nop,TS val 680912003 ecr 4031861069], length 0
	0x0000:  f23c 924d a00a 5250 d97c d857 0800 4500  .<.M..RP.|.W..E.
	0x0010:  0034 0000 4000 3606 926f 31cf d62c ac69  .4..@.6..o1..,.i
	0x0020:  fdef 5825 1f40 f787 9249 359b b799 8010  ..X%.@...I5.....
	0x0030:  0801 7f43 0000 0101 080a 2895 e483 f051  ...C......(....Q
	0x0040:  514d                                     QM
15:10:08.796936 IP 49.207.214.44.22565 > 172.105.253.239.8000: Flags [F.], seq 1207, ack 1313, win 2049, options [nop,nop,TS val 680922014 ecr 4031861069], length 0
	0x0000:  f23c 924d a00a 5250 d97c d857 0800 4500  .<.M..RP.|.W..E.
	0x0010:  0034 0000 4000 3606 926f 31cf d62c ac69  .4..@.6..o1..,.i
	0x0020:  fdef 5825 1f40 f787 9249 359b b799 8011  ..X%.@...I5.....
	0x0030:  0801 5827 0000 0101 080a 2896 0b9e f051  ..X'......(....Q
	0x0040:  514d                                     QM
15:10:08.797170 IP 172.105.253.239.8000 > 49.207.214.44.22565: Flags [F.], seq 1313, ack 1208, win 501, options [nop,nop,TS val 4031871124 ecr 680922014], length 0
	0x0000:  0000 5e00 beef f23c 924d a00a 0800 4500  ..^....<.M....E.
	0x0010:  0034 4e99 4000 4006 39d6 ac69 fdef 31cf  .4N.@.@.9..i..1.
	0x0020:  d62c 1f40 5825 359b b799 f787 924a 8011  .,.@X%5......J..
	0x0030:  01f5 b27b 0000 0101 080a f051 7894 2896  ...{.......Qx.(.
	0x0040:  0b9e                                     ..
15:10:08.820874 IP 49.207.214.44.22565 > 172.105.253.239.8000: Flags [.], ack 1314, win 2049, options [nop,nop,TS val 680922037 ecr 4031871124], length 0
	0x0000:  f23c 924d a00a 5250 d97c d857 0800 4500  .<.M..RP.|.W..E.
	0x0010:  0034 0000 4000 3606 926f 31cf d62c ac69  .4..@.6..o1..,.i
	0x0020:  fdef 5825 1f40 f787 924a 359b b79a 8010  ..X%.@...J5.....
	0x0030:  0801 30c8 0000 0101 080a 2896 0bb5 f051  ..0.......(....Q
	0x0040:  7894                                     x.

$ tcpdump -nAr pcap/ajaxapp.pcap
reading from file pcap/ajaxapp.pcap, link-type EN10MB (Ethernet)
15:09:28.545427 IP 49.207.214.44.22565 > 172.105.253.239.8000: Flags [S], seq 4152855954, win 65535, options [mss 1452,nop,wscale 6,nop,nop,TS val 680881823 ecr 0,sackOK,eol], length 0
E..@..@.6..c1..,.i..X%.@...........................
(.n.........
15:09:28.545467 IP 172.105.253.239.8000 > 49.207.214.44.22565: Flags [S.], seq 899396216, ack 4152855955, win 65160, options [mss 1460,sackOK,TS val 4031830871 ecr 680881823,nop,wscale 7], length 0
E..<..@.@..g.i..1..,.@X%5..x...................
.P.W(.n.....
15:09:28.572571 IP 49.207.214.44.22565 > 172.105.253.239.8000: Flags [.], ack 1, win 2070, options [nop,nop,TS val 680881850 ecr 4031830871], length 0
E..4..@.6..o1..,.i..X%.@....5..y....t......
(.n..P.W
15:09:28.574201 IP 49.207.214.44.22565 > 172.105.253.239.8000: Flags [P.], seq 1:346, ack 1, win 2070, options [nop,nop,TS val 680881851 ecr 4031830871], length 345
E.....@.6...1..,.i..X%.@....5..y.....c.....
(.n..P.WGET / HTTP/1.1
Host: 172.105.253.239:8000
User-Agent: Mozilla/5.0 (Macintosh; Intel Mac OS X 10.15; rv:89.0) Gecko/20100101 Firefox/89.0
Accept: text/html,application/xhtml+xml,application/xml;q=0.9,image/webp,*/*;q=0.8
Accept-Language: en-US,en;q=0.5
Accept-Encoding: gzip, deflate
Connection: keep-alive
Upgrade-Insecure-Requests: 1


15:09:28.574233 IP 172.105.253.239.8000 > 49.207.214.44.22565: Flags [.], ack 346, win 507, options [nop,nop,TS val 4031830899 ecr 680881851], length 0
E..4N.@.@.9..i..1..,.@X%5..y.........{.....
.P.s(.n.
15:09:28.576873 IP 172.105.253.239.8000 > 49.207.214.44.22565: Flags [P.], seq 1:118, ack 346, win 507, options [nop,nop,TS val 4031830902 ecr 680881851], length 117
E...N.@.@.9i.i..1..,.@X%5..y...............
.P.v(.n.HTTP/1.1 200 OK
Content-Type: text/html; charset=utf-8
Content-Length: 808
Date: Sun, 06 Jun 2021 09:39:28 GMT


15:09:28.603562 IP 49.207.214.44.22565 > 172.105.253.239.8000: Flags [.], ack 118, win 2068, options [nop,nop,TS val 680881880 ecr 4031830902], length 0
E..4..@.6..o1..,.i..X%.@....5.......r......
(.n..P.v
15:09:28.603577 IP 172.105.253.239.8000 > 49.207.214.44.22565: Flags [P.], seq 118:926, ack 346, win 507, options [nop,nop,TS val 4031830929 ecr 680881880], length 808
E..\N.@.@.6..i..1..,.@X%5..................
.P..(.n.<!DOCTYPE html>
<html lang="en">
<head>
<title>Server Time (Ajax)</title>
<style>
body {background: beige; font-size: 2em; text-align: center}
button {font-size: 0.75em}
time {color: green}
</style>
</head>
<body>
<p>Server time: <time id="time">09:39:28</time></p>
<button id="button">Refresh via Ajax</button>
<script>
const button = document.getElementById('button')
const time = document.getElementById('time')
button.onclick = function () {
  const xhr = new XMLHttpRequest()
  xhr.open('GET', '/time')
  xhr.responseType = 'json'
  xhr.onload = function () {
    if (xhr.status === 200) {
      time.innerHTML = xhr.response.price
    } else {
      time.innerHTML = '[load error]'
    }
  }
  xhr.onerror = function () {
    time.innerHTML = '[xhr error]'
  }
  xhr.send()
}
</script>
</body>
</html>

15:09:28.627334 IP 49.207.214.44.22565 > 172.105.253.239.8000: Flags [.], ack 926, win 2055, options [nop,nop,TS val 680881904 ecr 4031830929], length 0
E..4..@.6..o1..,.i..X%.@....5.......om.....
(.n..P..
15:09:38.603616 IP 49.207.214.44.22565 > 172.105.253.239.8000: Flags [P.], seq 346:633, ack 926, win 2055, options [nop,nop,TS val 680891869 ecr 4031830929], length 287
E..S..@.6..P1..,.i..X%.@....5.......&......
(....P..GET /time HTTP/1.1
Host: 172.105.253.239:8000
User-Agent: Mozilla/5.0 (Macintosh; Intel Mac OS X 10.15; rv:89.0) Gecko/20100101 Firefox/89.0
Accept: */*
Accept-Language: en-US,en;q=0.5
Accept-Encoding: gzip, deflate
Connection: keep-alive
Referer: http://172.105.253.239:8000/


15:09:38.604860 IP 172.105.253.239.8000 > 49.207.214.44.22565: Flags [P.], seq 926:1034, ack 633, win 505, options [nop,nop,TS val 4031840930 ecr 680891869], length 108
E...N.@.@.9p.i..1..,.@X%5..................
.Q..(...HTTP/1.1 200 OK
Content-Type: application/json
Content-Length: 21
Date: Sun, 06 Jun 2021 09:39:38 GMT


15:09:38.630123 IP 49.207.214.44.22565 > 172.105.253.239.8000: Flags [.], ack 1034, win 2053, options [nop,nop,TS val 680891898 ecr 4031840930], length 0
E..4..@.6..o1..,.i..X%.@....5..............
(....Q..
15:09:38.630155 IP 172.105.253.239.8000 > 49.207.214.44.22565: Flags [P.], seq 1034:1055, ack 633, win 505, options [nop,nop,TS val 4031840956 ecr 680891898], length 21
E..IN.@.@.9..i..1..,.@X%5..................
.Q..(...{"price":"09:39:38"}

15:09:38.653977 IP 49.207.214.44.22565 > 172.105.253.239.8000: Flags [.], ack 1055, win 2053, options [nop,nop,TS val 680891921 ecr 4031840956], length 0
E..4..@.6..o1..,.i..X%.@....5..............
(....Q..
15:09:48.698712 IP 49.207.214.44.22565 > 172.105.253.239.8000: Flags [P.], seq 633:920, ack 1055, win 2053, options [nop,nop,TS val 680901950 ecr 4031840956], length 287
E..S..@.6..P1..,.i..X%.@....5..............
(..>.Q..GET /time HTTP/1.1
Host: 172.105.253.239:8000
User-Agent: Mozilla/5.0 (Macintosh; Intel Mac OS X 10.15; rv:89.0) Gecko/20100101 Firefox/89.0
Accept: */*
Accept-Language: en-US,en;q=0.5
Accept-Encoding: gzip, deflate
Connection: keep-alive
Referer: http://172.105.253.239:8000/


15:09:48.699956 IP 172.105.253.239.8000 > 49.207.214.44.22565: Flags [P.], seq 1055:1163, ack 920, win 503, options [nop,nop,TS val 4031851026 ecr 680901950], length 108
E...N.@.@.9n.i..1..,.@X%5......*...........
.Q*.(..>HTTP/1.1 200 OK
Content-Type: application/json
Content-Length: 21
Date: Sun, 06 Jun 2021 09:39:48 GMT


15:09:48.725745 IP 49.207.214.44.22565 > 172.105.253.239.8000: Flags [.], ack 1163, win 2051, options [nop,nop,TS val 680901978 ecr 4031851026], length 0
E..4..@.6..o1..,.i..X%.@...*5........Z.....
(..Z.Q*.
15:09:48.725779 IP 172.105.253.239.8000 > 49.207.214.44.22565: Flags [P.], seq 1163:1184, ack 920, win 503, options [nop,nop,TS val 4031851052 ecr 680901978], length 21
E..IN.@.@.9..i..1..,.@X%5......*...........
.Q*,(..Z{"price":"09:39:48"}

15:09:48.750780 IP 49.207.214.44.22565 > 172.105.253.239.8000: Flags [.], ack 1184, win 2051, options [nop,nop,TS val 680902003 ecr 4031851052], length 0
E..4..@.6..o1..,.i..X%.@...*5..............
(..s.Q*,
15:09:58.717485 IP 49.207.214.44.22565 > 172.105.253.239.8000: Flags [P.], seq 920:1207, ack 1184, win 2051, options [nop,nop,TS val 680911955 ecr 4031851052], length 287
E..S..@.6..P1..,.i..X%.@...*5........z.....
(..S.Q*,GET /time HTTP/1.1
Host: 172.105.253.239:8000
User-Agent: Mozilla/5.0 (Macintosh; Intel Mac OS X 10.15; rv:89.0) Gecko/20100101 Firefox/89.0
Accept: */*
Accept-Language: en-US,en;q=0.5
Accept-Encoding: gzip, deflate
Connection: keep-alive
Referer: http://172.105.253.239:8000/


15:09:58.718731 IP 172.105.253.239.8000 > 49.207.214.44.22565: Flags [P.], seq 1184:1292, ack 1207, win 501, options [nop,nop,TS val 4031861045 ecr 680911955], length 108
E...N.@.@.9l.i..1..,.@X%5......I...........
.QQ5(..SHTTP/1.1 200 OK
Content-Type: application/json
Content-Length: 21
Date: Sun, 06 Jun 2021 09:39:58 GMT


15:09:58.742149 IP 49.207.214.44.22565 > 172.105.253.239.8000: Flags [.], ack 1292, win 2049, options [nop,nop,TS val 680911980 ecr 4031861045], length 0
E..4..@.6..o1..,.i..X%.@...I5..............
(..l.QQ5
15:09:58.742183 IP 172.105.253.239.8000 > 49.207.214.44.22565: Flags [P.], seq 1292:1313, ack 1207, win 501, options [nop,nop,TS val 4031861069 ecr 680911980], length 21
E..IN.@.@.9..i..1..,.@X%5......I...........
.QQM(..l{"price":"09:39:58"}

15:09:58.766687 IP 49.207.214.44.22565 > 172.105.253.239.8000: Flags [.], ack 1313, win 2049, options [nop,nop,TS val 680912003 ecr 4031861069], length 0
E..4..@.6..o1..,.i..X%.@...I5........C.....
(....QQM
15:10:08.796936 IP 49.207.214.44.22565 > 172.105.253.239.8000: Flags [F.], seq 1207, ack 1313, win 2049, options [nop,nop,TS val 680922014 ecr 4031861069], length 0
E..4..@.6..o1..,.i..X%.@...I5.......X'.....
(....QQM
15:10:08.797170 IP 172.105.253.239.8000 > 49.207.214.44.22565: Flags [F.], seq 1313, ack 1208, win 501, options [nop,nop,TS val 4031871124 ecr 680922014], length 0
E..4N.@.@.9..i..1..,.@X%5......J.....{.....
.Qx.(...
15:10:08.820874 IP 49.207.214.44.22565 > 172.105.253.239.8000: Flags [.], ack 1314, win 2049, options [nop,nop,TS val 680922037 ecr 4031871124], length 0
E..4..@.6..o1..,.i..X%.@...J5.......0......
(....Qx.

$ tcpdump -nr pcap/ajaxapp.pcap
reading from file pcap/ajaxapp.pcap, link-type EN10MB (Ethernet)
15:09:28.545427 IP 49.207.214.44.22565 > 172.105.253.239.8000: Flags [S], seq 4152855954, win 65535, options [mss 1452,nop,wscale 6,nop,nop,TS val 680881823 ecr 0,sackOK,eol], length 0
15:09:28.545467 IP 172.105.253.239.8000 > 49.207.214.44.22565: Flags [S.], seq 899396216, ack 4152855955, win 65160, options [mss 1460,sackOK,TS val 4031830871 ecr 680881823,nop,wscale 7], length 0
15:09:28.572571 IP 49.207.214.44.22565 > 172.105.253.239.8000: Flags [.], ack 1, win 2070, options [nop,nop,TS val 680881850 ecr 4031830871], length 0
15:09:28.574201 IP 49.207.214.44.22565 > 172.105.253.239.8000: Flags [P.], seq 1:346, ack 1, win 2070, options [nop,nop,TS val 680881851 ecr 4031830871], length 345
15:09:28.574233 IP 172.105.253.239.8000 > 49.207.214.44.22565: Flags [.], ack 346, win 507, options [nop,nop,TS val 4031830899 ecr 680881851], length 0
15:09:28.576873 IP 172.105.253.239.8000 > 49.207.214.44.22565: Flags [P.], seq 1:118, ack 346, win 507, options [nop,nop,TS val 4031830902 ecr 680881851], length 117
15:09:28.603562 IP 49.207.214.44.22565 > 172.105.253.239.8000: Flags [.], ack 118, win 2068, options [nop,nop,TS val 680881880 ecr 4031830902], length 0
15:09:28.603577 IP 172.105.253.239.8000 > 49.207.214.44.22565: Flags [P.], seq 118:926, ack 346, win 507, options [nop,nop,TS val 4031830929 ecr 680881880], length 808
15:09:28.627334 IP 49.207.214.44.22565 > 172.105.253.239.8000: Flags [.], ack 926, win 2055, options [nop,nop,TS val 680881904 ecr 4031830929], length 0
15:09:38.603616 IP 49.207.214.44.22565 > 172.105.253.239.8000: Flags [P.], seq 346:633, ack 926, win 2055, options [nop,nop,TS val 680891869 ecr 4031830929], length 287
15:09:38.604860 IP 172.105.253.239.8000 > 49.207.214.44.22565: Flags [P.], seq 926:1034, ack 633, win 505, options [nop,nop,TS val 4031840930 ecr 680891869], length 108
15:09:38.630123 IP 49.207.214.44.22565 > 172.105.253.239.8000: Flags [.], ack 1034, win 2053, options [nop,nop,TS val 680891898 ecr 4031840930], length 0
15:09:38.630155 IP 172.105.253.239.8000 > 49.207.214.44.22565: Flags [P.], seq 1034:1055, ack 633, win 505, options [nop,nop,TS val 4031840956 ecr 680891898], length 21
15:09:38.653977 IP 49.207.214.44.22565 > 172.105.253.239.8000: Flags [.], ack 1055, win 2053, options [nop,nop,TS val 680891921 ecr 4031840956], length 0
15:09:48.698712 IP 49.207.214.44.22565 > 172.105.253.239.8000: Flags [P.], seq 633:920, ack 1055, win 2053, options [nop,nop,TS val 680901950 ecr 4031840956], length 287
15:09:48.699956 IP 172.105.253.239.8000 > 49.207.214.44.22565: Flags [P.], seq 1055:1163, ack 920, win 503, options [nop,nop,TS val 4031851026 ecr 680901950], length 108
15:09:48.725745 IP 49.207.214.44.22565 > 172.105.253.239.8000: Flags [.], ack 1163, win 2051, options [nop,nop,TS val 680901978 ecr 4031851026], length 0
15:09:48.725779 IP 172.105.253.239.8000 > 49.207.214.44.22565: Flags [P.], seq 1163:1184, ack 920, win 503, options [nop,nop,TS val 4031851052 ecr 680901978], length 21
15:09:48.750780 IP 49.207.214.44.22565 > 172.105.253.239.8000: Flags [.], ack 1184, win 2051, options [nop,nop,TS val 680902003 ecr 4031851052], length 0
15:09:58.717485 IP 49.207.214.44.22565 > 172.105.253.239.8000: Flags [P.], seq 920:1207, ack 1184, win 2051, options [nop,nop,TS val 680911955 ecr 4031851052], length 287
15:09:58.718731 IP 172.105.253.239.8000 > 49.207.214.44.22565: Flags [P.], seq 1184:1292, ack 1207, win 501, options [nop,nop,TS val 4031861045 ecr 680911955], length 108
15:09:58.742149 IP 49.207.214.44.22565 > 172.105.253.239.8000: Flags [.], ack 1292, win 2049, options [nop,nop,TS val 680911980 ecr 4031861045], length 0
15:09:58.742183 IP 172.105.253.239.8000 > 49.207.214.44.22565: Flags [P.], seq 1292:1313, ack 1207, win 501, options [nop,nop,TS val 4031861069 ecr 680911980], length 21
15:09:58.766687 IP 49.207.214.44.22565 > 172.105.253.239.8000: Flags [.], ack 1313, win 2049, options [nop,nop,TS val 680912003 ecr 4031861069], length 0
15:10:08.796936 IP 49.207.214.44.22565 > 172.105.253.239.8000: Flags [F.], seq 1207, ack 1313, win 2049, options [nop,nop,TS val 680922014 ecr 4031861069], length 0
15:10:08.797170 IP 172.105.253.239.8000 > 49.207.214.44.22565: Flags [F.], seq 1313, ack 1208, win 501, options [nop,nop,TS val 4031871124 ecr 680922014], length 0
15:10:08.820874 IP 49.207.214.44.22565 > 172.105.253.239.8000: Flags [.], ack 1314, win 2049, options [nop,nop,TS val 680922037 ecr 4031871124], length 0

$ tshark -nxr pcap/ajaxapp.pcap
0000  f2 3c 92 4d a0 0a 52 50 d9 7c d8 57 08 00 45 00   .<.M..RP.|.W..E.
0010  00 40 00 00 40 00 36 06 92 63 31 cf d6 2c ac 69   .@..@.6..c1..,.i
0020  fd ef 58 25 1f 40 f7 87 8d 92 00 00 00 00 b0 02   ..X%.@..........
0030  ff ff f0 fa 00 00 02 04 05 ac 01 03 03 06 01 01   ................
0040  08 0a 28 95 6e 9f 00 00 00 00 04 02 00 00         ..(.n.........

0000  00 00 5e 00 be ef f2 3c 92 4d a0 0a 08 00 45 00   ..^....<.M....E.
0010  00 3c 00 00 40 00 40 06 88 67 ac 69 fd ef 31 cf   .<..@.@..g.i..1.
0020  d6 2c 1f 40 58 25 35 9b b2 78 f7 87 8d 93 a0 12   .,.@X%5..x......
0030  fe 88 b2 83 00 00 02 04 05 b4 04 02 08 0a f0 50   ...............P
0040  db 57 28 95 6e 9f 01 03 03 07                     .W(.n.....

0000  f2 3c 92 4d a0 0a 52 50 d9 7c d8 57 08 00 45 00   .<.M..RP.|.W..E.
0010  00 34 00 00 40 00 36 06 92 6f 31 cf d6 2c ac 69   .4..@.6..o1..,.i
0020  fd ef 58 25 1f 40 f7 87 8d 93 35 9b b2 79 80 10   ..X%.@....5..y..
0030  08 16 74 c4 00 00 01 01 08 0a 28 95 6e ba f0 50   ..t.......(.n..P
0040  db 57                                             .W

0000  f2 3c 92 4d a0 0a 52 50 d9 7c d8 57 08 00 45 00   .<.M..RP.|.W..E.
0010  01 8d 00 00 40 00 36 06 91 16 31 cf d6 2c ac 69   ....@.6...1..,.i
0020  fd ef 58 25 1f 40 f7 87 8d 93 35 9b b2 79 80 18   ..X%.@....5..y..
0030  08 16 f7 63 00 00 01 01 08 0a 28 95 6e bb f0 50   ...c......(.n..P
0040  db 57 47 45 54 20 2f 20 48 54 54 50 2f 31 2e 31   .WGET / HTTP/1.1
0050  0d 0a 48 6f 73 74 3a 20 31 37 32 2e 31 30 35 2e   ..Host: 172.105.
0060  32 35 33 2e 32 33 39 3a 38 30 30 30 0d 0a 55 73   253.239:8000..Us
0070  65 72 2d 41 67 65 6e 74 3a 20 4d 6f 7a 69 6c 6c   er-Agent: Mozill
0080  61 2f 35 2e 30 20 28 4d 61 63 69 6e 74 6f 73 68   a/5.0 (Macintosh
0090  3b 20 49 6e 74 65 6c 20 4d 61 63 20 4f 53 20 58   ; Intel Mac OS X
00a0  20 31 30 2e 31 35 3b 20 72 76 3a 38 39 2e 30 29    10.15; rv:89.0)
00b0  20 47 65 63 6b 6f 2f 32 30 31 30 30 31 30 31 20    Gecko/20100101 
00c0  46 69 72 65 66 6f 78 2f 38 39 2e 30 0d 0a 41 63   Firefox/89.0..Ac
00d0  63 65 70 74 3a 20 74 65 78 74 2f 68 74 6d 6c 2c   cept: text/html,
00e0  61 70 70 6c 69 63 61 74 69 6f 6e 2f 78 68 74 6d   application/xhtm
00f0  6c 2b 78 6d 6c 2c 61 70 70 6c 69 63 61 74 69 6f   l+xml,applicatio
0100  6e 2f 78 6d 6c 3b 71 3d 30 2e 39 2c 69 6d 61 67   n/xml;q=0.9,imag
0110  65 2f 77 65 62 70 2c 2a 2f 2a 3b 71 3d 30 2e 38   e/webp,*/*;q=0.8
0120  0d 0a 41 63 63 65 70 74 2d 4c 61 6e 67 75 61 67   ..Accept-Languag
0130  65 3a 20 65 6e 2d 55 53 2c 65 6e 3b 71 3d 30 2e   e: en-US,en;q=0.
0140  35 0d 0a 41 63 63 65 70 74 2d 45 6e 63 6f 64 69   5..Accept-Encodi
0150  6e 67 3a 20 67 7a 69 70 2c 20 64 65 66 6c 61 74   ng: gzip, deflat
0160  65 0d 0a 43 6f 6e 6e 65 63 74 69 6f 6e 3a 20 6b   e..Connection: k
0170  65 65 70 2d 61 6c 69 76 65 0d 0a 55 70 67 72 61   eep-alive..Upgra
0180  64 65 2d 49 6e 73 65 63 75 72 65 2d 52 65 71 75   de-Insecure-Requ
0190  65 73 74 73 3a 20 31 0d 0a 0d 0a                  ests: 1....

0000  00 00 5e 00 be ef f2 3c 92 4d a0 0a 08 00 45 00   ..^....<.M....E.
0010  00 34 4e 90 40 00 40 06 39 df ac 69 fd ef 31 cf   .4N.@.@.9..i..1.
0020  d6 2c 1f 40 58 25 35 9b b2 79 f7 87 8e ec 80 10   .,.@X%5..y......
0030  01 fb b2 7b 00 00 01 01 08 0a f0 50 db 73 28 95   ...{.......P.s(.
0040  6e bb                                             n.

0000  00 00 5e 00 be ef f2 3c 92 4d a0 0a 08 00 45 00   ..^....<.M....E.
0010  00 a9 4e 91 40 00 40 06 39 69 ac 69 fd ef 31 cf   ..N.@.@.9i.i..1.
0020  d6 2c 1f 40 58 25 35 9b b2 79 f7 87 8e ec 80 18   .,.@X%5..y......
0030  01 fb b2 f0 00 00 01 01 08 0a f0 50 db 76 28 95   ...........P.v(.
0040  6e bb 48 54 54 50 2f 31 2e 31 20 32 30 30 20 4f   n.HTTP/1.1 200 O
0050  4b 0d 0a 43 6f 6e 74 65 6e 74 2d 54 79 70 65 3a   K..Content-Type:
0060  20 74 65 78 74 2f 68 74 6d 6c 3b 20 63 68 61 72    text/html; char
0070  73 65 74 3d 75 74 66 2d 38 0d 0a 43 6f 6e 74 65   set=utf-8..Conte
0080  6e 74 2d 4c 65 6e 67 74 68 3a 20 38 30 38 0d 0a   nt-Length: 808..
0090  44 61 74 65 3a 20 53 75 6e 2c 20 30 36 20 4a 75   Date: Sun, 06 Ju
00a0  6e 20 32 30 32 31 20 30 39 3a 33 39 3a 32 38 20   n 2021 09:39:28 
00b0  47 4d 54 0d 0a 0d 0a                              GMT....

0000  f2 3c 92 4d a0 0a 52 50 d9 7c d8 57 08 00 45 00   .<.M..RP.|.W..E.
0010  00 34 00 00 40 00 36 06 92 6f 31 cf d6 2c ac 69   .4..@.6..o1..,.i
0020  fd ef 58 25 1f 40 f7 87 8e ec 35 9b b2 ee 80 10   ..X%.@....5.....
0030  08 14 72 bb 00 00 01 01 08 0a 28 95 6e d8 f0 50   ..r.......(.n..P
0040  db 76                                             .v

Frame (874 bytes):
0000  00 00 5e 00 be ef f2 3c 92 4d a0 0a 08 00 45 00   ..^....<.M....E.
0010  03 5c 4e 92 40 00 40 06 36 b5 ac 69 fd ef 31 cf   .\N.@.@.6..i..1.
0020  d6 2c 1f 40 58 25 35 9b b2 ee f7 87 8e ec 80 18   .,.@X%5.........
0030  01 fb b5 a3 00 00 01 01 08 0a f0 50 db 91 28 95   ...........P..(.
0040  6e d8 3c 21 44 4f 43 54 59 50 45 20 68 74 6d 6c   n.<!DOCTYPE html
0050  3e 0a 3c 68 74 6d 6c 20 6c 61 6e 67 3d 22 65 6e   >.<html lang="en
0060  22 3e 0a 3c 68 65 61 64 3e 0a 3c 74 69 74 6c 65   ">.<head>.<title
0070  3e 53 65 72 76 65 72 20 54 69 6d 65 20 28 41 6a   >Server Time (Aj
0080  61 78 29 3c 2f 74 69 74 6c 65 3e 0a 3c 73 74 79   ax)</title>.<sty
0090  6c 65 3e 0a 62 6f 64 79 20 7b 62 61 63 6b 67 72   le>.body {backgr
00a0  6f 75 6e 64 3a 20 62 65 69 67 65 3b 20 66 6f 6e   ound: beige; fon
00b0  74 2d 73 69 7a 65 3a 20 32 65 6d 3b 20 74 65 78   t-size: 2em; tex
00c0  74 2d 61 6c 69 67 6e 3a 20 63 65 6e 74 65 72 7d   t-align: center}
00d0  0a 62 75 74 74 6f 6e 20 7b 66 6f 6e 74 2d 73 69   .button {font-si
00e0  7a 65 3a 20 30 2e 37 35 65 6d 7d 0a 74 69 6d 65   ze: 0.75em}.time
00f0  20 7b 63 6f 6c 6f 72 3a 20 67 72 65 65 6e 7d 0a    {color: green}.
0100  3c 2f 73 74 79 6c 65 3e 0a 3c 2f 68 65 61 64 3e   </style>.</head>
0110  0a 3c 62 6f 64 79 3e 0a 3c 70 3e 53 65 72 76 65   .<body>.<p>Serve
0120  72 20 74 69 6d 65 3a 20 3c 74 69 6d 65 20 69 64   r time: <time id
0130  3d 22 74 69 6d 65 22 3e 30 39 3a 33 39 3a 32 38   ="time">09:39:28
0140  3c 2f 74 69 6d 65 3e 3c 2f 70 3e 0a 3c 62 75 74   </time></p>.<but
0150  74 6f 6e 20 69 64 3d 22 62 75 74 74 6f 6e 22 3e   ton id="button">
0160  52 65 66 72 65 73 68 20 76 69 61 20 41 6a 61 78   Refresh via Ajax
0170  3c 2f 62 75 74 74 6f 6e 3e 0a 3c 73 63 72 69 70   </button>.<scrip
0180  74 3e 0a 63 6f 6e 73 74 20 62 75 74 74 6f 6e 20   t>.const button 
0190  3d 20 64 6f 63 75 6d 65 6e 74 2e 67 65 74 45 6c   = document.getEl
01a0  65 6d 65 6e 74 42 79 49 64 28 27 62 75 74 74 6f   ementById('butto
01b0  6e 27 29 0a 63 6f 6e 73 74 20 74 69 6d 65 20 3d   n').const time =
01c0  20 64 6f 63 75 6d 65 6e 74 2e 67 65 74 45 6c 65    document.getEle
01d0  6d 65 6e 74 42 79 49 64 28 27 74 69 6d 65 27 29   mentById('time')
01e0  0a 62 75 74 74 6f 6e 2e 6f 6e 63 6c 69 63 6b 20   .button.onclick 
01f0  3d 20 66 75 6e 63 74 69 6f 6e 20 28 29 20 7b 0a   = function () {.
0200  20 20 63 6f 6e 73 74 20 78 68 72 20 3d 20 6e 65     const xhr = ne
0210  77 20 58 4d 4c 48 74 74 70 52 65 71 75 65 73 74   w XMLHttpRequest
0220  28 29 0a 20 20 78 68 72 2e 6f 70 65 6e 28 27 47   ().  xhr.open('G
0230  45 54 27 2c 20 27 2f 74 69 6d 65 27 29 0a 20 20   ET', '/time').  
0240  78 68 72 2e 72 65 73 70 6f 6e 73 65 54 79 70 65   xhr.responseType
0250  20 3d 20 27 6a 73 6f 6e 27 0a 20 20 78 68 72 2e    = 'json'.  xhr.
0260  6f 6e 6c 6f 61 64 20 3d 20 66 75 6e 63 74 69 6f   onload = functio
0270  6e 20 28 29 20 7b 0a 20 20 20 20 69 66 20 28 78   n () {.    if (x
0280  68 72 2e 73 74 61 74 75 73 20 3d 3d 3d 20 32 30   hr.status === 20
0290  30 29 20 7b 0a 20 20 20 20 20 20 74 69 6d 65 2e   0) {.      time.
02a0  69 6e 6e 65 72 48 54 4d 4c 20 3d 20 78 68 72 2e   innerHTML = xhr.
02b0  72 65 73 70 6f 6e 73 65 2e 70 72 69 63 65 0a 20   response.price. 
02c0  20 20 20 7d 20 65 6c 73 65 20 7b 0a 20 20 20 20      } else {.    
02d0  20 20 74 69 6d 65 2e 69 6e 6e 65 72 48 54 4d 4c     time.innerHTML
02e0  20 3d 20 27 5b 6c 6f 61 64 20 65 72 72 6f 72 5d    = '[load error]
02f0  27 0a 20 20 20 20 7d 0a 20 20 7d 0a 20 20 78 68   '.    }.  }.  xh
0300  72 2e 6f 6e 65 72 72 6f 72 20 3d 20 66 75 6e 63   r.onerror = func
0310  74 69 6f 6e 20 28 29 20 7b 0a 20 20 20 20 74 69   tion () {.    ti
0320  6d 65 2e 69 6e 6e 65 72 48 54 4d 4c 20 3d 20 27   me.innerHTML = '
0330  5b 78 68 72 20 65 72 72 6f 72 5d 27 0a 20 20 7d   [xhr error]'.  }
0340  0a 20 20 78 68 72 2e 73 65 6e 64 28 29 0a 7d 0a   .  xhr.send().}.
0350  3c 2f 73 63 72 69 70 74 3e 0a 3c 2f 62 6f 64 79   </script>.</body
0360  3e 0a 3c 2f 68 74 6d 6c 3e 0a                     >.</html>.
Reassembled TCP (925 bytes):
0000  48 54 54 50 2f 31 2e 31 20 32 30 30 20 4f 4b 0d   HTTP/1.1 200 OK.
0010  0a 43 6f 6e 74 65 6e 74 2d 54 79 70 65 3a 20 74   .Content-Type: t
0020  65 78 74 2f 68 74 6d 6c 3b 20 63 68 61 72 73 65   ext/html; charse
0030  74 3d 75 74 66 2d 38 0d 0a 43 6f 6e 74 65 6e 74   t=utf-8..Content
0040  2d 4c 65 6e 67 74 68 3a 20 38 30 38 0d 0a 44 61   -Length: 808..Da
0050  74 65 3a 20 53 75 6e 2c 20 30 36 20 4a 75 6e 20   te: Sun, 06 Jun 
0060  32 30 32 31 20 30 39 3a 33 39 3a 32 38 20 47 4d   2021 09:39:28 GM
0070  54 0d 0a 0d 0a 3c 21 44 4f 43 54 59 50 45 20 68   T....<!DOCTYPE h
0080  74 6d 6c 3e 0a 3c 68 74 6d 6c 20 6c 61 6e 67 3d   tml>.<html lang=
0090  22 65 6e 22 3e 0a 3c 68 65 61 64 3e 0a 3c 74 69   "en">.<head>.<ti
00a0  74 6c 65 3e 53 65 72 76 65 72 20 54 69 6d 65 20   tle>Server Time 
00b0  28 41 6a 61 78 29 3c 2f 74 69 74 6c 65 3e 0a 3c   (Ajax)</title>.<
00c0  73 74 79 6c 65 3e 0a 62 6f 64 79 20 7b 62 61 63   style>.body {bac
00d0  6b 67 72 6f 75 6e 64 3a 20 62 65 69 67 65 3b 20   kground: beige; 
00e0  66 6f 6e 74 2d 73 69 7a 65 3a 20 32 65 6d 3b 20   font-size: 2em; 
00f0  74 65 78 74 2d 61 6c 69 67 6e 3a 20 63 65 6e 74   text-align: cent
0100  65 72 7d 0a 62 75 74 74 6f 6e 20 7b 66 6f 6e 74   er}.button {font
0110  2d 73 69 7a 65 3a 20 30 2e 37 35 65 6d 7d 0a 74   -size: 0.75em}.t
0120  69 6d 65 20 7b 63 6f 6c 6f 72 3a 20 67 72 65 65   ime {color: gree
0130  6e 7d 0a 3c 2f 73 74 79 6c 65 3e 0a 3c 2f 68 65   n}.</style>.</he
0140  61 64 3e 0a 3c 62 6f 64 79 3e 0a 3c 70 3e 53 65   ad>.<body>.<p>Se
0150  72 76 65 72 20 74 69 6d 65 3a 20 3c 74 69 6d 65   rver time: <time
0160  20 69 64 3d 22 74 69 6d 65 22 3e 30 39 3a 33 39    id="time">09:39
0170  3a 32 38 3c 2f 74 69 6d 65 3e 3c 2f 70 3e 0a 3c   :28</time></p>.<
0180  62 75 74 74 6f 6e 20 69 64 3d 22 62 75 74 74 6f   button id="butto
0190  6e 22 3e 52 65 66 72 65 73 68 20 76 69 61 20 41   n">Refresh via A
01a0  6a 61 78 3c 2f 62 75 74 74 6f 6e 3e 0a 3c 73 63   jax</button>.<sc
01b0  72 69 70 74 3e 0a 63 6f 6e 73 74 20 62 75 74 74   ript>.const butt
01c0  6f 6e 20 3d 20 64 6f 63 75 6d 65 6e 74 2e 67 65   on = document.ge
01d0  74 45 6c 65 6d 65 6e 74 42 79 49 64 28 27 62 75   tElementById('bu
01e0  74 74 6f 6e 27 29 0a 63 6f 6e 73 74 20 74 69 6d   tton').const tim
01f0  65 20 3d 20 64 6f 63 75 6d 65 6e 74 2e 67 65 74   e = document.get
0200  45 6c 65 6d 65 6e 74 42 79 49 64 28 27 74 69 6d   ElementById('tim
0210  65 27 29 0a 62 75 74 74 6f 6e 2e 6f 6e 63 6c 69   e').button.oncli
0220  63 6b 20 3d 20 66 75 6e 63 74 69 6f 6e 20 28 29   ck = function ()
0230  20 7b 0a 20 20 63 6f 6e 73 74 20 78 68 72 20 3d    {.  const xhr =
0240  20 6e 65 77 20 58 4d 4c 48 74 74 70 52 65 71 75    new XMLHttpRequ
0250  65 73 74 28 29 0a 20 20 78 68 72 2e 6f 70 65 6e   est().  xhr.open
0260  28 27 47 45 54 27 2c 20 27 2f 74 69 6d 65 27 29   ('GET', '/time')
0270  0a 20 20 78 68 72 2e 72 65 73 70 6f 6e 73 65 54   .  xhr.responseT
0280  79 70 65 20 3d 20 27 6a 73 6f 6e 27 0a 20 20 78   ype = 'json'.  x
0290  68 72 2e 6f 6e 6c 6f 61 64 20 3d 20 66 75 6e 63   hr.onload = func
02a0  74 69 6f 6e 20 28 29 20 7b 0a 20 20 20 20 69 66   tion () {.    if
02b0  20 28 78 68 72 2e 73 74 61 74 75 73 20 3d 3d 3d    (xhr.status ===
02c0  20 32 30 30 29 20 7b 0a 20 20 20 20 20 20 74 69    200) {.      ti
02d0  6d 65 2e 69 6e 6e 65 72 48 54 4d 4c 20 3d 20 78   me.innerHTML = x
02e0  68 72 2e 72 65 73 70 6f 6e 73 65 2e 70 72 69 63   hr.response.pric
02f0  65 0a 20 20 20 20 7d 20 65 6c 73 65 20 7b 0a 20   e.    } else {. 
0300  20 20 20 20 20 74 69 6d 65 2e 69 6e 6e 65 72 48        time.innerH
0310  54 4d 4c 20 3d 20 27 5b 6c 6f 61 64 20 65 72 72   TML = '[load err
0320  6f 72 5d 27 0a 20 20 20 20 7d 0a 20 20 7d 0a 20   or]'.    }.  }. 
0330  20 78 68 72 2e 6f 6e 65 72 72 6f 72 20 3d 20 66    xhr.onerror = f
0340  75 6e 63 74 69 6f 6e 20 28 29 20 7b 0a 20 20 20   unction () {.   
0350  20 74 69 6d 65 2e 69 6e 6e 65 72 48 54 4d 4c 20    time.innerHTML 
0360  3d 20 27 5b 78 68 72 20 65 72 72 6f 72 5d 27 0a   = '[xhr error]'.
0370  20 20 7d 0a 20 20 78 68 72 2e 73 65 6e 64 28 29     }.  xhr.send()
0380  0a 7d 0a 3c 2f 73 63 72 69 70 74 3e 0a 3c 2f 62   .}.</script>.</b
0390  6f 64 79 3e 0a 3c 2f 68 74 6d 6c 3e 0a            ody>.</html>.

0000  f2 3c 92 4d a0 0a 52 50 d9 7c d8 57 08 00 45 00   .<.M..RP.|.W..E.
0010  00 34 00 00 40 00 36 06 92 6f 31 cf d6 2c ac 69   .4..@.6..o1..,.i
0020  fd ef 58 25 1f 40 f7 87 8e ec 35 9b b6 16 80 10   ..X%.@....5.....
0030  08 07 6f 6d 00 00 01 01 08 0a 28 95 6e f0 f0 50   ..om......(.n..P
0040  db 91                                             ..

0000  f2 3c 92 4d a0 0a 52 50 d9 7c d8 57 08 00 45 00   .<.M..RP.|.W..E.
0010  01 53 00 00 40 00 36 06 91 50 31 cf d6 2c ac 69   .S..@.6..P1..,.i
0020  fd ef 58 25 1f 40 f7 87 8e ec 35 9b b6 16 80 18   ..X%.@....5.....
0030  08 07 26 c8 00 00 01 01 08 0a 28 95 95 dd f0 50   ..&.......(....P
0040  db 91 47 45 54 20 2f 74 69 6d 65 20 48 54 54 50   ..GET /time HTTP
0050  2f 31 2e 31 0d 0a 48 6f 73 74 3a 20 31 37 32 2e   /1.1..Host: 172.
0060  31 30 35 2e 32 35 33 2e 32 33 39 3a 38 30 30 30   105.253.239:8000
0070  0d 0a 55 73 65 72 2d 41 67 65 6e 74 3a 20 4d 6f   ..User-Agent: Mo
0080  7a 69 6c 6c 61 2f 35 2e 30 20 28 4d 61 63 69 6e   zilla/5.0 (Macin
0090  74 6f 73 68 3b 20 49 6e 74 65 6c 20 4d 61 63 20   tosh; Intel Mac 
00a0  4f 53 20 58 20 31 30 2e 31 35 3b 20 72 76 3a 38   OS X 10.15; rv:8
00b0  39 2e 30 29 20 47 65 63 6b 6f 2f 32 30 31 30 30   9.0) Gecko/20100
00c0  31 30 31 20 46 69 72 65 66 6f 78 2f 38 39 2e 30   101 Firefox/89.0
00d0  0d 0a 41 63 63 65 70 74 3a 20 2a 2f 2a 0d 0a 41   ..Accept: */*..A
00e0  63 63 65 70 74 2d 4c 61 6e 67 75 61 67 65 3a 20   ccept-Language: 
00f0  65 6e 2d 55 53 2c 65 6e 3b 71 3d 30 2e 35 0d 0a   en-US,en;q=0.5..
0100  41 63 63 65 70 74 2d 45 6e 63 6f 64 69 6e 67 3a   Accept-Encoding:
0110  20 67 7a 69 70 2c 20 64 65 66 6c 61 74 65 0d 0a    gzip, deflate..
0120  43 6f 6e 6e 65 63 74 69 6f 6e 3a 20 6b 65 65 70   Connection: keep
0130  2d 61 6c 69 76 65 0d 0a 52 65 66 65 72 65 72 3a   -alive..Referer:
0140  20 68 74 74 70 3a 2f 2f 31 37 32 2e 31 30 35 2e    http://172.105.
0150  32 35 33 2e 32 33 39 3a 38 30 30 30 2f 0d 0a 0d   253.239:8000/...
0160  0a                                                .

0000  00 00 5e 00 be ef f2 3c 92 4d a0 0a 08 00 45 00   ..^....<.M....E.
0010  00 a0 4e 93 40 00 40 06 39 70 ac 69 fd ef 31 cf   ..N.@.@.9p.i..1.
0020  d6 2c 1f 40 58 25 35 9b b6 16 f7 87 90 0b 80 18   .,.@X%5.........
0030  01 f9 b2 e7 00 00 01 01 08 0a f0 51 02 a2 28 95   ...........Q..(.
0040  95 dd 48 54 54 50 2f 31 2e 31 20 32 30 30 20 4f   ..HTTP/1.1 200 O
0050  4b 0d 0a 43 6f 6e 74 65 6e 74 2d 54 79 70 65 3a   K..Content-Type:
0060  20 61 70 70 6c 69 63 61 74 69 6f 6e 2f 6a 73 6f    application/jso
0070  6e 0d 0a 43 6f 6e 74 65 6e 74 2d 4c 65 6e 67 74   n..Content-Lengt
0080  68 3a 20 32 31 0d 0a 44 61 74 65 3a 20 53 75 6e   h: 21..Date: Sun
0090  2c 20 30 36 20 4a 75 6e 20 32 30 32 31 20 30 39   , 06 Jun 2021 09
00a0  3a 33 39 3a 33 38 20 47 4d 54 0d 0a 0d 0a         :39:38 GMT....

0000  f2 3c 92 4d a0 0a 52 50 d9 7c d8 57 08 00 45 00   .<.M..RP.|.W..E.
0010  00 34 00 00 40 00 36 06 92 6f 31 cf d6 2c ac 69   .4..@.6..o1..,.i
0020  fd ef 58 25 1f 40 f7 87 90 0b 35 9b b6 82 80 10   ..X%.@....5.....
0030  08 05 1f c9 00 00 01 01 08 0a 28 95 95 fa f0 51   ..........(....Q
0040  02 a2                                             ..

Frame (87 bytes):
0000  00 00 5e 00 be ef f2 3c 92 4d a0 0a 08 00 45 00   ..^....<.M....E.
0010  00 49 4e 94 40 00 40 06 39 c6 ac 69 fd ef 31 cf   .IN.@.@.9..i..1.
0020  d6 2c 1f 40 58 25 35 9b b6 82 f7 87 90 0b 80 18   .,.@X%5.........
0030  01 f9 b2 90 00 00 01 01 08 0a f0 51 02 bc 28 95   ...........Q..(.
0040  95 fa 7b 22 70 72 69 63 65 22 3a 22 30 39 3a 33   ..{"price":"09:3
0050  39 3a 33 38 22 7d 0a                              9:38"}.
Reassembled TCP (129 bytes):
0000  48 54 54 50 2f 31 2e 31 20 32 30 30 20 4f 4b 0d   HTTP/1.1 200 OK.
0010  0a 43 6f 6e 74 65 6e 74 2d 54 79 70 65 3a 20 61   .Content-Type: a
0020  70 70 6c 69 63 61 74 69 6f 6e 2f 6a 73 6f 6e 0d   pplication/json.
0030  0a 43 6f 6e 74 65 6e 74 2d 4c 65 6e 67 74 68 3a   .Content-Length:
0040  20 32 31 0d 0a 44 61 74 65 3a 20 53 75 6e 2c 20    21..Date: Sun, 
0050  30 36 20 4a 75 6e 20 32 30 32 31 20 30 39 3a 33   06 Jun 2021 09:3
0060  39 3a 33 38 20 47 4d 54 0d 0a 0d 0a 7b 22 70 72   9:38 GMT....{"pr
0070  69 63 65 22 3a 22 30 39 3a 33 39 3a 33 38 22 7d   ice":"09:39:38"}
0080  0a                                                .

0000  f2 3c 92 4d a0 0a 52 50 d9 7c d8 57 08 00 45 00   .<.M..RP.|.W..E.
0010  00 34 00 00 40 00 36 06 92 6f 31 cf d6 2c ac 69   .4..@.6..o1..,.i
0020  fd ef 58 25 1f 40 f7 87 90 0b 35 9b b6 97 80 10   ..X%.@....5.....
0030  08 05 1f 83 00 00 01 01 08 0a 28 95 96 11 f0 51   ..........(....Q
0040  02 bc                                             ..

0000  f2 3c 92 4d a0 0a 52 50 d9 7c d8 57 08 00 45 00   .<.M..RP.|.W..E.
0010  01 53 00 00 40 00 36 06 91 50 31 cf d6 2c ac 69   .S..@.6..P1..,.i
0020  fd ef 58 25 1f 40 f7 87 90 0b 35 9b b6 97 80 18   ..X%.@....5.....
0030  08 05 d6 9d 00 00 01 01 08 0a 28 95 bd 3e f0 51   ..........(..>.Q
0040  02 bc 47 45 54 20 2f 74 69 6d 65 20 48 54 54 50   ..GET /time HTTP
0050  2f 31 2e 31 0d 0a 48 6f 73 74 3a 20 31 37 32 2e   /1.1..Host: 172.
0060  31 30 35 2e 32 35 33 2e 32 33 39 3a 38 30 30 30   105.253.239:8000
0070  0d 0a 55 73 65 72 2d 41 67 65 6e 74 3a 20 4d 6f   ..User-Agent: Mo
0080  7a 69 6c 6c 61 2f 35 2e 30 20 28 4d 61 63 69 6e   zilla/5.0 (Macin
0090  74 6f 73 68 3b 20 49 6e 74 65 6c 20 4d 61 63 20   tosh; Intel Mac 
00a0  4f 53 20 58 20 31 30 2e 31 35 3b 20 72 76 3a 38   OS X 10.15; rv:8
00b0  39 2e 30 29 20 47 65 63 6b 6f 2f 32 30 31 30 30   9.0) Gecko/20100
00c0  31 30 31 20 46 69 72 65 66 6f 78 2f 38 39 2e 30   101 Firefox/89.0
00d0  0d 0a 41 63 63 65 70 74 3a 20 2a 2f 2a 0d 0a 41   ..Accept: */*..A
00e0  63 63 65 70 74 2d 4c 61 6e 67 75 61 67 65 3a 20   ccept-Language: 
00f0  65 6e 2d 55 53 2c 65 6e 3b 71 3d 30 2e 35 0d 0a   en-US,en;q=0.5..
0100  41 63 63 65 70 74 2d 45 6e 63 6f 64 69 6e 67 3a   Accept-Encoding:
0110  20 67 7a 69 70 2c 20 64 65 66 6c 61 74 65 0d 0a    gzip, deflate..
0120  43 6f 6e 6e 65 63 74 69 6f 6e 3a 20 6b 65 65 70   Connection: keep
0130  2d 61 6c 69 76 65 0d 0a 52 65 66 65 72 65 72 3a   -alive..Referer:
0140  20 68 74 74 70 3a 2f 2f 31 37 32 2e 31 30 35 2e    http://172.105.
0150  32 35 33 2e 32 33 39 3a 38 30 30 30 2f 0d 0a 0d   253.239:8000/...
0160  0a                                                .

0000  00 00 5e 00 be ef f2 3c 92 4d a0 0a 08 00 45 00   ..^....<.M....E.
0010  00 a0 4e 95 40 00 40 06 39 6e ac 69 fd ef 31 cf   ..N.@.@.9n.i..1.
0020  d6 2c 1f 40 58 25 35 9b b6 97 f7 87 91 2a 80 18   .,.@X%5......*..
0030  01 f7 b2 e7 00 00 01 01 08 0a f0 51 2a 12 28 95   ...........Q*.(.
0040  bd 3e 48 54 54 50 2f 31 2e 31 20 32 30 30 20 4f   .>HTTP/1.1 200 O
0050  4b 0d 0a 43 6f 6e 74 65 6e 74 2d 54 79 70 65 3a   K..Content-Type:
0060  20 61 70 70 6c 69 63 61 74 69 6f 6e 2f 6a 73 6f    application/jso
0070  6e 0d 0a 43 6f 6e 74 65 6e 74 2d 4c 65 6e 67 74   n..Content-Lengt
0080  68 3a 20 32 31 0d 0a 44 61 74 65 3a 20 53 75 6e   h: 21..Date: Sun
0090  2c 20 30 36 20 4a 75 6e 20 32 30 32 31 20 30 39   , 06 Jun 2021 09
00a0  3a 33 39 3a 34 38 20 47 4d 54 0d 0a 0d 0a         :39:48 GMT....

0000  f2 3c 92 4d a0 0a 52 50 d9 7c d8 57 08 00 45 00   .<.M..RP.|.W..E.
0010  00 34 00 00 40 00 36 06 92 6f 31 cf d6 2c ac 69   .4..@.6..o1..,.i
0020  fd ef 58 25 1f 40 f7 87 91 2a 35 9b b7 03 80 10   ..X%.@...*5.....
0030  08 03 cf 5a 00 00 01 01 08 0a 28 95 bd 5a f0 51   ...Z......(..Z.Q
0040  2a 12                                             *.

Frame (87 bytes):
0000  00 00 5e 00 be ef f2 3c 92 4d a0 0a 08 00 45 00   ..^....<.M....E.
0010  00 49 4e 96 40 00 40 06 39 c4 ac 69 fd ef 31 cf   .IN.@.@.9..i..1.
0020  d6 2c 1f 40 58 25 35 9b b7 03 f7 87 91 2a 80 18   .,.@X%5......*..
0030  01 f7 b2 90 00 00 01 01 08 0a f0 51 2a 2c 28 95   ...........Q*,(.
0040  bd 5a 7b 22 70 72 69 63 65 22 3a 22 30 39 3a 33   .Z{"price":"09:3
0050  39 3a 34 38 22 7d 0a                              9:48"}.
Reassembled TCP (129 bytes):
0000  48 54 54 50 2f 31 2e 31 20 32 30 30 20 4f 4b 0d   HTTP/1.1 200 OK.
0010  0a 43 6f 6e 74 65 6e 74 2d 54 79 70 65 3a 20 61   .Content-Type: a
0020  70 70 6c 69 63 61 74 69 6f 6e 2f 6a 73 6f 6e 0d   pplication/json.
0030  0a 43 6f 6e 74 65 6e 74 2d 4c 65 6e 67 74 68 3a   .Content-Length:
0040  20 32 31 0d 0a 44 61 74 65 3a 20 53 75 6e 2c 20    21..Date: Sun, 
0050  30 36 20 4a 75 6e 20 32 30 32 31 20 30 39 3a 33   06 Jun 2021 09:3
0060  39 3a 34 38 20 47 4d 54 0d 0a 0d 0a 7b 22 70 72   9:48 GMT....{"pr
0070  69 63 65 22 3a 22 30 39 3a 33 39 3a 34 38 22 7d   ice":"09:39:48"}
0080  0a                                                .

0000  f2 3c 92 4d a0 0a 52 50 d9 7c d8 57 08 00 45 00   .<.M..RP.|.W..E.
0010  00 34 00 00 40 00 36 06 92 6f 31 cf d6 2c ac 69   .4..@.6..o1..,.i
0020  fd ef 58 25 1f 40 f7 87 91 2a 35 9b b7 18 80 10   ..X%.@...*5.....
0030  08 03 cf 12 00 00 01 01 08 0a 28 95 bd 73 f0 51   ..........(..s.Q
0040  2a 2c                                             *,

0000  f2 3c 92 4d a0 0a 52 50 d9 7c d8 57 08 00 45 00   .<.M..RP.|.W..E.
0010  01 53 00 00 40 00 36 06 91 50 31 cf d6 2c ac 69   .S..@.6..P1..,.i
0020  fd ef 58 25 1f 40 f7 87 91 2a 35 9b b7 18 80 18   ..X%.@...*5.....
0030  08 03 86 7a 00 00 01 01 08 0a 28 95 e4 53 f0 51   ...z......(..S.Q
0040  2a 2c 47 45 54 20 2f 74 69 6d 65 20 48 54 54 50   *,GET /time HTTP
0050  2f 31 2e 31 0d 0a 48 6f 73 74 3a 20 31 37 32 2e   /1.1..Host: 172.
0060  31 30 35 2e 32 35 33 2e 32 33 39 3a 38 30 30 30   105.253.239:8000
0070  0d 0a 55 73 65 72 2d 41 67 65 6e 74 3a 20 4d 6f   ..User-Agent: Mo
0080  7a 69 6c 6c 61 2f 35 2e 30 20 28 4d 61 63 69 6e   zilla/5.0 (Macin
0090  74 6f 73 68 3b 20 49 6e 74 65 6c 20 4d 61 63 20   tosh; Intel Mac 
00a0  4f 53 20 58 20 31 30 2e 31 35 3b 20 72 76 3a 38   OS X 10.15; rv:8
00b0  39 2e 30 29 20 47 65 63 6b 6f 2f 32 30 31 30 30   9.0) Gecko/20100
00c0  31 30 31 20 46 69 72 65 66 6f 78 2f 38 39 2e 30   101 Firefox/89.0
00d0  0d 0a 41 63 63 65 70 74 3a 20 2a 2f 2a 0d 0a 41   ..Accept: */*..A
00e0  63 63 65 70 74 2d 4c 61 6e 67 75 61 67 65 3a 20   ccept-Language: 
00f0  65 6e 2d 55 53 2c 65 6e 3b 71 3d 30 2e 35 0d 0a   en-US,en;q=0.5..
0100  41 63 63 65 70 74 2d 45 6e 63 6f 64 69 6e 67 3a   Accept-Encoding:
0110  20 67 7a 69 70 2c 20 64 65 66 6c 61 74 65 0d 0a    gzip, deflate..
0120  43 6f 6e 6e 65 63 74 69 6f 6e 3a 20 6b 65 65 70   Connection: keep
0130  2d 61 6c 69 76 65 0d 0a 52 65 66 65 72 65 72 3a   -alive..Referer:
0140  20 68 74 74 70 3a 2f 2f 31 37 32 2e 31 30 35 2e    http://172.105.
0150  32 35 33 2e 32 33 39 3a 38 30 30 30 2f 0d 0a 0d   253.239:8000/...
0160  0a                                                .

0000  00 00 5e 00 be ef f2 3c 92 4d a0 0a 08 00 45 00   ..^....<.M....E.
0010  00 a0 4e 97 40 00 40 06 39 6c ac 69 fd ef 31 cf   ..N.@.@.9l.i..1.
0020  d6 2c 1f 40 58 25 35 9b b7 18 f7 87 92 49 80 18   .,.@X%5......I..
0030  01 f5 b2 e7 00 00 01 01 08 0a f0 51 51 35 28 95   ...........QQ5(.
0040  e4 53 48 54 54 50 2f 31 2e 31 20 32 30 30 20 4f   .SHTTP/1.1 200 O
0050  4b 0d 0a 43 6f 6e 74 65 6e 74 2d 54 79 70 65 3a   K..Content-Type:
0060  20 61 70 70 6c 69 63 61 74 69 6f 6e 2f 6a 73 6f    application/jso
0070  6e 0d 0a 43 6f 6e 74 65 6e 74 2d 4c 65 6e 67 74   n..Content-Lengt
0080  68 3a 20 32 31 0d 0a 44 61 74 65 3a 20 53 75 6e   h: 21..Date: Sun
0090  2c 20 30 36 20 4a 75 6e 20 32 30 32 31 20 30 39   , 06 Jun 2021 09
00a0  3a 33 39 3a 35 38 20 47 4d 54 0d 0a 0d 0a         :39:58 GMT....

0000  f2 3c 92 4d a0 0a 52 50 d9 7c d8 57 08 00 45 00   .<.M..RP.|.W..E.
0010  00 34 00 00 40 00 36 06 92 6f 31 cf d6 2c ac 69   .4..@.6..o1..,.i
0020  fd ef 58 25 1f 40 f7 87 92 49 35 9b b7 84 80 10   ..X%.@...I5.....
0030  08 01 7f 87 00 00 01 01 08 0a 28 95 e4 6c f0 51   ..........(..l.Q
0040  51 35                                             Q5

Frame (87 bytes):
0000  00 00 5e 00 be ef f2 3c 92 4d a0 0a 08 00 45 00   ..^....<.M....E.
0010  00 49 4e 98 40 00 40 06 39 c2 ac 69 fd ef 31 cf   .IN.@.@.9..i..1.
0020  d6 2c 1f 40 58 25 35 9b b7 84 f7 87 92 49 80 18   .,.@X%5......I..
0030  01 f5 b2 90 00 00 01 01 08 0a f0 51 51 4d 28 95   ...........QQM(.
0040  e4 6c 7b 22 70 72 69 63 65 22 3a 22 30 39 3a 33   .l{"price":"09:3
0050  39 3a 35 38 22 7d 0a                              9:58"}.
Reassembled TCP (129 bytes):
0000  48 54 54 50 2f 31 2e 31 20 32 30 30 20 4f 4b 0d   HTTP/1.1 200 OK.
0010  0a 43 6f 6e 74 65 6e 74 2d 54 79 70 65 3a 20 61   .Content-Type: a
0020  70 70 6c 69 63 61 74 69 6f 6e 2f 6a 73 6f 6e 0d   pplication/json.
0030  0a 43 6f 6e 74 65 6e 74 2d 4c 65 6e 67 74 68 3a   .Content-Length:
0040  20 32 31 0d 0a 44 61 74 65 3a 20 53 75 6e 2c 20    21..Date: Sun, 
0050  30 36 20 4a 75 6e 20 32 30 32 31 20 30 39 3a 33   06 Jun 2021 09:3
0060  39 3a 35 38 20 47 4d 54 0d 0a 0d 0a 7b 22 70 72   9:58 GMT....{"pr
0070  69 63 65 22 3a 22 30 39 3a 33 39 3a 35 38 22 7d   ice":"09:39:58"}
0080  0a                                                .

0000  f2 3c 92 4d a0 0a 52 50 d9 7c d8 57 08 00 45 00   .<.M..RP.|.W..E.
0010  00 34 00 00 40 00 36 06 92 6f 31 cf d6 2c ac 69   .4..@.6..o1..,.i
0020  fd ef 58 25 1f 40 f7 87 92 49 35 9b b7 99 80 10   ..X%.@...I5.....
0030  08 01 7f 43 00 00 01 01 08 0a 28 95 e4 83 f0 51   ...C......(....Q
0040  51 4d                                             QM

0000  f2 3c 92 4d a0 0a 52 50 d9 7c d8 57 08 00 45 00   .<.M..RP.|.W..E.
0010  00 34 00 00 40 00 36 06 92 6f 31 cf d6 2c ac 69   .4..@.6..o1..,.i
0020  fd ef 58 25 1f 40 f7 87 92 49 35 9b b7 99 80 11   ..X%.@...I5.....
0030  08 01 58 27 00 00 01 01 08 0a 28 96 0b 9e f0 51   ..X'......(....Q
0040  51 4d                                             QM

0000  00 00 5e 00 be ef f2 3c 92 4d a0 0a 08 00 45 00   ..^....<.M....E.
0010  00 34 4e 99 40 00 40 06 39 d6 ac 69 fd ef 31 cf   .4N.@.@.9..i..1.
0020  d6 2c 1f 40 58 25 35 9b b7 99 f7 87 92 4a 80 11   .,.@X%5......J..
0030  01 f5 b2 7b 00 00 01 01 08 0a f0 51 78 94 28 96   ...{.......Qx.(.
0040  0b 9e                                             ..

0000  f2 3c 92 4d a0 0a 52 50 d9 7c d8 57 08 00 45 00   .<.M..RP.|.W..E.
0010  00 34 00 00 40 00 36 06 92 6f 31 cf d6 2c ac 69   .4..@.6..o1..,.i
0020  fd ef 58 25 1f 40 f7 87 92 4a 35 9b b7 9a 80 10   ..X%.@...J5.....
0030  08 01 30 c8 00 00 01 01 08 0a 28 96 0b b5 f0 51   ..0.......(....Q
0040  78 94                                             x.


$ tshark -nr pcap/ajaxapp.pcap
    1   0.000000 2021-06-06 09:39:28.545427 78 49.207.214.44  172.105.253.239 TCP 78 22565  8000 [SYN] Seq=0 Win=65535 Len=0 MSS=1452 WS=64 TSval=680881823 TSecr=0 SACK_PERM=1
    2   0.000040 2021-06-06 09:39:28.545467 74 172.105.253.239  49.207.214.44 TCP 74 8000  22565 [SYN, ACK] Seq=0 Ack=1 Win=65160 Len=0 MSS=1460 SACK_PERM=1 TSval=4031830871 TSecr=680881823 WS=128
    3   0.027144 2021-06-06 09:39:28.572571 66 49.207.214.44  172.105.253.239 TCP 66 22565  8000 [ACK] Seq=1 Ack=1 Win=132480 Len=0 TSval=680881850 TSecr=4031830871
    4   0.028774 2021-06-06 09:39:28.574201 411 49.207.214.44  172.105.253.239 HTTP 411 GET / HTTP/1.1 
    5   0.028806 2021-06-06 09:39:28.574233 66 172.105.253.239  49.207.214.44 TCP 66 8000  22565 [ACK] Seq=1 Ack=346 Win=64896 Len=0 TSval=4031830899 TSecr=680881851
    6   0.031446 2021-06-06 09:39:28.576873 183 172.105.253.239  49.207.214.44 TCP 183 HTTP/1.1 200 OK  [TCP segment of a reassembled PDU]
    7   0.058135 2021-06-06 09:39:28.603562 66 49.207.214.44  172.105.253.239 TCP 66 22565  8000 [ACK] Seq=346 Ack=118 Win=132352 Len=0 TSval=680881880 TSecr=4031830902
    8   0.058150 2021-06-06 09:39:28.603577 874 172.105.253.239  49.207.214.44 HTTP 874 HTTP/1.1 200 OK  (text/html)
    9   0.081907 2021-06-06 09:39:28.627334 66 49.207.214.44  172.105.253.239 TCP 66 22565  8000 [ACK] Seq=346 Ack=926 Win=131520 Len=0 TSval=680881904 TSecr=4031830929
   10  10.058189 2021-06-06 09:39:38.603616 353 49.207.214.44  172.105.253.239 HTTP 353 GET /time HTTP/1.1 
   11  10.059433 2021-06-06 09:39:38.604860 174 172.105.253.239  49.207.214.44 TCP 174 HTTP/1.1 200 OK  [TCP segment of a reassembled PDU]
   12  10.084696 2021-06-06 09:39:38.630123 66 49.207.214.44  172.105.253.239 TCP 66 22565  8000 [ACK] Seq=633 Ack=1034 Win=131392 Len=0 TSval=680891898 TSecr=4031840930
   13  10.084728 2021-06-06 09:39:38.630155 87 172.105.253.239  49.207.214.44 HTTP/JSON 87 HTTP/1.1 200 OK , JavaScript Object Notation (application/json)
   14  10.108550 2021-06-06 09:39:38.653977 66 49.207.214.44  172.105.253.239 TCP 66 22565  8000 [ACK] Seq=633 Ack=1055 Win=131392 Len=0 TSval=680891921 TSecr=4031840956
   15  20.153285 2021-06-06 09:39:48.698712 353 49.207.214.44  172.105.253.239 HTTP 353 GET /time HTTP/1.1 
   16  20.154529 2021-06-06 09:39:48.699956 174 172.105.253.239  49.207.214.44 TCP 174 HTTP/1.1 200 OK  [TCP segment of a reassembled PDU]
   17  20.180318 2021-06-06 09:39:48.725745 66 49.207.214.44  172.105.253.239 TCP 66 22565  8000 [ACK] Seq=920 Ack=1163 Win=131264 Len=0 TSval=680901978 TSecr=4031851026
   18  20.180352 2021-06-06 09:39:48.725779 87 172.105.253.239  49.207.214.44 HTTP/JSON 87 HTTP/1.1 200 OK , JavaScript Object Notation (application/json)
   19  20.205353 2021-06-06 09:39:48.750780 66 49.207.214.44  172.105.253.239 TCP 66 22565  8000 [ACK] Seq=920 Ack=1184 Win=131264 Len=0 TSval=680902003 TSecr=4031851052
   20  30.172058 2021-06-06 09:39:58.717485 353 49.207.214.44  172.105.253.239 HTTP 353 GET /time HTTP/1.1 
   21  30.173304 2021-06-06 09:39:58.718731 174 172.105.253.239  49.207.214.44 TCP 174 HTTP/1.1 200 OK  [TCP segment of a reassembled PDU]
   22  30.196722 2021-06-06 09:39:58.742149 66 49.207.214.44  172.105.253.239 TCP 66 22565  8000 [ACK] Seq=1207 Ack=1292 Win=131136 Len=0 TSval=680911980 TSecr=4031861045
   23  30.196756 2021-06-06 09:39:58.742183 87 172.105.253.239  49.207.214.44 HTTP/JSON 87 HTTP/1.1 200 OK , JavaScript Object Notation (application/json)
   24  30.221260 2021-06-06 09:39:58.766687 66 49.207.214.44  172.105.253.239 TCP 66 22565  8000 [ACK] Seq=1207 Ack=1313 Win=131136 Len=0 TSval=680912003 TSecr=4031861069
   25  40.251509 2021-06-06 09:40:08.796936 66 49.207.214.44  172.105.253.239 TCP 66 22565  8000 [FIN, ACK] Seq=1207 Ack=1313 Win=131136 Len=0 TSval=680922014 TSecr=4031861069
   26  40.251743 2021-06-06 09:40:08.797170 66 172.105.253.239  49.207.214.44 TCP 66 8000  22565 [FIN, ACK] Seq=1313 Ack=1208 Win=64128 Len=0 TSval=4031871124 TSecr=680922014
   27  40.275447 2021-06-06 09:40:08.820874 66 49.207.214.44  172.105.253.239 TCP 66 22565  8000 [ACK] Seq=1208 Ack=1314 Win=131136 Len=0 TSval=680922037 TSecr=4031871124
