$ tcpdump -nXXr pcap/tcpapp.pcap
reading from file pcap/tcpapp.pcap, link-type EN10MB (Ethernet)
15:01:35.672314 IP 49.207.214.44.22374 > 172.105.253.239.8000: Flags [S], seq 2199001796, win 65535, options [mss 1452,nop,wscale 6,nop,nop,TS val 680410435 ecr 0,sackOK,eol], length 0
	0x0000:  f23c 924d a00a 5250 d97c d857 0800 4500  .<.M..RP.|.W..E.
	0x0010:  0040 0000 4000 3606 9263 31cf d62c ac69  .@..@.6..c1..,.i
	0x0020:  fdef 5766 1f40 8312 1ac4 0000 0000 b002  ..Wf.@..........
	0x0030:  ffff 0a61 0000 0204 05ac 0103 0306 0101  ...a............
	0x0040:  080a 288e 3d43 0000 0000 0402 0000       ..(.=C........
15:01:35.672357 IP 172.105.253.239.8000 > 49.207.214.44.22374: Flags [S.], seq 1188195811, ack 2199001797, win 65160, options [mss 1460,sackOK,TS val 4031357979 ecr 680410435,nop,wscale 7], length 0
	0x0000:  0000 5e00 beef f23c 924d a00a 0800 4500  ..^....<.M....E.
	0x0010:  003c 0000 4000 4006 8867 ac69 fdef 31cf  .<..@.@..g.i..1.
	0x0020:  d62c 1f40 5766 46d2 6de3 8312 1ac5 a012  .,.@WfF.m.......
	0x0030:  fe88 b283 0000 0204 05b4 0402 080a f049  ...............I
	0x0040:  a41b 288e 3d43 0103 0307                 ..(.=C....
15:01:35.697359 IP 49.207.214.44.22374 > 172.105.253.239.8000: Flags [.], ack 1, win 2070, options [nop,nop,TS val 680410460 ecr 4031357979], length 0
	0x0000:  f23c 924d a00a 5250 d97c d857 0800 4500  .<.M..RP.|.W..E.
	0x0010:  0034 0000 4000 3606 926f 31cf d62c ac69  .4..@.6..o1..,.i
	0x0020:  fdef 5766 1f40 8312 1ac5 46d2 6de4 8010  ..Wf.@....F.m...
	0x0030:  0816 f8cd 0000 0101 080a 288e 3d5c f049  ..........(.=\.I
	0x0040:  a41b                                     ..
15:01:35.698397 IP 172.105.253.239.8000 > 49.207.214.44.22374: Flags [P.], seq 1:31, ack 1, win 510, options [nop,nop,TS val 4031358005 ecr 680410460], length 30
	0x0000:  0000 5e00 beef f23c 924d a00a 0800 4500  ..^....<.M....E.
	0x0010:  0052 228b 4000 4006 65c6 ac69 fdef 31cf  .R".@.@.e..i..1.
	0x0020:  d62c 1f40 5766 46d2 6de4 8312 1ac5 8018  .,.@WfF.m.......
	0x0030:  01fe b299 0000 0101 080a f049 a435 288e  ...........I.5(.
	0x0040:  3d5c 4865 6c6c 6f21 0a53 6572 7665 7220  =\Hello!.Server.
	0x0050:  7469 6d65 3a20 3039 3a33 313a 3335 0a0a  time:.09:31:35..
15:01:35.722334 IP 49.207.214.44.22374 > 172.105.253.239.8000: Flags [.], ack 31, win 2069, options [nop,nop,TS val 680410486 ecr 4031358005], length 0
	0x0000:  f23c 924d a00a 5250 d97c d857 0800 4500  .<.M..RP.|.W..E.
	0x0010:  0034 0000 4000 3606 926f 31cf d62c ac69  .4..@.6..o1..,.i
	0x0020:  fdef 5766 1f40 8312 1ac5 46d2 6e02 8010  ..Wf.@....F.n...
	0x0030:  0815 f87c 0000 0101 080a 288e 3d76 f049  ...|......(.=v.I
	0x0040:  a435                                     .5
15:01:45.885215 IP 49.207.214.44.22374 > 172.105.253.239.8000: Flags [P.], seq 1:6, ack 31, win 2069, options [nop,nop,TS val 680420640 ecr 4031358005], length 5
	0x0000:  f23c 924d a00a 5250 d97c d857 0800 4500  .<.M..RP.|.W..E.
	0x0010:  0039 0000 4000 3606 926a 31cf d62c ac69  .9..@.6..j1..,.i
	0x0020:  fdef 5766 1f40 8312 1ac5 46d2 6e02 8018  ..Wf.@....F.n...
	0x0030:  0815 e4f6 0000 0101 080a 288e 6520 f049  ..........(.e..I
	0x0040:  a435 7469 6d65 0a                        .5time.
15:01:45.885252 IP 172.105.253.239.8000 > 49.207.214.44.22374: Flags [.], ack 6, win 510, options [nop,nop,TS val 4031368192 ecr 680420640], length 0
	0x0000:  0000 5e00 beef f23c 924d a00a 0800 4500  ..^....<.M....E.
	0x0010:  0034 228c 4000 4006 65e3 ac69 fdef 31cf  .4".@.@.e..i..1.
	0x0020:  d62c 1f40 5766 46d2 6e02 8312 1aca 8010  .,.@WfF.n.......
	0x0030:  01fe b27b 0000 0101 080a f049 cc00 288e  ...{.......I..(.
	0x0040:  6520                                     e.
15:01:45.885427 IP 172.105.253.239.8000 > 49.207.214.44.22374: Flags [P.], seq 31:41, ack 6, win 510, options [nop,nop,TS val 4031368192 ecr 680420640], length 10
	0x0000:  0000 5e00 beef f23c 924d a00a 0800 4500  ..^....<.M....E.
	0x0010:  003e 228d 4000 4006 65d8 ac69 fdef 31cf  .>".@.@.e..i..1.
	0x0020:  d62c 1f40 5766 46d2 6e02 8312 1aca 8018  .,.@WfF.n.......
	0x0030:  01fe b285 0000 0101 080a f049 cc00 288e  ...........I..(.
	0x0040:  6520 3039 3a33 313a 3435 0a0a            e.09:31:45..
15:01:45.911373 IP 49.207.214.44.22374 > 172.105.253.239.8000: Flags [.], ack 41, win 2069, options [nop,nop,TS val 680420668 ecr 4031368192], length 0
	0x0000:  f23c 924d a00a 5250 d97c d857 0800 4500  .<.M..RP.|.W..E.
	0x0010:  0034 0000 4000 3606 926f 31cf d62c ac69  .4..@.6..o1..,.i
	0x0020:  fdef 5766 1f40 8312 1aca 46d2 6e0c 8010  ..Wf.@....F.n...
	0x0030:  0815 a8dc 0000 0101 080a 288e 653c f049  ..........(.e<.I
	0x0040:  cc00                                     ..
15:01:55.868344 IP 49.207.214.44.22374 > 172.105.253.239.8000: Flags [P.], seq 6:11, ack 41, win 2069, options [nop,nop,TS val 680430606 ecr 4031368192], length 5
	0x0000:  f23c 924d a00a 5250 d97c d857 0800 4500  .<.M..RP.|.W..E.
	0x0010:  0039 0000 4000 3606 926a 31cf d62c ac69  .9..@.6..j1..,.i
	0x0020:  fdef 5766 1f40 8312 1aca 46d2 6e0c 8018  ..Wf.@....F.n...
	0x0030:  0815 962e 0000 0101 080a 288e 8c0e f049  ..........(....I
	0x0040:  cc00 7469 6d65 0a                        ..time.
15:01:55.868546 IP 172.105.253.239.8000 > 49.207.214.44.22374: Flags [P.], seq 41:51, ack 11, win 510, options [nop,nop,TS val 4031378176 ecr 680430606], length 10
	0x0000:  0000 5e00 beef f23c 924d a00a 0800 4500  ..^....<.M....E.
	0x0010:  003e 228e 4000 4006 65d7 ac69 fdef 31cf  .>".@.@.e..i..1.
	0x0020:  d62c 1f40 5766 46d2 6e0c 8312 1acf 8018  .,.@WfF.n.......
	0x0030:  01fe b285 0000 0101 080a f049 f300 288e  ...........I..(.
	0x0040:  8c0e 3039 3a33 313a 3535 0a0a            ..09:31:55..
15:01:55.892558 IP 49.207.214.44.22374 > 172.105.253.239.8000: Flags [.], ack 51, win 2069, options [nop,nop,TS val 680430631 ecr 4031378176], length 0
	0x0000:  f23c 924d a00a 5250 d97c d857 0800 4500  .<.M..RP.|.W..E.
	0x0010:  0034 0000 4000 3606 926f 31cf d62c ac69  .4..@.6..o1..,.i
	0x0020:  fdef 5766 1f40 8312 1acf 46d2 6e16 8010  ..Wf.@....F.n...
	0x0030:  0815 5ae2 0000 0101 080a 288e 8c27 f049  ..Z.......(..'.I
	0x0040:  f300                                     ..
15:02:05.868743 IP 49.207.214.44.22374 > 172.105.253.239.8000: Flags [P.], seq 11:16, ack 51, win 2069, options [nop,nop,TS val 680440599 ecr 4031378176], length 5
	0x0000:  f23c 924d a00a 5250 d97c d857 0800 4500  .<.M..RP.|.W..E.
	0x0010:  0039 0000 4000 3606 926a 31cf d62c ac69  .9..@.6..j1..,.i
	0x0020:  fdef 5766 1f40 8312 1acf 46d2 6e16 8018  ..Wf.@....F.n...
	0x0030:  0815 4816 0000 0101 080a 288e b317 f049  ..H.......(....I
	0x0040:  f300 7469 6d65 0a                        ..time.
15:02:05.868942 IP 172.105.253.239.8000 > 49.207.214.44.22374: Flags [P.], seq 51:61, ack 16, win 510, options [nop,nop,TS val 4031388177 ecr 680440599], length 10
	0x0000:  0000 5e00 beef f23c 924d a00a 0800 4500  ..^....<.M....E.
	0x0010:  003e 228f 4000 4006 65d6 ac69 fdef 31cf  .>".@.@.e..i..1.
	0x0020:  d62c 1f40 5766 46d2 6e16 8312 1ad4 8018  .,.@WfF.n.......
	0x0030:  01fe b285 0000 0101 080a f04a 1a11 288e  ...........J..(.
	0x0040:  b317 3039 3a33 323a 3035 0a0a            ..09:32:05..
15:02:05.896069 IP 49.207.214.44.22374 > 172.105.253.239.8000: Flags [.], ack 61, win 2069, options [nop,nop,TS val 680440627 ecr 4031388177], length 0
	0x0000:  f23c 924d a00a 5250 d97c d857 0800 4500  .<.M..RP.|.W..E.
	0x0010:  0034 0000 4000 3606 926f 31cf d62c ac69  .4..@.6..o1..,.i
	0x0020:  fdef 5766 1f40 8312 1ad4 46d2 6e20 8010  ..Wf.@....F.n...
	0x0030:  0815 0cb6 0000 0101 080a 288e b333 f04a  ..........(..3.J
	0x0040:  1a11                                     ..
15:02:15.899671 IP 49.207.214.44.22374 > 172.105.253.239.8000: Flags [F.], seq 16, ack 61, win 2069, options [nop,nop,TS val 680450619 ecr 4031388177], length 0
	0x0000:  f23c 924d a00a 5250 d97c d857 0800 4500  .<.M..RP.|.W..E.
	0x0010:  0034 0000 4000 3606 926f 31cf d62c ac69  .4..@.6..o1..,.i
	0x0020:  fdef 5766 1f40 8312 1ad4 46d2 6e20 8011  ..Wf.@....F.n...
	0x0030:  0815 e5ac 0000 0101 080a 288e da3b f04a  ..........(..;.J
	0x0040:  1a11                                     ..
15:02:15.899853 IP 172.105.253.239.8000 > 49.207.214.44.22374: Flags [F.], seq 61, ack 17, win 510, options [nop,nop,TS val 4031398208 ecr 680450619], length 0
	0x0000:  0000 5e00 beef f23c 924d a00a 0800 4500  ..^....<.M....E.
	0x0010:  0034 2290 4000 4006 65df ac69 fdef 31cf  .4".@.@.e..i..1.
	0x0020:  d62c 1f40 5766 46d2 6e20 8312 1ad5 8011  .,.@WfF.n.......
	0x0030:  01fe b27b 0000 0101 080a f04a 4140 288e  ...{.......JA@(.
	0x0040:  da3b                                     .;
15:02:15.923746 IP 49.207.214.44.22374 > 172.105.253.239.8000: Flags [.], ack 62, win 2069, options [nop,nop,TS val 680450643 ecr 4031398208], length 0
	0x0000:  f23c 924d a00a 5250 d97c d857 0800 4500  .<.M..RP.|.W..E.
	0x0010:  0034 0000 4000 3606 926f 31cf d62c ac69  .4..@.6..o1..,.i
	0x0020:  fdef 5766 1f40 8312 1ad5 46d2 6e21 8010  ..Wf.@....F.n!..
	0x0030:  0815 be64 0000 0101 080a 288e da53 f04a  ...d......(..S.J
	0x0040:  4140                                     A@

$ tcpdump -nAr pcap/tcpapp.pcap
reading from file pcap/tcpapp.pcap, link-type EN10MB (Ethernet)
15:01:35.672314 IP 49.207.214.44.22374 > 172.105.253.239.8000: Flags [S], seq 2199001796, win 65535, options [mss 1452,nop,wscale 6,nop,nop,TS val 680410435 ecr 0,sackOK,eol], length 0
E..@..@.6..c1..,.i..Wf.@............
a.............
(.=C........
15:01:35.672357 IP 172.105.253.239.8000 > 49.207.214.44.22374: Flags [S.], seq 1188195811, ack 2199001797, win 65160, options [mss 1460,sackOK,TS val 4031357979 ecr 680410435,nop,wscale 7], length 0
E..<..@.@..g.i..1..,.@WfF.m....................
.I..(.=C....
15:01:35.697359 IP 49.207.214.44.22374 > 172.105.253.239.8000: Flags [.], ack 1, win 2070, options [nop,nop,TS val 680410460 ecr 4031357979], length 0
E..4..@.6..o1..,.i..Wf.@....F.m............
(.=\.I..
15:01:35.698397 IP 172.105.253.239.8000 > 49.207.214.44.22374: Flags [P.], seq 1:31, ack 1, win 510, options [nop,nop,TS val 4031358005 ecr 680410460], length 30
E..R".@.@.e..i..1..,.@WfF.m................
.I.5(.=\Hello!
Server time: 09:31:35


15:01:35.722334 IP 49.207.214.44.22374 > 172.105.253.239.8000: Flags [.], ack 31, win 2069, options [nop,nop,TS val 680410486 ecr 4031358005], length 0
E..4..@.6..o1..,.i..Wf.@....F.n......|.....
(.=v.I.5
15:01:45.885215 IP 49.207.214.44.22374 > 172.105.253.239.8000: Flags [P.], seq 1:6, ack 31, win 2069, options [nop,nop,TS val 680420640 ecr 4031358005], length 5
E..9..@.6..j1..,.i..Wf.@....F.n............
(.e .I.5time

15:01:45.885252 IP 172.105.253.239.8000 > 49.207.214.44.22374: Flags [.], ack 6, win 510, options [nop,nop,TS val 4031368192 ecr 680420640], length 0
E..4".@.@.e..i..1..,.@WfF.n..........{.....
.I..(.e 
15:01:45.885427 IP 172.105.253.239.8000 > 49.207.214.44.22374: Flags [P.], seq 31:41, ack 6, win 510, options [nop,nop,TS val 4031368192 ecr 680420640], length 10
E..>".@.@.e..i..1..,.@WfF.n................
.I..(.e 09:31:45


15:01:45.911373 IP 49.207.214.44.22374 > 172.105.253.239.8000: Flags [.], ack 41, win 2069, options [nop,nop,TS val 680420668 ecr 4031368192], length 0
E..4..@.6..o1..,.i..Wf.@....F.n............
(.e<.I..
15:01:55.868344 IP 49.207.214.44.22374 > 172.105.253.239.8000: Flags [P.], seq 6:11, ack 41, win 2069, options [nop,nop,TS val 680430606 ecr 4031368192], length 5
E..9..@.6..j1..,.i..Wf.@....F.n............
(....I..time

15:01:55.868546 IP 172.105.253.239.8000 > 49.207.214.44.22374: Flags [P.], seq 41:51, ack 11, win 510, options [nop,nop,TS val 4031378176 ecr 680430606], length 10
E..>".@.@.e..i..1..,.@WfF.n................
.I..(...09:31:55


15:01:55.892558 IP 49.207.214.44.22374 > 172.105.253.239.8000: Flags [.], ack 51, win 2069, options [nop,nop,TS val 680430631 ecr 4031378176], length 0
E..4..@.6..o1..,.i..Wf.@....F.n.....Z......
(..'.I..
15:02:05.868743 IP 49.207.214.44.22374 > 172.105.253.239.8000: Flags [P.], seq 11:16, ack 51, win 2069, options [nop,nop,TS val 680440599 ecr 4031378176], length 5
E..9..@.6..j1..,.i..Wf.@....F.n.....H......
(....I..time

15:02:05.868942 IP 172.105.253.239.8000 > 49.207.214.44.22374: Flags [P.], seq 51:61, ack 16, win 510, options [nop,nop,TS val 4031388177 ecr 680440599], length 10
E..>".@.@.e..i..1..,.@WfF.n................
.J..(...09:32:05


15:02:05.896069 IP 49.207.214.44.22374 > 172.105.253.239.8000: Flags [.], ack 61, win 2069, options [nop,nop,TS val 680440627 ecr 4031388177], length 0
E..4..@.6..o1..,.i..Wf.@....F.n ...........
(..3.J..
15:02:15.899671 IP 49.207.214.44.22374 > 172.105.253.239.8000: Flags [F.], seq 16, ack 61, win 2069, options [nop,nop,TS val 680450619 ecr 4031388177], length 0
E..4..@.6..o1..,.i..Wf.@....F.n ...........
(..;.J..
15:02:15.899853 IP 172.105.253.239.8000 > 49.207.214.44.22374: Flags [F.], seq 61, ack 17, win 510, options [nop,nop,TS val 4031398208 ecr 680450619], length 0
E..4".@.@.e..i..1..,.@WfF.n .........{.....
.JA@(..;
15:02:15.923746 IP 49.207.214.44.22374 > 172.105.253.239.8000: Flags [.], ack 62, win 2069, options [nop,nop,TS val 680450643 ecr 4031398208], length 0
E..4..@.6..o1..,.i..Wf.@....F.n!.....d.....
(..S.JA@

$ tcpdump -nr pcap/tcpapp.pcap
reading from file pcap/tcpapp.pcap, link-type EN10MB (Ethernet)
15:01:35.672314 IP 49.207.214.44.22374 > 172.105.253.239.8000: Flags [S], seq 2199001796, win 65535, options [mss 1452,nop,wscale 6,nop,nop,TS val 680410435 ecr 0,sackOK,eol], length 0
15:01:35.672357 IP 172.105.253.239.8000 > 49.207.214.44.22374: Flags [S.], seq 1188195811, ack 2199001797, win 65160, options [mss 1460,sackOK,TS val 4031357979 ecr 680410435,nop,wscale 7], length 0
15:01:35.697359 IP 49.207.214.44.22374 > 172.105.253.239.8000: Flags [.], ack 1, win 2070, options [nop,nop,TS val 680410460 ecr 4031357979], length 0
15:01:35.698397 IP 172.105.253.239.8000 > 49.207.214.44.22374: Flags [P.], seq 1:31, ack 1, win 510, options [nop,nop,TS val 4031358005 ecr 680410460], length 30
15:01:35.722334 IP 49.207.214.44.22374 > 172.105.253.239.8000: Flags [.], ack 31, win 2069, options [nop,nop,TS val 680410486 ecr 4031358005], length 0
15:01:45.885215 IP 49.207.214.44.22374 > 172.105.253.239.8000: Flags [P.], seq 1:6, ack 31, win 2069, options [nop,nop,TS val 680420640 ecr 4031358005], length 5
15:01:45.885252 IP 172.105.253.239.8000 > 49.207.214.44.22374: Flags [.], ack 6, win 510, options [nop,nop,TS val 4031368192 ecr 680420640], length 0
15:01:45.885427 IP 172.105.253.239.8000 > 49.207.214.44.22374: Flags [P.], seq 31:41, ack 6, win 510, options [nop,nop,TS val 4031368192 ecr 680420640], length 10
15:01:45.911373 IP 49.207.214.44.22374 > 172.105.253.239.8000: Flags [.], ack 41, win 2069, options [nop,nop,TS val 680420668 ecr 4031368192], length 0
15:01:55.868344 IP 49.207.214.44.22374 > 172.105.253.239.8000: Flags [P.], seq 6:11, ack 41, win 2069, options [nop,nop,TS val 680430606 ecr 4031368192], length 5
15:01:55.868546 IP 172.105.253.239.8000 > 49.207.214.44.22374: Flags [P.], seq 41:51, ack 11, win 510, options [nop,nop,TS val 4031378176 ecr 680430606], length 10
15:01:55.892558 IP 49.207.214.44.22374 > 172.105.253.239.8000: Flags [.], ack 51, win 2069, options [nop,nop,TS val 680430631 ecr 4031378176], length 0
15:02:05.868743 IP 49.207.214.44.22374 > 172.105.253.239.8000: Flags [P.], seq 11:16, ack 51, win 2069, options [nop,nop,TS val 680440599 ecr 4031378176], length 5
15:02:05.868942 IP 172.105.253.239.8000 > 49.207.214.44.22374: Flags [P.], seq 51:61, ack 16, win 510, options [nop,nop,TS val 4031388177 ecr 680440599], length 10
15:02:05.896069 IP 49.207.214.44.22374 > 172.105.253.239.8000: Flags [.], ack 61, win 2069, options [nop,nop,TS val 680440627 ecr 4031388177], length 0
15:02:15.899671 IP 49.207.214.44.22374 > 172.105.253.239.8000: Flags [F.], seq 16, ack 61, win 2069, options [nop,nop,TS val 680450619 ecr 4031388177], length 0
15:02:15.899853 IP 172.105.253.239.8000 > 49.207.214.44.22374: Flags [F.], seq 61, ack 17, win 510, options [nop,nop,TS val 4031398208 ecr 680450619], length 0
15:02:15.923746 IP 49.207.214.44.22374 > 172.105.253.239.8000: Flags [.], ack 62, win 2069, options [nop,nop,TS val 680450643 ecr 4031398208], length 0

$ tshark -nxr pcap/tcpapp.pcap
0000  f2 3c 92 4d a0 0a 52 50 d9 7c d8 57 08 00 45 00   .<.M..RP.|.W..E.
0010  00 40 00 00 40 00 36 06 92 63 31 cf d6 2c ac 69   .@..@.6..c1..,.i
0020  fd ef 57 66 1f 40 83 12 1a c4 00 00 00 00 b0 02   ..Wf.@..........
0030  ff ff 0a 61 00 00 02 04 05 ac 01 03 03 06 01 01   ...a............
0040  08 0a 28 8e 3d 43 00 00 00 00 04 02 00 00         ..(.=C........

0000  00 00 5e 00 be ef f2 3c 92 4d a0 0a 08 00 45 00   ..^....<.M....E.
0010  00 3c 00 00 40 00 40 06 88 67 ac 69 fd ef 31 cf   .<..@.@..g.i..1.
0020  d6 2c 1f 40 57 66 46 d2 6d e3 83 12 1a c5 a0 12   .,.@WfF.m.......
0030  fe 88 b2 83 00 00 02 04 05 b4 04 02 08 0a f0 49   ...............I
0040  a4 1b 28 8e 3d 43 01 03 03 07                     ..(.=C....

0000  f2 3c 92 4d a0 0a 52 50 d9 7c d8 57 08 00 45 00   .<.M..RP.|.W..E.
0010  00 34 00 00 40 00 36 06 92 6f 31 cf d6 2c ac 69   .4..@.6..o1..,.i
0020  fd ef 57 66 1f 40 83 12 1a c5 46 d2 6d e4 80 10   ..Wf.@....F.m...
0030  08 16 f8 cd 00 00 01 01 08 0a 28 8e 3d 5c f0 49   ..........(.=\.I
0040  a4 1b                                             ..

0000  00 00 5e 00 be ef f2 3c 92 4d a0 0a 08 00 45 00   ..^....<.M....E.
0010  00 52 22 8b 40 00 40 06 65 c6 ac 69 fd ef 31 cf   .R".@.@.e..i..1.
0020  d6 2c 1f 40 57 66 46 d2 6d e4 83 12 1a c5 80 18   .,.@WfF.m.......
0030  01 fe b2 99 00 00 01 01 08 0a f0 49 a4 35 28 8e   ...........I.5(.
0040  3d 5c 48 65 6c 6c 6f 21 0a 53 65 72 76 65 72 20   =\Hello!.Server 
0050  74 69 6d 65 3a 20 30 39 3a 33 31 3a 33 35 0a 0a   time: 09:31:35..

0000  f2 3c 92 4d a0 0a 52 50 d9 7c d8 57 08 00 45 00   .<.M..RP.|.W..E.
0010  00 34 00 00 40 00 36 06 92 6f 31 cf d6 2c ac 69   .4..@.6..o1..,.i
0020  fd ef 57 66 1f 40 83 12 1a c5 46 d2 6e 02 80 10   ..Wf.@....F.n...
0030  08 15 f8 7c 00 00 01 01 08 0a 28 8e 3d 76 f0 49   ...|......(.=v.I
0040  a4 35                                             .5

0000  f2 3c 92 4d a0 0a 52 50 d9 7c d8 57 08 00 45 00   .<.M..RP.|.W..E.
0010  00 39 00 00 40 00 36 06 92 6a 31 cf d6 2c ac 69   .9..@.6..j1..,.i
0020  fd ef 57 66 1f 40 83 12 1a c5 46 d2 6e 02 80 18   ..Wf.@....F.n...
0030  08 15 e4 f6 00 00 01 01 08 0a 28 8e 65 20 f0 49   ..........(.e .I
0040  a4 35 74 69 6d 65 0a                              .5time.

0000  00 00 5e 00 be ef f2 3c 92 4d a0 0a 08 00 45 00   ..^....<.M....E.
0010  00 34 22 8c 40 00 40 06 65 e3 ac 69 fd ef 31 cf   .4".@.@.e..i..1.
0020  d6 2c 1f 40 57 66 46 d2 6e 02 83 12 1a ca 80 10   .,.@WfF.n.......
0030  01 fe b2 7b 00 00 01 01 08 0a f0 49 cc 00 28 8e   ...{.......I..(.
0040  65 20                                             e 

0000  00 00 5e 00 be ef f2 3c 92 4d a0 0a 08 00 45 00   ..^....<.M....E.
0010  00 3e 22 8d 40 00 40 06 65 d8 ac 69 fd ef 31 cf   .>".@.@.e..i..1.
0020  d6 2c 1f 40 57 66 46 d2 6e 02 83 12 1a ca 80 18   .,.@WfF.n.......
0030  01 fe b2 85 00 00 01 01 08 0a f0 49 cc 00 28 8e   ...........I..(.
0040  65 20 30 39 3a 33 31 3a 34 35 0a 0a               e 09:31:45..

0000  f2 3c 92 4d a0 0a 52 50 d9 7c d8 57 08 00 45 00   .<.M..RP.|.W..E.
0010  00 34 00 00 40 00 36 06 92 6f 31 cf d6 2c ac 69   .4..@.6..o1..,.i
0020  fd ef 57 66 1f 40 83 12 1a ca 46 d2 6e 0c 80 10   ..Wf.@....F.n...
0030  08 15 a8 dc 00 00 01 01 08 0a 28 8e 65 3c f0 49   ..........(.e<.I
0040  cc 00                                             ..

0000  f2 3c 92 4d a0 0a 52 50 d9 7c d8 57 08 00 45 00   .<.M..RP.|.W..E.
0010  00 39 00 00 40 00 36 06 92 6a 31 cf d6 2c ac 69   .9..@.6..j1..,.i
0020  fd ef 57 66 1f 40 83 12 1a ca 46 d2 6e 0c 80 18   ..Wf.@....F.n...
0030  08 15 96 2e 00 00 01 01 08 0a 28 8e 8c 0e f0 49   ..........(....I
0040  cc 00 74 69 6d 65 0a                              ..time.

0000  00 00 5e 00 be ef f2 3c 92 4d a0 0a 08 00 45 00   ..^....<.M....E.
0010  00 3e 22 8e 40 00 40 06 65 d7 ac 69 fd ef 31 cf   .>".@.@.e..i..1.
0020  d6 2c 1f 40 57 66 46 d2 6e 0c 83 12 1a cf 80 18   .,.@WfF.n.......
0030  01 fe b2 85 00 00 01 01 08 0a f0 49 f3 00 28 8e   ...........I..(.
0040  8c 0e 30 39 3a 33 31 3a 35 35 0a 0a               ..09:31:55..

0000  f2 3c 92 4d a0 0a 52 50 d9 7c d8 57 08 00 45 00   .<.M..RP.|.W..E.
0010  00 34 00 00 40 00 36 06 92 6f 31 cf d6 2c ac 69   .4..@.6..o1..,.i
0020  fd ef 57 66 1f 40 83 12 1a cf 46 d2 6e 16 80 10   ..Wf.@....F.n...
0030  08 15 5a e2 00 00 01 01 08 0a 28 8e 8c 27 f0 49   ..Z.......(..'.I
0040  f3 00                                             ..

0000  f2 3c 92 4d a0 0a 52 50 d9 7c d8 57 08 00 45 00   .<.M..RP.|.W..E.
0010  00 39 00 00 40 00 36 06 92 6a 31 cf d6 2c ac 69   .9..@.6..j1..,.i
0020  fd ef 57 66 1f 40 83 12 1a cf 46 d2 6e 16 80 18   ..Wf.@....F.n...
0030  08 15 48 16 00 00 01 01 08 0a 28 8e b3 17 f0 49   ..H.......(....I
0040  f3 00 74 69 6d 65 0a                              ..time.

0000  00 00 5e 00 be ef f2 3c 92 4d a0 0a 08 00 45 00   ..^....<.M....E.
0010  00 3e 22 8f 40 00 40 06 65 d6 ac 69 fd ef 31 cf   .>".@.@.e..i..1.
0020  d6 2c 1f 40 57 66 46 d2 6e 16 83 12 1a d4 80 18   .,.@WfF.n.......
0030  01 fe b2 85 00 00 01 01 08 0a f0 4a 1a 11 28 8e   ...........J..(.
0040  b3 17 30 39 3a 33 32 3a 30 35 0a 0a               ..09:32:05..

0000  f2 3c 92 4d a0 0a 52 50 d9 7c d8 57 08 00 45 00   .<.M..RP.|.W..E.
0010  00 34 00 00 40 00 36 06 92 6f 31 cf d6 2c ac 69   .4..@.6..o1..,.i
0020  fd ef 57 66 1f 40 83 12 1a d4 46 d2 6e 20 80 10   ..Wf.@....F.n ..
0030  08 15 0c b6 00 00 01 01 08 0a 28 8e b3 33 f0 4a   ..........(..3.J
0040  1a 11                                             ..

0000  f2 3c 92 4d a0 0a 52 50 d9 7c d8 57 08 00 45 00   .<.M..RP.|.W..E.
0010  00 34 00 00 40 00 36 06 92 6f 31 cf d6 2c ac 69   .4..@.6..o1..,.i
0020  fd ef 57 66 1f 40 83 12 1a d4 46 d2 6e 20 80 11   ..Wf.@....F.n ..
0030  08 15 e5 ac 00 00 01 01 08 0a 28 8e da 3b f0 4a   ..........(..;.J
0040  1a 11                                             ..

0000  00 00 5e 00 be ef f2 3c 92 4d a0 0a 08 00 45 00   ..^....<.M....E.
0010  00 34 22 90 40 00 40 06 65 df ac 69 fd ef 31 cf   .4".@.@.e..i..1.
0020  d6 2c 1f 40 57 66 46 d2 6e 20 83 12 1a d5 80 11   .,.@WfF.n ......
0030  01 fe b2 7b 00 00 01 01 08 0a f0 4a 41 40 28 8e   ...{.......JA@(.
0040  da 3b                                             .;

0000  f2 3c 92 4d a0 0a 52 50 d9 7c d8 57 08 00 45 00   .<.M..RP.|.W..E.
0010  00 34 00 00 40 00 36 06 92 6f 31 cf d6 2c ac 69   .4..@.6..o1..,.i
0020  fd ef 57 66 1f 40 83 12 1a d5 46 d2 6e 21 80 10   ..Wf.@....F.n!..
0030  08 15 be 64 00 00 01 01 08 0a 28 8e da 53 f0 4a   ...d......(..S.J
0040  41 40                                             A@


$ tshark -nr pcap/tcpapp.pcap
    1   0.000000 2021-06-06 09:31:35.672314 78 49.207.214.44 → 172.105.253.239 TCP 78 22374 → 8000 [SYN] Seq=0 Win=65535 Len=0 MSS=1452 WS=64 TSval=680410435 TSecr=0 SACK_PERM=1
    2   0.000043 2021-06-06 09:31:35.672357 74 172.105.253.239 → 49.207.214.44 TCP 74 8000 → 22374 [SYN, ACK] Seq=0 Ack=1 Win=65160 Len=0 MSS=1460 SACK_PERM=1 TSval=4031357979 TSecr=680410435 WS=128
    3   0.025045 2021-06-06 09:31:35.697359 66 49.207.214.44 → 172.105.253.239 TCP 66 22374 → 8000 [ACK] Seq=1 Ack=1 Win=132480 Len=0 TSval=680410460 TSecr=4031357979
    4   0.026083 2021-06-06 09:31:35.698397 96 172.105.253.239 → 49.207.214.44 TCP 96 8000 → 22374 [PSH, ACK] Seq=1 Ack=1 Win=65280 Len=30 TSval=4031358005 TSecr=680410460
    5   0.050020 2021-06-06 09:31:35.722334 66 49.207.214.44 → 172.105.253.239 TCP 66 22374 → 8000 [ACK] Seq=1 Ack=31 Win=132416 Len=0 TSval=680410486 TSecr=4031358005
    6  10.212901 2021-06-06 09:31:45.885215 71 49.207.214.44 → 172.105.253.239 TCP 71 22374 → 8000 [PSH, ACK] Seq=1 Ack=31 Win=132416 Len=5 TSval=680420640 TSecr=4031358005
    7  10.212938 2021-06-06 09:31:45.885252 66 172.105.253.239 → 49.207.214.44 TCP 66 8000 → 22374 [ACK] Seq=31 Ack=6 Win=65280 Len=0 TSval=4031368192 TSecr=680420640
    8  10.213113 2021-06-06 09:31:45.885427 76 172.105.253.239 → 49.207.214.44 TCP 76 8000 → 22374 [PSH, ACK] Seq=31 Ack=6 Win=65280 Len=10 TSval=4031368192 TSecr=680420640
    9  10.239059 2021-06-06 09:31:45.911373 66 49.207.214.44 → 172.105.253.239 TCP 66 22374 → 8000 [ACK] Seq=6 Ack=41 Win=132416 Len=0 TSval=680420668 TSecr=4031368192
   10  20.196030 2021-06-06 09:31:55.868344 71 49.207.214.44 → 172.105.253.239 TCP 71 22374 → 8000 [PSH, ACK] Seq=6 Ack=41 Win=132416 Len=5 TSval=680430606 TSecr=4031368192
   11  20.196232 2021-06-06 09:31:55.868546 76 172.105.253.239 → 49.207.214.44 TCP 76 8000 → 22374 [PSH, ACK] Seq=41 Ack=11 Win=65280 Len=10 TSval=4031378176 TSecr=680430606
   12  20.220244 2021-06-06 09:31:55.892558 66 49.207.214.44 → 172.105.253.239 TCP 66 22374 → 8000 [ACK] Seq=11 Ack=51 Win=132416 Len=0 TSval=680430631 TSecr=4031378176
   13  30.196429 2021-06-06 09:32:05.868743 71 49.207.214.44 → 172.105.253.239 TCP 71 22374 → 8000 [PSH, ACK] Seq=11 Ack=51 Win=132416 Len=5 TSval=680440599 TSecr=4031378176
   14  30.196628 2021-06-06 09:32:05.868942 76 172.105.253.239 → 49.207.214.44 TCP 76 8000 → 22374 [PSH, ACK] Seq=51 Ack=16 Win=65280 Len=10 TSval=4031388177 TSecr=680440599
   15  30.223755 2021-06-06 09:32:05.896069 66 49.207.214.44 → 172.105.253.239 TCP 66 22374 → 8000 [ACK] Seq=16 Ack=61 Win=132416 Len=0 TSval=680440627 TSecr=4031388177
   16  40.227357 2021-06-06 09:32:15.899671 66 49.207.214.44 → 172.105.253.239 TCP 66 22374 → 8000 [FIN, ACK] Seq=16 Ack=61 Win=132416 Len=0 TSval=680450619 TSecr=4031388177
   17  40.227539 2021-06-06 09:32:15.899853 66 172.105.253.239 → 49.207.214.44 TCP 66 8000 → 22374 [FIN, ACK] Seq=61 Ack=17 Win=65280 Len=0 TSval=4031398208 TSecr=680450619
   18  40.251432 2021-06-06 09:32:15.923746 66 49.207.214.44 → 172.105.253.239 TCP 66 22374 → 8000 [ACK] Seq=17 Ack=62 Win=132416 Len=0 TSval=680450643 TSecr=4031398208
