$ tcpdump -nXXr pcap/webapp.pcap
reading from file pcap/webapp.pcap, link-type EN10MB (Ethernet)
15:06:17.560984 IP 49.207.214.44.22490 > 172.105.253.239.8000: Flags [S], seq 2929069299, win 65535, options [mss 1452,nop,wscale 6,nop,nop,TS val 680691460 ecr 0,sackOK,eol], length 0
	0x0000:  f23c 924d a00a 5250 d97c d857 0800 4500  .<.M..RP.|.W..E.
	0x0010:  0040 0000 4000 3606 9263 31cf d62c ac69  .@..@.6..c1..,.i
	0x0020:  fdef 57da 1f40 ae96 0cf3 0000 0000 b002  ..W..@..........
	0x0030:  ffff a274 0000 0204 05ac 0103 0306 0101  ...t............
	0x0040:  080a 2892 8704 0000 0000 0402 0000       ..(...........
15:06:17.561032 IP 172.105.253.239.8000 > 49.207.214.44.22490: Flags [S.], seq 799609493, ack 2929069300, win 65160, options [mss 1460,sackOK,TS val 4031639879 ecr 680691460,nop,wscale 7], length 0
	0x0000:  0000 5e00 beef f23c 924d a00a 0800 4500  ..^....<.M....E.
	0x0010:  003c 0000 4000 4006 8867 ac69 fdef 31cf  .<..@.@..g.i..1.
	0x0020:  d62c 1f40 57da 2fa9 1295 ae96 0cf4 a012  .,.@W./.........
	0x0030:  fe88 b283 0000 0204 05b4 0402 080a f04d  ...............M
	0x0040:  f147 2892 8704 0103 0307                 .G(.......
15:06:17.585983 IP 49.207.214.44.22490 > 172.105.253.239.8000: Flags [.], ack 1, win 2070, options [nop,nop,TS val 680691485 ecr 4031639879], length 0
	0x0000:  f23c 924d a00a 5250 d97c d857 0800 4500  .<.M..RP.|.W..E.
	0x0010:  0034 0000 4000 3606 926f 31cf d62c ac69  .4..@.6..o1..,.i
	0x0020:  fdef 57da 1f40 ae96 0cf4 2fa9 1296 8010  ..W..@..../.....
	0x0030:  0816 b628 0000 0101 080a 2892 871d f04d  ...(......(....M
	0x0040:  f147                                     .G
15:06:17.587471 IP 49.207.214.44.22490 > 172.105.253.239.8000: Flags [P.], seq 1:346, ack 1, win 2070, options [nop,nop,TS val 680691485 ecr 4031639879], length 345
	0x0000:  f23c 924d a00a 5250 d97c d857 0800 4500  .<.M..RP.|.W..E.
	0x0010:  018d 0000 4000 3606 9116 31cf d62c ac69  ....@.6...1..,.i
	0x0020:  fdef 57da 1f40 ae96 0cf4 2fa9 1296 8018  ..W..@..../.....
	0x0030:  0816 38c9 0000 0101 080a 2892 871d f04d  ..8.......(....M
	0x0040:  f147 4745 5420 2f20 4854 5450 2f31 2e31  .GGET./.HTTP/1.1
	0x0050:  0d0a 486f 7374 3a20 3137 322e 3130 352e  ..Host:.172.105.
	0x0060:  3235 332e 3233 393a 3830 3030 0d0a 5573  253.239:8000..Us
	0x0070:  6572 2d41 6765 6e74 3a20 4d6f 7a69 6c6c  er-Agent:.Mozill
	0x0080:  612f 352e 3020 284d 6163 696e 746f 7368  a/5.0.(Macintosh
	0x0090:  3b20 496e 7465 6c20 4d61 6320 4f53 2058  ;.Intel.Mac.OS.X
	0x00a0:  2031 302e 3135 3b20 7276 3a38 392e 3029  .10.15;.rv:89.0)
	0x00b0:  2047 6563 6b6f 2f32 3031 3030 3130 3120  .Gecko/20100101.
	0x00c0:  4669 7265 666f 782f 3839 2e30 0d0a 4163  Firefox/89.0..Ac
	0x00d0:  6365 7074 3a20 7465 7874 2f68 746d 6c2c  cept:.text/html,
	0x00e0:  6170 706c 6963 6174 696f 6e2f 7868 746d  application/xhtm
	0x00f0:  6c2b 786d 6c2c 6170 706c 6963 6174 696f  l+xml,applicatio
	0x0100:  6e2f 786d 6c3b 713d 302e 392c 696d 6167  n/xml;q=0.9,imag
	0x0110:  652f 7765 6270 2c2a 2f2a 3b71 3d30 2e38  e/webp,*/*;q=0.8
	0x0120:  0d0a 4163 6365 7074 2d4c 616e 6775 6167  ..Accept-Languag
	0x0130:  653a 2065 6e2d 5553 2c65 6e3b 713d 302e  e:.en-US,en;q=0.
	0x0140:  350d 0a41 6363 6570 742d 456e 636f 6469  5..Accept-Encodi
	0x0150:  6e67 3a20 677a 6970 2c20 6465 666c 6174  ng:.gzip,.deflat
	0x0160:  650d 0a43 6f6e 6e65 6374 696f 6e3a 206b  e..Connection:.k
	0x0170:  6565 702d 616c 6976 650d 0a55 7067 7261  eep-alive..Upgra
	0x0180:  6465 2d49 6e73 6563 7572 652d 5265 7175  de-Insecure-Requ
	0x0190:  6573 7473 3a20 310d 0a0d 0a              ests:.1....
15:06:17.587492 IP 172.105.253.239.8000 > 49.207.214.44.22490: Flags [.], ack 346, win 507, options [nop,nop,TS val 4031639905 ecr 680691485], length 0
	0x0000:  0000 5e00 beef f23c 924d a00a 0800 4500  ..^....<.M....E.
	0x0010:  0034 3043 4000 4006 582c ac69 fdef 31cf  .40C@.@.X,.i..1.
	0x0020:  d62c 1f40 57da 2fa9 1296 ae96 0e4d 8010  .,.@W./......M..
	0x0030:  01fb b27b 0000 0101 080a f04d f161 2892  ...{.......M.a(.
	0x0040:  871d                                     ..
15:06:17.591113 IP 172.105.253.239.8000 > 49.207.214.44.22490: Flags [P.], seq 1:118, ack 346, win 507, options [nop,nop,TS val 4031639909 ecr 680691485], length 117
	0x0000:  0000 5e00 beef f23c 924d a00a 0800 4500  ..^....<.M....E.
	0x0010:  00a9 3044 4000 4006 57b6 ac69 fdef 31cf  ..0D@.@.W..i..1.
	0x0020:  d62c 1f40 57da 2fa9 1296 ae96 0e4d 8018  .,.@W./......M..
	0x0030:  01fb b2f0 0000 0101 080a f04d f165 2892  ...........M.e(.
	0x0040:  871d 4854 5450 2f31 2e31 2032 3030 204f  ..HTTP/1.1.200.O
	0x0050:  4b0d 0a43 6f6e 7465 6e74 2d54 7970 653a  K..Content-Type:
	0x0060:  2074 6578 742f 6874 6d6c 3b20 6368 6172  .text/html;.char
	0x0070:  7365 743d 7574 662d 380d 0a43 6f6e 7465  set=utf-8..Conte
	0x0080:  6e74 2d4c 656e 6774 683a 2034 3335 0d0a  nt-Length:.435..
	0x0090:  4461 7465 3a20 5375 6e2c 2030 3620 4a75  Date:.Sun,.06.Ju
	0x00a0:  6e20 3230 3231 2030 393a 3336 3a31 3720  n.2021.09:36:17.
	0x00b0:  474d 540d 0a0d 0a                        GMT....
15:06:17.616696 IP 49.207.214.44.22490 > 172.105.253.239.8000: Flags [.], ack 118, win 2068, options [nop,nop,TS val 680691514 ecr 4031639909], length 0
	0x0000:  f23c 924d a00a 5250 d97c d857 0800 4500  .<.M..RP.|.W..E.
	0x0010:  0034 0000 4000 3606 926f 31cf d62c ac69  .4..@.6..o1..,.i
	0x0020:  fdef 57da 1f40 ae96 0e4d 2fa9 130b 8010  ..W..@...M/.....
	0x0030:  0814 b421 0000 0101 080a 2892 873a f04d  ...!......(..:.M
	0x0040:  f165                                     .e
15:06:17.616713 IP 172.105.253.239.8000 > 49.207.214.44.22490: Flags [P.], seq 118:553, ack 346, win 507, options [nop,nop,TS val 4031639934 ecr 680691514], length 435
	0x0000:  0000 5e00 beef f23c 924d a00a 0800 4500  ..^....<.M....E.
	0x0010:  01e7 3045 4000 4006 5677 ac69 fdef 31cf  ..0E@.@.Vw.i..1.
	0x0020:  d62c 1f40 57da 2fa9 130b ae96 0e4d 8018  .,.@W./......M..
	0x0030:  01fb b42e 0000 0101 080a f04d f17e 2892  ...........M.~(.
	0x0040:  873a 3c21 444f 4354 5950 4520 6874 6d6c  .:<!DOCTYPE.html
	0x0050:  3e0a 3c68 746d 6c20 6c61 6e67 3d22 656e  >.<html.lang="en
	0x0060:  223e 0a3c 6865 6164 3e0a 3c74 6974 6c65  ">.<head>.<title
	0x0070:  3e53 6572 7665 7220 5469 6d65 3c2f 7469  >Server.Time</ti
	0x0080:  746c 653e 0a3c 7374 796c 653e 0a62 6f64  tle>.<style>.bod
	0x0090:  7920 7b62 6163 6b67 726f 756e 643a 2062  y.{background:.b
	0x00a0:  6569 6765 3b20 666f 6e74 2d73 697a 653a  eige;.font-size:
	0x00b0:  2032 656d 3b20 7465 7874 2d61 6c69 676e  .2em;.text-align
	0x00c0:  3a20 6365 6e74 6572 7d0a 6275 7474 6f6e  :.center}.button
	0x00d0:  207b 666f 6e74 2d73 697a 653a 2030 2e37  .{font-size:.0.7
	0x00e0:  3565 6d7d 0a74 696d 6520 7b63 6f6c 6f72  5em}.time.{color
	0x00f0:  3a20 6772 6565 6e7d 0a3c 2f73 7479 6c65  :.green}.</style
	0x0100:  3e0a 3c2f 6865 6164 3e0a 3c62 6f64 793e  >.</head>.<body>
	0x0110:  0a3c 703e 5365 7276 6572 2074 696d 653a  .<p>Server.time:
	0x0120:  203c 7469 6d65 3e30 393a 3336 3a31 373c  .<time>09:36:17<
	0x0130:  2f74 696d 653e 3c2f 703e 0a3c 6275 7474  /time></p>.<butt
	0x0140:  6f6e 2069 643d 2262 7574 746f 6e22 3e52  on.id="button">R
	0x0150:  6566 7265 7368 2070 6167 653c 2f62 7574  efresh.page</but
	0x0160:  746f 6e3e 0a3c 7363 7269 7074 3e0a 636f  ton>.<script>.co
	0x0170:  6e73 7420 6275 7474 6f6e 203d 2064 6f63  nst.button.=.doc
	0x0180:  756d 656e 742e 6765 7445 6c65 6d65 6e74  ument.getElement
	0x0190:  4279 4964 2827 6275 7474 6f6e 2729 0a62  ById('button').b
	0x01a0:  7574 746f 6e2e 6f6e 636c 6963 6b20 3d20  utton.onclick.=.
	0x01b0:  6675 6e63 7469 6f6e 2028 2920 7b0a 2020  function.().{...
	0x01c0:  7769 6e64 6f77 2e6c 6f63 6174 696f 6e2e  window.location.
	0x01d0:  7265 6c6f 6164 2829 0a7d 0a3c 2f73 6372  reload().}.</scr
	0x01e0:  6970 743e 0a3c 2f62 6f64 793e 0a3c 2f68  ipt>.</body>.</h
	0x01f0:  746d 6c3e 0a                             tml>.
15:06:17.643203 IP 49.207.214.44.22490 > 172.105.253.239.8000: Flags [.], ack 553, win 2061, options [nop,nop,TS val 680691539 ecr 4031639934], length 0
	0x0000:  f23c 924d a00a 5250 d97c d857 0800 4500  .<.M..RP.|.W..E.
	0x0010:  0034 0000 4000 3606 926f 31cf d62c ac69  .4..@.6..o1..,.i
	0x0020:  fdef 57da 1f40 ae96 0e4d 2fa9 14be 8010  ..W..@...M/.....
	0x0030:  080d b243 0000 0101 080a 2892 8753 f04d  ...C......(..S.M
	0x0040:  f17e                                     .~
15:06:27.807529 IP 49.207.214.44.22490 > 172.105.253.239.8000: Flags [P.], seq 346:717, ack 553, win 2061, options [nop,nop,TS val 680701699 ecr 4031639934], length 371
	0x0000:  f23c 924d a00a 5250 d97c d857 0800 4500  .<.M..RP.|.W..E.
	0x0010:  01a7 0000 4000 3606 90fc 31cf d62c ac69  ....@.6...1..,.i
	0x0020:  fdef 57da 1f40 ae96 0e4d 2fa9 14be 8018  ..W..@...M/.....
	0x0030:  080d a21c 0000 0101 080a 2892 af03 f04d  ..........(....M
	0x0040:  f17e 4745 5420 2f20 4854 5450 2f31 2e31  .~GET./.HTTP/1.1
	0x0050:  0d0a 486f 7374 3a20 3137 322e 3130 352e  ..Host:.172.105.
	0x0060:  3235 332e 3233 393a 3830 3030 0d0a 5573  253.239:8000..Us
	0x0070:  6572 2d41 6765 6e74 3a20 4d6f 7a69 6c6c  er-Agent:.Mozill
	0x0080:  612f 352e 3020 284d 6163 696e 746f 7368  a/5.0.(Macintosh
	0x0090:  3b20 496e 7465 6c20 4d61 6320 4f53 2058  ;.Intel.Mac.OS.X
	0x00a0:  2031 302e 3135 3b20 7276 3a38 392e 3029  .10.15;.rv:89.0)
	0x00b0:  2047 6563 6b6f 2f32 3031 3030 3130 3120  .Gecko/20100101.
	0x00c0:  4669 7265 666f 782f 3839 2e30 0d0a 4163  Firefox/89.0..Ac
	0x00d0:  6365 7074 3a20 7465 7874 2f68 746d 6c2c  cept:.text/html,
	0x00e0:  6170 706c 6963 6174 696f 6e2f 7868 746d  application/xhtm
	0x00f0:  6c2b 786d 6c2c 6170 706c 6963 6174 696f  l+xml,applicatio
	0x0100:  6e2f 786d 6c3b 713d 302e 392c 696d 6167  n/xml;q=0.9,imag
	0x0110:  652f 7765 6270 2c2a 2f2a 3b71 3d30 2e38  e/webp,*/*;q=0.8
	0x0120:  0d0a 4163 6365 7074 2d4c 616e 6775 6167  ..Accept-Languag
	0x0130:  653a 2065 6e2d 5553 2c65 6e3b 713d 302e  e:.en-US,en;q=0.
	0x0140:  350d 0a41 6363 6570 742d 456e 636f 6469  5..Accept-Encodi
	0x0150:  6e67 3a20 677a 6970 2c20 6465 666c 6174  ng:.gzip,.deflat
	0x0160:  650d 0a43 6f6e 6e65 6374 696f 6e3a 206b  e..Connection:.k
	0x0170:  6565 702d 616c 6976 650d 0a55 7067 7261  eep-alive..Upgra
	0x0180:  6465 2d49 6e73 6563 7572 652d 5265 7175  de-Insecure-Requ
	0x0190:  6573 7473 3a20 310d 0a43 6163 6865 2d43  ests:.1..Cache-C
	0x01a0:  6f6e 7472 6f6c 3a20 6d61 782d 6167 653d  ontrol:.max-age=
	0x01b0:  300d 0a0d 0a                             0....
15:06:27.808651 IP 172.105.253.239.8000 > 49.207.214.44.22490: Flags [P.], seq 553:670, ack 717, win 505, options [nop,nop,TS val 4031650127 ecr 680701699], length 117
	0x0000:  0000 5e00 beef f23c 924d a00a 0800 4500  ..^....<.M....E.
	0x0010:  00a9 3046 4000 4006 57b4 ac69 fdef 31cf  ..0F@.@.W..i..1.
	0x0020:  d62c 1f40 57da 2fa9 14be ae96 0fc0 8018  .,.@W./.........
	0x0030:  01f9 b2f0 0000 0101 080a f04e 194f 2892  ...........N.O(.
	0x0040:  af03 4854 5450 2f31 2e31 2032 3030 204f  ..HTTP/1.1.200.O
	0x0050:  4b0d 0a43 6f6e 7465 6e74 2d54 7970 653a  K..Content-Type:
	0x0060:  2074 6578 742f 6874 6d6c 3b20 6368 6172  .text/html;.char
	0x0070:  7365 743d 7574 662d 380d 0a43 6f6e 7465  set=utf-8..Conte
	0x0080:  6e74 2d4c 656e 6774 683a 2034 3335 0d0a  nt-Length:.435..
	0x0090:  4461 7465 3a20 5375 6e2c 2030 3620 4a75  Date:.Sun,.06.Ju
	0x00a0:  6e20 3230 3231 2030 393a 3336 3a32 3720  n.2021.09:36:27.
	0x00b0:  474d 540d 0a0d 0a                        GMT....
15:06:27.833549 IP 49.207.214.44.22490 > 172.105.253.239.8000: Flags [.], ack 670, win 2059, options [nop,nop,TS val 680701725 ecr 4031650127], length 0
	0x0000:  f23c 924d a00a 5250 d97c d857 0800 4500  .<.M..RP.|.W..E.
	0x0010:  0034 0000 4000 3606 926f 31cf d62c ac69  .4..@.6..o1..,.i
	0x0020:  fdef 57da 1f40 ae96 0fc0 2fa9 1533 8010  ..W..@..../..3..
	0x0030:  080b 60c2 0000 0101 080a 2892 af1d f04e  ..`.......(....N
	0x0040:  194f                                     .O
15:06:27.833574 IP 172.105.253.239.8000 > 49.207.214.44.22490: Flags [P.], seq 670:1105, ack 717, win 505, options [nop,nop,TS val 4031650152 ecr 680701725], length 435
	0x0000:  0000 5e00 beef f23c 924d a00a 0800 4500  ..^....<.M....E.
	0x0010:  01e7 3047 4000 4006 5675 ac69 fdef 31cf  ..0G@.@.Vu.i..1.
	0x0020:  d62c 1f40 57da 2fa9 1533 ae96 0fc0 8018  .,.@W./..3......
	0x0030:  01f9 b42e 0000 0101 080a f04e 1968 2892  ...........N.h(.
	0x0040:  af1d 3c21 444f 4354 5950 4520 6874 6d6c  ..<!DOCTYPE.html
	0x0050:  3e0a 3c68 746d 6c20 6c61 6e67 3d22 656e  >.<html.lang="en
	0x0060:  223e 0a3c 6865 6164 3e0a 3c74 6974 6c65  ">.<head>.<title
	0x0070:  3e53 6572 7665 7220 5469 6d65 3c2f 7469  >Server.Time</ti
	0x0080:  746c 653e 0a3c 7374 796c 653e 0a62 6f64  tle>.<style>.bod
	0x0090:  7920 7b62 6163 6b67 726f 756e 643a 2062  y.{background:.b
	0x00a0:  6569 6765 3b20 666f 6e74 2d73 697a 653a  eige;.font-size:
	0x00b0:  2032 656d 3b20 7465 7874 2d61 6c69 676e  .2em;.text-align
	0x00c0:  3a20 6365 6e74 6572 7d0a 6275 7474 6f6e  :.center}.button
	0x00d0:  207b 666f 6e74 2d73 697a 653a 2030 2e37  .{font-size:.0.7
	0x00e0:  3565 6d7d 0a74 696d 6520 7b63 6f6c 6f72  5em}.time.{color
	0x00f0:  3a20 6772 6565 6e7d 0a3c 2f73 7479 6c65  :.green}.</style
	0x0100:  3e0a 3c2f 6865 6164 3e0a 3c62 6f64 793e  >.</head>.<body>
	0x0110:  0a3c 703e 5365 7276 6572 2074 696d 653a  .<p>Server.time:
	0x0120:  203c 7469 6d65 3e30 393a 3336 3a32 373c  .<time>09:36:27<
	0x0130:  2f74 696d 653e 3c2f 703e 0a3c 6275 7474  /time></p>.<butt
	0x0140:  6f6e 2069 643d 2262 7574 746f 6e22 3e52  on.id="button">R
	0x0150:  6566 7265 7368 2070 6167 653c 2f62 7574  efresh.page</but
	0x0160:  746f 6e3e 0a3c 7363 7269 7074 3e0a 636f  ton>.<script>.co
	0x0170:  6e73 7420 6275 7474 6f6e 203d 2064 6f63  nst.button.=.doc
	0x0180:  756d 656e 742e 6765 7445 6c65 6d65 6e74  ument.getElement
	0x0190:  4279 4964 2827 6275 7474 6f6e 2729 0a62  ById('button').b
	0x01a0:  7574 746f 6e2e 6f6e 636c 6963 6b20 3d20  utton.onclick.=.
	0x01b0:  6675 6e63 7469 6f6e 2028 2920 7b0a 2020  function.().{...
	0x01c0:  7769 6e64 6f77 2e6c 6f63 6174 696f 6e2e  window.location.
	0x01d0:  7265 6c6f 6164 2829 0a7d 0a3c 2f73 6372  reload().}.</scr
	0x01e0:  6970 743e 0a3c 2f62 6f64 793e 0a3c 2f68  ipt>.</body>.</h
	0x01f0:  746d 6c3e 0a                             tml>.
15:06:27.858763 IP 49.207.214.44.22490 > 172.105.253.239.8000: Flags [.], ack 1105, win 2052, options [nop,nop,TS val 680701750 ecr 4031650152], length 0
	0x0000:  f23c 924d a00a 5250 d97c d857 0800 4500  .<.M..RP.|.W..E.
	0x0010:  0034 0000 4000 3606 926f 31cf d62c ac69  .4..@.6..o1..,.i
	0x0020:  fdef 57da 1f40 ae96 0fc0 2fa9 16e6 8010  ..W..@..../.....
	0x0030:  0804 5ee4 0000 0101 080a 2892 af36 f04e  ..^.......(..6.N
	0x0040:  1968                                     .h
15:06:37.681291 IP 49.207.214.44.22490 > 172.105.253.239.8000: Flags [P.], seq 717:1088, ack 1105, win 2052, options [nop,nop,TS val 680711560 ecr 4031650152], length 371
	0x0000:  f23c 924d a00a 5250 d97c d857 0800 4500  .<.M..RP.|.W..E.
	0x0010:  01a7 0000 4000 3606 90fc 31cf d62c ac69  ....@.6...1..,.i
	0x0020:  fdef 57da 1f40 ae96 0fc0 2fa9 16e6 8018  ..W..@..../.....
	0x0030:  0804 501b 0000 0101 080a 2892 d588 f04e  ..P.......(....N
	0x0040:  1968 4745 5420 2f20 4854 5450 2f31 2e31  .hGET./.HTTP/1.1
	0x0050:  0d0a 486f 7374 3a20 3137 322e 3130 352e  ..Host:.172.105.
	0x0060:  3235 332e 3233 393a 3830 3030 0d0a 5573  253.239:8000..Us
	0x0070:  6572 2d41 6765 6e74 3a20 4d6f 7a69 6c6c  er-Agent:.Mozill
	0x0080:  612f 352e 3020 284d 6163 696e 746f 7368  a/5.0.(Macintosh
	0x0090:  3b20 496e 7465 6c20 4d61 6320 4f53 2058  ;.Intel.Mac.OS.X
	0x00a0:  2031 302e 3135 3b20 7276 3a38 392e 3029  .10.15;.rv:89.0)
	0x00b0:  2047 6563 6b6f 2f32 3031 3030 3130 3120  .Gecko/20100101.
	0x00c0:  4669 7265 666f 782f 3839 2e30 0d0a 4163  Firefox/89.0..Ac
	0x00d0:  6365 7074 3a20 7465 7874 2f68 746d 6c2c  cept:.text/html,
	0x00e0:  6170 706c 6963 6174 696f 6e2f 7868 746d  application/xhtm
	0x00f0:  6c2b 786d 6c2c 6170 706c 6963 6174 696f  l+xml,applicatio
	0x0100:  6e2f 786d 6c3b 713d 302e 392c 696d 6167  n/xml;q=0.9,imag
	0x0110:  652f 7765 6270 2c2a 2f2a 3b71 3d30 2e38  e/webp,*/*;q=0.8
	0x0120:  0d0a 4163 6365 7074 2d4c 616e 6775 6167  ..Accept-Languag
	0x0130:  653a 2065 6e2d 5553 2c65 6e3b 713d 302e  e:.en-US,en;q=0.
	0x0140:  350d 0a41 6363 6570 742d 456e 636f 6469  5..Accept-Encodi
	0x0150:  6e67 3a20 677a 6970 2c20 6465 666c 6174  ng:.gzip,.deflat
	0x0160:  650d 0a43 6f6e 6e65 6374 696f 6e3a 206b  e..Connection:.k
	0x0170:  6565 702d 616c 6976 650d 0a55 7067 7261  eep-alive..Upgra
	0x0180:  6465 2d49 6e73 6563 7572 652d 5265 7175  de-Insecure-Requ
	0x0190:  6573 7473 3a20 310d 0a43 6163 6865 2d43  ests:.1..Cache-C
	0x01a0:  6f6e 7472 6f6c 3a20 6d61 782d 6167 653d  ontrol:.max-age=
	0x01b0:  300d 0a0d 0a                             0....
15:06:37.683002 IP 172.105.253.239.8000 > 49.207.214.44.22490: Flags [P.], seq 1105:1222, ack 1088, win 503, options [nop,nop,TS val 4031660001 ecr 680711560], length 117
	0x0000:  0000 5e00 beef f23c 924d a00a 0800 4500  ..^....<.M....E.
	0x0010:  00a9 3048 4000 4006 57b2 ac69 fdef 31cf  ..0H@.@.W..i..1.
	0x0020:  d62c 1f40 57da 2fa9 16e6 ae96 1133 8018  .,.@W./......3..
	0x0030:  01f7 b2f0 0000 0101 080a f04e 3fe1 2892  ...........N?.(.
	0x0040:  d588 4854 5450 2f31 2e31 2032 3030 204f  ..HTTP/1.1.200.O
	0x0050:  4b0d 0a43 6f6e 7465 6e74 2d54 7970 653a  K..Content-Type:
	0x0060:  2074 6578 742f 6874 6d6c 3b20 6368 6172  .text/html;.char
	0x0070:  7365 743d 7574 662d 380d 0a43 6f6e 7465  set=utf-8..Conte
	0x0080:  6e74 2d4c 656e 6774 683a 2034 3335 0d0a  nt-Length:.435..
	0x0090:  4461 7465 3a20 5375 6e2c 2030 3620 4a75  Date:.Sun,.06.Ju
	0x00a0:  6e20 3230 3231 2030 393a 3336 3a33 3720  n.2021.09:36:37.
	0x00b0:  474d 540d 0a0d 0a                        GMT....
15:06:37.707987 IP 49.207.214.44.22490 > 172.105.253.239.8000: Flags [.], ack 1222, win 2050, options [nop,nop,TS val 680711589 ecr 4031660001], length 0
	0x0000:  f23c 924d a00a 5250 d97c d857 0800 4500  .<.M..RP.|.W..E.
	0x0010:  0034 0000 4000 3606 926f 31cf d62c ac69  .4..@.6..o1..,.i
	0x0020:  fdef 57da 1f40 ae96 1133 2fa9 175b 8010  ..W..@...3/..[..
	0x0030:  0802 1016 0000 0101 080a 2892 d5a5 f04e  ..........(....N
	0x0040:  3fe1                                     ?.
15:06:37.708018 IP 172.105.253.239.8000 > 49.207.214.44.22490: Flags [P.], seq 1222:1657, ack 1088, win 503, options [nop,nop,TS val 4031660026 ecr 680711589], length 435
	0x0000:  0000 5e00 beef f23c 924d a00a 0800 4500  ..^....<.M....E.
	0x0010:  01e7 3049 4000 4006 5673 ac69 fdef 31cf  ..0I@.@.Vs.i..1.
	0x0020:  d62c 1f40 57da 2fa9 175b ae96 1133 8018  .,.@W./..[...3..
	0x0030:  01f7 b42e 0000 0101 080a f04e 3ffa 2892  ...........N?.(.
	0x0040:  d5a5 3c21 444f 4354 5950 4520 6874 6d6c  ..<!DOCTYPE.html
	0x0050:  3e0a 3c68 746d 6c20 6c61 6e67 3d22 656e  >.<html.lang="en
	0x0060:  223e 0a3c 6865 6164 3e0a 3c74 6974 6c65  ">.<head>.<title
	0x0070:  3e53 6572 7665 7220 5469 6d65 3c2f 7469  >Server.Time</ti
	0x0080:  746c 653e 0a3c 7374 796c 653e 0a62 6f64  tle>.<style>.bod
	0x0090:  7920 7b62 6163 6b67 726f 756e 643a 2062  y.{background:.b
	0x00a0:  6569 6765 3b20 666f 6e74 2d73 697a 653a  eige;.font-size:
	0x00b0:  2032 656d 3b20 7465 7874 2d61 6c69 676e  .2em;.text-align
	0x00c0:  3a20 6365 6e74 6572 7d0a 6275 7474 6f6e  :.center}.button
	0x00d0:  207b 666f 6e74 2d73 697a 653a 2030 2e37  .{font-size:.0.7
	0x00e0:  3565 6d7d 0a74 696d 6520 7b63 6f6c 6f72  5em}.time.{color
	0x00f0:  3a20 6772 6565 6e7d 0a3c 2f73 7479 6c65  :.green}.</style
	0x0100:  3e0a 3c2f 6865 6164 3e0a 3c62 6f64 793e  >.</head>.<body>
	0x0110:  0a3c 703e 5365 7276 6572 2074 696d 653a  .<p>Server.time:
	0x0120:  203c 7469 6d65 3e30 393a 3336 3a33 373c  .<time>09:36:37<
	0x0130:  2f74 696d 653e 3c2f 703e 0a3c 6275 7474  /time></p>.<butt
	0x0140:  6f6e 2069 643d 2262 7574 746f 6e22 3e52  on.id="button">R
	0x0150:  6566 7265 7368 2070 6167 653c 2f62 7574  efresh.page</but
	0x0160:  746f 6e3e 0a3c 7363 7269 7074 3e0a 636f  ton>.<script>.co
	0x0170:  6e73 7420 6275 7474 6f6e 203d 2064 6f63  nst.button.=.doc
	0x0180:  756d 656e 742e 6765 7445 6c65 6d65 6e74  ument.getElement
	0x0190:  4279 4964 2827 6275 7474 6f6e 2729 0a62  ById('button').b
	0x01a0:  7574 746f 6e2e 6f6e 636c 6963 6b20 3d20  utton.onclick.=.
	0x01b0:  6675 6e63 7469 6f6e 2028 2920 7b0a 2020  function.().{...
	0x01c0:  7769 6e64 6f77 2e6c 6f63 6174 696f 6e2e  window.location.
	0x01d0:  7265 6c6f 6164 2829 0a7d 0a3c 2f73 6372  reload().}.</scr
	0x01e0:  6970 743e 0a3c 2f62 6f64 793e 0a3c 2f68  ipt>.</body>.</h
	0x01f0:  746d 6c3e 0a                             tml>.
15:06:37.734390 IP 49.207.214.44.22490 > 172.105.253.239.8000: Flags [.], ack 1657, win 2044, options [nop,nop,TS val 680711613 ecr 4031660026], length 0
	0x0000:  f23c 924d a00a 5250 d97c d857 0800 4500  .<.M..RP.|.W..E.
	0x0010:  0034 0000 4000 3606 926f 31cf d62c ac69  .4..@.6..o1..,.i
	0x0020:  fdef 57da 1f40 ae96 1133 2fa9 190e 8010  ..W..@...3/.....
	0x0030:  07fc 0e38 0000 0101 080a 2892 d5bd f04e  ...8......(....N
	0x0040:  3ffa                                     ?.
15:06:47.855307 IP 49.207.214.44.22490 > 172.105.253.239.8000: Flags [P.], seq 1088:1459, ack 1657, win 2048, options [nop,nop,TS val 680721715 ecr 4031660026], length 371
	0x0000:  f23c 924d a00a 5250 d97c d857 0800 4500  .<.M..RP.|.W..E.
	0x0010:  01a7 0000 4000 3606 90fc 31cf d62c ac69  ....@.6...1..,.i
	0x0020:  fdef 57da 1f40 ae96 1133 2fa9 190e 8018  ..W..@...3/.....
	0x0030:  0800 fe46 0000 0101 080a 2892 fd33 f04e  ...F......(..3.N
	0x0040:  3ffa 4745 5420 2f20 4854 5450 2f31 2e31  ?.GET./.HTTP/1.1
	0x0050:  0d0a 486f 7374 3a20 3137 322e 3130 352e  ..Host:.172.105.
	0x0060:  3235 332e 3233 393a 3830 3030 0d0a 5573  253.239:8000..Us
	0x0070:  6572 2d41 6765 6e74 3a20 4d6f 7a69 6c6c  er-Agent:.Mozill
	0x0080:  612f 352e 3020 284d 6163 696e 746f 7368  a/5.0.(Macintosh
	0x0090:  3b20 496e 7465 6c20 4d61 6320 4f53 2058  ;.Intel.Mac.OS.X
	0x00a0:  2031 302e 3135 3b20 7276 3a38 392e 3029  .10.15;.rv:89.0)
	0x00b0:  2047 6563 6b6f 2f32 3031 3030 3130 3120  .Gecko/20100101.
	0x00c0:  4669 7265 666f 782f 3839 2e30 0d0a 4163  Firefox/89.0..Ac
	0x00d0:  6365 7074 3a20 7465 7874 2f68 746d 6c2c  cept:.text/html,
	0x00e0:  6170 706c 6963 6174 696f 6e2f 7868 746d  application/xhtm
	0x00f0:  6c2b 786d 6c2c 6170 706c 6963 6174 696f  l+xml,applicatio
	0x0100:  6e2f 786d 6c3b 713d 302e 392c 696d 6167  n/xml;q=0.9,imag
	0x0110:  652f 7765 6270 2c2a 2f2a 3b71 3d30 2e38  e/webp,*/*;q=0.8
	0x0120:  0d0a 4163 6365 7074 2d4c 616e 6775 6167  ..Accept-Languag
	0x0130:  653a 2065 6e2d 5553 2c65 6e3b 713d 302e  e:.en-US,en;q=0.
	0x0140:  350d 0a41 6363 6570 742d 456e 636f 6469  5..Accept-Encodi
	0x0150:  6e67 3a20 677a 6970 2c20 6465 666c 6174  ng:.gzip,.deflat
	0x0160:  650d 0a43 6f6e 6e65 6374 696f 6e3a 206b  e..Connection:.k
	0x0170:  6565 702d 616c 6976 650d 0a55 7067 7261  eep-alive..Upgra
	0x0180:  6465 2d49 6e73 6563 7572 652d 5265 7175  de-Insecure-Requ
	0x0190:  6573 7473 3a20 310d 0a43 6163 6865 2d43  ests:.1..Cache-C
	0x01a0:  6f6e 7472 6f6c 3a20 6d61 782d 6167 653d  ontrol:.max-age=
	0x01b0:  300d 0a0d 0a                             0....
15:06:47.856362 IP 172.105.253.239.8000 > 49.207.214.44.22490: Flags [P.], seq 1657:1774, ack 1459, win 501, options [nop,nop,TS val 4031670175 ecr 680721715], length 117
	0x0000:  0000 5e00 beef f23c 924d a00a 0800 4500  ..^....<.M....E.
	0x0010:  00a9 304a 4000 4006 57b0 ac69 fdef 31cf  ..0J@.@.W..i..1.
	0x0020:  d62c 1f40 57da 2fa9 190e ae96 12a6 8018  .,.@W./.........
	0x0030:  01f5 b2f0 0000 0101 080a f04e 679f 2892  ...........Ng.(.
	0x0040:  fd33 4854 5450 2f31 2e31 2032 3030 204f  .3HTTP/1.1.200.O
	0x0050:  4b0d 0a43 6f6e 7465 6e74 2d54 7970 653a  K..Content-Type:
	0x0060:  2074 6578 742f 6874 6d6c 3b20 6368 6172  .text/html;.char
	0x0070:  7365 743d 7574 662d 380d 0a43 6f6e 7465  set=utf-8..Conte
	0x0080:  6e74 2d4c 656e 6774 683a 2034 3335 0d0a  nt-Length:.435..
	0x0090:  4461 7465 3a20 5375 6e2c 2030 3620 4a75  Date:.Sun,.06.Ju
	0x00a0:  6e20 3230 3231 2030 393a 3336 3a34 3720  n.2021.09:36:47.
	0x00b0:  474d 540d 0a0d 0a                        GMT....
15:06:47.881919 IP 49.207.214.44.22490 > 172.105.253.239.8000: Flags [.], ack 1774, win 2046, options [nop,nop,TS val 680721740 ecr 4031670175], length 0
	0x0000:  f23c 924d a00a 5250 d97c d857 0800 4500  .<.M..RP.|.W..E.
	0x0010:  0034 0000 4000 3606 926f 31cf d62c ac69  .4..@.6..o1..,.i
	0x0020:  fdef 57da 1f40 ae96 12a6 2fa9 1983 8010  ..W..@..../.....
	0x0030:  07fe bd19 0000 0101 080a 2892 fd4c f04e  ..........(..L.N
	0x0040:  679f                                     g.
15:06:47.881939 IP 172.105.253.239.8000 > 49.207.214.44.22490: Flags [P.], seq 1774:2209, ack 1459, win 501, options [nop,nop,TS val 4031670201 ecr 680721740], length 435
	0x0000:  0000 5e00 beef f23c 924d a00a 0800 4500  ..^....<.M....E.
	0x0010:  01e7 304b 4000 4006 5671 ac69 fdef 31cf  ..0K@.@.Vq.i..1.
	0x0020:  d62c 1f40 57da 2fa9 1983 ae96 12a6 8018  .,.@W./.........
	0x0030:  01f5 b42e 0000 0101 080a f04e 67b9 2892  ...........Ng.(.
	0x0040:  fd4c 3c21 444f 4354 5950 4520 6874 6d6c  .L<!DOCTYPE.html
	0x0050:  3e0a 3c68 746d 6c20 6c61 6e67 3d22 656e  >.<html.lang="en
	0x0060:  223e 0a3c 6865 6164 3e0a 3c74 6974 6c65  ">.<head>.<title
	0x0070:  3e53 6572 7665 7220 5469 6d65 3c2f 7469  >Server.Time</ti
	0x0080:  746c 653e 0a3c 7374 796c 653e 0a62 6f64  tle>.<style>.bod
	0x0090:  7920 7b62 6163 6b67 726f 756e 643a 2062  y.{background:.b
	0x00a0:  6569 6765 3b20 666f 6e74 2d73 697a 653a  eige;.font-size:
	0x00b0:  2032 656d 3b20 7465 7874 2d61 6c69 676e  .2em;.text-align
	0x00c0:  3a20 6365 6e74 6572 7d0a 6275 7474 6f6e  :.center}.button
	0x00d0:  207b 666f 6e74 2d73 697a 653a 2030 2e37  .{font-size:.0.7
	0x00e0:  3565 6d7d 0a74 696d 6520 7b63 6f6c 6f72  5em}.time.{color
	0x00f0:  3a20 6772 6565 6e7d 0a3c 2f73 7479 6c65  :.green}.</style
	0x0100:  3e0a 3c2f 6865 6164 3e0a 3c62 6f64 793e  >.</head>.<body>
	0x0110:  0a3c 703e 5365 7276 6572 2074 696d 653a  .<p>Server.time:
	0x0120:  203c 7469 6d65 3e30 393a 3336 3a34 373c  .<time>09:36:47<
	0x0130:  2f74 696d 653e 3c2f 703e 0a3c 6275 7474  /time></p>.<butt
	0x0140:  6f6e 2069 643d 2262 7574 746f 6e22 3e52  on.id="button">R
	0x0150:  6566 7265 7368 2070 6167 653c 2f62 7574  efresh.page</but
	0x0160:  746f 6e3e 0a3c 7363 7269 7074 3e0a 636f  ton>.<script>.co
	0x0170:  6e73 7420 6275 7474 6f6e 203d 2064 6f63  nst.button.=.doc
	0x0180:  756d 656e 742e 6765 7445 6c65 6d65 6e74  ument.getElement
	0x0190:  4279 4964 2827 6275 7474 6f6e 2729 0a62  ById('button').b
	0x01a0:  7574 746f 6e2e 6f6e 636c 6963 6b20 3d20  utton.onclick.=.
	0x01b0:  6675 6e63 7469 6f6e 2028 2920 7b0a 2020  function.().{...
	0x01c0:  7769 6e64 6f77 2e6c 6f63 6174 696f 6e2e  window.location.
	0x01d0:  7265 6c6f 6164 2829 0a7d 0a3c 2f73 6372  reload().}.</scr
	0x01e0:  6970 743e 0a3c 2f62 6f64 793e 0a3c 2f68  ipt>.</body>.</h
	0x01f0:  746d 6c3e 0a                             tml>.
15:06:47.906924 IP 49.207.214.44.22490 > 172.105.253.239.8000: Flags [.], ack 2209, win 2041, options [nop,nop,TS val 680721766 ecr 4031670201], length 0
	0x0000:  f23c 924d a00a 5250 d97c d857 0800 4500  .<.M..RP.|.W..E.
	0x0010:  0034 0000 4000 3606 926f 31cf d62c ac69  .4..@.6..o1..,.i
	0x0020:  fdef 57da 1f40 ae96 12a6 2fa9 1b36 8010  ..W..@..../..6..
	0x0030:  07f9 bb37 0000 0101 080a 2892 fd66 f04e  ...7......(..f.N
	0x0040:  67b9                                     g.
15:06:57.919781 IP 49.207.214.44.22490 > 172.105.253.239.8000: Flags [F.], seq 1459, ack 2209, win 2048, options [nop,nop,TS val 680731766 ecr 4031670201], length 0
	0x0000:  f23c 924d a00a 5250 d97c d857 0800 4500  .<.M..RP.|.W..E.
	0x0010:  0034 0000 4000 3606 926f 31cf d62c ac69  .4..@.6..o1..,.i
	0x0020:  fdef 57da 1f40 ae96 12a6 2fa9 1b36 8011  ..W..@..../..6..
	0x0030:  0800 941f 0000 0101 080a 2893 2476 f04e  ..........(.$v.N
	0x0040:  67b9                                     g.
15:06:57.920012 IP 172.105.253.239.8000 > 49.207.214.44.22490: Flags [F.], seq 2209, ack 1460, win 501, options [nop,nop,TS val 4031680239 ecr 680731766], length 0
	0x0000:  0000 5e00 beef f23c 924d a00a 0800 4500  ..^....<.M....E.
	0x0010:  0034 304c 4000 4006 5823 ac69 fdef 31cf  .40L@.@.X#.i..1.
	0x0020:  d62c 1f40 57da 2fa9 1b36 ae96 12a7 8011  .,.@W./..6......
	0x0030:  01f5 b27b 0000 0101 080a f04e 8eef 2893  ...{.......N..(.
	0x0040:  2476                                     $v
15:06:57.944834 IP 49.207.214.44.22490 > 172.105.253.239.8000: Flags [.], ack 2210, win 2048, options [nop,nop,TS val 680731791 ecr 4031680239], length 0
	0x0000:  f23c 924d a00a 5250 d97c d857 0800 4500  .<.M..RP.|.W..E.
	0x0010:  0034 0000 4000 3606 926f 31cf d62c ac69  .4..@.6..o1..,.i
	0x0020:  fdef 57da 1f40 ae96 12a7 2fa9 1b37 8010  ..W..@..../..7..
	0x0030:  0800 6ccf 0000 0101 080a 2893 248f f04e  ..l.......(.$..N
	0x0040:  8eef                                     ..

$ tcpdump -nAr pcap/webapp.pcap
reading from file pcap/webapp.pcap, link-type EN10MB (Ethernet)
15:06:17.560984 IP 49.207.214.44.22490 > 172.105.253.239.8000: Flags [S], seq 2929069299, win 65535, options [mss 1452,nop,wscale 6,nop,nop,TS val 680691460 ecr 0,sackOK,eol], length 0
E..@..@.6..c1..,.i..W..@.............t.............
(...........
15:06:17.561032 IP 172.105.253.239.8000 > 49.207.214.44.22490: Flags [S.], seq 799609493, ack 2929069300, win 65160, options [mss 1460,sackOK,TS val 4031639879 ecr 680691460,nop,wscale 7], length 0
E..<..@.@..g.i..1..,.@W./......................
.M.G(.......
15:06:17.585983 IP 49.207.214.44.22490 > 172.105.253.239.8000: Flags [.], ack 1, win 2070, options [nop,nop,TS val 680691485 ecr 4031639879], length 0
E..4..@.6..o1..,.i..W..@..../........(.....
(....M.G
15:06:17.587471 IP 49.207.214.44.22490 > 172.105.253.239.8000: Flags [P.], seq 1:346, ack 1, win 2070, options [nop,nop,TS val 680691485 ecr 4031639879], length 345
E.....@.6...1..,.i..W..@..../.......8......
(....M.GGET / HTTP/1.1
Host: 172.105.253.239:8000
User-Agent: Mozilla/5.0 (Macintosh; Intel Mac OS X 10.15; rv:89.0) Gecko/20100101 Firefox/89.0
Accept: text/html,application/xhtml+xml,application/xml;q=0.9,image/webp,*/*;q=0.8
Accept-Language: en-US,en;q=0.5
Accept-Encoding: gzip, deflate
Connection: keep-alive
Upgrade-Insecure-Requests: 1


15:06:17.587492 IP 172.105.253.239.8000 > 49.207.214.44.22490: Flags [.], ack 346, win 507, options [nop,nop,TS val 4031639905 ecr 680691485], length 0
E..40C@.@.X,.i..1..,.@W./......M.....{.....
.M.a(...
15:06:17.591113 IP 172.105.253.239.8000 > 49.207.214.44.22490: Flags [P.], seq 1:118, ack 346, win 507, options [nop,nop,TS val 4031639909 ecr 680691485], length 117
E...0D@.@.W..i..1..,.@W./......M...........
.M.e(...HTTP/1.1 200 OK
Content-Type: text/html; charset=utf-8
Content-Length: 435
Date: Sun, 06 Jun 2021 09:36:17 GMT


15:06:17.616696 IP 49.207.214.44.22490 > 172.105.253.239.8000: Flags [.], ack 118, win 2068, options [nop,nop,TS val 680691514 ecr 4031639909], length 0
E..4..@.6..o1..,.i..W..@...M/........!.....
(..:.M.e
15:06:17.616713 IP 172.105.253.239.8000 > 49.207.214.44.22490: Flags [P.], seq 118:553, ack 346, win 507, options [nop,nop,TS val 4031639934 ecr 680691514], length 435
E...0E@.@.Vw.i..1..,.@W./......M...........
.M.~(..:<!DOCTYPE html>
<html lang="en">
<head>
<title>Server Time</title>
<style>
body {background: beige; font-size: 2em; text-align: center}
button {font-size: 0.75em}
time {color: green}
</style>
</head>
<body>
<p>Server time: <time>09:36:17</time></p>
<button id="button">Refresh page</button>
<script>
const button = document.getElementById('button')
button.onclick = function () {
  window.location.reload()
}
</script>
</body>
</html>

15:06:17.643203 IP 49.207.214.44.22490 > 172.105.253.239.8000: Flags [.], ack 553, win 2061, options [nop,nop,TS val 680691539 ecr 4031639934], length 0
E..4..@.6..o1..,.i..W..@...M/........C.....
(..S.M.~
15:06:27.807529 IP 49.207.214.44.22490 > 172.105.253.239.8000: Flags [P.], seq 346:717, ack 553, win 2061, options [nop,nop,TS val 680701699 ecr 4031639934], length 371
E.....@.6...1..,.i..W..@...M/..............
(....M.~GET / HTTP/1.1
Host: 172.105.253.239:8000
User-Agent: Mozilla/5.0 (Macintosh; Intel Mac OS X 10.15; rv:89.0) Gecko/20100101 Firefox/89.0
Accept: text/html,application/xhtml+xml,application/xml;q=0.9,image/webp,*/*;q=0.8
Accept-Language: en-US,en;q=0.5
Accept-Encoding: gzip, deflate
Connection: keep-alive
Upgrade-Insecure-Requests: 1
Cache-Control: max-age=0


15:06:27.808651 IP 172.105.253.239.8000 > 49.207.214.44.22490: Flags [P.], seq 553:670, ack 717, win 505, options [nop,nop,TS val 4031650127 ecr 680701699], length 117
E...0F@.@.W..i..1..,.@W./..................
.N.O(...HTTP/1.1 200 OK
Content-Type: text/html; charset=utf-8
Content-Length: 435
Date: Sun, 06 Jun 2021 09:36:27 GMT


15:06:27.833549 IP 49.207.214.44.22490 > 172.105.253.239.8000: Flags [.], ack 670, win 2059, options [nop,nop,TS val 680701725 ecr 4031650127], length 0
E..4..@.6..o1..,.i..W..@..../..3....`......
(....N.O
15:06:27.833574 IP 172.105.253.239.8000 > 49.207.214.44.22490: Flags [P.], seq 670:1105, ack 717, win 505, options [nop,nop,TS val 4031650152 ecr 680701725], length 435
E...0G@.@.Vu.i..1..,.@W./..3...............
.N.h(...<!DOCTYPE html>
<html lang="en">
<head>
<title>Server Time</title>
<style>
body {background: beige; font-size: 2em; text-align: center}
button {font-size: 0.75em}
time {color: green}
</style>
</head>
<body>
<p>Server time: <time>09:36:27</time></p>
<button id="button">Refresh page</button>
<script>
const button = document.getElementById('button')
button.onclick = function () {
  window.location.reload()
}
</script>
</body>
</html>

15:06:27.858763 IP 49.207.214.44.22490 > 172.105.253.239.8000: Flags [.], ack 1105, win 2052, options [nop,nop,TS val 680701750 ecr 4031650152], length 0
E..4..@.6..o1..,.i..W..@..../.......^......
(..6.N.h
15:06:37.681291 IP 49.207.214.44.22490 > 172.105.253.239.8000: Flags [P.], seq 717:1088, ack 1105, win 2052, options [nop,nop,TS val 680711560 ecr 4031650152], length 371
E.....@.6...1..,.i..W..@..../.......P......
(....N.hGET / HTTP/1.1
Host: 172.105.253.239:8000
User-Agent: Mozilla/5.0 (Macintosh; Intel Mac OS X 10.15; rv:89.0) Gecko/20100101 Firefox/89.0
Accept: text/html,application/xhtml+xml,application/xml;q=0.9,image/webp,*/*;q=0.8
Accept-Language: en-US,en;q=0.5
Accept-Encoding: gzip, deflate
Connection: keep-alive
Upgrade-Insecure-Requests: 1
Cache-Control: max-age=0


15:06:37.683002 IP 172.105.253.239.8000 > 49.207.214.44.22490: Flags [P.], seq 1105:1222, ack 1088, win 503, options [nop,nop,TS val 4031660001 ecr 680711560], length 117
E...0H@.@.W..i..1..,.@W./......3...........
.N?.(...HTTP/1.1 200 OK
Content-Type: text/html; charset=utf-8
Content-Length: 435
Date: Sun, 06 Jun 2021 09:36:37 GMT


15:06:37.707987 IP 49.207.214.44.22490 > 172.105.253.239.8000: Flags [.], ack 1222, win 2050, options [nop,nop,TS val 680711589 ecr 4031660001], length 0
E..4..@.6..o1..,.i..W..@...3/..[...........
(....N?.
15:06:37.708018 IP 172.105.253.239.8000 > 49.207.214.44.22490: Flags [P.], seq 1222:1657, ack 1088, win 503, options [nop,nop,TS val 4031660026 ecr 680711589], length 435
E...0I@.@.Vs.i..1..,.@W./..[...3...........
.N?.(...<!DOCTYPE html>
<html lang="en">
<head>
<title>Server Time</title>
<style>
body {background: beige; font-size: 2em; text-align: center}
button {font-size: 0.75em}
time {color: green}
</style>
</head>
<body>
<p>Server time: <time>09:36:37</time></p>
<button id="button">Refresh page</button>
<script>
const button = document.getElementById('button')
button.onclick = function () {
  window.location.reload()
}
</script>
</body>
</html>

15:06:37.734390 IP 49.207.214.44.22490 > 172.105.253.239.8000: Flags [.], ack 1657, win 2044, options [nop,nop,TS val 680711613 ecr 4031660026], length 0
E..4..@.6..o1..,.i..W..@...3/........8.....
(....N?.
15:06:47.855307 IP 49.207.214.44.22490 > 172.105.253.239.8000: Flags [P.], seq 1088:1459, ack 1657, win 2048, options [nop,nop,TS val 680721715 ecr 4031660026], length 371
E.....@.6...1..,.i..W..@...3/........F.....
(..3.N?.GET / HTTP/1.1
Host: 172.105.253.239:8000
User-Agent: Mozilla/5.0 (Macintosh; Intel Mac OS X 10.15; rv:89.0) Gecko/20100101 Firefox/89.0
Accept: text/html,application/xhtml+xml,application/xml;q=0.9,image/webp,*/*;q=0.8
Accept-Language: en-US,en;q=0.5
Accept-Encoding: gzip, deflate
Connection: keep-alive
Upgrade-Insecure-Requests: 1
Cache-Control: max-age=0


15:06:47.856362 IP 172.105.253.239.8000 > 49.207.214.44.22490: Flags [P.], seq 1657:1774, ack 1459, win 501, options [nop,nop,TS val 4031670175 ecr 680721715], length 117
E...0J@.@.W..i..1..,.@W./..................
.Ng.(..3HTTP/1.1 200 OK
Content-Type: text/html; charset=utf-8
Content-Length: 435
Date: Sun, 06 Jun 2021 09:36:47 GMT


15:06:47.881919 IP 49.207.214.44.22490 > 172.105.253.239.8000: Flags [.], ack 1774, win 2046, options [nop,nop,TS val 680721740 ecr 4031670175], length 0
E..4..@.6..o1..,.i..W..@..../..............
(..L.Ng.
15:06:47.881939 IP 172.105.253.239.8000 > 49.207.214.44.22490: Flags [P.], seq 1774:2209, ack 1459, win 501, options [nop,nop,TS val 4031670201 ecr 680721740], length 435
E...0K@.@.Vq.i..1..,.@W./..................
.Ng.(..L<!DOCTYPE html>
<html lang="en">
<head>
<title>Server Time</title>
<style>
body {background: beige; font-size: 2em; text-align: center}
button {font-size: 0.75em}
time {color: green}
</style>
</head>
<body>
<p>Server time: <time>09:36:47</time></p>
<button id="button">Refresh page</button>
<script>
const button = document.getElementById('button')
button.onclick = function () {
  window.location.reload()
}
</script>
</body>
</html>

15:06:47.906924 IP 49.207.214.44.22490 > 172.105.253.239.8000: Flags [.], ack 2209, win 2041, options [nop,nop,TS val 680721766 ecr 4031670201], length 0
E..4..@.6..o1..,.i..W..@..../..6.....7.....
(..f.Ng.
15:06:57.919781 IP 49.207.214.44.22490 > 172.105.253.239.8000: Flags [F.], seq 1459, ack 2209, win 2048, options [nop,nop,TS val 680731766 ecr 4031670201], length 0
E..4..@.6..o1..,.i..W..@..../..6...........
(.$v.Ng.
15:06:57.920012 IP 172.105.253.239.8000 > 49.207.214.44.22490: Flags [F.], seq 2209, ack 1460, win 501, options [nop,nop,TS val 4031680239 ecr 680731766], length 0
E..40L@.@.X#.i..1..,.@W./..6.........{.....
.N..(.$v
15:06:57.944834 IP 49.207.214.44.22490 > 172.105.253.239.8000: Flags [.], ack 2210, win 2048, options [nop,nop,TS val 680731791 ecr 4031680239], length 0
E..4..@.6..o1..,.i..W..@..../..7....l......
(.$..N..

$ tcpdump -nr pcap/webapp.pcap
reading from file pcap/webapp.pcap, link-type EN10MB (Ethernet)
15:06:17.560984 IP 49.207.214.44.22490 > 172.105.253.239.8000: Flags [S], seq 2929069299, win 65535, options [mss 1452,nop,wscale 6,nop,nop,TS val 680691460 ecr 0,sackOK,eol], length 0
15:06:17.561032 IP 172.105.253.239.8000 > 49.207.214.44.22490: Flags [S.], seq 799609493, ack 2929069300, win 65160, options [mss 1460,sackOK,TS val 4031639879 ecr 680691460,nop,wscale 7], length 0
15:06:17.585983 IP 49.207.214.44.22490 > 172.105.253.239.8000: Flags [.], ack 1, win 2070, options [nop,nop,TS val 680691485 ecr 4031639879], length 0
15:06:17.587471 IP 49.207.214.44.22490 > 172.105.253.239.8000: Flags [P.], seq 1:346, ack 1, win 2070, options [nop,nop,TS val 680691485 ecr 4031639879], length 345
15:06:17.587492 IP 172.105.253.239.8000 > 49.207.214.44.22490: Flags [.], ack 346, win 507, options [nop,nop,TS val 4031639905 ecr 680691485], length 0
15:06:17.591113 IP 172.105.253.239.8000 > 49.207.214.44.22490: Flags [P.], seq 1:118, ack 346, win 507, options [nop,nop,TS val 4031639909 ecr 680691485], length 117
15:06:17.616696 IP 49.207.214.44.22490 > 172.105.253.239.8000: Flags [.], ack 118, win 2068, options [nop,nop,TS val 680691514 ecr 4031639909], length 0
15:06:17.616713 IP 172.105.253.239.8000 > 49.207.214.44.22490: Flags [P.], seq 118:553, ack 346, win 507, options [nop,nop,TS val 4031639934 ecr 680691514], length 435
15:06:17.643203 IP 49.207.214.44.22490 > 172.105.253.239.8000: Flags [.], ack 553, win 2061, options [nop,nop,TS val 680691539 ecr 4031639934], length 0
15:06:27.807529 IP 49.207.214.44.22490 > 172.105.253.239.8000: Flags [P.], seq 346:717, ack 553, win 2061, options [nop,nop,TS val 680701699 ecr 4031639934], length 371
15:06:27.808651 IP 172.105.253.239.8000 > 49.207.214.44.22490: Flags [P.], seq 553:670, ack 717, win 505, options [nop,nop,TS val 4031650127 ecr 680701699], length 117
15:06:27.833549 IP 49.207.214.44.22490 > 172.105.253.239.8000: Flags [.], ack 670, win 2059, options [nop,nop,TS val 680701725 ecr 4031650127], length 0
15:06:27.833574 IP 172.105.253.239.8000 > 49.207.214.44.22490: Flags [P.], seq 670:1105, ack 717, win 505, options [nop,nop,TS val 4031650152 ecr 680701725], length 435
15:06:27.858763 IP 49.207.214.44.22490 > 172.105.253.239.8000: Flags [.], ack 1105, win 2052, options [nop,nop,TS val 680701750 ecr 4031650152], length 0
15:06:37.681291 IP 49.207.214.44.22490 > 172.105.253.239.8000: Flags [P.], seq 717:1088, ack 1105, win 2052, options [nop,nop,TS val 680711560 ecr 4031650152], length 371
15:06:37.683002 IP 172.105.253.239.8000 > 49.207.214.44.22490: Flags [P.], seq 1105:1222, ack 1088, win 503, options [nop,nop,TS val 4031660001 ecr 680711560], length 117
15:06:37.707987 IP 49.207.214.44.22490 > 172.105.253.239.8000: Flags [.], ack 1222, win 2050, options [nop,nop,TS val 680711589 ecr 4031660001], length 0
15:06:37.708018 IP 172.105.253.239.8000 > 49.207.214.44.22490: Flags [P.], seq 1222:1657, ack 1088, win 503, options [nop,nop,TS val 4031660026 ecr 680711589], length 435
15:06:37.734390 IP 49.207.214.44.22490 > 172.105.253.239.8000: Flags [.], ack 1657, win 2044, options [nop,nop,TS val 680711613 ecr 4031660026], length 0
15:06:47.855307 IP 49.207.214.44.22490 > 172.105.253.239.8000: Flags [P.], seq 1088:1459, ack 1657, win 2048, options [nop,nop,TS val 680721715 ecr 4031660026], length 371
15:06:47.856362 IP 172.105.253.239.8000 > 49.207.214.44.22490: Flags [P.], seq 1657:1774, ack 1459, win 501, options [nop,nop,TS val 4031670175 ecr 680721715], length 117
15:06:47.881919 IP 49.207.214.44.22490 > 172.105.253.239.8000: Flags [.], ack 1774, win 2046, options [nop,nop,TS val 680721740 ecr 4031670175], length 0
15:06:47.881939 IP 172.105.253.239.8000 > 49.207.214.44.22490: Flags [P.], seq 1774:2209, ack 1459, win 501, options [nop,nop,TS val 4031670201 ecr 680721740], length 435
15:06:47.906924 IP 49.207.214.44.22490 > 172.105.253.239.8000: Flags [.], ack 2209, win 2041, options [nop,nop,TS val 680721766 ecr 4031670201], length 0
15:06:57.919781 IP 49.207.214.44.22490 > 172.105.253.239.8000: Flags [F.], seq 1459, ack 2209, win 2048, options [nop,nop,TS val 680731766 ecr 4031670201], length 0
15:06:57.920012 IP 172.105.253.239.8000 > 49.207.214.44.22490: Flags [F.], seq 2209, ack 1460, win 501, options [nop,nop,TS val 4031680239 ecr 680731766], length 0
15:06:57.944834 IP 49.207.214.44.22490 > 172.105.253.239.8000: Flags [.], ack 2210, win 2048, options [nop,nop,TS val 680731791 ecr 4031680239], length 0

$ tshark -nxr pcap/webapp.pcap
0000  f2 3c 92 4d a0 0a 52 50 d9 7c d8 57 08 00 45 00   .<.M..RP.|.W..E.
0010  00 40 00 00 40 00 36 06 92 63 31 cf d6 2c ac 69   .@..@.6..c1..,.i
0020  fd ef 57 da 1f 40 ae 96 0c f3 00 00 00 00 b0 02   ..W..@..........
0030  ff ff a2 74 00 00 02 04 05 ac 01 03 03 06 01 01   ...t............
0040  08 0a 28 92 87 04 00 00 00 00 04 02 00 00         ..(...........

0000  00 00 5e 00 be ef f2 3c 92 4d a0 0a 08 00 45 00   ..^....<.M....E.
0010  00 3c 00 00 40 00 40 06 88 67 ac 69 fd ef 31 cf   .<..@.@..g.i..1.
0020  d6 2c 1f 40 57 da 2f a9 12 95 ae 96 0c f4 a0 12   .,.@W./.........
0030  fe 88 b2 83 00 00 02 04 05 b4 04 02 08 0a f0 4d   ...............M
0040  f1 47 28 92 87 04 01 03 03 07                     .G(.......

0000  f2 3c 92 4d a0 0a 52 50 d9 7c d8 57 08 00 45 00   .<.M..RP.|.W..E.
0010  00 34 00 00 40 00 36 06 92 6f 31 cf d6 2c ac 69   .4..@.6..o1..,.i
0020  fd ef 57 da 1f 40 ae 96 0c f4 2f a9 12 96 80 10   ..W..@..../.....
0030  08 16 b6 28 00 00 01 01 08 0a 28 92 87 1d f0 4d   ...(......(....M
0040  f1 47                                             .G

0000  f2 3c 92 4d a0 0a 52 50 d9 7c d8 57 08 00 45 00   .<.M..RP.|.W..E.
0010  01 8d 00 00 40 00 36 06 91 16 31 cf d6 2c ac 69   ....@.6...1..,.i
0020  fd ef 57 da 1f 40 ae 96 0c f4 2f a9 12 96 80 18   ..W..@..../.....
0030  08 16 38 c9 00 00 01 01 08 0a 28 92 87 1d f0 4d   ..8.......(....M
0040  f1 47 47 45 54 20 2f 20 48 54 54 50 2f 31 2e 31   .GGET / HTTP/1.1
0050  0d 0a 48 6f 73 74 3a 20 31 37 32 2e 31 30 35 2e   ..Host: 172.105.
0060  32 35 33 2e 32 33 39 3a 38 30 30 30 0d 0a 55 73   253.239:8000..Us
0070  65 72 2d 41 67 65 6e 74 3a 20 4d 6f 7a 69 6c 6c   er-Agent: Mozill
0080  61 2f 35 2e 30 20 28 4d 61 63 69 6e 74 6f 73 68   a/5.0 (Macintosh
0090  3b 20 49 6e 74 65 6c 20 4d 61 63 20 4f 53 20 58   ; Intel Mac OS X
00a0  20 31 30 2e 31 35 3b 20 72 76 3a 38 39 2e 30 29    10.15; rv:89.0)
00b0  20 47 65 63 6b 6f 2f 32 30 31 30 30 31 30 31 20    Gecko/20100101 
00c0  46 69 72 65 66 6f 78 2f 38 39 2e 30 0d 0a 41 63   Firefox/89.0..Ac
00d0  63 65 70 74 3a 20 74 65 78 74 2f 68 74 6d 6c 2c   cept: text/html,
00e0  61 70 70 6c 69 63 61 74 69 6f 6e 2f 78 68 74 6d   application/xhtm
00f0  6c 2b 78 6d 6c 2c 61 70 70 6c 69 63 61 74 69 6f   l+xml,applicatio
0100  6e 2f 78 6d 6c 3b 71 3d 30 2e 39 2c 69 6d 61 67   n/xml;q=0.9,imag
0110  65 2f 77 65 62 70 2c 2a 2f 2a 3b 71 3d 30 2e 38   e/webp,*/*;q=0.8
0120  0d 0a 41 63 63 65 70 74 2d 4c 61 6e 67 75 61 67   ..Accept-Languag
0130  65 3a 20 65 6e 2d 55 53 2c 65 6e 3b 71 3d 30 2e   e: en-US,en;q=0.
0140  35 0d 0a 41 63 63 65 70 74 2d 45 6e 63 6f 64 69   5..Accept-Encodi
0150  6e 67 3a 20 67 7a 69 70 2c 20 64 65 66 6c 61 74   ng: gzip, deflat
0160  65 0d 0a 43 6f 6e 6e 65 63 74 69 6f 6e 3a 20 6b   e..Connection: k
0170  65 65 70 2d 61 6c 69 76 65 0d 0a 55 70 67 72 61   eep-alive..Upgra
0180  64 65 2d 49 6e 73 65 63 75 72 65 2d 52 65 71 75   de-Insecure-Requ
0190  65 73 74 73 3a 20 31 0d 0a 0d 0a                  ests: 1....

0000  00 00 5e 00 be ef f2 3c 92 4d a0 0a 08 00 45 00   ..^....<.M....E.
0010  00 34 30 43 40 00 40 06 58 2c ac 69 fd ef 31 cf   .40C@.@.X,.i..1.
0020  d6 2c 1f 40 57 da 2f a9 12 96 ae 96 0e 4d 80 10   .,.@W./......M..
0030  01 fb b2 7b 00 00 01 01 08 0a f0 4d f1 61 28 92   ...{.......M.a(.
0040  87 1d                                             ..

0000  00 00 5e 00 be ef f2 3c 92 4d a0 0a 08 00 45 00   ..^....<.M....E.
0010  00 a9 30 44 40 00 40 06 57 b6 ac 69 fd ef 31 cf   ..0D@.@.W..i..1.
0020  d6 2c 1f 40 57 da 2f a9 12 96 ae 96 0e 4d 80 18   .,.@W./......M..
0030  01 fb b2 f0 00 00 01 01 08 0a f0 4d f1 65 28 92   ...........M.e(.
0040  87 1d 48 54 54 50 2f 31 2e 31 20 32 30 30 20 4f   ..HTTP/1.1 200 O
0050  4b 0d 0a 43 6f 6e 74 65 6e 74 2d 54 79 70 65 3a   K..Content-Type:
0060  20 74 65 78 74 2f 68 74 6d 6c 3b 20 63 68 61 72    text/html; char
0070  73 65 74 3d 75 74 66 2d 38 0d 0a 43 6f 6e 74 65   set=utf-8..Conte
0080  6e 74 2d 4c 65 6e 67 74 68 3a 20 34 33 35 0d 0a   nt-Length: 435..
0090  44 61 74 65 3a 20 53 75 6e 2c 20 30 36 20 4a 75   Date: Sun, 06 Ju
00a0  6e 20 32 30 32 31 20 30 39 3a 33 36 3a 31 37 20   n 2021 09:36:17 
00b0  47 4d 54 0d 0a 0d 0a                              GMT....

0000  f2 3c 92 4d a0 0a 52 50 d9 7c d8 57 08 00 45 00   .<.M..RP.|.W..E.
0010  00 34 00 00 40 00 36 06 92 6f 31 cf d6 2c ac 69   .4..@.6..o1..,.i
0020  fd ef 57 da 1f 40 ae 96 0e 4d 2f a9 13 0b 80 10   ..W..@...M/.....
0030  08 14 b4 21 00 00 01 01 08 0a 28 92 87 3a f0 4d   ...!......(..:.M
0040  f1 65                                             .e

Frame (501 bytes):
0000  00 00 5e 00 be ef f2 3c 92 4d a0 0a 08 00 45 00   ..^....<.M....E.
0010  01 e7 30 45 40 00 40 06 56 77 ac 69 fd ef 31 cf   ..0E@.@.Vw.i..1.
0020  d6 2c 1f 40 57 da 2f a9 13 0b ae 96 0e 4d 80 18   .,.@W./......M..
0030  01 fb b4 2e 00 00 01 01 08 0a f0 4d f1 7e 28 92   ...........M.~(.
0040  87 3a 3c 21 44 4f 43 54 59 50 45 20 68 74 6d 6c   .:<!DOCTYPE html
0050  3e 0a 3c 68 74 6d 6c 20 6c 61 6e 67 3d 22 65 6e   >.<html lang="en
0060  22 3e 0a 3c 68 65 61 64 3e 0a 3c 74 69 74 6c 65   ">.<head>.<title
0070  3e 53 65 72 76 65 72 20 54 69 6d 65 3c 2f 74 69   >Server Time</ti
0080  74 6c 65 3e 0a 3c 73 74 79 6c 65 3e 0a 62 6f 64   tle>.<style>.bod
0090  79 20 7b 62 61 63 6b 67 72 6f 75 6e 64 3a 20 62   y {background: b
00a0  65 69 67 65 3b 20 66 6f 6e 74 2d 73 69 7a 65 3a   eige; font-size:
00b0  20 32 65 6d 3b 20 74 65 78 74 2d 61 6c 69 67 6e    2em; text-align
00c0  3a 20 63 65 6e 74 65 72 7d 0a 62 75 74 74 6f 6e   : center}.button
00d0  20 7b 66 6f 6e 74 2d 73 69 7a 65 3a 20 30 2e 37    {font-size: 0.7
00e0  35 65 6d 7d 0a 74 69 6d 65 20 7b 63 6f 6c 6f 72   5em}.time {color
00f0  3a 20 67 72 65 65 6e 7d 0a 3c 2f 73 74 79 6c 65   : green}.</style
0100  3e 0a 3c 2f 68 65 61 64 3e 0a 3c 62 6f 64 79 3e   >.</head>.<body>
0110  0a 3c 70 3e 53 65 72 76 65 72 20 74 69 6d 65 3a   .<p>Server time:
0120  20 3c 74 69 6d 65 3e 30 39 3a 33 36 3a 31 37 3c    <time>09:36:17<
0130  2f 74 69 6d 65 3e 3c 2f 70 3e 0a 3c 62 75 74 74   /time></p>.<butt
0140  6f 6e 20 69 64 3d 22 62 75 74 74 6f 6e 22 3e 52   on id="button">R
0150  65 66 72 65 73 68 20 70 61 67 65 3c 2f 62 75 74   efresh page</but
0160  74 6f 6e 3e 0a 3c 73 63 72 69 70 74 3e 0a 63 6f   ton>.<script>.co
0170  6e 73 74 20 62 75 74 74 6f 6e 20 3d 20 64 6f 63   nst button = doc
0180  75 6d 65 6e 74 2e 67 65 74 45 6c 65 6d 65 6e 74   ument.getElement
0190  42 79 49 64 28 27 62 75 74 74 6f 6e 27 29 0a 62   ById('button').b
01a0  75 74 74 6f 6e 2e 6f 6e 63 6c 69 63 6b 20 3d 20   utton.onclick = 
01b0  66 75 6e 63 74 69 6f 6e 20 28 29 20 7b 0a 20 20   function () {.  
01c0  77 69 6e 64 6f 77 2e 6c 6f 63 61 74 69 6f 6e 2e   window.location.
01d0  72 65 6c 6f 61 64 28 29 0a 7d 0a 3c 2f 73 63 72   reload().}.</scr
01e0  69 70 74 3e 0a 3c 2f 62 6f 64 79 3e 0a 3c 2f 68   ipt>.</body>.</h
01f0  74 6d 6c 3e 0a                                    tml>.
Reassembled TCP (552 bytes):
0000  48 54 54 50 2f 31 2e 31 20 32 30 30 20 4f 4b 0d   HTTP/1.1 200 OK.
0010  0a 43 6f 6e 74 65 6e 74 2d 54 79 70 65 3a 20 74   .Content-Type: t
0020  65 78 74 2f 68 74 6d 6c 3b 20 63 68 61 72 73 65   ext/html; charse
0030  74 3d 75 74 66 2d 38 0d 0a 43 6f 6e 74 65 6e 74   t=utf-8..Content
0040  2d 4c 65 6e 67 74 68 3a 20 34 33 35 0d 0a 44 61   -Length: 435..Da
0050  74 65 3a 20 53 75 6e 2c 20 30 36 20 4a 75 6e 20   te: Sun, 06 Jun 
0060  32 30 32 31 20 30 39 3a 33 36 3a 31 37 20 47 4d   2021 09:36:17 GM
0070  54 0d 0a 0d 0a 3c 21 44 4f 43 54 59 50 45 20 68   T....<!DOCTYPE h
0080  74 6d 6c 3e 0a 3c 68 74 6d 6c 20 6c 61 6e 67 3d   tml>.<html lang=
0090  22 65 6e 22 3e 0a 3c 68 65 61 64 3e 0a 3c 74 69   "en">.<head>.<ti
00a0  74 6c 65 3e 53 65 72 76 65 72 20 54 69 6d 65 3c   tle>Server Time<
00b0  2f 74 69 74 6c 65 3e 0a 3c 73 74 79 6c 65 3e 0a   /title>.<style>.
00c0  62 6f 64 79 20 7b 62 61 63 6b 67 72 6f 75 6e 64   body {background
00d0  3a 20 62 65 69 67 65 3b 20 66 6f 6e 74 2d 73 69   : beige; font-si
00e0  7a 65 3a 20 32 65 6d 3b 20 74 65 78 74 2d 61 6c   ze: 2em; text-al
00f0  69 67 6e 3a 20 63 65 6e 74 65 72 7d 0a 62 75 74   ign: center}.but
0100  74 6f 6e 20 7b 66 6f 6e 74 2d 73 69 7a 65 3a 20   ton {font-size: 
0110  30 2e 37 35 65 6d 7d 0a 74 69 6d 65 20 7b 63 6f   0.75em}.time {co
0120  6c 6f 72 3a 20 67 72 65 65 6e 7d 0a 3c 2f 73 74   lor: green}.</st
0130  79 6c 65 3e 0a 3c 2f 68 65 61 64 3e 0a 3c 62 6f   yle>.</head>.<bo
0140  64 79 3e 0a 3c 70 3e 53 65 72 76 65 72 20 74 69   dy>.<p>Server ti
0150  6d 65 3a 20 3c 74 69 6d 65 3e 30 39 3a 33 36 3a   me: <time>09:36:
0160  31 37 3c 2f 74 69 6d 65 3e 3c 2f 70 3e 0a 3c 62   17</time></p>.<b
0170  75 74 74 6f 6e 20 69 64 3d 22 62 75 74 74 6f 6e   utton id="button
0180  22 3e 52 65 66 72 65 73 68 20 70 61 67 65 3c 2f   ">Refresh page</
0190  62 75 74 74 6f 6e 3e 0a 3c 73 63 72 69 70 74 3e   button>.<script>
01a0  0a 63 6f 6e 73 74 20 62 75 74 74 6f 6e 20 3d 20   .const button = 
01b0  64 6f 63 75 6d 65 6e 74 2e 67 65 74 45 6c 65 6d   document.getElem
01c0  65 6e 74 42 79 49 64 28 27 62 75 74 74 6f 6e 27   entById('button'
01d0  29 0a 62 75 74 74 6f 6e 2e 6f 6e 63 6c 69 63 6b   ).button.onclick
01e0  20 3d 20 66 75 6e 63 74 69 6f 6e 20 28 29 20 7b    = function () {
01f0  0a 20 20 77 69 6e 64 6f 77 2e 6c 6f 63 61 74 69   .  window.locati
0200  6f 6e 2e 72 65 6c 6f 61 64 28 29 0a 7d 0a 3c 2f   on.reload().}.</
0210  73 63 72 69 70 74 3e 0a 3c 2f 62 6f 64 79 3e 0a   script>.</body>.
0220  3c 2f 68 74 6d 6c 3e 0a                           </html>.

0000  f2 3c 92 4d a0 0a 52 50 d9 7c d8 57 08 00 45 00   .<.M..RP.|.W..E.
0010  00 34 00 00 40 00 36 06 92 6f 31 cf d6 2c ac 69   .4..@.6..o1..,.i
0020  fd ef 57 da 1f 40 ae 96 0e 4d 2f a9 14 be 80 10   ..W..@...M/.....
0030  08 0d b2 43 00 00 01 01 08 0a 28 92 87 53 f0 4d   ...C......(..S.M
0040  f1 7e                                             .~

0000  f2 3c 92 4d a0 0a 52 50 d9 7c d8 57 08 00 45 00   .<.M..RP.|.W..E.
0010  01 a7 00 00 40 00 36 06 90 fc 31 cf d6 2c ac 69   ....@.6...1..,.i
0020  fd ef 57 da 1f 40 ae 96 0e 4d 2f a9 14 be 80 18   ..W..@...M/.....
0030  08 0d a2 1c 00 00 01 01 08 0a 28 92 af 03 f0 4d   ..........(....M
0040  f1 7e 47 45 54 20 2f 20 48 54 54 50 2f 31 2e 31   .~GET / HTTP/1.1
0050  0d 0a 48 6f 73 74 3a 20 31 37 32 2e 31 30 35 2e   ..Host: 172.105.
0060  32 35 33 2e 32 33 39 3a 38 30 30 30 0d 0a 55 73   253.239:8000..Us
0070  65 72 2d 41 67 65 6e 74 3a 20 4d 6f 7a 69 6c 6c   er-Agent: Mozill
0080  61 2f 35 2e 30 20 28 4d 61 63 69 6e 74 6f 73 68   a/5.0 (Macintosh
0090  3b 20 49 6e 74 65 6c 20 4d 61 63 20 4f 53 20 58   ; Intel Mac OS X
00a0  20 31 30 2e 31 35 3b 20 72 76 3a 38 39 2e 30 29    10.15; rv:89.0)
00b0  20 47 65 63 6b 6f 2f 32 30 31 30 30 31 30 31 20    Gecko/20100101 
00c0  46 69 72 65 66 6f 78 2f 38 39 2e 30 0d 0a 41 63   Firefox/89.0..Ac
00d0  63 65 70 74 3a 20 74 65 78 74 2f 68 74 6d 6c 2c   cept: text/html,
00e0  61 70 70 6c 69 63 61 74 69 6f 6e 2f 78 68 74 6d   application/xhtm
00f0  6c 2b 78 6d 6c 2c 61 70 70 6c 69 63 61 74 69 6f   l+xml,applicatio
0100  6e 2f 78 6d 6c 3b 71 3d 30 2e 39 2c 69 6d 61 67   n/xml;q=0.9,imag
0110  65 2f 77 65 62 70 2c 2a 2f 2a 3b 71 3d 30 2e 38   e/webp,*/*;q=0.8
0120  0d 0a 41 63 63 65 70 74 2d 4c 61 6e 67 75 61 67   ..Accept-Languag
0130  65 3a 20 65 6e 2d 55 53 2c 65 6e 3b 71 3d 30 2e   e: en-US,en;q=0.
0140  35 0d 0a 41 63 63 65 70 74 2d 45 6e 63 6f 64 69   5..Accept-Encodi
0150  6e 67 3a 20 67 7a 69 70 2c 20 64 65 66 6c 61 74   ng: gzip, deflat
0160  65 0d 0a 43 6f 6e 6e 65 63 74 69 6f 6e 3a 20 6b   e..Connection: k
0170  65 65 70 2d 61 6c 69 76 65 0d 0a 55 70 67 72 61   eep-alive..Upgra
0180  64 65 2d 49 6e 73 65 63 75 72 65 2d 52 65 71 75   de-Insecure-Requ
0190  65 73 74 73 3a 20 31 0d 0a 43 61 63 68 65 2d 43   ests: 1..Cache-C
01a0  6f 6e 74 72 6f 6c 3a 20 6d 61 78 2d 61 67 65 3d   ontrol: max-age=
01b0  30 0d 0a 0d 0a                                    0....

0000  00 00 5e 00 be ef f2 3c 92 4d a0 0a 08 00 45 00   ..^....<.M....E.
0010  00 a9 30 46 40 00 40 06 57 b4 ac 69 fd ef 31 cf   ..0F@.@.W..i..1.
0020  d6 2c 1f 40 57 da 2f a9 14 be ae 96 0f c0 80 18   .,.@W./.........
0030  01 f9 b2 f0 00 00 01 01 08 0a f0 4e 19 4f 28 92   ...........N.O(.
0040  af 03 48 54 54 50 2f 31 2e 31 20 32 30 30 20 4f   ..HTTP/1.1 200 O
0050  4b 0d 0a 43 6f 6e 74 65 6e 74 2d 54 79 70 65 3a   K..Content-Type:
0060  20 74 65 78 74 2f 68 74 6d 6c 3b 20 63 68 61 72    text/html; char
0070  73 65 74 3d 75 74 66 2d 38 0d 0a 43 6f 6e 74 65   set=utf-8..Conte
0080  6e 74 2d 4c 65 6e 67 74 68 3a 20 34 33 35 0d 0a   nt-Length: 435..
0090  44 61 74 65 3a 20 53 75 6e 2c 20 30 36 20 4a 75   Date: Sun, 06 Ju
00a0  6e 20 32 30 32 31 20 30 39 3a 33 36 3a 32 37 20   n 2021 09:36:27 
00b0  47 4d 54 0d 0a 0d 0a                              GMT....

0000  f2 3c 92 4d a0 0a 52 50 d9 7c d8 57 08 00 45 00   .<.M..RP.|.W..E.
0010  00 34 00 00 40 00 36 06 92 6f 31 cf d6 2c ac 69   .4..@.6..o1..,.i
0020  fd ef 57 da 1f 40 ae 96 0f c0 2f a9 15 33 80 10   ..W..@..../..3..
0030  08 0b 60 c2 00 00 01 01 08 0a 28 92 af 1d f0 4e   ..`.......(....N
0040  19 4f                                             .O

Frame (501 bytes):
0000  00 00 5e 00 be ef f2 3c 92 4d a0 0a 08 00 45 00   ..^....<.M....E.
0010  01 e7 30 47 40 00 40 06 56 75 ac 69 fd ef 31 cf   ..0G@.@.Vu.i..1.
0020  d6 2c 1f 40 57 da 2f a9 15 33 ae 96 0f c0 80 18   .,.@W./..3......
0030  01 f9 b4 2e 00 00 01 01 08 0a f0 4e 19 68 28 92   ...........N.h(.
0040  af 1d 3c 21 44 4f 43 54 59 50 45 20 68 74 6d 6c   ..<!DOCTYPE html
0050  3e 0a 3c 68 74 6d 6c 20 6c 61 6e 67 3d 22 65 6e   >.<html lang="en
0060  22 3e 0a 3c 68 65 61 64 3e 0a 3c 74 69 74 6c 65   ">.<head>.<title
0070  3e 53 65 72 76 65 72 20 54 69 6d 65 3c 2f 74 69   >Server Time</ti
0080  74 6c 65 3e 0a 3c 73 74 79 6c 65 3e 0a 62 6f 64   tle>.<style>.bod
0090  79 20 7b 62 61 63 6b 67 72 6f 75 6e 64 3a 20 62   y {background: b
00a0  65 69 67 65 3b 20 66 6f 6e 74 2d 73 69 7a 65 3a   eige; font-size:
00b0  20 32 65 6d 3b 20 74 65 78 74 2d 61 6c 69 67 6e    2em; text-align
00c0  3a 20 63 65 6e 74 65 72 7d 0a 62 75 74 74 6f 6e   : center}.button
00d0  20 7b 66 6f 6e 74 2d 73 69 7a 65 3a 20 30 2e 37    {font-size: 0.7
00e0  35 65 6d 7d 0a 74 69 6d 65 20 7b 63 6f 6c 6f 72   5em}.time {color
00f0  3a 20 67 72 65 65 6e 7d 0a 3c 2f 73 74 79 6c 65   : green}.</style
0100  3e 0a 3c 2f 68 65 61 64 3e 0a 3c 62 6f 64 79 3e   >.</head>.<body>
0110  0a 3c 70 3e 53 65 72 76 65 72 20 74 69 6d 65 3a   .<p>Server time:
0120  20 3c 74 69 6d 65 3e 30 39 3a 33 36 3a 32 37 3c    <time>09:36:27<
0130  2f 74 69 6d 65 3e 3c 2f 70 3e 0a 3c 62 75 74 74   /time></p>.<butt
0140  6f 6e 20 69 64 3d 22 62 75 74 74 6f 6e 22 3e 52   on id="button">R
0150  65 66 72 65 73 68 20 70 61 67 65 3c 2f 62 75 74   efresh page</but
0160  74 6f 6e 3e 0a 3c 73 63 72 69 70 74 3e 0a 63 6f   ton>.<script>.co
0170  6e 73 74 20 62 75 74 74 6f 6e 20 3d 20 64 6f 63   nst button = doc
0180  75 6d 65 6e 74 2e 67 65 74 45 6c 65 6d 65 6e 74   ument.getElement
0190  42 79 49 64 28 27 62 75 74 74 6f 6e 27 29 0a 62   ById('button').b
01a0  75 74 74 6f 6e 2e 6f 6e 63 6c 69 63 6b 20 3d 20   utton.onclick = 
01b0  66 75 6e 63 74 69 6f 6e 20 28 29 20 7b 0a 20 20   function () {.  
01c0  77 69 6e 64 6f 77 2e 6c 6f 63 61 74 69 6f 6e 2e   window.location.
01d0  72 65 6c 6f 61 64 28 29 0a 7d 0a 3c 2f 73 63 72   reload().}.</scr
01e0  69 70 74 3e 0a 3c 2f 62 6f 64 79 3e 0a 3c 2f 68   ipt>.</body>.</h
01f0  74 6d 6c 3e 0a                                    tml>.
Reassembled TCP (552 bytes):
0000  48 54 54 50 2f 31 2e 31 20 32 30 30 20 4f 4b 0d   HTTP/1.1 200 OK.
0010  0a 43 6f 6e 74 65 6e 74 2d 54 79 70 65 3a 20 74   .Content-Type: t
0020  65 78 74 2f 68 74 6d 6c 3b 20 63 68 61 72 73 65   ext/html; charse
0030  74 3d 75 74 66 2d 38 0d 0a 43 6f 6e 74 65 6e 74   t=utf-8..Content
0040  2d 4c 65 6e 67 74 68 3a 20 34 33 35 0d 0a 44 61   -Length: 435..Da
0050  74 65 3a 20 53 75 6e 2c 20 30 36 20 4a 75 6e 20   te: Sun, 06 Jun 
0060  32 30 32 31 20 30 39 3a 33 36 3a 32 37 20 47 4d   2021 09:36:27 GM
0070  54 0d 0a 0d 0a 3c 21 44 4f 43 54 59 50 45 20 68   T....<!DOCTYPE h
0080  74 6d 6c 3e 0a 3c 68 74 6d 6c 20 6c 61 6e 67 3d   tml>.<html lang=
0090  22 65 6e 22 3e 0a 3c 68 65 61 64 3e 0a 3c 74 69   "en">.<head>.<ti
00a0  74 6c 65 3e 53 65 72 76 65 72 20 54 69 6d 65 3c   tle>Server Time<
00b0  2f 74 69 74 6c 65 3e 0a 3c 73 74 79 6c 65 3e 0a   /title>.<style>.
00c0  62 6f 64 79 20 7b 62 61 63 6b 67 72 6f 75 6e 64   body {background
00d0  3a 20 62 65 69 67 65 3b 20 66 6f 6e 74 2d 73 69   : beige; font-si
00e0  7a 65 3a 20 32 65 6d 3b 20 74 65 78 74 2d 61 6c   ze: 2em; text-al
00f0  69 67 6e 3a 20 63 65 6e 74 65 72 7d 0a 62 75 74   ign: center}.but
0100  74 6f 6e 20 7b 66 6f 6e 74 2d 73 69 7a 65 3a 20   ton {font-size: 
0110  30 2e 37 35 65 6d 7d 0a 74 69 6d 65 20 7b 63 6f   0.75em}.time {co
0120  6c 6f 72 3a 20 67 72 65 65 6e 7d 0a 3c 2f 73 74   lor: green}.</st
0130  79 6c 65 3e 0a 3c 2f 68 65 61 64 3e 0a 3c 62 6f   yle>.</head>.<bo
0140  64 79 3e 0a 3c 70 3e 53 65 72 76 65 72 20 74 69   dy>.<p>Server ti
0150  6d 65 3a 20 3c 74 69 6d 65 3e 30 39 3a 33 36 3a   me: <time>09:36:
0160  32 37 3c 2f 74 69 6d 65 3e 3c 2f 70 3e 0a 3c 62   27</time></p>.<b
0170  75 74 74 6f 6e 20 69 64 3d 22 62 75 74 74 6f 6e   utton id="button
0180  22 3e 52 65 66 72 65 73 68 20 70 61 67 65 3c 2f   ">Refresh page</
0190  62 75 74 74 6f 6e 3e 0a 3c 73 63 72 69 70 74 3e   button>.<script>
01a0  0a 63 6f 6e 73 74 20 62 75 74 74 6f 6e 20 3d 20   .const button = 
01b0  64 6f 63 75 6d 65 6e 74 2e 67 65 74 45 6c 65 6d   document.getElem
01c0  65 6e 74 42 79 49 64 28 27 62 75 74 74 6f 6e 27   entById('button'
01d0  29 0a 62 75 74 74 6f 6e 2e 6f 6e 63 6c 69 63 6b   ).button.onclick
01e0  20 3d 20 66 75 6e 63 74 69 6f 6e 20 28 29 20 7b    = function () {
01f0  0a 20 20 77 69 6e 64 6f 77 2e 6c 6f 63 61 74 69   .  window.locati
0200  6f 6e 2e 72 65 6c 6f 61 64 28 29 0a 7d 0a 3c 2f   on.reload().}.</
0210  73 63 72 69 70 74 3e 0a 3c 2f 62 6f 64 79 3e 0a   script>.</body>.
0220  3c 2f 68 74 6d 6c 3e 0a                           </html>.

0000  f2 3c 92 4d a0 0a 52 50 d9 7c d8 57 08 00 45 00   .<.M..RP.|.W..E.
0010  00 34 00 00 40 00 36 06 92 6f 31 cf d6 2c ac 69   .4..@.6..o1..,.i
0020  fd ef 57 da 1f 40 ae 96 0f c0 2f a9 16 e6 80 10   ..W..@..../.....
0030  08 04 5e e4 00 00 01 01 08 0a 28 92 af 36 f0 4e   ..^.......(..6.N
0040  19 68                                             .h

0000  f2 3c 92 4d a0 0a 52 50 d9 7c d8 57 08 00 45 00   .<.M..RP.|.W..E.
0010  01 a7 00 00 40 00 36 06 90 fc 31 cf d6 2c ac 69   ....@.6...1..,.i
0020  fd ef 57 da 1f 40 ae 96 0f c0 2f a9 16 e6 80 18   ..W..@..../.....
0030  08 04 50 1b 00 00 01 01 08 0a 28 92 d5 88 f0 4e   ..P.......(....N
0040  19 68 47 45 54 20 2f 20 48 54 54 50 2f 31 2e 31   .hGET / HTTP/1.1
0050  0d 0a 48 6f 73 74 3a 20 31 37 32 2e 31 30 35 2e   ..Host: 172.105.
0060  32 35 33 2e 32 33 39 3a 38 30 30 30 0d 0a 55 73   253.239:8000..Us
0070  65 72 2d 41 67 65 6e 74 3a 20 4d 6f 7a 69 6c 6c   er-Agent: Mozill
0080  61 2f 35 2e 30 20 28 4d 61 63 69 6e 74 6f 73 68   a/5.0 (Macintosh
0090  3b 20 49 6e 74 65 6c 20 4d 61 63 20 4f 53 20 58   ; Intel Mac OS X
00a0  20 31 30 2e 31 35 3b 20 72 76 3a 38 39 2e 30 29    10.15; rv:89.0)
00b0  20 47 65 63 6b 6f 2f 32 30 31 30 30 31 30 31 20    Gecko/20100101 
00c0  46 69 72 65 66 6f 78 2f 38 39 2e 30 0d 0a 41 63   Firefox/89.0..Ac
00d0  63 65 70 74 3a 20 74 65 78 74 2f 68 74 6d 6c 2c   cept: text/html,
00e0  61 70 70 6c 69 63 61 74 69 6f 6e 2f 78 68 74 6d   application/xhtm
00f0  6c 2b 78 6d 6c 2c 61 70 70 6c 69 63 61 74 69 6f   l+xml,applicatio
0100  6e 2f 78 6d 6c 3b 71 3d 30 2e 39 2c 69 6d 61 67   n/xml;q=0.9,imag
0110  65 2f 77 65 62 70 2c 2a 2f 2a 3b 71 3d 30 2e 38   e/webp,*/*;q=0.8
0120  0d 0a 41 63 63 65 70 74 2d 4c 61 6e 67 75 61 67   ..Accept-Languag
0130  65 3a 20 65 6e 2d 55 53 2c 65 6e 3b 71 3d 30 2e   e: en-US,en;q=0.
0140  35 0d 0a 41 63 63 65 70 74 2d 45 6e 63 6f 64 69   5..Accept-Encodi
0150  6e 67 3a 20 67 7a 69 70 2c 20 64 65 66 6c 61 74   ng: gzip, deflat
0160  65 0d 0a 43 6f 6e 6e 65 63 74 69 6f 6e 3a 20 6b   e..Connection: k
0170  65 65 70 2d 61 6c 69 76 65 0d 0a 55 70 67 72 61   eep-alive..Upgra
0180  64 65 2d 49 6e 73 65 63 75 72 65 2d 52 65 71 75   de-Insecure-Requ
0190  65 73 74 73 3a 20 31 0d 0a 43 61 63 68 65 2d 43   ests: 1..Cache-C
01a0  6f 6e 74 72 6f 6c 3a 20 6d 61 78 2d 61 67 65 3d   ontrol: max-age=
01b0  30 0d 0a 0d 0a                                    0....

0000  00 00 5e 00 be ef f2 3c 92 4d a0 0a 08 00 45 00   ..^....<.M....E.
0010  00 a9 30 48 40 00 40 06 57 b2 ac 69 fd ef 31 cf   ..0H@.@.W..i..1.
0020  d6 2c 1f 40 57 da 2f a9 16 e6 ae 96 11 33 80 18   .,.@W./......3..
0030  01 f7 b2 f0 00 00 01 01 08 0a f0 4e 3f e1 28 92   ...........N?.(.
0040  d5 88 48 54 54 50 2f 31 2e 31 20 32 30 30 20 4f   ..HTTP/1.1 200 O
0050  4b 0d 0a 43 6f 6e 74 65 6e 74 2d 54 79 70 65 3a   K..Content-Type:
0060  20 74 65 78 74 2f 68 74 6d 6c 3b 20 63 68 61 72    text/html; char
0070  73 65 74 3d 75 74 66 2d 38 0d 0a 43 6f 6e 74 65   set=utf-8..Conte
0080  6e 74 2d 4c 65 6e 67 74 68 3a 20 34 33 35 0d 0a   nt-Length: 435..
0090  44 61 74 65 3a 20 53 75 6e 2c 20 30 36 20 4a 75   Date: Sun, 06 Ju
00a0  6e 20 32 30 32 31 20 30 39 3a 33 36 3a 33 37 20   n 2021 09:36:37 
00b0  47 4d 54 0d 0a 0d 0a                              GMT....

0000  f2 3c 92 4d a0 0a 52 50 d9 7c d8 57 08 00 45 00   .<.M..RP.|.W..E.
0010  00 34 00 00 40 00 36 06 92 6f 31 cf d6 2c ac 69   .4..@.6..o1..,.i
0020  fd ef 57 da 1f 40 ae 96 11 33 2f a9 17 5b 80 10   ..W..@...3/..[..
0030  08 02 10 16 00 00 01 01 08 0a 28 92 d5 a5 f0 4e   ..........(....N
0040  3f e1                                             ?.

Frame (501 bytes):
0000  00 00 5e 00 be ef f2 3c 92 4d a0 0a 08 00 45 00   ..^....<.M....E.
0010  01 e7 30 49 40 00 40 06 56 73 ac 69 fd ef 31 cf   ..0I@.@.Vs.i..1.
0020  d6 2c 1f 40 57 da 2f a9 17 5b ae 96 11 33 80 18   .,.@W./..[...3..
0030  01 f7 b4 2e 00 00 01 01 08 0a f0 4e 3f fa 28 92   ...........N?.(.
0040  d5 a5 3c 21 44 4f 43 54 59 50 45 20 68 74 6d 6c   ..<!DOCTYPE html
0050  3e 0a 3c 68 74 6d 6c 20 6c 61 6e 67 3d 22 65 6e   >.<html lang="en
0060  22 3e 0a 3c 68 65 61 64 3e 0a 3c 74 69 74 6c 65   ">.<head>.<title
0070  3e 53 65 72 76 65 72 20 54 69 6d 65 3c 2f 74 69   >Server Time</ti
0080  74 6c 65 3e 0a 3c 73 74 79 6c 65 3e 0a 62 6f 64   tle>.<style>.bod
0090  79 20 7b 62 61 63 6b 67 72 6f 75 6e 64 3a 20 62   y {background: b
00a0  65 69 67 65 3b 20 66 6f 6e 74 2d 73 69 7a 65 3a   eige; font-size:
00b0  20 32 65 6d 3b 20 74 65 78 74 2d 61 6c 69 67 6e    2em; text-align
00c0  3a 20 63 65 6e 74 65 72 7d 0a 62 75 74 74 6f 6e   : center}.button
00d0  20 7b 66 6f 6e 74 2d 73 69 7a 65 3a 20 30 2e 37    {font-size: 0.7
00e0  35 65 6d 7d 0a 74 69 6d 65 20 7b 63 6f 6c 6f 72   5em}.time {color
00f0  3a 20 67 72 65 65 6e 7d 0a 3c 2f 73 74 79 6c 65   : green}.</style
0100  3e 0a 3c 2f 68 65 61 64 3e 0a 3c 62 6f 64 79 3e   >.</head>.<body>
0110  0a 3c 70 3e 53 65 72 76 65 72 20 74 69 6d 65 3a   .<p>Server time:
0120  20 3c 74 69 6d 65 3e 30 39 3a 33 36 3a 33 37 3c    <time>09:36:37<
0130  2f 74 69 6d 65 3e 3c 2f 70 3e 0a 3c 62 75 74 74   /time></p>.<butt
0140  6f 6e 20 69 64 3d 22 62 75 74 74 6f 6e 22 3e 52   on id="button">R
0150  65 66 72 65 73 68 20 70 61 67 65 3c 2f 62 75 74   efresh page</but
0160  74 6f 6e 3e 0a 3c 73 63 72 69 70 74 3e 0a 63 6f   ton>.<script>.co
0170  6e 73 74 20 62 75 74 74 6f 6e 20 3d 20 64 6f 63   nst button = doc
0180  75 6d 65 6e 74 2e 67 65 74 45 6c 65 6d 65 6e 74   ument.getElement
0190  42 79 49 64 28 27 62 75 74 74 6f 6e 27 29 0a 62   ById('button').b
01a0  75 74 74 6f 6e 2e 6f 6e 63 6c 69 63 6b 20 3d 20   utton.onclick = 
01b0  66 75 6e 63 74 69 6f 6e 20 28 29 20 7b 0a 20 20   function () {.  
01c0  77 69 6e 64 6f 77 2e 6c 6f 63 61 74 69 6f 6e 2e   window.location.
01d0  72 65 6c 6f 61 64 28 29 0a 7d 0a 3c 2f 73 63 72   reload().}.</scr
01e0  69 70 74 3e 0a 3c 2f 62 6f 64 79 3e 0a 3c 2f 68   ipt>.</body>.</h
01f0  74 6d 6c 3e 0a                                    tml>.
Reassembled TCP (552 bytes):
0000  48 54 54 50 2f 31 2e 31 20 32 30 30 20 4f 4b 0d   HTTP/1.1 200 OK.
0010  0a 43 6f 6e 74 65 6e 74 2d 54 79 70 65 3a 20 74   .Content-Type: t
0020  65 78 74 2f 68 74 6d 6c 3b 20 63 68 61 72 73 65   ext/html; charse
0030  74 3d 75 74 66 2d 38 0d 0a 43 6f 6e 74 65 6e 74   t=utf-8..Content
0040  2d 4c 65 6e 67 74 68 3a 20 34 33 35 0d 0a 44 61   -Length: 435..Da
0050  74 65 3a 20 53 75 6e 2c 20 30 36 20 4a 75 6e 20   te: Sun, 06 Jun 
0060  32 30 32 31 20 30 39 3a 33 36 3a 33 37 20 47 4d   2021 09:36:37 GM
0070  54 0d 0a 0d 0a 3c 21 44 4f 43 54 59 50 45 20 68   T....<!DOCTYPE h
0080  74 6d 6c 3e 0a 3c 68 74 6d 6c 20 6c 61 6e 67 3d   tml>.<html lang=
0090  22 65 6e 22 3e 0a 3c 68 65 61 64 3e 0a 3c 74 69   "en">.<head>.<ti
00a0  74 6c 65 3e 53 65 72 76 65 72 20 54 69 6d 65 3c   tle>Server Time<
00b0  2f 74 69 74 6c 65 3e 0a 3c 73 74 79 6c 65 3e 0a   /title>.<style>.
00c0  62 6f 64 79 20 7b 62 61 63 6b 67 72 6f 75 6e 64   body {background
00d0  3a 20 62 65 69 67 65 3b 20 66 6f 6e 74 2d 73 69   : beige; font-si
00e0  7a 65 3a 20 32 65 6d 3b 20 74 65 78 74 2d 61 6c   ze: 2em; text-al
00f0  69 67 6e 3a 20 63 65 6e 74 65 72 7d 0a 62 75 74   ign: center}.but
0100  74 6f 6e 20 7b 66 6f 6e 74 2d 73 69 7a 65 3a 20   ton {font-size: 
0110  30 2e 37 35 65 6d 7d 0a 74 69 6d 65 20 7b 63 6f   0.75em}.time {co
0120  6c 6f 72 3a 20 67 72 65 65 6e 7d 0a 3c 2f 73 74   lor: green}.</st
0130  79 6c 65 3e 0a 3c 2f 68 65 61 64 3e 0a 3c 62 6f   yle>.</head>.<bo
0140  64 79 3e 0a 3c 70 3e 53 65 72 76 65 72 20 74 69   dy>.<p>Server ti
0150  6d 65 3a 20 3c 74 69 6d 65 3e 30 39 3a 33 36 3a   me: <time>09:36:
0160  33 37 3c 2f 74 69 6d 65 3e 3c 2f 70 3e 0a 3c 62   37</time></p>.<b
0170  75 74 74 6f 6e 20 69 64 3d 22 62 75 74 74 6f 6e   utton id="button
0180  22 3e 52 65 66 72 65 73 68 20 70 61 67 65 3c 2f   ">Refresh page</
0190  62 75 74 74 6f 6e 3e 0a 3c 73 63 72 69 70 74 3e   button>.<script>
01a0  0a 63 6f 6e 73 74 20 62 75 74 74 6f 6e 20 3d 20   .const button = 
01b0  64 6f 63 75 6d 65 6e 74 2e 67 65 74 45 6c 65 6d   document.getElem
01c0  65 6e 74 42 79 49 64 28 27 62 75 74 74 6f 6e 27   entById('button'
01d0  29 0a 62 75 74 74 6f 6e 2e 6f 6e 63 6c 69 63 6b   ).button.onclick
01e0  20 3d 20 66 75 6e 63 74 69 6f 6e 20 28 29 20 7b    = function () {
01f0  0a 20 20 77 69 6e 64 6f 77 2e 6c 6f 63 61 74 69   .  window.locati
0200  6f 6e 2e 72 65 6c 6f 61 64 28 29 0a 7d 0a 3c 2f   on.reload().}.</
0210  73 63 72 69 70 74 3e 0a 3c 2f 62 6f 64 79 3e 0a   script>.</body>.
0220  3c 2f 68 74 6d 6c 3e 0a                           </html>.

0000  f2 3c 92 4d a0 0a 52 50 d9 7c d8 57 08 00 45 00   .<.M..RP.|.W..E.
0010  00 34 00 00 40 00 36 06 92 6f 31 cf d6 2c ac 69   .4..@.6..o1..,.i
0020  fd ef 57 da 1f 40 ae 96 11 33 2f a9 19 0e 80 10   ..W..@...3/.....
0030  07 fc 0e 38 00 00 01 01 08 0a 28 92 d5 bd f0 4e   ...8......(....N
0040  3f fa                                             ?.

0000  f2 3c 92 4d a0 0a 52 50 d9 7c d8 57 08 00 45 00   .<.M..RP.|.W..E.
0010  01 a7 00 00 40 00 36 06 90 fc 31 cf d6 2c ac 69   ....@.6...1..,.i
0020  fd ef 57 da 1f 40 ae 96 11 33 2f a9 19 0e 80 18   ..W..@...3/.....
0030  08 00 fe 46 00 00 01 01 08 0a 28 92 fd 33 f0 4e   ...F......(..3.N
0040  3f fa 47 45 54 20 2f 20 48 54 54 50 2f 31 2e 31   ?.GET / HTTP/1.1
0050  0d 0a 48 6f 73 74 3a 20 31 37 32 2e 31 30 35 2e   ..Host: 172.105.
0060  32 35 33 2e 32 33 39 3a 38 30 30 30 0d 0a 55 73   253.239:8000..Us
0070  65 72 2d 41 67 65 6e 74 3a 20 4d 6f 7a 69 6c 6c   er-Agent: Mozill
0080  61 2f 35 2e 30 20 28 4d 61 63 69 6e 74 6f 73 68   a/5.0 (Macintosh
0090  3b 20 49 6e 74 65 6c 20 4d 61 63 20 4f 53 20 58   ; Intel Mac OS X
00a0  20 31 30 2e 31 35 3b 20 72 76 3a 38 39 2e 30 29    10.15; rv:89.0)
00b0  20 47 65 63 6b 6f 2f 32 30 31 30 30 31 30 31 20    Gecko/20100101 
00c0  46 69 72 65 66 6f 78 2f 38 39 2e 30 0d 0a 41 63   Firefox/89.0..Ac
00d0  63 65 70 74 3a 20 74 65 78 74 2f 68 74 6d 6c 2c   cept: text/html,
00e0  61 70 70 6c 69 63 61 74 69 6f 6e 2f 78 68 74 6d   application/xhtm
00f0  6c 2b 78 6d 6c 2c 61 70 70 6c 69 63 61 74 69 6f   l+xml,applicatio
0100  6e 2f 78 6d 6c 3b 71 3d 30 2e 39 2c 69 6d 61 67   n/xml;q=0.9,imag
0110  65 2f 77 65 62 70 2c 2a 2f 2a 3b 71 3d 30 2e 38   e/webp,*/*;q=0.8
0120  0d 0a 41 63 63 65 70 74 2d 4c 61 6e 67 75 61 67   ..Accept-Languag
0130  65 3a 20 65 6e 2d 55 53 2c 65 6e 3b 71 3d 30 2e   e: en-US,en;q=0.
0140  35 0d 0a 41 63 63 65 70 74 2d 45 6e 63 6f 64 69   5..Accept-Encodi
0150  6e 67 3a 20 67 7a 69 70 2c 20 64 65 66 6c 61 74   ng: gzip, deflat
0160  65 0d 0a 43 6f 6e 6e 65 63 74 69 6f 6e 3a 20 6b   e..Connection: k
0170  65 65 70 2d 61 6c 69 76 65 0d 0a 55 70 67 72 61   eep-alive..Upgra
0180  64 65 2d 49 6e 73 65 63 75 72 65 2d 52 65 71 75   de-Insecure-Requ
0190  65 73 74 73 3a 20 31 0d 0a 43 61 63 68 65 2d 43   ests: 1..Cache-C
01a0  6f 6e 74 72 6f 6c 3a 20 6d 61 78 2d 61 67 65 3d   ontrol: max-age=
01b0  30 0d 0a 0d 0a                                    0....

0000  00 00 5e 00 be ef f2 3c 92 4d a0 0a 08 00 45 00   ..^....<.M....E.
0010  00 a9 30 4a 40 00 40 06 57 b0 ac 69 fd ef 31 cf   ..0J@.@.W..i..1.
0020  d6 2c 1f 40 57 da 2f a9 19 0e ae 96 12 a6 80 18   .,.@W./.........
0030  01 f5 b2 f0 00 00 01 01 08 0a f0 4e 67 9f 28 92   ...........Ng.(.
0040  fd 33 48 54 54 50 2f 31 2e 31 20 32 30 30 20 4f   .3HTTP/1.1 200 O
0050  4b 0d 0a 43 6f 6e 74 65 6e 74 2d 54 79 70 65 3a   K..Content-Type:
0060  20 74 65 78 74 2f 68 74 6d 6c 3b 20 63 68 61 72    text/html; char
0070  73 65 74 3d 75 74 66 2d 38 0d 0a 43 6f 6e 74 65   set=utf-8..Conte
0080  6e 74 2d 4c 65 6e 67 74 68 3a 20 34 33 35 0d 0a   nt-Length: 435..
0090  44 61 74 65 3a 20 53 75 6e 2c 20 30 36 20 4a 75   Date: Sun, 06 Ju
00a0  6e 20 32 30 32 31 20 30 39 3a 33 36 3a 34 37 20   n 2021 09:36:47 
00b0  47 4d 54 0d 0a 0d 0a                              GMT....

0000  f2 3c 92 4d a0 0a 52 50 d9 7c d8 57 08 00 45 00   .<.M..RP.|.W..E.
0010  00 34 00 00 40 00 36 06 92 6f 31 cf d6 2c ac 69   .4..@.6..o1..,.i
0020  fd ef 57 da 1f 40 ae 96 12 a6 2f a9 19 83 80 10   ..W..@..../.....
0030  07 fe bd 19 00 00 01 01 08 0a 28 92 fd 4c f0 4e   ..........(..L.N
0040  67 9f                                             g.

Frame (501 bytes):
0000  00 00 5e 00 be ef f2 3c 92 4d a0 0a 08 00 45 00   ..^....<.M....E.
0010  01 e7 30 4b 40 00 40 06 56 71 ac 69 fd ef 31 cf   ..0K@.@.Vq.i..1.
0020  d6 2c 1f 40 57 da 2f a9 19 83 ae 96 12 a6 80 18   .,.@W./.........
0030  01 f5 b4 2e 00 00 01 01 08 0a f0 4e 67 b9 28 92   ...........Ng.(.
0040  fd 4c 3c 21 44 4f 43 54 59 50 45 20 68 74 6d 6c   .L<!DOCTYPE html
0050  3e 0a 3c 68 74 6d 6c 20 6c 61 6e 67 3d 22 65 6e   >.<html lang="en
0060  22 3e 0a 3c 68 65 61 64 3e 0a 3c 74 69 74 6c 65   ">.<head>.<title
0070  3e 53 65 72 76 65 72 20 54 69 6d 65 3c 2f 74 69   >Server Time</ti
0080  74 6c 65 3e 0a 3c 73 74 79 6c 65 3e 0a 62 6f 64   tle>.<style>.bod
0090  79 20 7b 62 61 63 6b 67 72 6f 75 6e 64 3a 20 62   y {background: b
00a0  65 69 67 65 3b 20 66 6f 6e 74 2d 73 69 7a 65 3a   eige; font-size:
00b0  20 32 65 6d 3b 20 74 65 78 74 2d 61 6c 69 67 6e    2em; text-align
00c0  3a 20 63 65 6e 74 65 72 7d 0a 62 75 74 74 6f 6e   : center}.button
00d0  20 7b 66 6f 6e 74 2d 73 69 7a 65 3a 20 30 2e 37    {font-size: 0.7
00e0  35 65 6d 7d 0a 74 69 6d 65 20 7b 63 6f 6c 6f 72   5em}.time {color
00f0  3a 20 67 72 65 65 6e 7d 0a 3c 2f 73 74 79 6c 65   : green}.</style
0100  3e 0a 3c 2f 68 65 61 64 3e 0a 3c 62 6f 64 79 3e   >.</head>.<body>
0110  0a 3c 70 3e 53 65 72 76 65 72 20 74 69 6d 65 3a   .<p>Server time:
0120  20 3c 74 69 6d 65 3e 30 39 3a 33 36 3a 34 37 3c    <time>09:36:47<
0130  2f 74 69 6d 65 3e 3c 2f 70 3e 0a 3c 62 75 74 74   /time></p>.<butt
0140  6f 6e 20 69 64 3d 22 62 75 74 74 6f 6e 22 3e 52   on id="button">R
0150  65 66 72 65 73 68 20 70 61 67 65 3c 2f 62 75 74   efresh page</but
0160  74 6f 6e 3e 0a 3c 73 63 72 69 70 74 3e 0a 63 6f   ton>.<script>.co
0170  6e 73 74 20 62 75 74 74 6f 6e 20 3d 20 64 6f 63   nst button = doc
0180  75 6d 65 6e 74 2e 67 65 74 45 6c 65 6d 65 6e 74   ument.getElement
0190  42 79 49 64 28 27 62 75 74 74 6f 6e 27 29 0a 62   ById('button').b
01a0  75 74 74 6f 6e 2e 6f 6e 63 6c 69 63 6b 20 3d 20   utton.onclick = 
01b0  66 75 6e 63 74 69 6f 6e 20 28 29 20 7b 0a 20 20   function () {.  
01c0  77 69 6e 64 6f 77 2e 6c 6f 63 61 74 69 6f 6e 2e   window.location.
01d0  72 65 6c 6f 61 64 28 29 0a 7d 0a 3c 2f 73 63 72   reload().}.</scr
01e0  69 70 74 3e 0a 3c 2f 62 6f 64 79 3e 0a 3c 2f 68   ipt>.</body>.</h
01f0  74 6d 6c 3e 0a                                    tml>.
Reassembled TCP (552 bytes):
0000  48 54 54 50 2f 31 2e 31 20 32 30 30 20 4f 4b 0d   HTTP/1.1 200 OK.
0010  0a 43 6f 6e 74 65 6e 74 2d 54 79 70 65 3a 20 74   .Content-Type: t
0020  65 78 74 2f 68 74 6d 6c 3b 20 63 68 61 72 73 65   ext/html; charse
0030  74 3d 75 74 66 2d 38 0d 0a 43 6f 6e 74 65 6e 74   t=utf-8..Content
0040  2d 4c 65 6e 67 74 68 3a 20 34 33 35 0d 0a 44 61   -Length: 435..Da
0050  74 65 3a 20 53 75 6e 2c 20 30 36 20 4a 75 6e 20   te: Sun, 06 Jun 
0060  32 30 32 31 20 30 39 3a 33 36 3a 34 37 20 47 4d   2021 09:36:47 GM
0070  54 0d 0a 0d 0a 3c 21 44 4f 43 54 59 50 45 20 68   T....<!DOCTYPE h
0080  74 6d 6c 3e 0a 3c 68 74 6d 6c 20 6c 61 6e 67 3d   tml>.<html lang=
0090  22 65 6e 22 3e 0a 3c 68 65 61 64 3e 0a 3c 74 69   "en">.<head>.<ti
00a0  74 6c 65 3e 53 65 72 76 65 72 20 54 69 6d 65 3c   tle>Server Time<
00b0  2f 74 69 74 6c 65 3e 0a 3c 73 74 79 6c 65 3e 0a   /title>.<style>.
00c0  62 6f 64 79 20 7b 62 61 63 6b 67 72 6f 75 6e 64   body {background
00d0  3a 20 62 65 69 67 65 3b 20 66 6f 6e 74 2d 73 69   : beige; font-si
00e0  7a 65 3a 20 32 65 6d 3b 20 74 65 78 74 2d 61 6c   ze: 2em; text-al
00f0  69 67 6e 3a 20 63 65 6e 74 65 72 7d 0a 62 75 74   ign: center}.but
0100  74 6f 6e 20 7b 66 6f 6e 74 2d 73 69 7a 65 3a 20   ton {font-size: 
0110  30 2e 37 35 65 6d 7d 0a 74 69 6d 65 20 7b 63 6f   0.75em}.time {co
0120  6c 6f 72 3a 20 67 72 65 65 6e 7d 0a 3c 2f 73 74   lor: green}.</st
0130  79 6c 65 3e 0a 3c 2f 68 65 61 64 3e 0a 3c 62 6f   yle>.</head>.<bo
0140  64 79 3e 0a 3c 70 3e 53 65 72 76 65 72 20 74 69   dy>.<p>Server ti
0150  6d 65 3a 20 3c 74 69 6d 65 3e 30 39 3a 33 36 3a   me: <time>09:36:
0160  34 37 3c 2f 74 69 6d 65 3e 3c 2f 70 3e 0a 3c 62   47</time></p>.<b
0170  75 74 74 6f 6e 20 69 64 3d 22 62 75 74 74 6f 6e   utton id="button
0180  22 3e 52 65 66 72 65 73 68 20 70 61 67 65 3c 2f   ">Refresh page</
0190  62 75 74 74 6f 6e 3e 0a 3c 73 63 72 69 70 74 3e   button>.<script>
01a0  0a 63 6f 6e 73 74 20 62 75 74 74 6f 6e 20 3d 20   .const button = 
01b0  64 6f 63 75 6d 65 6e 74 2e 67 65 74 45 6c 65 6d   document.getElem
01c0  65 6e 74 42 79 49 64 28 27 62 75 74 74 6f 6e 27   entById('button'
01d0  29 0a 62 75 74 74 6f 6e 2e 6f 6e 63 6c 69 63 6b   ).button.onclick
01e0  20 3d 20 66 75 6e 63 74 69 6f 6e 20 28 29 20 7b    = function () {
01f0  0a 20 20 77 69 6e 64 6f 77 2e 6c 6f 63 61 74 69   .  window.locati
0200  6f 6e 2e 72 65 6c 6f 61 64 28 29 0a 7d 0a 3c 2f   on.reload().}.</
0210  73 63 72 69 70 74 3e 0a 3c 2f 62 6f 64 79 3e 0a   script>.</body>.
0220  3c 2f 68 74 6d 6c 3e 0a                           </html>.

0000  f2 3c 92 4d a0 0a 52 50 d9 7c d8 57 08 00 45 00   .<.M..RP.|.W..E.
0010  00 34 00 00 40 00 36 06 92 6f 31 cf d6 2c ac 69   .4..@.6..o1..,.i
0020  fd ef 57 da 1f 40 ae 96 12 a6 2f a9 1b 36 80 10   ..W..@..../..6..
0030  07 f9 bb 37 00 00 01 01 08 0a 28 92 fd 66 f0 4e   ...7......(..f.N
0040  67 b9                                             g.

0000  f2 3c 92 4d a0 0a 52 50 d9 7c d8 57 08 00 45 00   .<.M..RP.|.W..E.
0010  00 34 00 00 40 00 36 06 92 6f 31 cf d6 2c ac 69   .4..@.6..o1..,.i
0020  fd ef 57 da 1f 40 ae 96 12 a6 2f a9 1b 36 80 11   ..W..@..../..6..
0030  08 00 94 1f 00 00 01 01 08 0a 28 93 24 76 f0 4e   ..........(.$v.N
0040  67 b9                                             g.

0000  00 00 5e 00 be ef f2 3c 92 4d a0 0a 08 00 45 00   ..^....<.M....E.
0010  00 34 30 4c 40 00 40 06 58 23 ac 69 fd ef 31 cf   .40L@.@.X#.i..1.
0020  d6 2c 1f 40 57 da 2f a9 1b 36 ae 96 12 a7 80 11   .,.@W./..6......
0030  01 f5 b2 7b 00 00 01 01 08 0a f0 4e 8e ef 28 93   ...{.......N..(.
0040  24 76                                             $v

0000  f2 3c 92 4d a0 0a 52 50 d9 7c d8 57 08 00 45 00   .<.M..RP.|.W..E.
0010  00 34 00 00 40 00 36 06 92 6f 31 cf d6 2c ac 69   .4..@.6..o1..,.i
0020  fd ef 57 da 1f 40 ae 96 12 a7 2f a9 1b 37 80 10   ..W..@..../..7..
0030  08 00 6c cf 00 00 01 01 08 0a 28 93 24 8f f0 4e   ..l.......(.$..N
0040  8e ef                                             ..


$ tshark -nr pcap/webapp.pcap
    1   0.000000 2021-06-06 09:36:17.560984 78 49.207.214.44  172.105.253.239 TCP 78 22490  8000 [SYN] Seq=0 Win=65535 Len=0 MSS=1452 WS=64 TSval=680691460 TSecr=0 SACK_PERM=1
    2   0.000048 2021-06-06 09:36:17.561032 74 172.105.253.239  49.207.214.44 TCP 74 8000  22490 [SYN, ACK] Seq=0 Ack=1 Win=65160 Len=0 MSS=1460 SACK_PERM=1 TSval=4031639879 TSecr=680691460 WS=128
    3   0.024999 2021-06-06 09:36:17.585983 66 49.207.214.44  172.105.253.239 TCP 66 22490  8000 [ACK] Seq=1 Ack=1 Win=132480 Len=0 TSval=680691485 TSecr=4031639879
    4   0.026487 2021-06-06 09:36:17.587471 411 49.207.214.44  172.105.253.239 HTTP 411 GET / HTTP/1.1 
    5   0.026508 2021-06-06 09:36:17.587492 66 172.105.253.239  49.207.214.44 TCP 66 8000  22490 [ACK] Seq=1 Ack=346 Win=64896 Len=0 TSval=4031639905 TSecr=680691485
    6   0.030129 2021-06-06 09:36:17.591113 183 172.105.253.239  49.207.214.44 TCP 183 HTTP/1.1 200 OK  [TCP segment of a reassembled PDU]
    7   0.055712 2021-06-06 09:36:17.616696 66 49.207.214.44  172.105.253.239 TCP 66 22490  8000 [ACK] Seq=346 Ack=118 Win=132352 Len=0 TSval=680691514 TSecr=4031639909
    8   0.055729 2021-06-06 09:36:17.616713 501 172.105.253.239  49.207.214.44 HTTP 501 HTTP/1.1 200 OK  (text/html)
    9   0.082219 2021-06-06 09:36:17.643203 66 49.207.214.44  172.105.253.239 TCP 66 22490  8000 [ACK] Seq=346 Ack=553 Win=131904 Len=0 TSval=680691539 TSecr=4031639934
   10  10.246545 2021-06-06 09:36:27.807529 437 49.207.214.44  172.105.253.239 HTTP 437 GET / HTTP/1.1 
   11  10.247667 2021-06-06 09:36:27.808651 183 172.105.253.239  49.207.214.44 TCP 183 HTTP/1.1 200 OK  [TCP segment of a reassembled PDU]
   12  10.272565 2021-06-06 09:36:27.833549 66 49.207.214.44  172.105.253.239 TCP 66 22490  8000 [ACK] Seq=717 Ack=670 Win=131776 Len=0 TSval=680701725 TSecr=4031650127
   13  10.272590 2021-06-06 09:36:27.833574 501 172.105.253.239  49.207.214.44 HTTP 501 HTTP/1.1 200 OK  (text/html)
   14  10.297779 2021-06-06 09:36:27.858763 66 49.207.214.44  172.105.253.239 TCP 66 22490  8000 [ACK] Seq=717 Ack=1105 Win=131328 Len=0 TSval=680701750 TSecr=4031650152
   15  20.120307 2021-06-06 09:36:37.681291 437 49.207.214.44  172.105.253.239 HTTP 437 GET / HTTP/1.1 
   16  20.122018 2021-06-06 09:36:37.683002 183 172.105.253.239  49.207.214.44 TCP 183 HTTP/1.1 200 OK  [TCP segment of a reassembled PDU]
   17  20.147003 2021-06-06 09:36:37.707987 66 49.207.214.44  172.105.253.239 TCP 66 22490  8000 [ACK] Seq=1088 Ack=1222 Win=131200 Len=0 TSval=680711589 TSecr=4031660001
   18  20.147034 2021-06-06 09:36:37.708018 501 172.105.253.239  49.207.214.44 HTTP 501 HTTP/1.1 200 OK  (text/html)
   19  20.173406 2021-06-06 09:36:37.734390 66 49.207.214.44  172.105.253.239 TCP 66 22490  8000 [ACK] Seq=1088 Ack=1657 Win=130816 Len=0 TSval=680711613 TSecr=4031660026
   20  30.294323 2021-06-06 09:36:47.855307 437 49.207.214.44  172.105.253.239 HTTP 437 GET / HTTP/1.1 
   21  30.295378 2021-06-06 09:36:47.856362 183 172.105.253.239  49.207.214.44 TCP 183 HTTP/1.1 200 OK  [TCP segment of a reassembled PDU]
   22  30.320935 2021-06-06 09:36:47.881919 66 49.207.214.44  172.105.253.239 TCP 66 22490  8000 [ACK] Seq=1459 Ack=1774 Win=130944 Len=0 TSval=680721740 TSecr=4031670175
   23  30.320955 2021-06-06 09:36:47.881939 501 172.105.253.239  49.207.214.44 HTTP 501 HTTP/1.1 200 OK  (text/html)
   24  30.345940 2021-06-06 09:36:47.906924 66 49.207.214.44  172.105.253.239 TCP 66 22490  8000 [ACK] Seq=1459 Ack=2209 Win=130624 Len=0 TSval=680721766 TSecr=4031670201
   25  40.358797 2021-06-06 09:36:57.919781 66 49.207.214.44  172.105.253.239 TCP 66 22490  8000 [FIN, ACK] Seq=1459 Ack=2209 Win=131072 Len=0 TSval=680731766 TSecr=4031670201
   26  40.359028 2021-06-06 09:36:57.920012 66 172.105.253.239  49.207.214.44 TCP 66 8000  22490 [FIN, ACK] Seq=2209 Ack=1460 Win=64128 Len=0 TSval=4031680239 TSecr=680731766
   27  40.383850 2021-06-06 09:36:57.944834 66 49.207.214.44  172.105.253.239 TCP 66 22490  8000 [ACK] Seq=1460 Ack=2210 Win=131072 Len=0 TSval=680731791 TSecr=4031680239
