$ tcpdump -nXXr pcap/wsapp.pcap
reading from file pcap/wsapp.pcap, link-type EN10MB (Ethernet)
15:13:28.569426 IP 49.207.214.44.22634 > 172.105.253.239.8000: Flags [S], seq 381100467, win 65535, options [mss 1452,nop,wscale 6,nop,nop,TS val 681121158 ecr 0,sackOK,eol], length 0
	0x0000:  f23c 924d a00a 5250 d97c d857 0800 4500  .<.M..RP.|.W..E.
	0x0010:  0040 0000 4000 3606 9263 31cf d62c ac69  .@..@.6..c1..,.i
	0x0020:  fdef 586a 1f40 16b7 21b3 0000 0000 b002  ..Xj.@..!.......
	0x0030:  ffff 967b 0000 0204 05ac 0103 0306 0101  ...{............
	0x0040:  080a 2899 1586 0000 0000 0402 0000       ..(...........
15:13:28.569466 IP 172.105.253.239.8000 > 49.207.214.44.22634: Flags [S.], seq 2260305231, ack 381100468, win 65160, options [mss 1460,sackOK,TS val 4032070904 ecr 681121158,nop,wscale 7], length 0
	0x0000:  0000 5e00 beef f23c 924d a00a 0800 4500  ..^....<.M....E.
	0x0010:  003c 0000 4000 4006 8867 ac69 fdef 31cf  .<..@.@..g.i..1.
	0x0020:  d62c 1f40 586a 86b9 854f 16b7 21b4 a012  .,.@Xj...O..!...
	0x0030:  fe88 b283 0000 0204 05b4 0402 080a f054  ...............T
	0x0040:  84f8 2899 1586 0103 0307                 ..(.......
15:13:28.597583 IP 49.207.214.44.22634 > 172.105.253.239.8000: Flags [.], ack 1, win 2070, options [nop,nop,TS val 681121185 ecr 4032070904], length 0
	0x0000:  f23c 924d a00a 5250 d97c d857 0800 4500  .<.M..RP.|.W..E.
	0x0010:  0034 0000 4000 3606 926f 31cf d62c ac69  .4..@.6..o1..,.i
	0x0020:  fdef 586a 1f40 16b7 21b4 86b9 8550 8010  ..Xj.@..!....P..
	0x0030:  0816 4cab 0000 0101 080a 2899 15a1 f054  ..L.......(....T
	0x0040:  84f8                                     ..
15:13:28.599604 IP 49.207.214.44.22634 > 172.105.253.239.8000: Flags [P.], seq 1:346, ack 1, win 2070, options [nop,nop,TS val 681121185 ecr 4032070904], length 345
	0x0000:  f23c 924d a00a 5250 d97c d857 0800 4500  .<.M..RP.|.W..E.
	0x0010:  018d 0000 4000 3606 9116 31cf d62c ac69  ....@.6...1..,.i
	0x0020:  fdef 586a 1f40 16b7 21b4 86b9 8550 8018  ..Xj.@..!....P..
	0x0030:  0816 cf4b 0000 0101 080a 2899 15a1 f054  ...K......(....T
	0x0040:  84f8 4745 5420 2f20 4854 5450 2f31 2e31  ..GET./.HTTP/1.1
	0x0050:  0d0a 486f 7374 3a20 3137 322e 3130 352e  ..Host:.172.105.
	0x0060:  3235 332e 3233 393a 3830 3030 0d0a 5573  253.239:8000..Us
	0x0070:  6572 2d41 6765 6e74 3a20 4d6f 7a69 6c6c  er-Agent:.Mozill
	0x0080:  612f 352e 3020 284d 6163 696e 746f 7368  a/5.0.(Macintosh
	0x0090:  3b20 496e 7465 6c20 4d61 6320 4f53 2058  ;.Intel.Mac.OS.X
	0x00a0:  2031 302e 3135 3b20 7276 3a38 392e 3029  .10.15;.rv:89.0)
	0x00b0:  2047 6563 6b6f 2f32 3031 3030 3130 3120  .Gecko/20100101.
	0x00c0:  4669 7265 666f 782f 3839 2e30 0d0a 4163  Firefox/89.0..Ac
	0x00d0:  6365 7074 3a20 7465 7874 2f68 746d 6c2c  cept:.text/html,
	0x00e0:  6170 706c 6963 6174 696f 6e2f 7868 746d  application/xhtm
	0x00f0:  6c2b 786d 6c2c 6170 706c 6963 6174 696f  l+xml,applicatio
	0x0100:  6e2f 786d 6c3b 713d 302e 392c 696d 6167  n/xml;q=0.9,imag
	0x0110:  652f 7765 6270 2c2a 2f2a 3b71 3d30 2e38  e/webp,*/*;q=0.8
	0x0120:  0d0a 4163 6365 7074 2d4c 616e 6775 6167  ..Accept-Languag
	0x0130:  653a 2065 6e2d 5553 2c65 6e3b 713d 302e  e:.en-US,en;q=0.
	0x0140:  350d 0a41 6363 6570 742d 456e 636f 6469  5..Accept-Encodi
	0x0150:  6e67 3a20 677a 6970 2c20 6465 666c 6174  ng:.gzip,.deflat
	0x0160:  650d 0a43 6f6e 6e65 6374 696f 6e3a 206b  e..Connection:.k
	0x0170:  6565 702d 616c 6976 650d 0a55 7067 7261  eep-alive..Upgra
	0x0180:  6465 2d49 6e73 6563 7572 652d 5265 7175  de-Insecure-Requ
	0x0190:  6573 7473 3a20 310d 0a0d 0a              ests:.1....
15:13:28.599655 IP 172.105.253.239.8000 > 49.207.214.44.22634: Flags [.], ack 346, win 507, options [nop,nop,TS val 4032070934 ecr 681121185], length 0
	0x0000:  0000 5e00 beef f23c 924d a00a 0800 4500  ..^....<.M....E.
	0x0010:  0034 9fc2 4000 4006 e8ac ac69 fdef 31cf  .4..@.@....i..1.
	0x0020:  d62c 1f40 586a 86b9 8550 16b7 230d 8010  .,.@Xj...P..#...
	0x0030:  01fb b27b 0000 0101 080a f054 8516 2899  ...{.......T..(.
	0x0040:  15a1                                     ..
15:13:28.601645 IP 172.105.253.239.8000 > 49.207.214.44.22634: Flags [P.], seq 1:118, ack 346, win 507, options [nop,nop,TS val 4032070936 ecr 681121185], length 117
	0x0000:  0000 5e00 beef f23c 924d a00a 0800 4500  ..^....<.M....E.
	0x0010:  00a9 9fc3 4000 4006 e836 ac69 fdef 31cf  ....@.@..6.i..1.
	0x0020:  d62c 1f40 586a 86b9 8550 16b7 230d 8018  .,.@Xj...P..#...
	0x0030:  01fb b2f0 0000 0101 080a f054 8518 2899  ...........T..(.
	0x0040:  15a1 4854 5450 2f31 2e31 2032 3030 204f  ..HTTP/1.1.200.O
	0x0050:  4b0d 0a43 6f6e 7465 6e74 2d54 7970 653a  K..Content-Type:
	0x0060:  2074 6578 742f 6874 6d6c 3b20 6368 6172  .text/html;.char
	0x0070:  7365 743d 7574 662d 380d 0a43 6f6e 7465  set=utf-8..Conte
	0x0080:  6e74 2d4c 656e 6774 683a 2037 3139 0d0a  nt-Length:.719..
	0x0090:  4461 7465 3a20 5375 6e2c 2030 3620 4a75  Date:.Sun,.06.Ju
	0x00a0:  6e20 3230 3231 2030 393a 3433 3a32 3820  n.2021.09:43:28.
	0x00b0:  474d 540d 0a0d 0a                        GMT....
15:13:28.631548 IP 49.207.214.44.22634 > 172.105.253.239.8000: Flags [.], ack 118, win 2068, options [nop,nop,TS val 681121215 ecr 4032070936], length 0
	0x0000:  f23c 924d a00a 5250 d97c d857 0800 4500  .<.M..RP.|.W..E.
	0x0010:  0034 0000 4000 3606 926f 31cf d62c ac69  .4..@.6..o1..,.i
	0x0020:  fdef 586a 1f40 16b7 230d 86b9 85c5 8010  ..Xj.@..#.......
	0x0030:  0814 4aa1 0000 0101 080a 2899 15bf f054  ..J.......(....T
	0x0040:  8518                                     ..
15:13:28.631580 IP 172.105.253.239.8000 > 49.207.214.44.22634: Flags [P.], seq 118:837, ack 346, win 507, options [nop,nop,TS val 4032070966 ecr 681121215], length 719
	0x0000:  0000 5e00 beef f23c 924d a00a 0800 4500  ..^....<.M....E.
	0x0010:  0303 9fc4 4000 4006 e5db ac69 fdef 31cf  ....@.@....i..1.
	0x0020:  d62c 1f40 586a 86b9 85c5 16b7 230d 8018  .,.@Xj......#...
	0x0030:  01fb b54a 0000 0101 080a f054 8536 2899  ...J.......T.6(.
	0x0040:  15bf 3c21 444f 4354 5950 4520 6874 6d6c  ..<!DOCTYPE.html
	0x0050:  3e0a 3c68 746d 6c20 6c61 6e67 3d22 656e  >.<html.lang="en
	0x0060:  223e 0a3c 6865 6164 3e0a 3c74 6974 6c65  ">.<head>.<title
	0x0070:  3e53 6572 7665 7220 5469 6d65 2028 5765  >Server.Time.(We
	0x0080:  6253 6f63 6b65 7429 3c2f 7469 746c 653e  bSocket)</title>
	0x0090:  0a3c 7374 796c 653e 0a62 6f64 7920 7b62  .<style>.body.{b
	0x00a0:  6163 6b67 726f 756e 643a 2062 6569 6765  ackground:.beige
	0x00b0:  3b20 666f 6e74 2d73 697a 653a 2032 656d  ;.font-size:.2em
	0x00c0:  3b20 7465 7874 2d61 6c69 676e 3a20 6365  ;.text-align:.ce
	0x00d0:  6e74 6572 7d0a 6275 7474 6f6e 207b 666f  nter}.button.{fo
	0x00e0:  6e74 2d73 697a 653a 2030 2e37 3565 6d7d  nt-size:.0.75em}
	0x00f0:  0a74 696d 6520 7b63 6f6c 6f72 3a20 6772  .time.{color:.gr
	0x0100:  6565 6e7d 0a3c 2f73 7479 6c65 3e0a 3c2f  een}.</style>.</
	0x0110:  6865 6164 3e0a 3c62 6f64 793e 0a3c 703e  head>.<body>.<p>
	0x0120:  5365 7276 6572 2074 696d 653a 203c 7469  Server.time:.<ti
	0x0130:  6d65 2069 643d 2274 696d 6522 3e30 393a  me.id="time">09:
	0x0140:  3433 3a32 383c 2f74 696d 653e 3c2f 703e  43:28</time></p>
	0x0150:  0a3c 6275 7474 6f6e 2069 643d 2262 7574  .<button.id="but
	0x0160:  746f 6e22 3e52 6566 7265 7368 2076 6961  ton">Refresh.via
	0x0170:  2057 6562 536f 636b 6574 3c2f 6275 7474  .WebSocket</butt
	0x0180:  6f6e 3e0a 3c73 6372 6970 743e 0a63 6f6e  on>.<script>.con
	0x0190:  7374 2062 7574 746f 6e20 3d20 646f 6375  st.button.=.docu
	0x01a0:  6d65 6e74 2e67 6574 456c 656d 656e 7442  ment.getElementB
	0x01b0:  7949 6428 2762 7574 746f 6e27 290a 636f  yId('button').co
	0x01c0:  6e73 7420 7469 6d65 203d 2064 6f63 756d  nst.time.=.docum
	0x01d0:  656e 742e 6765 7445 6c65 6d65 6e74 4279  ent.getElementBy
	0x01e0:  4964 2827 7469 6d65 2729 0a63 6f6e 7374  Id('time').const
	0x01f0:  2077 7320 3d20 6e65 7720 5765 6253 6f63  .ws.=.new.WebSoc
	0x0200:  6b65 7428 2777 733a 2f2f 2720 2b20 7769  ket('ws://'.+.wi
	0x0210:  6e64 6f77 2e6c 6f63 6174 696f 6e2e 686f  ndow.location.ho
	0x0220:  7374 202b 2027 2f74 696d 6527 290a 6275  st.+.'/time').bu
	0x0230:  7474 6f6e 2e6f 6e63 6c69 636b 203d 2066  tton.onclick.=.f
	0x0240:  756e 6374 696f 6e20 2829 207b 0a20 2077  unction.().{...w
	0x0250:  732e 7365 6e64 2827 6765 742d 7469 6d65  s.send('get-time
	0x0260:  2729 0a7d 0a77 732e 6f6e 6d65 7373 6167  ').}.ws.onmessag
	0x0270:  6520 3d20 6675 6e63 7469 6f6e 2028 6576  e.=.function.(ev
	0x0280:  656e 7429 207b 0a20 2074 696d 652e 696e  ent).{...time.in
	0x0290:  6e65 7248 544d 4c20 3d20 4a53 4f4e 2e70  nerHTML.=.JSON.p
	0x02a0:  6172 7365 2865 7665 6e74 2e64 6174 6129  arse(event.data)
	0x02b0:  2e74 696d 650a 7d0a 7773 2e6f 6e65 7272  .time.}.ws.onerr
	0x02c0:  6f72 203d 2066 756e 6374 696f 6e20 2865  or.=.function.(e
	0x02d0:  7665 6e74 2920 7b0a 2020 7469 6d65 2e69  vent).{...time.i
	0x02e0:  6e6e 6572 4854 4d4c 203d 2027 5b65 7272  nnerHTML.=.'[err
	0x02f0:  6f72 5d27 0a7d 0a3c 2f73 6372 6970 743e  or]'.}.</script>
	0x0300:  0a3c 2f62 6f64 793e 0a3c 2f68 746d 6c3e  .</body>.</html>
	0x0310:  0a                                       .
15:13:28.659672 IP 49.207.214.44.22634 > 172.105.253.239.8000: Flags [.], ack 837, win 2056, options [nop,nop,TS val 681121245 ecr 4032070966], length 0
	0x0000:  f23c 924d a00a 5250 d97c d857 0800 4500  .<.M..RP.|.W..E.
	0x0010:  0034 0000 4000 3606 926f 31cf d62c ac69  .4..@.6..o1..,.i
	0x0020:  fdef 586a 1f40 16b7 230d 86b9 8894 8010  ..Xj.@..#.......
	0x0030:  0808 47a2 0000 0101 080a 2899 15dd f054  ..G.......(....T
	0x0040:  8536                                     .6
15:13:28.722994 IP 49.207.214.44.22635 > 172.105.253.239.8000: Flags [S], seq 3179626968, win 65535, options [mss 1452,nop,wscale 6,nop,nop,TS val 681121307 ecr 0,sackOK,eol], length 0
	0x0000:  f23c 924d a00a 5250 d97c d857 0800 4500  .<.M..RP.|.W..E.
	0x0010:  0040 0000 4000 3606 9263 31cf d62c ac69  .@..@.6..c1..,.i
	0x0020:  fdef 586b 1f40 bd85 41d8 0000 0000 b002  ..Xk.@..A.......
	0x0030:  ffff cef1 0000 0204 05ac 0103 0306 0101  ................
	0x0040:  080a 2899 161b 0000 0000 0402 0000       ..(...........
15:13:28.723026 IP 172.105.253.239.8000 > 49.207.214.44.22635: Flags [S.], seq 3604305924, ack 3179626969, win 65160, options [mss 1460,sackOK,TS val 4032071058 ecr 681121307,nop,wscale 7], length 0
	0x0000:  0000 5e00 beef f23c 924d a00a 0800 4500  ..^....<.M....E.
	0x0010:  003c 0000 4000 4006 8867 ac69 fdef 31cf  .<..@.@..g.i..1.
	0x0020:  d62c 1f40 586b d6d5 5804 bd85 41d9 a012  .,.@Xk..X...A...
	0x0030:  fe88 b283 0000 0204 05b4 0402 080a f054  ...............T
	0x0040:  8592 2899 161b 0103 0307                 ..(.......
15:13:28.749033 IP 49.207.214.44.22635 > 172.105.253.239.8000: Flags [.], ack 1, win 2070, options [nop,nop,TS val 681121331 ecr 4032071058], length 0
	0x0000:  f23c 924d a00a 5250 d97c d857 0800 4500  .<.M..RP.|.W..E.
	0x0010:  0034 0000 4000 3606 926f 31cf d62c ac69  .4..@.6..o1..,.i
	0x0020:  fdef 586b 1f40 bd85 41d9 d6d5 5805 8010  ..Xk.@..A...X...
	0x0030:  0816 61b9 0000 0101 080a 2899 1633 f054  ..a.......(..3.T
	0x0040:  8592                                     ..
15:13:28.749086 IP 49.207.214.44.22635 > 172.105.253.239.8000: Flags [P.], seq 1:476, ack 1, win 2070, options [nop,nop,TS val 681121331 ecr 4032071058], length 475
	0x0000:  f23c 924d a00a 5250 d97c d857 0800 4500  .<.M..RP.|.W..E.
	0x0010:  020f 0000 4000 3606 9094 31cf d62c ac69  ....@.6...1..,.i
	0x0020:  fdef 586b 1f40 bd85 41d9 d6d5 5805 8018  ..Xk.@..A...X...
	0x0030:  0816 ab09 0000 0101 080a 2899 1633 f054  ..........(..3.T
	0x0040:  8592 4745 5420 2f74 696d 6520 4854 5450  ..GET./time.HTTP
	0x0050:  2f31 2e31 0d0a 486f 7374 3a20 3137 322e  /1.1..Host:.172.
	0x0060:  3130 352e 3235 332e 3233 393a 3830 3030  105.253.239:8000
	0x0070:  0d0a 5573 6572 2d41 6765 6e74 3a20 4d6f  ..User-Agent:.Mo
	0x0080:  7a69 6c6c 612f 352e 3020 284d 6163 696e  zilla/5.0.(Macin
	0x0090:  746f 7368 3b20 496e 7465 6c20 4d61 6320  tosh;.Intel.Mac.
	0x00a0:  4f53 2058 2031 302e 3135 3b20 7276 3a38  OS.X.10.15;.rv:8
	0x00b0:  392e 3029 2047 6563 6b6f 2f32 3031 3030  9.0).Gecko/20100
	0x00c0:  3130 3120 4669 7265 666f 782f 3839 2e30  101.Firefox/89.0
	0x00d0:  0d0a 4163 6365 7074 3a20 2a2f 2a0d 0a41  ..Accept:.*/*..A
	0x00e0:  6363 6570 742d 4c61 6e67 7561 6765 3a20  ccept-Language:.
	0x00f0:  656e 2d55 532c 656e 3b71 3d30 2e35 0d0a  en-US,en;q=0.5..
	0x0100:  4163 6365 7074 2d45 6e63 6f64 696e 673a  Accept-Encoding:
	0x0110:  2067 7a69 702c 2064 6566 6c61 7465 0d0a  .gzip,.deflate..
	0x0120:  5365 632d 5765 6253 6f63 6b65 742d 5665  Sec-WebSocket-Ve
	0x0130:  7273 696f 6e3a 2031 330d 0a4f 7269 6769  rsion:.13..Origi
	0x0140:  6e3a 2068 7474 703a 2f2f 3137 322e 3130  n:.http://172.10
	0x0150:  352e 3235 332e 3233 393a 3830 3030 0d0a  5.253.239:8000..
	0x0160:  5365 632d 5765 6253 6f63 6b65 742d 4578  Sec-WebSocket-Ex
	0x0170:  7465 6e73 696f 6e73 3a20 7065 726d 6573  tensions:.permes
	0x0180:  7361 6765 2d64 6566 6c61 7465 0d0a 5365  sage-deflate..Se
	0x0190:  632d 5765 6253 6f63 6b65 742d 4b65 793a  c-WebSocket-Key:
	0x01a0:  2057 2b70 5155 6e78 7466 7949 6d67 6c43  .W+pQUnxtfyImglC
	0x01b0:  6570 5549 7864 773d 3d0d 0a43 6f6e 6e65  epUIxdw==..Conne
	0x01c0:  6374 696f 6e3a 206b 6565 702d 616c 6976  ction:.keep-aliv
	0x01d0:  652c 2055 7067 7261 6465 0d0a 5072 6167  e,.Upgrade..Prag
	0x01e0:  6d61 3a20 6e6f 2d63 6163 6865 0d0a 4361  ma:.no-cache..Ca
	0x01f0:  6368 652d 436f 6e74 726f 6c3a 206e 6f2d  che-Control:.no-
	0x0200:  6361 6368 650d 0a55 7067 7261 6465 3a20  cache..Upgrade:.
	0x0210:  7765 6273 6f63 6b65 740d 0a0d 0a         websocket....
15:13:28.749101 IP 172.105.253.239.8000 > 49.207.214.44.22635: Flags [.], ack 476, win 506, options [nop,nop,TS val 4032071084 ecr 681121331], length 0
	0x0000:  0000 5e00 beef f23c 924d a00a 0800 4500  ..^....<.M....E.
	0x0010:  0034 5be5 4000 4006 2c8a ac69 fdef 31cf  .4[.@.@.,..i..1.
	0x0020:  d62c 1f40 586b d6d5 5805 bd85 43b4 8010  .,.@Xk..X...C...
	0x0030:  01fa b27b 0000 0101 080a f054 85ac 2899  ...{.......T..(.
	0x0040:  1633                                     .3
15:13:28.750191 IP 172.105.253.239.8000 > 49.207.214.44.22635: Flags [P.], seq 1:130, ack 476, win 506, options [nop,nop,TS val 4032071085 ecr 681121331], length 129
	0x0000:  0000 5e00 beef f23c 924d a00a 0800 4500  ..^....<.M....E.
	0x0010:  00b5 5be6 4000 4006 2c08 ac69 fdef 31cf  ..[.@.@.,..i..1.
	0x0020:  d62c 1f40 586b d6d5 5805 bd85 43b4 8018  .,.@Xk..X...C...
	0x0030:  01fa b2fc 0000 0101 080a f054 85ad 2899  ...........T..(.
	0x0040:  1633 4854 5450 2f31 2e31 2031 3031 2053  .3HTTP/1.1.101.S
	0x0050:  7769 7463 6869 6e67 2050 726f 746f 636f  witching.Protoco
	0x0060:  6c73 0d0a 5570 6772 6164 653a 2077 6562  ls..Upgrade:.web
	0x0070:  736f 636b 6574 0d0a 436f 6e6e 6563 7469  socket..Connecti
	0x0080:  6f6e 3a20 5570 6772 6164 650d 0a53 6563  on:.Upgrade..Sec
	0x0090:  2d57 6562 536f 636b 6574 2d41 6363 6570  -WebSocket-Accep
	0x00a0:  743a 206a 767a 3872 4a30 794a 4e2f 4134  t:.jvz8rJ0yJN/A4
	0x00b0:  4a30 6b69 5a51 4c69 6966 7051 4f38 3d0d  J0kiZQLiifpQO8=.
	0x00c0:  0a0d 0a                                  ...
15:13:28.774262 IP 49.207.214.44.22635 > 172.105.253.239.8000: Flags [.], ack 130, win 2067, options [nop,nop,TS val 681121357 ecr 4032071085], length 0
	0x0000:  f23c 924d a00a 5250 d97c d857 0800 4500  .<.M..RP.|.W..E.
	0x0010:  0034 0000 4000 3606 926f 31cf d62c ac69  .4..@.6..o1..,.i
	0x0020:  fdef 586b 1f40 bd85 43b4 d6d5 5886 8010  ..Xk.@..C...X...
	0x0030:  0813 5f2b 0000 0101 080a 2899 164d f054  .._+......(..M.T
	0x0040:  85ad                                     ..
15:13:38.837641 IP 49.207.214.44.22635 > 172.105.253.239.8000: Flags [P.], seq 476:490, ack 130, win 2067, options [nop,nop,TS val 681131416 ecr 4032071085], length 14
	0x0000:  f23c 924d a00a 5250 d97c d857 0800 4500  .<.M..RP.|.W..E.
	0x0010:  0042 0000 4000 3606 9261 31cf d62c ac69  .B..@.6..a1..,.i
	0x0020:  fdef 586b 1f40 bd85 43b4 d6d5 5886 8018  ..Xk.@..C...X...
	0x0030:  0813 21a3 0000 0101 080a 2899 3d98 f054  ..!.......(.=..T
	0x0040:  85ad 8188 360d 2916 5168 5d3b 4264 4473  ....6.).Qh];BdDs
15:13:38.838142 IP 172.105.253.239.8000 > 49.207.214.44.22635: Flags [P.], seq 130:152, ack 490, win 506, options [nop,nop,TS val 4032081173 ecr 681131416], length 22
	0x0000:  0000 5e00 beef f23c 924d a00a 0800 4500  ..^....<.M....E.
	0x0010:  004a 5be7 4000 4006 2c72 ac69 fdef 31cf  .J[.@.@.,r.i..1.
	0x0020:  d62c 1f40 586b d6d5 5886 bd85 43c2 8018  .,.@Xk..X...C...
	0x0030:  01fa b291 0000 0101 080a f054 ad15 2899  ...........T..(.
	0x0040:  3d98 8114 7b22 7469 6d65 223a 2022 3039  =...{"time":."09
	0x0050:  3a34 333a 3338 227d                      :43:38"}
15:13:38.862396 IP 49.207.214.44.22635 > 172.105.253.239.8000: Flags [.], ack 152, win 2067, options [nop,nop,TS val 681131440 ecr 4032081173], length 0
	0x0000:  f23c 924d a00a 5250 d97c d857 0800 4500  .<.M..RP.|.W..E.
	0x0010:  0034 0000 4000 3606 926f 31cf d62c ac69  .4..@.6..o1..,.i
	0x0020:  fdef 586b 1f40 bd85 43c2 d6d5 589c 8010  ..Xk.@..C...X...
	0x0030:  0813 103c 0000 0101 080a 2899 3db0 f054  ...<......(.=..T
	0x0040:  ad15                                     ..
15:13:48.717772 IP 49.207.214.44.22635 > 172.105.253.239.8000: Flags [P.], seq 490:504, ack 152, win 2067, options [nop,nop,TS val 681141285 ecr 4032081173], length 14
	0x0000:  f23c 924d a00a 5250 d97c d857 0800 4500  .<.M..RP.|.W..E.
	0x0010:  0042 0000 4000 3606 9261 31cf d62c ac69  .B..@.6..a1..,.i
	0x0020:  fdef 586b 1f40 bd85 43c2 d6d5 589c 8018  ..Xk.@..C...X...
	0x0030:  0813 1580 0000 0101 080a 2899 6425 f054  ..........(.d%.T
	0x0040:  ad15 8188 a2f4 f0d0 c591 84fd d69d 9db5  ................
15:13:48.718157 IP 172.105.253.239.8000 > 49.207.214.44.22635: Flags [P.], seq 152:174, ack 504, win 506, options [nop,nop,TS val 4032091054 ecr 681141285], length 22
	0x0000:  0000 5e00 beef f23c 924d a00a 0800 4500  ..^....<.M....E.
	0x0010:  004a 5be8 4000 4006 2c71 ac69 fdef 31cf  .J[.@.@.,q.i..1.
	0x0020:  d62c 1f40 586b d6d5 589c bd85 43d0 8018  .,.@Xk..X...C...
	0x0030:  01fa b291 0000 0101 080a f054 d3ae 2899  ...........T..(.
	0x0040:  6425 8114 7b22 7469 6d65 223a 2022 3039  d%..{"time":."09
	0x0050:  3a34 333a 3438 227d                      :43:48"}
15:13:48.742473 IP 49.207.214.44.22635 > 172.105.253.239.8000: Flags [.], ack 174, win 2067, options [nop,nop,TS val 681141310 ecr 4032091054], length 0
	0x0000:  f23c 924d a00a 5250 d97c d857 0800 4500  .<.M..RP.|.W..E.
	0x0010:  0034 0000 4000 3606 926f 31cf d62c ac69  .4..@.6..o1..,.i
	0x0020:  fdef 586b 1f40 bd85 43d0 d6d5 58b2 8010  ..Xk.@..C...X...
	0x0030:  0813 c2f0 0000 0101 080a 2899 643e f054  ..........(.d>.T
	0x0040:  d3ae                                     ..
15:13:58.761020 IP 49.207.214.44.22635 > 172.105.253.239.8000: Flags [P.], seq 504:518, ack 174, win 2067, options [nop,nop,TS val 681151321 ecr 4032091054], length 14
	0x0000:  f23c 924d a00a 5250 d97c d857 0800 4500  .<.M..RP.|.W..E.
	0x0010:  0042 0000 4000 3606 9261 31cf d62c ac69  .B..@.6..a1..,.i
	0x0020:  fdef 586b 1f40 bd85 43d0 d6d5 58b2 8018  ..Xk.@..C...X...
	0x0030:  0813 0f52 0000 0101 080a 2899 8b59 f054  ...R......(..Y.T
	0x0040:  d3ae 8188 a691 34fd c1f4 40d0 d2f8 5998  ......4...@...Y.
15:13:58.761415 IP 172.105.253.239.8000 > 49.207.214.44.22635: Flags [P.], seq 174:196, ack 518, win 506, options [nop,nop,TS val 4032101097 ecr 681151321], length 22
	0x0000:  0000 5e00 beef f23c 924d a00a 0800 4500  ..^....<.M....E.
	0x0010:  004a 5be9 4000 4006 2c70 ac69 fdef 31cf  .J[.@.@.,p.i..1.
	0x0020:  d62c 1f40 586b d6d5 58b2 bd85 43de 8018  .,.@Xk..X...C...
	0x0030:  01fa b291 0000 0101 080a f054 fae9 2899  ...........T..(.
	0x0040:  8b59 8114 7b22 7469 6d65 223a 2022 3039  .Y..{"time":."09
	0x0050:  3a34 333a 3538 227d                      :43:58"}
15:13:58.786732 IP 49.207.214.44.22635 > 172.105.253.239.8000: Flags [.], ack 196, win 2066, options [nop,nop,TS val 681151345 ecr 4032101097], length 0
	0x0000:  f23c 924d a00a 5250 d97c d857 0800 4500  .<.M..RP.|.W..E.
	0x0010:  0034 0000 4000 3606 926f 31cf d62c ac69  .4..@.6..o1..,.i
	0x0020:  fdef 586b 1f40 bd85 43de d6d5 58c8 8010  ..Xk.@..C...X...
	0x0030:  0812 745f 0000 0101 080a 2899 8b71 f054  ..t_......(..q.T
	0x0040:  fae9                                     ..
15:14:08.909018 IP 49.207.214.44.22635 > 172.105.253.239.8000: Flags [P.], seq 518:526, ack 196, win 2066, options [nop,nop,TS val 681161459 ecr 4032101097], length 8
	0x0000:  f23c 924d a00a 5250 d97c d857 0800 4500  .<.M..RP.|.W..E.
	0x0010:  003c 0000 4000 3606 9267 31cf d62c ac69  .<..@.6..g1..,.i
	0x0020:  fdef 586b 1f40 bd85 43de d6d5 58c8 8018  ..Xk.@..C...X...
	0x0030:  0812 7cdb 0000 0101 080a 2899 b2f3 f054  ..|.......(....T
	0x0040:  fae9 8882 19db 1362 1a32                 .......b.2
15:14:08.909364 IP 172.105.253.239.8000 > 49.207.214.44.22635: Flags [P.], seq 196:198, ack 526, win 506, options [nop,nop,TS val 4032111246 ecr 681161459], length 2
	0x0000:  0000 5e00 beef f23c 924d a00a 0800 4500  ..^....<.M....E.
	0x0010:  0036 5bea 4000 4006 2c83 ac69 fdef 31cf  .6[.@.@.,..i..1.
	0x0020:  d62c 1f40 586b d6d5 58c8 bd85 43e6 8018  .,.@Xk..X...C...
	0x0030:  01fa b27d 0000 0101 080a f055 228e 2899  ...}.......U".(.
	0x0040:  b2f3 8800                                ....
15:14:08.910843 IP 49.207.214.44.22634 > 172.105.253.239.8000: Flags [F.], seq 346, ack 837, win 2056, options [nop,nop,TS val 681161460 ecr 4032070966], length 0
	0x0000:  f23c 924d a00a 5250 d97c d857 0800 4500  .<.M..RP.|.W..E.
	0x0010:  0034 0000 4000 3606 926f 31cf d62c ac69  .4..@.6..o1..,.i
	0x0020:  fdef 586a 1f40 16b7 230d 86b9 8894 8011  ..Xj.@..#.......
	0x0030:  0808 aa89 0000 0101 080a 2899 b2f4 f054  ..........(....T
	0x0040:  8536                                     .6
15:14:08.912263 IP 49.207.214.44.22635 > 172.105.253.239.8000: Flags [F.], seq 526, ack 196, win 2066, options [nop,nop,TS val 681161460 ecr 4032101097], length 0
	0x0000:  f23c 924d a00a 5250 d97c d857 0800 4500  .<.M..RP.|.W..E.
	0x0010:  0034 0000 4000 3606 926f 31cf d62c ac69  .4..@.6..o1..,.i
	0x0020:  fdef 586b 1f40 bd85 43e6 d6d5 58c8 8011  ..Xk.@..C...X...
	0x0030:  0812 4cd3 0000 0101 080a 2899 b2f4 f054  ..L.......(....T
	0x0040:  fae9                                     ..
15:14:08.913148 IP 172.105.253.239.8000 > 49.207.214.44.22635: Flags [F.], seq 198, ack 527, win 506, options [nop,nop,TS val 4032111250 ecr 681161460], length 0
	0x0000:  0000 5e00 beef f23c 924d a00a 0800 4500  ..^....<.M....E.
	0x0010:  0034 5beb 4000 4006 2c84 ac69 fdef 31cf  .4[.@.@.,..i..1.
	0x0020:  d62c 1f40 586b d6d5 58ca bd85 43e7 8011  .,.@Xk..X...C...
	0x0030:  01fa b27b 0000 0101 080a f055 2292 2899  ...{.......U".(.
	0x0040:  b2f4                                     ..
15:14:08.913261 IP 172.105.253.239.8000 > 49.207.214.44.22634: Flags [F.], seq 837, ack 347, win 507, options [nop,nop,TS val 4032111250 ecr 681161460], length 0
	0x0000:  0000 5e00 beef f23c 924d a00a 0800 4500  ..^....<.M....E.
	0x0010:  0034 9fc5 4000 4006 e8a9 ac69 fdef 31cf  .4..@.@....i..1.
	0x0020:  d62c 1f40 586a 86b9 8894 16b7 230e 8011  .,.@Xj......#...
	0x0030:  01fb b27b 0000 0101 080a f055 2292 2899  ...{.......U".(.
	0x0040:  b2f4                                     ..
15:14:08.933381 IP 49.207.214.44.22635 > 172.105.253.239.8000: Flags [R], seq 3179627494, win 0, length 0
	0x0000:  f23c 924d a00a 5250 d97c d857 0800 4500  .<.M..RP.|.W..E.
	0x0010:  0028 0000 4000 3606 927b 31cf d62c ac69  .(..@.6..{1..,.i
	0x0020:  fdef 586b 1f40 bd85 43e6 0000 0000 5004  ..Xk.@..C.....P.
	0x0030:  0000 8474 0000                           ...t..
15:14:08.937368 IP 49.207.214.44.22635 > 172.105.253.239.8000: Flags [R], seq 3179627495, win 0, length 0
	0x0000:  f23c 924d a00a 5250 d97c d857 0800 4500  .<.M..RP.|.W..E.
	0x0010:  0028 0000 4000 3606 927b 31cf d62c ac69  .(..@.6..{1..,.i
	0x0020:  fdef 586b 1f40 bd85 43e7 0000 0000 5004  ..Xk.@..C.....P.
	0x0030:  0000 8473 0000                           ...s..
15:14:08.940954 IP 49.207.214.44.22634 > 172.105.253.239.8000: Flags [.], ack 838, win 2056, options [nop,nop,TS val 681161486 ecr 4032111250], length 0
	0x0000:  f23c 924d a00a 5250 d97c d857 0800 4500  .<.M..RP.|.W..E.
	0x0010:  0034 0000 4000 3606 926f 31cf d62c ac69  .4..@.6..o1..,.i
	0x0020:  fdef 586a 1f40 16b7 230e 86b9 8895 8010  ..Xj.@..#.......
	0x0030:  0808 0d12 0000 0101 080a 2899 b30e f055  ..........(....U
	0x0040:  2292                                     ".

$ tcpdump -nAr pcap/wsapp.pcap
reading from file pcap/wsapp.pcap, link-type EN10MB (Ethernet)
15:13:28.569426 IP 49.207.214.44.22634 > 172.105.253.239.8000: Flags [S], seq 381100467, win 65535, options [mss 1452,nop,wscale 6,nop,nop,TS val 681121158 ecr 0,sackOK,eol], length 0
E..@..@.6..c1..,.i..Xj.@..!..........{.............
(...........
15:13:28.569466 IP 172.105.253.239.8000 > 49.207.214.44.22634: Flags [S.], seq 2260305231, ack 381100468, win 65160, options [mss 1460,sackOK,TS val 4032070904 ecr 681121158,nop,wscale 7], length 0
E..<..@.@..g.i..1..,.@Xj...O..!................
.T..(.......
15:13:28.597583 IP 49.207.214.44.22634 > 172.105.253.239.8000: Flags [.], ack 1, win 2070, options [nop,nop,TS val 681121185 ecr 4032070904], length 0
E..4..@.6..o1..,.i..Xj.@..!....P....L......
(....T..
15:13:28.599604 IP 49.207.214.44.22634 > 172.105.253.239.8000: Flags [P.], seq 1:346, ack 1, win 2070, options [nop,nop,TS val 681121185 ecr 4032070904], length 345
E.....@.6...1..,.i..Xj.@..!....P.....K.....
(....T..GET / HTTP/1.1
Host: 172.105.253.239:8000
User-Agent: Mozilla/5.0 (Macintosh; Intel Mac OS X 10.15; rv:89.0) Gecko/20100101 Firefox/89.0
Accept: text/html,application/xhtml+xml,application/xml;q=0.9,image/webp,*/*;q=0.8
Accept-Language: en-US,en;q=0.5
Accept-Encoding: gzip, deflate
Connection: keep-alive
Upgrade-Insecure-Requests: 1


15:13:28.599655 IP 172.105.253.239.8000 > 49.207.214.44.22634: Flags [.], ack 346, win 507, options [nop,nop,TS val 4032070934 ecr 681121185], length 0
E..4..@.@....i..1..,.@Xj...P..#......{.....
.T..(...
15:13:28.601645 IP 172.105.253.239.8000 > 49.207.214.44.22634: Flags [P.], seq 1:118, ack 346, win 507, options [nop,nop,TS val 4032070936 ecr 681121185], length 117
E.....@.@..6.i..1..,.@Xj...P..#............
.T..(...HTTP/1.1 200 OK
Content-Type: text/html; charset=utf-8
Content-Length: 719
Date: Sun, 06 Jun 2021 09:43:28 GMT


15:13:28.631548 IP 49.207.214.44.22634 > 172.105.253.239.8000: Flags [.], ack 118, win 2068, options [nop,nop,TS val 681121215 ecr 4032070936], length 0
E..4..@.6..o1..,.i..Xj.@..#.........J......
(....T..
15:13:28.631580 IP 172.105.253.239.8000 > 49.207.214.44.22634: Flags [P.], seq 118:837, ack 346, win 507, options [nop,nop,TS val 4032070966 ecr 681121215], length 719
E.....@.@....i..1..,.@Xj......#......J.....
.T.6(...<!DOCTYPE html>
<html lang="en">
<head>
<title>Server Time (WebSocket)</title>
<style>
body {background: beige; font-size: 2em; text-align: center}
button {font-size: 0.75em}
time {color: green}
</style>
</head>
<body>
<p>Server time: <time id="time">09:43:28</time></p>
<button id="button">Refresh via WebSocket</button>
<script>
const button = document.getElementById('button')
const time = document.getElementById('time')
const ws = new WebSocket('ws://' + window.location.host + '/time')
button.onclick = function () {
  ws.send('get-time')
}
ws.onmessage = function (event) {
  time.innerHTML = JSON.parse(event.data).time
}
ws.onerror = function (event) {
  time.innerHTML = '[error]'
}
</script>
</body>
</html>

15:13:28.659672 IP 49.207.214.44.22634 > 172.105.253.239.8000: Flags [.], ack 837, win 2056, options [nop,nop,TS val 681121245 ecr 4032070966], length 0
E..4..@.6..o1..,.i..Xj.@..#.........G......
(....T.6
15:13:28.722994 IP 49.207.214.44.22635 > 172.105.253.239.8000: Flags [S], seq 3179626968, win 65535, options [mss 1452,nop,wscale 6,nop,nop,TS val 681121307 ecr 0,sackOK,eol], length 0
E..@..@.6..c1..,.i..Xk.@..A........................
(...........
15:13:28.723026 IP 172.105.253.239.8000 > 49.207.214.44.22635: Flags [S.], seq 3604305924, ack 3179626969, win 65160, options [mss 1460,sackOK,TS val 4032071058 ecr 681121307,nop,wscale 7], length 0
E..<..@.@..g.i..1..,.@Xk..X...A................
.T..(.......
15:13:28.749033 IP 49.207.214.44.22635 > 172.105.253.239.8000: Flags [.], ack 1, win 2070, options [nop,nop,TS val 681121331 ecr 4032071058], length 0
E..4..@.6..o1..,.i..Xk.@..A...X.....a......
(..3.T..
15:13:28.749086 IP 49.207.214.44.22635 > 172.105.253.239.8000: Flags [P.], seq 1:476, ack 1, win 2070, options [nop,nop,TS val 681121331 ecr 4032071058], length 475
E.....@.6...1..,.i..Xk.@..A...X......	.....
(..3.T..GET /time HTTP/1.1
Host: 172.105.253.239:8000
User-Agent: Mozilla/5.0 (Macintosh; Intel Mac OS X 10.15; rv:89.0) Gecko/20100101 Firefox/89.0
Accept: */*
Accept-Language: en-US,en;q=0.5
Accept-Encoding: gzip, deflate
Sec-WebSocket-Version: 13
Origin: http://172.105.253.239:8000
Sec-WebSocket-Extensions: permessage-deflate
Sec-WebSocket-Key: W+pQUnxtfyImglCepUIxdw==
Connection: keep-alive, Upgrade
Pragma: no-cache
Cache-Control: no-cache
Upgrade: websocket


15:13:28.749101 IP 172.105.253.239.8000 > 49.207.214.44.22635: Flags [.], ack 476, win 506, options [nop,nop,TS val 4032071084 ecr 681121331], length 0
E..4[.@.@.,..i..1..,.@Xk..X...C......{.....
.T..(..3
15:13:28.750191 IP 172.105.253.239.8000 > 49.207.214.44.22635: Flags [P.], seq 1:130, ack 476, win 506, options [nop,nop,TS val 4032071085 ecr 681121331], length 129
E...[.@.@.,..i..1..,.@Xk..X...C............
.T..(..3HTTP/1.1 101 Switching Protocols
Upgrade: websocket
Connection: Upgrade
Sec-WebSocket-Accept: jvz8rJ0yJN/A4J0kiZQLiifpQO8=


15:13:28.774262 IP 49.207.214.44.22635 > 172.105.253.239.8000: Flags [.], ack 130, win 2067, options [nop,nop,TS val 681121357 ecr 4032071085], length 0
E..4..@.6..o1..,.i..Xk.@..C...X....._+.....
(..M.T..
15:13:38.837641 IP 49.207.214.44.22635 > 172.105.253.239.8000: Flags [P.], seq 476:490, ack 130, win 2067, options [nop,nop,TS val 681131416 ecr 4032071085], length 14
E..B..@.6..a1..,.i..Xk.@..C...X.....!......
(.=..T....6.).Qh];BdDs
15:13:38.838142 IP 172.105.253.239.8000 > 49.207.214.44.22635: Flags [P.], seq 130:152, ack 490, win 506, options [nop,nop,TS val 4032081173 ecr 681131416], length 22
E..J[.@.@.,r.i..1..,.@Xk..X...C............
.T..(.=...{"time": "09:43:38"}
15:13:38.862396 IP 49.207.214.44.22635 > 172.105.253.239.8000: Flags [.], ack 152, win 2067, options [nop,nop,TS val 681131440 ecr 4032081173], length 0
E..4..@.6..o1..,.i..Xk.@..C...X......<.....
(.=..T..
15:13:48.717772 IP 49.207.214.44.22635 > 172.105.253.239.8000: Flags [P.], seq 490:504, ack 152, win 2067, options [nop,nop,TS val 681141285 ecr 4032081173], length 14
E..B..@.6..a1..,.i..Xk.@..C...X............
(.d%.T................
15:13:48.718157 IP 172.105.253.239.8000 > 49.207.214.44.22635: Flags [P.], seq 152:174, ack 504, win 506, options [nop,nop,TS val 4032091054 ecr 681141285], length 22
E..J[.@.@.,q.i..1..,.@Xk..X...C............
.T..(.d%..{"time": "09:43:48"}
15:13:48.742473 IP 49.207.214.44.22635 > 172.105.253.239.8000: Flags [.], ack 174, win 2067, options [nop,nop,TS val 681141310 ecr 4032091054], length 0
E..4..@.6..o1..,.i..Xk.@..C...X............
(.d>.T..
15:13:58.761020 IP 49.207.214.44.22635 > 172.105.253.239.8000: Flags [P.], seq 504:518, ack 174, win 2067, options [nop,nop,TS val 681151321 ecr 4032091054], length 14
E..B..@.6..a1..,.i..Xk.@..C...X......R.....
(..Y.T......4...@...Y.
15:13:58.761415 IP 172.105.253.239.8000 > 49.207.214.44.22635: Flags [P.], seq 174:196, ack 518, win 506, options [nop,nop,TS val 4032101097 ecr 681151321], length 22
E..J[.@.@.,p.i..1..,.@Xk..X...C............
.T..(..Y..{"time": "09:43:58"}
15:13:58.786732 IP 49.207.214.44.22635 > 172.105.253.239.8000: Flags [.], ack 196, win 2066, options [nop,nop,TS val 681151345 ecr 4032101097], length 0
E..4..@.6..o1..,.i..Xk.@..C...X.....t_.....
(..q.T..
15:14:08.909018 IP 49.207.214.44.22635 > 172.105.253.239.8000: Flags [P.], seq 518:526, ack 196, win 2066, options [nop,nop,TS val 681161459 ecr 4032101097], length 8
E..<..@.6..g1..,.i..Xk.@..C...X.....|......
(....T.......b.2
15:14:08.909364 IP 172.105.253.239.8000 > 49.207.214.44.22635: Flags [P.], seq 196:198, ack 526, win 506, options [nop,nop,TS val 4032111246 ecr 681161459], length 2
E..6[.@.@.,..i..1..,.@Xk..X...C......}.....
.U".(.....
15:14:08.910843 IP 49.207.214.44.22634 > 172.105.253.239.8000: Flags [F.], seq 346, ack 837, win 2056, options [nop,nop,TS val 681161460 ecr 4032070966], length 0
E..4..@.6..o1..,.i..Xj.@..#................
(....T.6
15:14:08.912263 IP 49.207.214.44.22635 > 172.105.253.239.8000: Flags [F.], seq 526, ack 196, win 2066, options [nop,nop,TS val 681161460 ecr 4032101097], length 0
E..4..@.6..o1..,.i..Xk.@..C...X.....L......
(....T..
15:14:08.913148 IP 172.105.253.239.8000 > 49.207.214.44.22635: Flags [F.], seq 198, ack 527, win 506, options [nop,nop,TS val 4032111250 ecr 681161460], length 0
E..4[.@.@.,..i..1..,.@Xk..X...C......{.....
.U".(...
15:14:08.913261 IP 172.105.253.239.8000 > 49.207.214.44.22634: Flags [F.], seq 837, ack 347, win 507, options [nop,nop,TS val 4032111250 ecr 681161460], length 0
E..4..@.@....i..1..,.@Xj......#......{.....
.U".(...
15:14:08.933381 IP 49.207.214.44.22635 > 172.105.253.239.8000: Flags [R], seq 3179627494, win 0, length 0
E..(..@.6..{1..,.i..Xk.@..C.....P....t..
15:14:08.937368 IP 49.207.214.44.22635 > 172.105.253.239.8000: Flags [R], seq 3179627495, win 0, length 0
E..(..@.6..{1..,.i..Xk.@..C.....P....s..
15:14:08.940954 IP 49.207.214.44.22634 > 172.105.253.239.8000: Flags [.], ack 838, win 2056, options [nop,nop,TS val 681161486 ecr 4032111250], length 0
E..4..@.6..o1..,.i..Xj.@..#................
(....U".

$ tcpdump -nr pcap/wsapp.pcap
reading from file pcap/wsapp.pcap, link-type EN10MB (Ethernet)
15:13:28.569426 IP 49.207.214.44.22634 > 172.105.253.239.8000: Flags [S], seq 381100467, win 65535, options [mss 1452,nop,wscale 6,nop,nop,TS val 681121158 ecr 0,sackOK,eol], length 0
15:13:28.569466 IP 172.105.253.239.8000 > 49.207.214.44.22634: Flags [S.], seq 2260305231, ack 381100468, win 65160, options [mss 1460,sackOK,TS val 4032070904 ecr 681121158,nop,wscale 7], length 0
15:13:28.597583 IP 49.207.214.44.22634 > 172.105.253.239.8000: Flags [.], ack 1, win 2070, options [nop,nop,TS val 681121185 ecr 4032070904], length 0
15:13:28.599604 IP 49.207.214.44.22634 > 172.105.253.239.8000: Flags [P.], seq 1:346, ack 1, win 2070, options [nop,nop,TS val 681121185 ecr 4032070904], length 345
15:13:28.599655 IP 172.105.253.239.8000 > 49.207.214.44.22634: Flags [.], ack 346, win 507, options [nop,nop,TS val 4032070934 ecr 681121185], length 0
15:13:28.601645 IP 172.105.253.239.8000 > 49.207.214.44.22634: Flags [P.], seq 1:118, ack 346, win 507, options [nop,nop,TS val 4032070936 ecr 681121185], length 117
15:13:28.631548 IP 49.207.214.44.22634 > 172.105.253.239.8000: Flags [.], ack 118, win 2068, options [nop,nop,TS val 681121215 ecr 4032070936], length 0
15:13:28.631580 IP 172.105.253.239.8000 > 49.207.214.44.22634: Flags [P.], seq 118:837, ack 346, win 507, options [nop,nop,TS val 4032070966 ecr 681121215], length 719
15:13:28.659672 IP 49.207.214.44.22634 > 172.105.253.239.8000: Flags [.], ack 837, win 2056, options [nop,nop,TS val 681121245 ecr 4032070966], length 0
15:13:28.722994 IP 49.207.214.44.22635 > 172.105.253.239.8000: Flags [S], seq 3179626968, win 65535, options [mss 1452,nop,wscale 6,nop,nop,TS val 681121307 ecr 0,sackOK,eol], length 0
15:13:28.723026 IP 172.105.253.239.8000 > 49.207.214.44.22635: Flags [S.], seq 3604305924, ack 3179626969, win 65160, options [mss 1460,sackOK,TS val 4032071058 ecr 681121307,nop,wscale 7], length 0
15:13:28.749033 IP 49.207.214.44.22635 > 172.105.253.239.8000: Flags [.], ack 1, win 2070, options [nop,nop,TS val 681121331 ecr 4032071058], length 0
15:13:28.749086 IP 49.207.214.44.22635 > 172.105.253.239.8000: Flags [P.], seq 1:476, ack 1, win 2070, options [nop,nop,TS val 681121331 ecr 4032071058], length 475
15:13:28.749101 IP 172.105.253.239.8000 > 49.207.214.44.22635: Flags [.], ack 476, win 506, options [nop,nop,TS val 4032071084 ecr 681121331], length 0
15:13:28.750191 IP 172.105.253.239.8000 > 49.207.214.44.22635: Flags [P.], seq 1:130, ack 476, win 506, options [nop,nop,TS val 4032071085 ecr 681121331], length 129
15:13:28.774262 IP 49.207.214.44.22635 > 172.105.253.239.8000: Flags [.], ack 130, win 2067, options [nop,nop,TS val 681121357 ecr 4032071085], length 0
15:13:38.837641 IP 49.207.214.44.22635 > 172.105.253.239.8000: Flags [P.], seq 476:490, ack 130, win 2067, options [nop,nop,TS val 681131416 ecr 4032071085], length 14
15:13:38.838142 IP 172.105.253.239.8000 > 49.207.214.44.22635: Flags [P.], seq 130:152, ack 490, win 506, options [nop,nop,TS val 4032081173 ecr 681131416], length 22
15:13:38.862396 IP 49.207.214.44.22635 > 172.105.253.239.8000: Flags [.], ack 152, win 2067, options [nop,nop,TS val 681131440 ecr 4032081173], length 0
15:13:48.717772 IP 49.207.214.44.22635 > 172.105.253.239.8000: Flags [P.], seq 490:504, ack 152, win 2067, options [nop,nop,TS val 681141285 ecr 4032081173], length 14
15:13:48.718157 IP 172.105.253.239.8000 > 49.207.214.44.22635: Flags [P.], seq 152:174, ack 504, win 506, options [nop,nop,TS val 4032091054 ecr 681141285], length 22
15:13:48.742473 IP 49.207.214.44.22635 > 172.105.253.239.8000: Flags [.], ack 174, win 2067, options [nop,nop,TS val 681141310 ecr 4032091054], length 0
15:13:58.761020 IP 49.207.214.44.22635 > 172.105.253.239.8000: Flags [P.], seq 504:518, ack 174, win 2067, options [nop,nop,TS val 681151321 ecr 4032091054], length 14
15:13:58.761415 IP 172.105.253.239.8000 > 49.207.214.44.22635: Flags [P.], seq 174:196, ack 518, win 506, options [nop,nop,TS val 4032101097 ecr 681151321], length 22
15:13:58.786732 IP 49.207.214.44.22635 > 172.105.253.239.8000: Flags [.], ack 196, win 2066, options [nop,nop,TS val 681151345 ecr 4032101097], length 0
15:14:08.909018 IP 49.207.214.44.22635 > 172.105.253.239.8000: Flags [P.], seq 518:526, ack 196, win 2066, options [nop,nop,TS val 681161459 ecr 4032101097], length 8
15:14:08.909364 IP 172.105.253.239.8000 > 49.207.214.44.22635: Flags [P.], seq 196:198, ack 526, win 506, options [nop,nop,TS val 4032111246 ecr 681161459], length 2
15:14:08.910843 IP 49.207.214.44.22634 > 172.105.253.239.8000: Flags [F.], seq 346, ack 837, win 2056, options [nop,nop,TS val 681161460 ecr 4032070966], length 0
15:14:08.912263 IP 49.207.214.44.22635 > 172.105.253.239.8000: Flags [F.], seq 526, ack 196, win 2066, options [nop,nop,TS val 681161460 ecr 4032101097], length 0
15:14:08.913148 IP 172.105.253.239.8000 > 49.207.214.44.22635: Flags [F.], seq 198, ack 527, win 506, options [nop,nop,TS val 4032111250 ecr 681161460], length 0
15:14:08.913261 IP 172.105.253.239.8000 > 49.207.214.44.22634: Flags [F.], seq 837, ack 347, win 507, options [nop,nop,TS val 4032111250 ecr 681161460], length 0
15:14:08.933381 IP 49.207.214.44.22635 > 172.105.253.239.8000: Flags [R], seq 3179627494, win 0, length 0
15:14:08.937368 IP 49.207.214.44.22635 > 172.105.253.239.8000: Flags [R], seq 3179627495, win 0, length 0
15:14:08.940954 IP 49.207.214.44.22634 > 172.105.253.239.8000: Flags [.], ack 838, win 2056, options [nop,nop,TS val 681161486 ecr 4032111250], length 0

$ tshark -nxr pcap/wsapp.pcap
0000  f2 3c 92 4d a0 0a 52 50 d9 7c d8 57 08 00 45 00   .<.M..RP.|.W..E.
0010  00 40 00 00 40 00 36 06 92 63 31 cf d6 2c ac 69   .@..@.6..c1..,.i
0020  fd ef 58 6a 1f 40 16 b7 21 b3 00 00 00 00 b0 02   ..Xj.@..!.......
0030  ff ff 96 7b 00 00 02 04 05 ac 01 03 03 06 01 01   ...{............
0040  08 0a 28 99 15 86 00 00 00 00 04 02 00 00         ..(...........

0000  00 00 5e 00 be ef f2 3c 92 4d a0 0a 08 00 45 00   ..^....<.M....E.
0010  00 3c 00 00 40 00 40 06 88 67 ac 69 fd ef 31 cf   .<..@.@..g.i..1.
0020  d6 2c 1f 40 58 6a 86 b9 85 4f 16 b7 21 b4 a0 12   .,.@Xj...O..!...
0030  fe 88 b2 83 00 00 02 04 05 b4 04 02 08 0a f0 54   ...............T
0040  84 f8 28 99 15 86 01 03 03 07                     ..(.......

0000  f2 3c 92 4d a0 0a 52 50 d9 7c d8 57 08 00 45 00   .<.M..RP.|.W..E.
0010  00 34 00 00 40 00 36 06 92 6f 31 cf d6 2c ac 69   .4..@.6..o1..,.i
0020  fd ef 58 6a 1f 40 16 b7 21 b4 86 b9 85 50 80 10   ..Xj.@..!....P..
0030  08 16 4c ab 00 00 01 01 08 0a 28 99 15 a1 f0 54   ..L.......(....T
0040  84 f8                                             ..

0000  f2 3c 92 4d a0 0a 52 50 d9 7c d8 57 08 00 45 00   .<.M..RP.|.W..E.
0010  01 8d 00 00 40 00 36 06 91 16 31 cf d6 2c ac 69   ....@.6...1..,.i
0020  fd ef 58 6a 1f 40 16 b7 21 b4 86 b9 85 50 80 18   ..Xj.@..!....P..
0030  08 16 cf 4b 00 00 01 01 08 0a 28 99 15 a1 f0 54   ...K......(....T
0040  84 f8 47 45 54 20 2f 20 48 54 54 50 2f 31 2e 31   ..GET / HTTP/1.1
0050  0d 0a 48 6f 73 74 3a 20 31 37 32 2e 31 30 35 2e   ..Host: 172.105.
0060  32 35 33 2e 32 33 39 3a 38 30 30 30 0d 0a 55 73   253.239:8000..Us
0070  65 72 2d 41 67 65 6e 74 3a 20 4d 6f 7a 69 6c 6c   er-Agent: Mozill
0080  61 2f 35 2e 30 20 28 4d 61 63 69 6e 74 6f 73 68   a/5.0 (Macintosh
0090  3b 20 49 6e 74 65 6c 20 4d 61 63 20 4f 53 20 58   ; Intel Mac OS X
00a0  20 31 30 2e 31 35 3b 20 72 76 3a 38 39 2e 30 29    10.15; rv:89.0)
00b0  20 47 65 63 6b 6f 2f 32 30 31 30 30 31 30 31 20    Gecko/20100101 
00c0  46 69 72 65 66 6f 78 2f 38 39 2e 30 0d 0a 41 63   Firefox/89.0..Ac
00d0  63 65 70 74 3a 20 74 65 78 74 2f 68 74 6d 6c 2c   cept: text/html,
00e0  61 70 70 6c 69 63 61 74 69 6f 6e 2f 78 68 74 6d   application/xhtm
00f0  6c 2b 78 6d 6c 2c 61 70 70 6c 69 63 61 74 69 6f   l+xml,applicatio
0100  6e 2f 78 6d 6c 3b 71 3d 30 2e 39 2c 69 6d 61 67   n/xml;q=0.9,imag
0110  65 2f 77 65 62 70 2c 2a 2f 2a 3b 71 3d 30 2e 38   e/webp,*/*;q=0.8
0120  0d 0a 41 63 63 65 70 74 2d 4c 61 6e 67 75 61 67   ..Accept-Languag
0130  65 3a 20 65 6e 2d 55 53 2c 65 6e 3b 71 3d 30 2e   e: en-US,en;q=0.
0140  35 0d 0a 41 63 63 65 70 74 2d 45 6e 63 6f 64 69   5..Accept-Encodi
0150  6e 67 3a 20 67 7a 69 70 2c 20 64 65 66 6c 61 74   ng: gzip, deflat
0160  65 0d 0a 43 6f 6e 6e 65 63 74 69 6f 6e 3a 20 6b   e..Connection: k
0170  65 65 70 2d 61 6c 69 76 65 0d 0a 55 70 67 72 61   eep-alive..Upgra
0180  64 65 2d 49 6e 73 65 63 75 72 65 2d 52 65 71 75   de-Insecure-Requ
0190  65 73 74 73 3a 20 31 0d 0a 0d 0a                  ests: 1....

0000  00 00 5e 00 be ef f2 3c 92 4d a0 0a 08 00 45 00   ..^....<.M....E.
0010  00 34 9f c2 40 00 40 06 e8 ac ac 69 fd ef 31 cf   .4..@.@....i..1.
0020  d6 2c 1f 40 58 6a 86 b9 85 50 16 b7 23 0d 80 10   .,.@Xj...P..#...
0030  01 fb b2 7b 00 00 01 01 08 0a f0 54 85 16 28 99   ...{.......T..(.
0040  15 a1                                             ..

0000  00 00 5e 00 be ef f2 3c 92 4d a0 0a 08 00 45 00   ..^....<.M....E.
0010  00 a9 9f c3 40 00 40 06 e8 36 ac 69 fd ef 31 cf   ....@.@..6.i..1.
0020  d6 2c 1f 40 58 6a 86 b9 85 50 16 b7 23 0d 80 18   .,.@Xj...P..#...
0030  01 fb b2 f0 00 00 01 01 08 0a f0 54 85 18 28 99   ...........T..(.
0040  15 a1 48 54 54 50 2f 31 2e 31 20 32 30 30 20 4f   ..HTTP/1.1 200 O
0050  4b 0d 0a 43 6f 6e 74 65 6e 74 2d 54 79 70 65 3a   K..Content-Type:
0060  20 74 65 78 74 2f 68 74 6d 6c 3b 20 63 68 61 72    text/html; char
0070  73 65 74 3d 75 74 66 2d 38 0d 0a 43 6f 6e 74 65   set=utf-8..Conte
0080  6e 74 2d 4c 65 6e 67 74 68 3a 20 37 31 39 0d 0a   nt-Length: 719..
0090  44 61 74 65 3a 20 53 75 6e 2c 20 30 36 20 4a 75   Date: Sun, 06 Ju
00a0  6e 20 32 30 32 31 20 30 39 3a 34 33 3a 32 38 20   n 2021 09:43:28 
00b0  47 4d 54 0d 0a 0d 0a                              GMT....

0000  f2 3c 92 4d a0 0a 52 50 d9 7c d8 57 08 00 45 00   .<.M..RP.|.W..E.
0010  00 34 00 00 40 00 36 06 92 6f 31 cf d6 2c ac 69   .4..@.6..o1..,.i
0020  fd ef 58 6a 1f 40 16 b7 23 0d 86 b9 85 c5 80 10   ..Xj.@..#.......
0030  08 14 4a a1 00 00 01 01 08 0a 28 99 15 bf f0 54   ..J.......(....T
0040  85 18                                             ..

Frame (785 bytes):
0000  00 00 5e 00 be ef f2 3c 92 4d a0 0a 08 00 45 00   ..^....<.M....E.
0010  03 03 9f c4 40 00 40 06 e5 db ac 69 fd ef 31 cf   ....@.@....i..1.
0020  d6 2c 1f 40 58 6a 86 b9 85 c5 16 b7 23 0d 80 18   .,.@Xj......#...
0030  01 fb b5 4a 00 00 01 01 08 0a f0 54 85 36 28 99   ...J.......T.6(.
0040  15 bf 3c 21 44 4f 43 54 59 50 45 20 68 74 6d 6c   ..<!DOCTYPE html
0050  3e 0a 3c 68 74 6d 6c 20 6c 61 6e 67 3d 22 65 6e   >.<html lang="en
0060  22 3e 0a 3c 68 65 61 64 3e 0a 3c 74 69 74 6c 65   ">.<head>.<title
0070  3e 53 65 72 76 65 72 20 54 69 6d 65 20 28 57 65   >Server Time (We
0080  62 53 6f 63 6b 65 74 29 3c 2f 74 69 74 6c 65 3e   bSocket)</title>
0090  0a 3c 73 74 79 6c 65 3e 0a 62 6f 64 79 20 7b 62   .<style>.body {b
00a0  61 63 6b 67 72 6f 75 6e 64 3a 20 62 65 69 67 65   ackground: beige
00b0  3b 20 66 6f 6e 74 2d 73 69 7a 65 3a 20 32 65 6d   ; font-size: 2em
00c0  3b 20 74 65 78 74 2d 61 6c 69 67 6e 3a 20 63 65   ; text-align: ce
00d0  6e 74 65 72 7d 0a 62 75 74 74 6f 6e 20 7b 66 6f   nter}.button {fo
00e0  6e 74 2d 73 69 7a 65 3a 20 30 2e 37 35 65 6d 7d   nt-size: 0.75em}
00f0  0a 74 69 6d 65 20 7b 63 6f 6c 6f 72 3a 20 67 72   .time {color: gr
0100  65 65 6e 7d 0a 3c 2f 73 74 79 6c 65 3e 0a 3c 2f   een}.</style>.</
0110  68 65 61 64 3e 0a 3c 62 6f 64 79 3e 0a 3c 70 3e   head>.<body>.<p>
0120  53 65 72 76 65 72 20 74 69 6d 65 3a 20 3c 74 69   Server time: <ti
0130  6d 65 20 69 64 3d 22 74 69 6d 65 22 3e 30 39 3a   me id="time">09:
0140  34 33 3a 32 38 3c 2f 74 69 6d 65 3e 3c 2f 70 3e   43:28</time></p>
0150  0a 3c 62 75 74 74 6f 6e 20 69 64 3d 22 62 75 74   .<button id="but
0160  74 6f 6e 22 3e 52 65 66 72 65 73 68 20 76 69 61   ton">Refresh via
0170  20 57 65 62 53 6f 63 6b 65 74 3c 2f 62 75 74 74    WebSocket</butt
0180  6f 6e 3e 0a 3c 73 63 72 69 70 74 3e 0a 63 6f 6e   on>.<script>.con
0190  73 74 20 62 75 74 74 6f 6e 20 3d 20 64 6f 63 75   st button = docu
01a0  6d 65 6e 74 2e 67 65 74 45 6c 65 6d 65 6e 74 42   ment.getElementB
01b0  79 49 64 28 27 62 75 74 74 6f 6e 27 29 0a 63 6f   yId('button').co
01c0  6e 73 74 20 74 69 6d 65 20 3d 20 64 6f 63 75 6d   nst time = docum
01d0  65 6e 74 2e 67 65 74 45 6c 65 6d 65 6e 74 42 79   ent.getElementBy
01e0  49 64 28 27 74 69 6d 65 27 29 0a 63 6f 6e 73 74   Id('time').const
01f0  20 77 73 20 3d 20 6e 65 77 20 57 65 62 53 6f 63    ws = new WebSoc
0200  6b 65 74 28 27 77 73 3a 2f 2f 27 20 2b 20 77 69   ket('ws://' + wi
0210  6e 64 6f 77 2e 6c 6f 63 61 74 69 6f 6e 2e 68 6f   ndow.location.ho
0220  73 74 20 2b 20 27 2f 74 69 6d 65 27 29 0a 62 75   st + '/time').bu
0230  74 74 6f 6e 2e 6f 6e 63 6c 69 63 6b 20 3d 20 66   tton.onclick = f
0240  75 6e 63 74 69 6f 6e 20 28 29 20 7b 0a 20 20 77   unction () {.  w
0250  73 2e 73 65 6e 64 28 27 67 65 74 2d 74 69 6d 65   s.send('get-time
0260  27 29 0a 7d 0a 77 73 2e 6f 6e 6d 65 73 73 61 67   ').}.ws.onmessag
0270  65 20 3d 20 66 75 6e 63 74 69 6f 6e 20 28 65 76   e = function (ev
0280  65 6e 74 29 20 7b 0a 20 20 74 69 6d 65 2e 69 6e   ent) {.  time.in
0290  6e 65 72 48 54 4d 4c 20 3d 20 4a 53 4f 4e 2e 70   nerHTML = JSON.p
02a0  61 72 73 65 28 65 76 65 6e 74 2e 64 61 74 61 29   arse(event.data)
02b0  2e 74 69 6d 65 0a 7d 0a 77 73 2e 6f 6e 65 72 72   .time.}.ws.onerr
02c0  6f 72 20 3d 20 66 75 6e 63 74 69 6f 6e 20 28 65   or = function (e
02d0  76 65 6e 74 29 20 7b 0a 20 20 74 69 6d 65 2e 69   vent) {.  time.i
02e0  6e 6e 65 72 48 54 4d 4c 20 3d 20 27 5b 65 72 72   nnerHTML = '[err
02f0  6f 72 5d 27 0a 7d 0a 3c 2f 73 63 72 69 70 74 3e   or]'.}.</script>
0300  0a 3c 2f 62 6f 64 79 3e 0a 3c 2f 68 74 6d 6c 3e   .</body>.</html>
0310  0a                                                .
Reassembled TCP (836 bytes):
0000  48 54 54 50 2f 31 2e 31 20 32 30 30 20 4f 4b 0d   HTTP/1.1 200 OK.
0010  0a 43 6f 6e 74 65 6e 74 2d 54 79 70 65 3a 20 74   .Content-Type: t
0020  65 78 74 2f 68 74 6d 6c 3b 20 63 68 61 72 73 65   ext/html; charse
0030  74 3d 75 74 66 2d 38 0d 0a 43 6f 6e 74 65 6e 74   t=utf-8..Content
0040  2d 4c 65 6e 67 74 68 3a 20 37 31 39 0d 0a 44 61   -Length: 719..Da
0050  74 65 3a 20 53 75 6e 2c 20 30 36 20 4a 75 6e 20   te: Sun, 06 Jun 
0060  32 30 32 31 20 30 39 3a 34 33 3a 32 38 20 47 4d   2021 09:43:28 GM
0070  54 0d 0a 0d 0a 3c 21 44 4f 43 54 59 50 45 20 68   T....<!DOCTYPE h
0080  74 6d 6c 3e 0a 3c 68 74 6d 6c 20 6c 61 6e 67 3d   tml>.<html lang=
0090  22 65 6e 22 3e 0a 3c 68 65 61 64 3e 0a 3c 74 69   "en">.<head>.<ti
00a0  74 6c 65 3e 53 65 72 76 65 72 20 54 69 6d 65 20   tle>Server Time 
00b0  28 57 65 62 53 6f 63 6b 65 74 29 3c 2f 74 69 74   (WebSocket)</tit
00c0  6c 65 3e 0a 3c 73 74 79 6c 65 3e 0a 62 6f 64 79   le>.<style>.body
00d0  20 7b 62 61 63 6b 67 72 6f 75 6e 64 3a 20 62 65    {background: be
00e0  69 67 65 3b 20 66 6f 6e 74 2d 73 69 7a 65 3a 20   ige; font-size: 
00f0  32 65 6d 3b 20 74 65 78 74 2d 61 6c 69 67 6e 3a   2em; text-align:
0100  20 63 65 6e 74 65 72 7d 0a 62 75 74 74 6f 6e 20    center}.button 
0110  7b 66 6f 6e 74 2d 73 69 7a 65 3a 20 30 2e 37 35   {font-size: 0.75
0120  65 6d 7d 0a 74 69 6d 65 20 7b 63 6f 6c 6f 72 3a   em}.time {color:
0130  20 67 72 65 65 6e 7d 0a 3c 2f 73 74 79 6c 65 3e    green}.</style>
0140  0a 3c 2f 68 65 61 64 3e 0a 3c 62 6f 64 79 3e 0a   .</head>.<body>.
0150  3c 70 3e 53 65 72 76 65 72 20 74 69 6d 65 3a 20   <p>Server time: 
0160  3c 74 69 6d 65 20 69 64 3d 22 74 69 6d 65 22 3e   <time id="time">
0170  30 39 3a 34 33 3a 32 38 3c 2f 74 69 6d 65 3e 3c   09:43:28</time><
0180  2f 70 3e 0a 3c 62 75 74 74 6f 6e 20 69 64 3d 22   /p>.<button id="
0190  62 75 74 74 6f 6e 22 3e 52 65 66 72 65 73 68 20   button">Refresh 
01a0  76 69 61 20 57 65 62 53 6f 63 6b 65 74 3c 2f 62   via WebSocket</b
01b0  75 74 74 6f 6e 3e 0a 3c 73 63 72 69 70 74 3e 0a   utton>.<script>.
01c0  63 6f 6e 73 74 20 62 75 74 74 6f 6e 20 3d 20 64   const button = d
01d0  6f 63 75 6d 65 6e 74 2e 67 65 74 45 6c 65 6d 65   ocument.getEleme
01e0  6e 74 42 79 49 64 28 27 62 75 74 74 6f 6e 27 29   ntById('button')
01f0  0a 63 6f 6e 73 74 20 74 69 6d 65 20 3d 20 64 6f   .const time = do
0200  63 75 6d 65 6e 74 2e 67 65 74 45 6c 65 6d 65 6e   cument.getElemen
0210  74 42 79 49 64 28 27 74 69 6d 65 27 29 0a 63 6f   tById('time').co
0220  6e 73 74 20 77 73 20 3d 20 6e 65 77 20 57 65 62   nst ws = new Web
0230  53 6f 63 6b 65 74 28 27 77 73 3a 2f 2f 27 20 2b   Socket('ws://' +
0240  20 77 69 6e 64 6f 77 2e 6c 6f 63 61 74 69 6f 6e    window.location
0250  2e 68 6f 73 74 20 2b 20 27 2f 74 69 6d 65 27 29   .host + '/time')
0260  0a 62 75 74 74 6f 6e 2e 6f 6e 63 6c 69 63 6b 20   .button.onclick 
0270  3d 20 66 75 6e 63 74 69 6f 6e 20 28 29 20 7b 0a   = function () {.
0280  20 20 77 73 2e 73 65 6e 64 28 27 67 65 74 2d 74     ws.send('get-t
0290  69 6d 65 27 29 0a 7d 0a 77 73 2e 6f 6e 6d 65 73   ime').}.ws.onmes
02a0  73 61 67 65 20 3d 20 66 75 6e 63 74 69 6f 6e 20   sage = function 
02b0  28 65 76 65 6e 74 29 20 7b 0a 20 20 74 69 6d 65   (event) {.  time
02c0  2e 69 6e 6e 65 72 48 54 4d 4c 20 3d 20 4a 53 4f   .innerHTML = JSO
02d0  4e 2e 70 61 72 73 65 28 65 76 65 6e 74 2e 64 61   N.parse(event.da
02e0  74 61 29 2e 74 69 6d 65 0a 7d 0a 77 73 2e 6f 6e   ta).time.}.ws.on
02f0  65 72 72 6f 72 20 3d 20 66 75 6e 63 74 69 6f 6e   error = function
0300  20 28 65 76 65 6e 74 29 20 7b 0a 20 20 74 69 6d    (event) {.  tim
0310  65 2e 69 6e 6e 65 72 48 54 4d 4c 20 3d 20 27 5b   e.innerHTML = '[
0320  65 72 72 6f 72 5d 27 0a 7d 0a 3c 2f 73 63 72 69   error]'.}.</scri
0330  70 74 3e 0a 3c 2f 62 6f 64 79 3e 0a 3c 2f 68 74   pt>.</body>.</ht
0340  6d 6c 3e 0a                                       ml>.

0000  f2 3c 92 4d a0 0a 52 50 d9 7c d8 57 08 00 45 00   .<.M..RP.|.W..E.
0010  00 34 00 00 40 00 36 06 92 6f 31 cf d6 2c ac 69   .4..@.6..o1..,.i
0020  fd ef 58 6a 1f 40 16 b7 23 0d 86 b9 88 94 80 10   ..Xj.@..#.......
0030  08 08 47 a2 00 00 01 01 08 0a 28 99 15 dd f0 54   ..G.......(....T
0040  85 36                                             .6

0000  f2 3c 92 4d a0 0a 52 50 d9 7c d8 57 08 00 45 00   .<.M..RP.|.W..E.
0010  00 40 00 00 40 00 36 06 92 63 31 cf d6 2c ac 69   .@..@.6..c1..,.i
0020  fd ef 58 6b 1f 40 bd 85 41 d8 00 00 00 00 b0 02   ..Xk.@..A.......
0030  ff ff ce f1 00 00 02 04 05 ac 01 03 03 06 01 01   ................
0040  08 0a 28 99 16 1b 00 00 00 00 04 02 00 00         ..(...........

0000  00 00 5e 00 be ef f2 3c 92 4d a0 0a 08 00 45 00   ..^....<.M....E.
0010  00 3c 00 00 40 00 40 06 88 67 ac 69 fd ef 31 cf   .<..@.@..g.i..1.
0020  d6 2c 1f 40 58 6b d6 d5 58 04 bd 85 41 d9 a0 12   .,.@Xk..X...A...
0030  fe 88 b2 83 00 00 02 04 05 b4 04 02 08 0a f0 54   ...............T
0040  85 92 28 99 16 1b 01 03 03 07                     ..(.......

0000  f2 3c 92 4d a0 0a 52 50 d9 7c d8 57 08 00 45 00   .<.M..RP.|.W..E.
0010  00 34 00 00 40 00 36 06 92 6f 31 cf d6 2c ac 69   .4..@.6..o1..,.i
0020  fd ef 58 6b 1f 40 bd 85 41 d9 d6 d5 58 05 80 10   ..Xk.@..A...X...
0030  08 16 61 b9 00 00 01 01 08 0a 28 99 16 33 f0 54   ..a.......(..3.T
0040  85 92                                             ..

0000  f2 3c 92 4d a0 0a 52 50 d9 7c d8 57 08 00 45 00   .<.M..RP.|.W..E.
0010  02 0f 00 00 40 00 36 06 90 94 31 cf d6 2c ac 69   ....@.6...1..,.i
0020  fd ef 58 6b 1f 40 bd 85 41 d9 d6 d5 58 05 80 18   ..Xk.@..A...X...
0030  08 16 ab 09 00 00 01 01 08 0a 28 99 16 33 f0 54   ..........(..3.T
0040  85 92 47 45 54 20 2f 74 69 6d 65 20 48 54 54 50   ..GET /time HTTP
0050  2f 31 2e 31 0d 0a 48 6f 73 74 3a 20 31 37 32 2e   /1.1..Host: 172.
0060  31 30 35 2e 32 35 33 2e 32 33 39 3a 38 30 30 30   105.253.239:8000
0070  0d 0a 55 73 65 72 2d 41 67 65 6e 74 3a 20 4d 6f   ..User-Agent: Mo
0080  7a 69 6c 6c 61 2f 35 2e 30 20 28 4d 61 63 69 6e   zilla/5.0 (Macin
0090  74 6f 73 68 3b 20 49 6e 74 65 6c 20 4d 61 63 20   tosh; Intel Mac 
00a0  4f 53 20 58 20 31 30 2e 31 35 3b 20 72 76 3a 38   OS X 10.15; rv:8
00b0  39 2e 30 29 20 47 65 63 6b 6f 2f 32 30 31 30 30   9.0) Gecko/20100
00c0  31 30 31 20 46 69 72 65 66 6f 78 2f 38 39 2e 30   101 Firefox/89.0
00d0  0d 0a 41 63 63 65 70 74 3a 20 2a 2f 2a 0d 0a 41   ..Accept: */*..A
00e0  63 63 65 70 74 2d 4c 61 6e 67 75 61 67 65 3a 20   ccept-Language: 
00f0  65 6e 2d 55 53 2c 65 6e 3b 71 3d 30 2e 35 0d 0a   en-US,en;q=0.5..
0100  41 63 63 65 70 74 2d 45 6e 63 6f 64 69 6e 67 3a   Accept-Encoding:
0110  20 67 7a 69 70 2c 20 64 65 66 6c 61 74 65 0d 0a    gzip, deflate..
0120  53 65 63 2d 57 65 62 53 6f 63 6b 65 74 2d 56 65   Sec-WebSocket-Ve
0130  72 73 69 6f 6e 3a 20 31 33 0d 0a 4f 72 69 67 69   rsion: 13..Origi
0140  6e 3a 20 68 74 74 70 3a 2f 2f 31 37 32 2e 31 30   n: http://172.10
0150  35 2e 32 35 33 2e 32 33 39 3a 38 30 30 30 0d 0a   5.253.239:8000..
0160  53 65 63 2d 57 65 62 53 6f 63 6b 65 74 2d 45 78   Sec-WebSocket-Ex
0170  74 65 6e 73 69 6f 6e 73 3a 20 70 65 72 6d 65 73   tensions: permes
0180  73 61 67 65 2d 64 65 66 6c 61 74 65 0d 0a 53 65   sage-deflate..Se
0190  63 2d 57 65 62 53 6f 63 6b 65 74 2d 4b 65 79 3a   c-WebSocket-Key:
01a0  20 57 2b 70 51 55 6e 78 74 66 79 49 6d 67 6c 43    W+pQUnxtfyImglC
01b0  65 70 55 49 78 64 77 3d 3d 0d 0a 43 6f 6e 6e 65   epUIxdw==..Conne
01c0  63 74 69 6f 6e 3a 20 6b 65 65 70 2d 61 6c 69 76   ction: keep-aliv
01d0  65 2c 20 55 70 67 72 61 64 65 0d 0a 50 72 61 67   e, Upgrade..Prag
01e0  6d 61 3a 20 6e 6f 2d 63 61 63 68 65 0d 0a 43 61   ma: no-cache..Ca
01f0  63 68 65 2d 43 6f 6e 74 72 6f 6c 3a 20 6e 6f 2d   che-Control: no-
0200  63 61 63 68 65 0d 0a 55 70 67 72 61 64 65 3a 20   cache..Upgrade: 
0210  77 65 62 73 6f 63 6b 65 74 0d 0a 0d 0a            websocket....

0000  00 00 5e 00 be ef f2 3c 92 4d a0 0a 08 00 45 00   ..^....<.M....E.
0010  00 34 5b e5 40 00 40 06 2c 8a ac 69 fd ef 31 cf   .4[.@.@.,..i..1.
0020  d6 2c 1f 40 58 6b d6 d5 58 05 bd 85 43 b4 80 10   .,.@Xk..X...C...
0030  01 fa b2 7b 00 00 01 01 08 0a f0 54 85 ac 28 99   ...{.......T..(.
0040  16 33                                             .3

0000  00 00 5e 00 be ef f2 3c 92 4d a0 0a 08 00 45 00   ..^....<.M....E.
0010  00 b5 5b e6 40 00 40 06 2c 08 ac 69 fd ef 31 cf   ..[.@.@.,..i..1.
0020  d6 2c 1f 40 58 6b d6 d5 58 05 bd 85 43 b4 80 18   .,.@Xk..X...C...
0030  01 fa b2 fc 00 00 01 01 08 0a f0 54 85 ad 28 99   ...........T..(.
0040  16 33 48 54 54 50 2f 31 2e 31 20 31 30 31 20 53   .3HTTP/1.1 101 S
0050  77 69 74 63 68 69 6e 67 20 50 72 6f 74 6f 63 6f   witching Protoco
0060  6c 73 0d 0a 55 70 67 72 61 64 65 3a 20 77 65 62   ls..Upgrade: web
0070  73 6f 63 6b 65 74 0d 0a 43 6f 6e 6e 65 63 74 69   socket..Connecti
0080  6f 6e 3a 20 55 70 67 72 61 64 65 0d 0a 53 65 63   on: Upgrade..Sec
0090  2d 57 65 62 53 6f 63 6b 65 74 2d 41 63 63 65 70   -WebSocket-Accep
00a0  74 3a 20 6a 76 7a 38 72 4a 30 79 4a 4e 2f 41 34   t: jvz8rJ0yJN/A4
00b0  4a 30 6b 69 5a 51 4c 69 69 66 70 51 4f 38 3d 0d   J0kiZQLiifpQO8=.
00c0  0a 0d 0a                                          ...

0000  f2 3c 92 4d a0 0a 52 50 d9 7c d8 57 08 00 45 00   .<.M..RP.|.W..E.
0010  00 34 00 00 40 00 36 06 92 6f 31 cf d6 2c ac 69   .4..@.6..o1..,.i
0020  fd ef 58 6b 1f 40 bd 85 43 b4 d6 d5 58 86 80 10   ..Xk.@..C...X...
0030  08 13 5f 2b 00 00 01 01 08 0a 28 99 16 4d f0 54   .._+......(..M.T
0040  85 ad                                             ..

Frame (80 bytes):
0000  f2 3c 92 4d a0 0a 52 50 d9 7c d8 57 08 00 45 00   .<.M..RP.|.W..E.
0010  00 42 00 00 40 00 36 06 92 61 31 cf d6 2c ac 69   .B..@.6..a1..,.i
0020  fd ef 58 6b 1f 40 bd 85 43 b4 d6 d5 58 86 80 18   ..Xk.@..C...X...
0030  08 13 21 a3 00 00 01 01 08 0a 28 99 3d 98 f0 54   ..!.......(.=..T
0040  85 ad 81 88 36 0d 29 16 51 68 5d 3b 42 64 44 73   ....6.).Qh];BdDs
Unmasked data (8 bytes):
0000  67 65 74 2d 74 69 6d 65                           get-time

0000  00 00 5e 00 be ef f2 3c 92 4d a0 0a 08 00 45 00   ..^....<.M....E.
0010  00 4a 5b e7 40 00 40 06 2c 72 ac 69 fd ef 31 cf   .J[.@.@.,r.i..1.
0020  d6 2c 1f 40 58 6b d6 d5 58 86 bd 85 43 c2 80 18   .,.@Xk..X...C...
0030  01 fa b2 91 00 00 01 01 08 0a f0 54 ad 15 28 99   ...........T..(.
0040  3d 98 81 14 7b 22 74 69 6d 65 22 3a 20 22 30 39   =...{"time": "09
0050  3a 34 33 3a 33 38 22 7d                           :43:38"}

0000  f2 3c 92 4d a0 0a 52 50 d9 7c d8 57 08 00 45 00   .<.M..RP.|.W..E.
0010  00 34 00 00 40 00 36 06 92 6f 31 cf d6 2c ac 69   .4..@.6..o1..,.i
0020  fd ef 58 6b 1f 40 bd 85 43 c2 d6 d5 58 9c 80 10   ..Xk.@..C...X...
0030  08 13 10 3c 00 00 01 01 08 0a 28 99 3d b0 f0 54   ...<......(.=..T
0040  ad 15                                             ..

Frame (80 bytes):
0000  f2 3c 92 4d a0 0a 52 50 d9 7c d8 57 08 00 45 00   .<.M..RP.|.W..E.
0010  00 42 00 00 40 00 36 06 92 61 31 cf d6 2c ac 69   .B..@.6..a1..,.i
0020  fd ef 58 6b 1f 40 bd 85 43 c2 d6 d5 58 9c 80 18   ..Xk.@..C...X...
0030  08 13 15 80 00 00 01 01 08 0a 28 99 64 25 f0 54   ..........(.d%.T
0040  ad 15 81 88 a2 f4 f0 d0 c5 91 84 fd d6 9d 9d b5   ................
Unmasked data (8 bytes):
0000  67 65 74 2d 74 69 6d 65                           get-time

0000  00 00 5e 00 be ef f2 3c 92 4d a0 0a 08 00 45 00   ..^....<.M....E.
0010  00 4a 5b e8 40 00 40 06 2c 71 ac 69 fd ef 31 cf   .J[.@.@.,q.i..1.
0020  d6 2c 1f 40 58 6b d6 d5 58 9c bd 85 43 d0 80 18   .,.@Xk..X...C...
0030  01 fa b2 91 00 00 01 01 08 0a f0 54 d3 ae 28 99   ...........T..(.
0040  64 25 81 14 7b 22 74 69 6d 65 22 3a 20 22 30 39   d%..{"time": "09
0050  3a 34 33 3a 34 38 22 7d                           :43:48"}

0000  f2 3c 92 4d a0 0a 52 50 d9 7c d8 57 08 00 45 00   .<.M..RP.|.W..E.
0010  00 34 00 00 40 00 36 06 92 6f 31 cf d6 2c ac 69   .4..@.6..o1..,.i
0020  fd ef 58 6b 1f 40 bd 85 43 d0 d6 d5 58 b2 80 10   ..Xk.@..C...X...
0030  08 13 c2 f0 00 00 01 01 08 0a 28 99 64 3e f0 54   ..........(.d>.T
0040  d3 ae                                             ..

Frame (80 bytes):
0000  f2 3c 92 4d a0 0a 52 50 d9 7c d8 57 08 00 45 00   .<.M..RP.|.W..E.
0010  00 42 00 00 40 00 36 06 92 61 31 cf d6 2c ac 69   .B..@.6..a1..,.i
0020  fd ef 58 6b 1f 40 bd 85 43 d0 d6 d5 58 b2 80 18   ..Xk.@..C...X...
0030  08 13 0f 52 00 00 01 01 08 0a 28 99 8b 59 f0 54   ...R......(..Y.T
0040  d3 ae 81 88 a6 91 34 fd c1 f4 40 d0 d2 f8 59 98   ......4...@...Y.
Unmasked data (8 bytes):
0000  67 65 74 2d 74 69 6d 65                           get-time

0000  00 00 5e 00 be ef f2 3c 92 4d a0 0a 08 00 45 00   ..^....<.M....E.
0010  00 4a 5b e9 40 00 40 06 2c 70 ac 69 fd ef 31 cf   .J[.@.@.,p.i..1.
0020  d6 2c 1f 40 58 6b d6 d5 58 b2 bd 85 43 de 80 18   .,.@Xk..X...C...
0030  01 fa b2 91 00 00 01 01 08 0a f0 54 fa e9 28 99   ...........T..(.
0040  8b 59 81 14 7b 22 74 69 6d 65 22 3a 20 22 30 39   .Y..{"time": "09
0050  3a 34 33 3a 35 38 22 7d                           :43:58"}

0000  f2 3c 92 4d a0 0a 52 50 d9 7c d8 57 08 00 45 00   .<.M..RP.|.W..E.
0010  00 34 00 00 40 00 36 06 92 6f 31 cf d6 2c ac 69   .4..@.6..o1..,.i
0020  fd ef 58 6b 1f 40 bd 85 43 de d6 d5 58 c8 80 10   ..Xk.@..C...X...
0030  08 12 74 5f 00 00 01 01 08 0a 28 99 8b 71 f0 54   ..t_......(..q.T
0040  fa e9                                             ..

Frame (74 bytes):
0000  f2 3c 92 4d a0 0a 52 50 d9 7c d8 57 08 00 45 00   .<.M..RP.|.W..E.
0010  00 3c 00 00 40 00 36 06 92 67 31 cf d6 2c ac 69   .<..@.6..g1..,.i
0020  fd ef 58 6b 1f 40 bd 85 43 de d6 d5 58 c8 80 18   ..Xk.@..C...X...
0030  08 12 7c db 00 00 01 01 08 0a 28 99 b2 f3 f0 54   ..|.......(....T
0040  fa e9 88 82 19 db 13 62 1a 32                     .......b.2
Unmasked data (2 bytes):
0000  03 e9                                             ..

0000  00 00 5e 00 be ef f2 3c 92 4d a0 0a 08 00 45 00   ..^....<.M....E.
0010  00 36 5b ea 40 00 40 06 2c 83 ac 69 fd ef 31 cf   .6[.@.@.,..i..1.
0020  d6 2c 1f 40 58 6b d6 d5 58 c8 bd 85 43 e6 80 18   .,.@Xk..X...C...
0030  01 fa b2 7d 00 00 01 01 08 0a f0 55 22 8e 28 99   ...}.......U".(.
0040  b2 f3 88 00                                       ....

0000  f2 3c 92 4d a0 0a 52 50 d9 7c d8 57 08 00 45 00   .<.M..RP.|.W..E.
0010  00 34 00 00 40 00 36 06 92 6f 31 cf d6 2c ac 69   .4..@.6..o1..,.i
0020  fd ef 58 6a 1f 40 16 b7 23 0d 86 b9 88 94 80 11   ..Xj.@..#.......
0030  08 08 aa 89 00 00 01 01 08 0a 28 99 b2 f4 f0 54   ..........(....T
0040  85 36                                             .6

0000  f2 3c 92 4d a0 0a 52 50 d9 7c d8 57 08 00 45 00   .<.M..RP.|.W..E.
0010  00 34 00 00 40 00 36 06 92 6f 31 cf d6 2c ac 69   .4..@.6..o1..,.i
0020  fd ef 58 6b 1f 40 bd 85 43 e6 d6 d5 58 c8 80 11   ..Xk.@..C...X...
0030  08 12 4c d3 00 00 01 01 08 0a 28 99 b2 f4 f0 54   ..L.......(....T
0040  fa e9                                             ..

0000  00 00 5e 00 be ef f2 3c 92 4d a0 0a 08 00 45 00   ..^....<.M....E.
0010  00 34 5b eb 40 00 40 06 2c 84 ac 69 fd ef 31 cf   .4[.@.@.,..i..1.
0020  d6 2c 1f 40 58 6b d6 d5 58 ca bd 85 43 e7 80 11   .,.@Xk..X...C...
0030  01 fa b2 7b 00 00 01 01 08 0a f0 55 22 92 28 99   ...{.......U".(.
0040  b2 f4                                             ..

0000  00 00 5e 00 be ef f2 3c 92 4d a0 0a 08 00 45 00   ..^....<.M....E.
0010  00 34 9f c5 40 00 40 06 e8 a9 ac 69 fd ef 31 cf   .4..@.@....i..1.
0020  d6 2c 1f 40 58 6a 86 b9 88 94 16 b7 23 0e 80 11   .,.@Xj......#...
0030  01 fb b2 7b 00 00 01 01 08 0a f0 55 22 92 28 99   ...{.......U".(.
0040  b2 f4                                             ..

0000  f2 3c 92 4d a0 0a 52 50 d9 7c d8 57 08 00 45 00   .<.M..RP.|.W..E.
0010  00 28 00 00 40 00 36 06 92 7b 31 cf d6 2c ac 69   .(..@.6..{1..,.i
0020  fd ef 58 6b 1f 40 bd 85 43 e6 00 00 00 00 50 04   ..Xk.@..C.....P.
0030  00 00 84 74 00 00                                 ...t..

0000  f2 3c 92 4d a0 0a 52 50 d9 7c d8 57 08 00 45 00   .<.M..RP.|.W..E.
0010  00 28 00 00 40 00 36 06 92 7b 31 cf d6 2c ac 69   .(..@.6..{1..,.i
0020  fd ef 58 6b 1f 40 bd 85 43 e7 00 00 00 00 50 04   ..Xk.@..C.....P.
0030  00 00 84 73 00 00                                 ...s..

0000  f2 3c 92 4d a0 0a 52 50 d9 7c d8 57 08 00 45 00   .<.M..RP.|.W..E.
0010  00 34 00 00 40 00 36 06 92 6f 31 cf d6 2c ac 69   .4..@.6..o1..,.i
0020  fd ef 58 6a 1f 40 16 b7 23 0e 86 b9 88 95 80 10   ..Xj.@..#.......
0030  08 08 0d 12 00 00 01 01 08 0a 28 99 b3 0e f0 55   ..........(....U
0040  22 92                                             ".


$ tshark -nr pcap/wsapp.pcap
    1   0.000000 2021-06-06 09:43:28.569426 78 49.207.214.44  172.105.253.239 TCP 78 22634  8000 [SYN] Seq=0 Win=65535 Len=0 MSS=1452 WS=64 TSval=681121158 TSecr=0 SACK_PERM=1
    2   0.000040 2021-06-06 09:43:28.569466 74 172.105.253.239  49.207.214.44 TCP 74 8000  22634 [SYN, ACK] Seq=0 Ack=1 Win=65160 Len=0 MSS=1460 SACK_PERM=1 TSval=4032070904 TSecr=681121158 WS=128
    3   0.028157 2021-06-06 09:43:28.597583 66 49.207.214.44  172.105.253.239 TCP 66 22634  8000 [ACK] Seq=1 Ack=1 Win=132480 Len=0 TSval=681121185 TSecr=4032070904
    4   0.030178 2021-06-06 09:43:28.599604 411 49.207.214.44  172.105.253.239 HTTP 411 GET / HTTP/1.1 
    5   0.030229 2021-06-06 09:43:28.599655 66 172.105.253.239  49.207.214.44 TCP 66 8000  22634 [ACK] Seq=1 Ack=346 Win=64896 Len=0 TSval=4032070934 TSecr=681121185
    6   0.032219 2021-06-06 09:43:28.601645 183 172.105.253.239  49.207.214.44 TCP 183 HTTP/1.1 200 OK  [TCP segment of a reassembled PDU]
    7   0.062122 2021-06-06 09:43:28.631548 66 49.207.214.44  172.105.253.239 TCP 66 22634  8000 [ACK] Seq=346 Ack=118 Win=132352 Len=0 TSval=681121215 TSecr=4032070936
    8   0.062154 2021-06-06 09:43:28.631580 785 172.105.253.239  49.207.214.44 HTTP 785 HTTP/1.1 200 OK  (text/html)
    9   0.090246 2021-06-06 09:43:28.659672 66 49.207.214.44  172.105.253.239 TCP 66 22634  8000 [ACK] Seq=346 Ack=837 Win=131584 Len=0 TSval=681121245 TSecr=4032070966
   10   0.153568 2021-06-06 09:43:28.722994 78 49.207.214.44  172.105.253.239 TCP 78 22635  8000 [SYN] Seq=0 Win=65535 Len=0 MSS=1452 WS=64 TSval=681121307 TSecr=0 SACK_PERM=1
   11   0.153600 2021-06-06 09:43:28.723026 74 172.105.253.239  49.207.214.44 TCP 74 8000  22635 [SYN, ACK] Seq=0 Ack=1 Win=65160 Len=0 MSS=1460 SACK_PERM=1 TSval=4032071058 TSecr=681121307 WS=128
   12   0.179607 2021-06-06 09:43:28.749033 66 49.207.214.44  172.105.253.239 TCP 66 22635  8000 [ACK] Seq=1 Ack=1 Win=132480 Len=0 TSval=681121331 TSecr=4032071058
   13   0.179660 2021-06-06 09:43:28.749086 541 49.207.214.44  172.105.253.239 HTTP 541 GET /time HTTP/1.1 
   14   0.179675 2021-06-06 09:43:28.749101 66 172.105.253.239  49.207.214.44 TCP 66 8000  22635 [ACK] Seq=1 Ack=476 Win=64768 Len=0 TSval=4032071084 TSecr=681121331
   15   0.180765 2021-06-06 09:43:28.750191 195 172.105.253.239  49.207.214.44 HTTP 195 HTTP/1.1 101 Switching Protocols 
   16   0.204836 2021-06-06 09:43:28.774262 66 49.207.214.44  172.105.253.239 TCP 66 22635  8000 [ACK] Seq=476 Ack=130 Win=132288 Len=0 TSval=681121357 TSecr=4032071085
   17  10.268215 2021-06-06 09:43:38.837641 80 49.207.214.44  172.105.253.239 WebSocket 80 WebSocket Text [FIN] [MASKED]
   18  10.268716 2021-06-06 09:43:38.838142 88 172.105.253.239  49.207.214.44 WebSocket 88 WebSocket Text [FIN] 
   19  10.292970 2021-06-06 09:43:38.862396 66 49.207.214.44  172.105.253.239 TCP 66 22635  8000 [ACK] Seq=490 Ack=152 Win=132288 Len=0 TSval=681131440 TSecr=4032081173
   20  20.148346 2021-06-06 09:43:48.717772 80 49.207.214.44  172.105.253.239 WebSocket 80 WebSocket Text [FIN] [MASKED]
   21  20.148731 2021-06-06 09:43:48.718157 88 172.105.253.239  49.207.214.44 WebSocket 88 WebSocket Text [FIN] 
   22  20.173047 2021-06-06 09:43:48.742473 66 49.207.214.44  172.105.253.239 TCP 66 22635  8000 [ACK] Seq=504 Ack=174 Win=132288 Len=0 TSval=681141310 TSecr=4032091054
   23  30.191594 2021-06-06 09:43:58.761020 80 49.207.214.44  172.105.253.239 WebSocket 80 WebSocket Text [FIN] [MASKED]
   24  30.191989 2021-06-06 09:43:58.761415 88 172.105.253.239  49.207.214.44 WebSocket 88 WebSocket Text [FIN] 
   25  30.217306 2021-06-06 09:43:58.786732 66 49.207.214.44  172.105.253.239 TCP 66 22635  8000 [ACK] Seq=518 Ack=196 Win=132224 Len=0 TSval=681151345 TSecr=4032101097
   26  40.339592 2021-06-06 09:44:08.909018 74 49.207.214.44  172.105.253.239 WebSocket 74 WebSocket Connection Close [FIN] [MASKED]
   27  40.339938 2021-06-06 09:44:08.909364 68 172.105.253.239  49.207.214.44 WebSocket 68 WebSocket Connection Close [FIN] 
   28  40.341417 2021-06-06 09:44:08.910843 66 49.207.214.44  172.105.253.239 TCP 66 22634  8000 [FIN, ACK] Seq=346 Ack=837 Win=131584 Len=0 TSval=681161460 TSecr=4032070966
   29  40.342837 2021-06-06 09:44:08.912263 66 49.207.214.44  172.105.253.239 TCP 66 22635  8000 [FIN, ACK] Seq=526 Ack=196 Win=132224 Len=0 TSval=681161460 TSecr=4032101097
   30  40.343722 2021-06-06 09:44:08.913148 66 172.105.253.239  49.207.214.44 TCP 66 8000  22635 [FIN, ACK] Seq=198 Ack=527 Win=64768 Len=0 TSval=4032111250 TSecr=681161460
   31  40.343835 2021-06-06 09:44:08.913261 66 172.105.253.239  49.207.214.44 TCP 66 8000  22634 [FIN, ACK] Seq=837 Ack=347 Win=64896 Len=0 TSval=4032111250 TSecr=681161460
   32  40.363955 2021-06-06 09:44:08.933381 54 49.207.214.44  172.105.253.239 TCP 54 22635  8000 [RST] Seq=526 Win=0 Len=0
   33  40.367942 2021-06-06 09:44:08.937368 54 49.207.214.44  172.105.253.239 TCP 54 22635  8000 [RST] Seq=527 Win=0 Len=0
   34  40.371528 2021-06-06 09:44:08.940954 66 49.207.214.44  172.105.253.239 TCP 66 22634  8000 [ACK] Seq=347 Ack=838 Win=131584 Len=0 TSval=681161486 TSecr=4032111250
